:400000000080002011000000B5050000B505000008B500F0EFFAC04638B512222E4B1A6000F0F4FF2D4801F023FC012001F00EF8302000F005FF2A4A2A4B1A602A4C8025A9
:40004000ED052560294A116802230B431360284A284B1A600022284B1A60284A136808218B431360FA20C00000F09CFF244800F0DDFE244A244B1A60244B254919602549BB
:400080000A60254A1A60C621C901244A1160244A1A60D0214902234A1160234A1A6080221206224B1A608022D202214B1A604222204B1A600132204B1A60033A1F4B1A60F5
:4000C00001321F4B1A6008201E4900F085FE082000F076FE256038BD30001040001BB7000600008004010B400C020B4078002E402D3E00007C002E4064F02E406CF02E4099
:40010000DC050000007FBB00080301400000014042FF00800C03014043FF00800003014040FF00800403014041FF008008010B4000010B402C010140200101401C0101406B
:40014000040101406511000010B572B60022384B1A600132374B1A70002410E0364863001A195200821891881B195B001A5AC31858880004104300F0B5FA0134E4B2012C9F
:40018000ECD92D49081C0C30303100F081FAEE2212062A4B1A6099231B04294A13600321284A1160022228490A6028490B6028490B6028490B60802040022749086027493C
:4001C0000B6080218902264B1960264B1A60264B1A60264B1A60264B19780A431A70254802783C218A4328390A430270197816220A431A70D82212041F4B1A6020231F4A73
:400200001360C42189021E4A11601E4A136041221D4B1A601D4A1E4B1A6001221D4B1A601D4A1E4B1A60FFF7F7FE00F04BFA10BD6CF02E401C700F406C5F010000000240A9
:4002400000010240000202400003024000500F4010500F4020500F4028500F4030500F4038500F403C500F402000104000800F4000700F4001700F4008000440000104400E
:400280000801044018010440000204400600180008020440000304400200C0000803044010B5064C2378002B07D1054B002B02D0044800E000BF0123237010BD8810002061
:4002C00000000000485F010008B5084B002B03D00748084900E000BF07480368002B00D108BD064B002BFBD09847F9E700000000485F01008C100020A80B00200000000051
:4003000008B50122024B1A60012000F0F3FF08BD7022002000B585B0074B1B78022B09D101A813330381143B83800021034A002310F0ECFC05B000BDD0220020D8220020EA
:4003400000B585B000F0ECF9434243416A46D3700332084B1B78022B0AD101A80C3303810192012383800021034A002310F0CEFC05B000BDD0220020D822002000B585B096
:40038000144B1B78022B23D101A80F330381124B0193022383800021104A002310F0B6FC0F4B1B68002B0ED00B4B1B880D4A12889BB2934207D0094A137850780002184386
:4003C00001A90FF039FE044B1B889BB2054A138005B000BDD022002074220020D8220020782200207622002038B50C1C282808D002D8012805D079E041280ED04C2816D027
:4004000074E000233A4A13603A4A1360002000F029FA002000F06CF968E0FFF77BFFFFF78FFFFFF7ABFF012000F062F95EE08B89152B2CD1081D00212F4A2B3310F066FC59
:40044000002824D163681B78052B19D89B002B4AD3589F462A4800F0E7FE11E0294800F0E3FE0DE0284800F0DFFE284800F0DCFE06E0274800F0D8FE02E0264800F0D4FEB5
:400480001D4A13785078000218430FF02BFEA3890E2B15D1201D0021174A323310F036FC00280DD163681B7858425841C0B200F02BF9114A13785078000218430FF012FE25
:4004C000A389122B12D1201D0B4D00212A1C2E3310F01CFC63681B7801221340044A13602B786878000218430FF0FCFD38BDC046782200207C220020D82200204C5F010095
:40050000DB100000FE1000001711000049110000621100007B11000000B583B062B61F4800F016FF00F0D6FE01F01CF901F042F801221B4B1A6000221A4B1A801A4800F06A
:4005400039F9002000F070FE154B1B68012B04D10022134B1A6000F087FF144B1B78002B15D000F09DFF002001F018F880B20D4B18801A8892B268460D4901F089FC684698
:4005800001F068F9FFF7FAFE0122054B1A6002F0B3F8032002F0A8F8D6E7C046010300007022002074220020E9030000A0220020645F010008B501F01FFC03680C2B00D1BF
:4005C000FEE7FEE708B5031C084A1068C318084A9A1A802A02DC054A136005E001F00CFC0C2303600120404208BDC046AC0B0020E822002070B50F4E0F4D13E029686B684C
:40060000AC68002202E001C901C30432A242FAD1E868002202E0002102C304328242FAD11035013E002EE9D101F0ECFBFFF774FFFEE7C046010000005464010008B50F4AC8
:40064000136801218B43136000230AE0032B03D89A000B49505800E00A4899000A4A885001332F2BF2D9FFF76FFD0022074B1A60024A116801230B43136008BD0000104091
:4006800000000000B505000000000020C0000020F0B50025002711E0BB00C658F3B2FF22964308E06A008A181478A419527822700135013BDBB2002BF4D10137082FEBD96B
:4006C000F0BDC0460323044A1360044A13600022034B1A607047C0463000304030003140000E3F4008B50A1C002101F0C9FB08BD044A11687F230B40C001C0B218431060FA
:400700007047C0460003044004490A68BF231A4080017F3B184010430860704700020440024B18684006C00F7047C0460402044008B500F03BFB08BD10B50022144B1A700E
:40074000144B1A70144B1A70144B1A701449488C144B1880888C5880203188791873C97919710621D9812231198200245A82FA2189009982DA82013A1A831F320A4B1A805F
:40078000FFF7D6FF094B1C70094B1C7010BDC046DC220020D4220020DB220020DA220020B00B0020B0220020CA220020A4220020AC22002010B590B0041C0BA8204914224A
:4007C00001F055FB20231F4AD35C002B05D1FFF7B3FF012120231B4AD154002C2DD01A4B1C6008A805AA426006AB0893002101811B311980598017391971082313701231C2
:40080000694402F055F8002818D1052300930F4B01930F4B02930F480F49AE2212010BAB01F09CFF002809D101220C4B1A700C4816210A3210F052FA00E0012010B010BDA8
:4008400018610100A4100020A8220020006D010079020000690A0000C8000020D02200202C61010008B502282ED81B4B1B78062B2CD11A4B1B785B072BD4002809D1184B8A
:4008800000229A872032196B0A801B6B10325A800CE001280AD1124B96229A87C822D200196B0A801B6B8022D2015A800D4B18700B482C300EF050FA00280CD1074A117878
:4008C00004230B43137006E0012004E00420FF3001E00420FF3008BDD0220020DC220020B00B0020DB2200207047C04608B5022820D8002806D1104B1E221A8512325A84AA
:400900009A8409E0012807D10B4B96221A85802212015A84F83A9A84084B1870064820300EF0ACF9002806D1054A117804230B43137000E0012008BDB00B0020DA22002077
:40094000DC22002010B50B4B1B78052B0ED10EF087F9041C084B1B88002B01D00BF0FEF8002C05D10622034B1A7001E00424FF34201C10BDD0220020CA2200200378407883
:40098000000218437047C04638B583890B2B20D1041C04300021221C353310F0B7F9051E11D16068FFF7EAFF830706D50A4B1B6882204000211C984705E0074B1B6806206B
:4009C000FF30211C9847054A137801218B43137000E00025281C38BDA8220020DC220020024B00225A701A707047C046D822002008B50378042B05D1034B1B78052B01D15F
:400A0000FFF7A0FF08BDC046D022002010B582B0041CFFF7B9FF0A4B1B78DB070ED4002809D001A912238B70A3890B80C87020680FF0C4FA02E020680FF054FB02B010BD8D
:400A4000DC2200208379002B07D000200BE0C25C002A07D10133DBB200E00023052BF6D9002000E001207047F0B583B0041C0D1CBA4A117801230B431370272800D1CAE027
:400A800016D8062800D189E008D802287ED0052800D17FE0012800D04FE121E0242800D1B5E0262800D1C4E0212800D045E189E0422800D12DE109D82B2800D1E2E041286B
:400AC00000D112E1282800D037E1AEE04C2800D12AE1FA2800D12BE1432800D02DE11BE101AE0727377000237370301C03F04AFE377001237370301C03F044FE984B1E682F
:400B0000301CFFF79FFF00280CD0301C01F0F8FD934E30680021FFF7E7FE30680121FFF7E3FE25E08F4B1B788F4A12783F210A4092010B4013438D4A127820390A401203CD
:400B400013438B4A127860310A4052041343894E33701A0A72701B0CB370301C01F0D0FD301C0021FFF7C0FE301C0121FFF7BCFE00200DF04BFF01A83F230370002343706B
:400B80000DF062FF06227C4B1A70D6E0281CFFF72FFFD2E02A78794B1A70CEE02B78002B00D0CAE06B78002B06D1754B0022DA809A80744A1A606B60684A137801218B433D
:400BC0001370BAE0654B1B789B0600D5B5E06E4B1B78102B02D105226B4BDA706B4B187869490EF077F801AB1880002804D0684B1B68362001A99847584A117801230B43B2
:400C00001370624B187860490DF0C4FC95E06A78604B1A7091E0604B1B88002B01D00AF09DFF0222544B1A7087E00622524B1A7083E0514B1B78022B00D17EE0474A1278A5
:400C4000D2077AD5454A1278520708D503224A4B1A70424A137804218B4313706DE03F4A1278120708D50622434B1A703B4A137808218B43137060E0032B5ED106223E4BBE
:400C80001A705AE03C4B1B78022B56D0334A1278D20752D5314A1278520707D50421364B19702E4A13788B43137046E02B4A1278120708D50622304B1A70284A13780821D1
:400CC0008B43137039E0042B37D106222A4B1A70324B1B78002B30D10120FFF707FE00282BD10422244B1A7027E0284E301C291C022201F0BCF80022204B1A7031789E312B
:400D00008900274B591801312648043201F0AFF813E0FFF765FE10E06988162900D9172128880FF055F908E0281CFFF76FFE04E01D4A117801230B431370084B1A781123EE
:400D40001A4209D0054A137801218B431370104B1B68201C291C984703B0F0BDDC220020F00B00207CF2FF0F7DF2FF0F7BF2FF0F78F2FF0FF40B0020D0220020D4220020E7
:400D8000C8100020A80B0020C40C0020D8220020A8220020AC220020CA220020DA220020006D0100CC220020A42200207047C046024B1B68012018407047C0460C002E40BF
:400DC0001F2318401E3B8340181C014B1860704700E100E001BE704738B5041C0D1C1F2802D90020FFF7F6FFA400034B9C4664442068256038BDC0464000002010B5041C2B
:400E000006E0084B586800F033FD074B9C46644480231B029C42F4D8024B9868604300F027FD10BDCC0C00200080FFFF08B5034B1B7B584300F01CFD08BDC046CC0C002004
:400E4000F0B557464E46C0B483B0041C00F019FD0190E71E2D2F74D83F4B1B78DBB2A34208D33E4B1B78DBB29A463D4B1B78DBB2994631E03B4B1B78DBB2A34208D33A4B1B
:400E80001B78DBB29A46394B1B78DBB2994623E0374B1B78DBB2A34208D3364B1B78DBB29A46354B1B78DBB2994615E0334B1B78DBB2A34208D3324B1B78DBB29A46314BFE
:400EC0001B78DBB2994607E02F4B1B78DBB29A462E4B1B78DBB299462D4BDE5D2F2E09D92A2C07D919222B4B1A60052000F0C0FC192503E0274B1D683F231D40AE4206D257
:400F0000234BDA5D234B1A60052000F0B1FC1F4B9C4664442378DBB21F4A13601F4B52461A601F4B4A461A600520FFF77FFFAE420AD9174BDA5D174B1A60052000F098FCF0
:400F400002E00020FFF746FF019800F09EFC03B00CBC91469A46F0BD40F3FF0F41F3FF0F42F3FF0F43F3FF0F44F3FF0F45F3FF0F46F3FF0F47F3FF0F48F3FF0F49F3FF0F7B
:400F80004AF3FF0F4BF3FF0F4CF3FF0F4DF3FF0F2C6301002CFF0B4028FF0B401CFF0B4020FF0B4010B5041C0F4A116801230B4313600E4A0E4B1A600E4A13688021090271
:400FC0000B431360002809D100200CE00120FFF72DFFFFF7EDFE002804D1013C002CF5D1102000E0002010BD60F02E400220000078002E4010002E40034B1868C0231B02C3
:40100000184000D00120704700010B4010B50D4B1A6801218A431A601A68022082431A60094A10683024A043203C204310601068093CA043014311601A68802109060A4374
:401040001A6010BD00F02E4000FF2E4038B51D4B1B6801241C40002802D0012816D02BE0184B19680122914319601968022081431960154B19682E308143203801431960A5
:401080001968093881430A431A6018E00D4B1A6802218A431A600C4A10680725A84301431160116830208143103801431160196801220A431A6002E00020FFF78BFE201C5B
:4010C00038BDC04600F02E4000FF2E4008B500F0D8FB044A1368C02109020B43136000F0D4FB08BD00010B4010B500F0CAFB08490A68084B1A408024E40122430A600A68B0
:4011000013408022120213430B6000F0BEFB10BD00010B40FF3FFFFF70B5061C00F0B1FB041CFFF769FF002803D0FFF7DDFF012500E000250848331C0340084A1068084991
:401140000840184310601368012D01D1FFF7BEFF201C00F09AFB70BD0404040010020B40FBFBFBFF10B5244B1B685B0715D5234B5B685B070ED5224B596A042001401F4C6E
:4011800062688A4362605A6A82435A629B69002B00D098470420FFF7BFFF174B1B685B0518D5164B5B685B0510D5154B596A8022D2001140114842688A434260596A114AC8
:4011C0000A405A62DB69002B00D098478020C000FFF7A2FF084B1B685B030CD5074B5B685B0304D5064B1B6A002B00D098478020C002FFF791FF10BD10020B40E00C0020A5
:40120000D0100020FFFBFFFF0004000C014B18607047C046080120400004000C014B18607047C046140120400004000C014B18607047C0460C01204038B5041C0D1C00F092
:4012400020FBAC40024B1C6000F01FFB38BDC0460800204008B500F014FB064A116801230B43136000F011FB01201821FFF7E4FF08BDC04600002040014B18607047C046EC
:401280003801204010B50F4C8023DB042360236880229202134323600120FFF7B5FF236823600C22084B1A600120FFF7E5FF1222064B1A6096204001FFF7AEFF0448FFF72C
:4012C000B3FF10BD000120402401204028012040A811000008B5064B1B78002B04D1FFF7D1FF0122024B1A70FFF7B4FF08BDC046F8100020014B18607047C04670012040F8
:401300008823014AD05070470000002010B5041C00F0B7FA044A1168044B0B40A4051C43146000F0B2FA10BD10E400E0FFFF3FFF8022D202014B1A607047C04600E100E02A
:401340008022D202014B1A607047C04680E100E010B5041CFFF7F4FF201CFFF7D1FF0320FFF7D4FFFFF7E4FF10BDC0460122014B1A707047A022002008B51420FFF756FDFF
:40138000FF2000F09DF9002000F028F90A20FFF74DFD012000F022F90520FFF747FD002000F08EF9002000F019F900F01DF908BD10B5041C1420FFF739FD002000F00EF982
:4013C000002C03D13220FFF731FD02E00A20FFF72DFD012000F002F910BDC04638B5051CFF2000F06DF9002407E02B1C234101201840FFF7DDFF0134E4B2072CF5D938BD27
:4014000010B5002408E0A3001548C0181549042200F02DFD0134E4B2072CF4D9002000F0DDF8FF2000F04CF9F0204000FFF7FEFC012000F0D3F80520FFF7F8FC002000F026
:401440003FF9002000F0CAF83720FFF7EFFC00F0CBF8041CC820FFF7E9FCE043C0B210BD802200205C63010008B5FFF7C9FF031E094A107003D10121084A11700AE0CC20A2
:40148000FFF7ACFF4420FFF7A9FF012000F01EF9014B1B78181C08BDDD220020A022002070B588B0002300930193029303930493059306930793344B1D78EDB2002D60D044
:4014C00000221A70314B1D78002D5AD0FFF798FF051E2E4B187054D0002308E0291C19419A00012001406A4491700133DBB2002BF4D0CC20FFF772FFBE20FFF76FFF002445
:4015000019E0FFF739FF002311E09A006A449278002A0AD0021C1A4101210A40A24099006E468E5B32436E468A530133DBB2002BEBD00134E4B20B2CE3D900241FE0211C52
:40154000A3006B449B78002B0CD0A3006A469B5A0F4A93420AD9A2000E48844663446846135203E0A3000B4A68461A5289000A4840186944042200F07AFC0134E4B2072CCB
:40158000DDD9281C08B070BDA0220020DD220020FF07000000F0FFFF802200208000044B185E642358430830000900B27047C0468022002008B5064800F0B2F8054800F0DA
:4015C00039F800F06DF80022034B1A7008BDC0466D130000EE020000A0220020014B18707047C04670000F40014B1878C0B2704763000F40024A117880230B431370704747
:4016000072000F40014B18707047C04682000F40014B1878C0B2704762000F40014B18807047C04644100F40014B188880B2704784100F40014B18807047C04604100F40D1
:40164000024A117810230B431370704772000F4008B501E0FFF7E8FFFFF7DAFF0307F9D408BDC04610B50C4C201CFFF7D7FF201CFFF7E0FF00F005F9084A117810230B43AD
:40168000137000F002F9FFF7DBFFFFF7E1FF0020FFF7B8FF10BDC046ED02000092000F4008B5064B1B78002B04D1FFF7DBFF0122024B1A70FFF79EFF08BDC046F9100020B4
:4016C000014B18707047C04673000F40014B18707047C04671000F40014B58647047C0460000002010B5041C00F0CBF8044A1168044B0B40A4031C43146000F0C6F810BD73
:4017000000E400E0FF3FFFFF0222014B1A60704700E100E00222014B1A60704780E100E010B5041CFFF7F6FF201CFFF7D5FF0320FFF7D8FFFFF7E8FF10BDC04608B500F042
:4017400073F808BD08B500F01DF808BD08B5044A1368802109060B431360FFF7EFFF08BD0000244008B5064B1B78002B04D1FFF7E9FF0122024B1A70FFF7E8FF08BDC0468D
:40178000FA10002010B5154A154B1A600023154A13600121144A1160144A15480260072414480460144803601448016014490A60144A13600421144A1160144A1360144ADC
:4017C0001360144A1360144A1360144A1360144A13601268134B1A8010BDC0460B0000020000244040002440480024400700008000032440040324401003244044002440B4
:40180000000224400402244050002440880E2440C80E2440480F2440080F2440C80F2440880F2440FC100020064A1168064B0B40902109040B431360044B1A88044B1A60BA
:401840007047C04600010240FFFF0FFFFC100020880F244038B5051C002402E000F018F80134285D0028F9D138BDC046000000000230800803D00138FDD1C046C046C046D4
:401880007047EFF3108072B6704780F310887047044B1B681F221340082BF9D0024B18607047C04608022440400224400160704701607047324B1A781202324B1B781A43A6
:4018C000314B1B781B02314909780B4330498B4201D1072A06D0D42109018B4206D1042A04D102E02B4B042200E02A4B2A490B602A4B1A602A4B1B781B022A4A1278134395
:4019000080229201934202D0002B02D002E0264B00E0254B254A1360254B1B781B02254A12781343244A934205D0244A934204D0052B05D103E0224B02E0214B00E0204BBC
:40194000204A1360204B1B681B09204A1268AA2A15D1012B13D9164B1B780E2B0FD11C4B1B781B021B4A127813431B4A13601B4B1B781B021A4A127813431A4A1360704799
:4019800059F1FF0F58F1FF0F5FF1FF0F5EF1FF0F580B0000580D00006C002E4074002E405BF1FF0F5AF1FF0F0220000078002E405DF1FF0F5CF1FF0F0F0F0000050500009F
:4019C000050F000080002E40EC0F00F0E00F00F06DF2FF0F6CF2FF0F84002E406FF2FF0F6EF2FF0F94002E4008B5FFF71FFA08BD08B5FFF703FA08BD08B500F04BF808BDB6
:401A000008B500F04FF808BD08B500F04BF8034800F02AF8032000F02DF808BDED1A000008B5024800F046F808BDC046ED1A000000487047020200002B2070472B2070478E
:401A40002B2070472B2070472B2070472B2070472B2070472B2070472B2070472B2070472B2070477047C046014B18677047C0460000002010B5041CFFF703FF044A136849
:401A8000C0218B43A4011C431460FFF7FEFE10BD0CE400E080225201014B1A607047C04600E100E080225201014B1A607047C04680E100E010B5041CFFF7F4FF201CFFF77E
:401AC000D3FF0320FFF7D6FFFFF7E4FF10BDC04608B5FFF7D6FE044A136804218B43136030BFFFF7D2FE08BD10ED00E008B514F017FA08BD002243088B4274D303098B427C
:401B00005FD3030A8B4244D3030B8B4228D3030C8B420DD3FF22090212BA030C8B4202D31212090265D0030B8B4219D300E0090AC30B8B4201D3CB03C01A5241830B8B4224
:401B400001D38B03C01A5241430B8B4201D34B03C01A5241030B8B4201D30B03C01A5241C30A8B4201D3CB02C01A5241830A8B4201D38B02C01A5241430A8B4201D34B02B7
:401B8000C01A5241030A8B4201D30B02C01A5241CDD2C3098B4201D3CB01C01A524183098B4201D38B01C01A524143098B4201D34B01C01A524103098B4201D30B01C01AEC
:401BC0005241C3088B4201D3CB00C01A524183088B4201D38B00C01A524143088B4201D34B00C01A5241411A00D20146524110467047FFE701B5002000F0FCF802BDC0466D
:401C00000029F7D003B5FFF775FF0EBC4243891A1847C04603460B437FD4002243088B4274D303098B425FD3030A8B4244D3030B8B4228D3030C8B420DD3FF22090212BA4A
:401C4000030C8B4202D31212090265D0030B8B4219D300E0090AC30B8B4201D3CB03C01A5241830B8B4201D38B03C01A5241430B8B4201D34B03C01A5241030B8B4201D368
:401C80000B03C01A5241C30A8B4201D3CB02C01A5241830A8B4201D38B02C01A5241430A8B4201D34B02C01A5241030A8B4201D30B02C01A5241CDD2C3098B4201D3CB0131
:401CC000C01A524183098B4201D38B01C01A524143098B4201D34B01C01A524103098B4201D30B01C01A5241C3088B4201D3CB00C01A524183088B4201D38B00C01A5241BD
:401D000043088B4201D34B00C01A5241411A00D201465241104670475DE0CA0F00D04942031000D34042534000229C4603098B422DD3030A8B4212D3FC22890112BA030A62
:401D40008B420CD3890192118B4208D3890192118B4204D389013AD0921100E08909C3098B4201D3CB01C01A524183098B4201D38B01C01A524143098B4201D34B01C01A89
:401D8000524103098B4201D30B01C01A5241C3088B4201D3CB00C01A524183088B4201D38B00C01A5241D9D243088B4201D34B00C01A5241411A00D20146634652415B1038
:401DC000104601D34042002B00D54942704763465B1000D3404201B5002000F00BF802BD0029F8D003B5FFF715FF0EBC4243891A1847C0467047C046014B18687047C046B4
:401E0000841000200E4B70B500251E1C0D4CE41AA410A54204D0AB00F35898470135F8E714F006FB084B00251E1C084CE41AA410A54204D0AB00F35898470135F8E770BDD2
:401E40003C6401003C6401003C6401004464010030B50024944208D0035D651C0C5DA34201D0181B02E02C1CF4E7002030BD002310B5934203D0CC5CC4540133F9E710BD29
:401E8000031C8218934202D019700133FAE770470EB410B59DB002A9029008610B48822488604861012040421FABC881084804CBA400006801938C8100F06CF80023029AD4
:401EC00013701DB010BC08BC03B01847FFFFFF7F84100020F0B58E6885B0071C0C1C03920193B34245D390238A89DB001A423DD003250969236801985B1A029363695D4331
:401F0000EB0F5D19029B6D1001331B189D4200D21D1C381C53050FD5291C00F01DFB061E13D0029A2169FFF7A2FFA289184B134080221343A38111E02A1C00F065FB061E7D
:401F40000CD1381C216900F0C1FA0C23402201203B60A38940421343A38117E0029B2661F61826606561019EED1AA560019BB34200D2019E321C2068039900F092FA002056
:401F8000A3689B1BA36023689E19266005B0F0BD7FFBFFFFF0B59FB0029005938B890E1C171C1B0610D50B69002B0DD1402100F0D3FA30603061002804D10C23029A013869
:401FC0001360D0E040237361002306AD6B6120336B761033AB763C1C2378002B03D1E31B049312D003E0252BF9D00134F4E7049B0298311C3A1CFFF76DFF431C00D1ACE0DE
:402000006A69049B944663446B612378002B00D1A3E00122002352426A6002A95432521801342B60EB60AB601370AB654F4F2178381C052200F02AFA002808D0C01B012716
:402040008740381C2B68013418432860EEE72B68DA0604D55322202102A8121811701A0704D553222B2102A81218117022782A2A01D0099B0EE0059A111D12680591002A06
:4020800001DB099204E05242EA60022213432B60013409E02278303A092A04D80A214B4301349B18F6E7099323782E2B18D163782A2B09D1059B02341A1D1B680592002B5E
:4020C0000DDA01235B420AE0002301342278303A092A04D80A214B4301349B18F6E70793234F2178381C032200F0D0F9002807D0C01B40278740381C2B6801341843286087
:4021000021781C480622671C297600F0BFF9002812D0194B002B06D10722059B073393430833059314E005AB00930298291C321C124B00E000BF07E005AB00930298291C2B
:40214000321C0E4B00F08AF80390039B013304D06B69039A9B186B613DE7B3890B985B0601D5012040421FB0F0BDC046FA630100006401000464010000000000D51E00009F
:40218000F7B5171C01930A698B6800900C1C934200DA131C221C3B6043321278002A01D001333B6023689B0602D53B6802333B60062523681D401ED0231C43331B785A1ED7
:4021C0009341226892061CD53020E1184031C870211C5A1C45310978A21840320233D1700FE0221C0123009801991932089EB047431C0ED00135E3683A689B1A9D42F0DB90
:40220000DAE7221C009801994332089DA847431C02D10120404220E006232068E1683A6803400025042B03D18D1AEB43DB171D40A3682269934201DD9B1AED180027AF4249
:402240000ADA221C0123009801991A32089EB047431CDED00137F2E70020FEBDF0B58BB006920A1C43320793059004920A7E0C1C109B6E2A00D1A8E011D8632A22D009D897
:40228000002A00D1B2E0582A00D0C2E045310A707C4A4FE0642A1DD0692A1BD0B9E0732A00D1A7E009D86F2A29D0702A00D0B0E0202209680A43226037E0752A1FD0782AFB
:4022C00033D0A6E00E1C1A684236111D196013683370A1E021681A68080606D4490604D5111D19600023D55E02E0111D19601568002D3BDA2D23049A6D42137036E02168CC
:402300001A68080606D4490604D51568111D1960ADB202E0111D196015685A4B227E03930A276F2A1DD108271BE0221C782145321170554A19680392081D226818600D68A5
:40234000100602D4500600D5ADB2D30702D520231A4322601027002D03D1202322689A432260231C002243331A7002E00A27454B03936368A360002B03DB042221689143BC
:402380002160002D02D1049E002B0ED0049E281C391CFFF735FC039B013E5B5C281C3370391CFFF7A7FB051EF1D1082F09D12368DB0706D563682269934202DC3023013E4E
:4023C0003370049B9B1B23612BE009681A68080607D4490605D5111D19601368A28A1A8004E0111D1960136862691A600023049E236116E01A68111D196016680021301CCB
:40240000626800F043F8002801D0801B6060636803E0261C42363270012323610023049A1370079B05980093211C069B09AAFFF7A7FE431C02D10120404221E02369059860
:402440000699321C079DA847431CF4D023689B0705D4099BE068984212DA181C10E00025E368099A9B1A9D42F3DA221C0123059806991932079EB047431CDCD00135EFE7CD
:402480000BB0F0BD0B6401001C640100C9B28218904204D003788B4202D00130F8E70020704710B5814208D28B18984205D29B1A013A09D3995C8154FAE70023934203D00F
:4024C000CC5CC4540133F9E710BD000030B500293ED004390B68002B00DAC9181D4A1368141C002B02D14B60116031E099420DD208680A189A4203D11368C3180B60536854
:402500004B60216024E08A4203D8131C5A68002AF9D11D685C198C420BD10968691858181960904214D110685268091819605A600EE08C4202D90C23036009E008680C187D
:40254000944203D114685268001908604A60596030BDC0466C220020032370B5CC1C9C430834051C0C2C01D20C2405E0002C03DA0C2300202B6042E08C42F9D3204A1368E3
:40258000101C191C002913D00A68121B0DD40B2A02D90A608B181FE08B4202D15A6802601BE04A685A600B1C17E00B1C4968E9E7144E3368002B03D1281C00F04BF830601E
:4025C000281C211C00F046F8031C421CD0D00322C61C964386420AD11C60181C07210B301A1D8843821A0AD05142995007E0311A281C00F02FF8431CBAD0331CECE770BDC0
:402600006C22002068220020F8B5061C0C1C151C002904D1111CFFF79FFF041C18E0002A03D1FFF753FF2C1C12E000F025F8A8420ED2301C291CFFF78FFF071E07D0211C9E
:402640002A1CFFF714FC301C211CFFF73FFF3C1C201CF8BD38B50023064C051C081C2360FDF7B0FF431C03D12368002B00D02B6038BDC046E02200200B1F1A68101F002AD5
:4026800004DA891804390B68D018043870470000134A1088810703D08107890F401A001D11791030484381B25088820703D08207920F801A001D800040180A49403009895F
:4026C00080B2CA0701D0503080B2890706D504495422091F09785143081880B270470000EE0C00200C11002010B501F053FF10BD10B501F065FF10BD10B500F055FA10BDFC
:4027000010B50749044609780220002907D1204601F0AEFF002802D120460CF087FA10BD9A0E002070B504460120002C12D02368002B0FD0616800290CD0074D06222889F1
:40274000208118462968FFF792FB6968606809780170002070BD00000C110020FFB585B0002768460E9D07734F481C460078002802D0082009B0F0BD10990F9801900095DF
:40278000029105A807C800F001F90028F2D16946264603AB84460873002C19D0002115E08A00B75A082F09D990198078002805D0083FB7521878401C187005E0002914D0F4
:4027C0000027B75290198770491CC9B2A942E7D360460028CED10F98002809D0109901F089FA002804D00120C4E701208446EFE701F0E6FE2D4800214160816005990160DD
:4028000021888180022D07D3A1798171A17AC171A1890181218A418100211EE0481C19E082008B00A75AE65ABE46BE4211D26F463E80B4461E190296B678BE7001967646D7
:40284000E6521719029EBB78B3706646A652019EBE70401CA842E3D3491CA942DED3134822460C3000906846037B0799069800F015F90028B8D168460B4C007B60700B4841
:402880000C3001F0CDFE0028AED1084907480C3109F01AF90028A7D109F034F90028A3D10121217066E70000E80C002000110020F8B5054633480E460078002802D002248A
:4028C0002046F8BD002E5BD000242F49002D16D02A89D0070DD02868002808D003881B3BE12B04D24088FB2801D81B2801D2012409E0900707D56868002804D1F7E70020D5
:40290000088108604860002CDAD11F482F8907811C481B21801D018041800421017119490020891C0870F80705D016480622801D2968FFF79CFA1449B80703D56A68114898
:40294000127882700F480D46801D0860001F486001F0B4FE0B48801D01F0A2FE28890FF08FFB28890FF00EFD03461033FFF790FE1F21C018890140180249308088809FE7B9
:4029800001249DE7E80C00200C110020FFB58446384F1C460020BB883F78054602460646002F11D100290ED0029999420BD36146002908D0002C06D00A99002906D02E4B8C
:4029C0000B99994202D2012004B0F0BD002144E0AB001F19BF78002F3BD0E35A002B38D07B43591889B22B0000F04AF8050410161C253100A7782388BC46FF27233BEB371F
:402A0000BB4222D26346032B1FD322E0A388002B1FD0302B19D31CE02389002B19D0282B13D316E0A289002A13D01346134F233BBB420AD20DE0268A002A0AD033460F4FC1
:402A4000233BBB4201D2964203D901200EE0002001E000280AD16D1CEDB2099B9D42B7D31C2463435B1802998B42ACD89642AAD8AAE70000E80C002079020000BAFF0000B4
:402A800030B47446641E2578641CAB4200D21D46635D5B00E31830BC18470000FFB583B0002469460C801F4606468C80002806D00598002803D004983043800701D0012431
:402AC00066E0002FFBD03449049809888842F6D3FEF7A6FFFEF794FF00F012FC002855D100F07AFD002851D12C49084601F036F905042D0C4AD12A48049906608180002163
:402B0000C18007810C98007AC00704D0684601F070FD040007D10C98007A800703D501A801F070FD0446BF1DFEB2002C20D13146059800F05DF804001AD10FF031FC04003C
:402B400016D16A461088928808368518144AF1B29088D288AEB29319984207D3401B801A80B201F0EBFB050007D000E0FF25012400F05EFA002D04D008E0F8B200F01CF91B
:402B8000F6E700F081FA07490120087000F0CAFB204607B0F0BD0000EC0C0020DD2C000018110020F40C002010B503480078012801D101F065FA10BDF40C002070B5084BA3
:402BC0000446DA889E8800205518B54206D81D68AA182260DA885118D98070BD032070BD18110020014800897047000018110020F0B587B007460D460020890000900691D0
:402C00006846FFF7DBFF844600285DD1304800990160002117E02E4B88001A680629115406D22C4C0419667882185670628805E0C419203CA67A8218567022891B68C0181C
:402C4000491C4280C9B2A942E5D300242DE0601CC2B2059025E01E4FA30039689600581840887118039604904E88B04217D938466F46FE80B6464F786E4677710297049F1B
:402C80004F800168039F5E18767879184E700168764659184E800068029F18184770521CD2B2AA42D7D30598C4B2AC42CFD36046002809D168460699FFF780FF84460028AC
:402CC00002D1054900980860604607B0F0BD0000F80C002068640100FC0C00207047000010B5002809D005494A68002A05D0011F08788000105801F0CFFA10BDF80C0020E1
:402D000010B50446FFF76EFFC0B2801DA0420CD307484068002808D0A100405801F02EFA002801D00470001D10BD002010BD0000F80C0020F8B516460D460446FFF752FFB3
:402D4000C0B2801DA04203D20020C0430090F8BDB2B2E9B2684601F037FA0099481C03D0024AA000526811500098F8BDF80C0020F8B50746FFF736FF801DC6B20A49002061
:402D800005460C680DE06178002907D06188B94202D32078FFF7B4FF002804D1241D6D1CEDB2B542EFD3F8BDF80C002010B5002801D0FFF795FF10BD70B5064609480025A0
:402DC00004680BE06178002905D062882078121D0023FFF7AFFF241D6D1CEDB2B542F1D370BD0000F80C0020FFB581B00A9F16000C4620D000F0F2F8054604281BD0002F67
:402E00000CD03846FFF7B4FF20492A0151184860002810D03A460499FFF729F81B4928010E504618778101980570200406D47D20C000444304E0FF2005B0F0BD6404640C40
:402E400000F0BAF80746042807D000F04FFAA0420BD800F04BFA201A03E0204600F0AAFA0020F06035720020E6E700F03FFA009000F0B6FA00980121001B009000F0ECF880
:402E800002493A0151180098C860E6E724110020F8B5060116483418217A042903D0E068002802D017E00020F8BD00F01FFA054600F096FA00F0A0F804280CD001010C4880
:402EC0000F18F8680021451900F0C6F80020F860284600F06FFA6068054D002801D0FFF765FF042020720020A8516081E060DAE724110020FEB500266A46304601232549DB
:402F0000050169180D7A042D02D0C96800291BD000211154401CC0B20428F0D300246846005D002830D01B4821010818418947680568029100210160416004224181027204
:402F4000C160002E02D015E01354E3E700F054F804280ED001010F4808180190C6680021304600F079F801980021C160304600F021FA0126002D07D038460299A847002FD6
:402F800002D03846FFF712FF641CE4B2042CC6D3FEBD0000241100200EB5002005216A4600901181508103486946006810F071F80EBD0000000D0020074A00200101891848
:402FC0000B7A042B02D0C968002903D0401CC0B20428F3D370470000241100200549002002015218127A042A03D0401CC0B20428F6D370472411002030B50A4B04200A4C67
:4030000000210A011219157A042D06D0D268002A03D09A4201D808461346491CC9B20429EFD330BDFFFF0000241100207047000030B50020074C05460423020111190B72D6
:40304000A5504D60401C4D81C0B2CD600428F4D330BD00002411002030B5094C00231A011219157A042D04D0D568002906D02D18D5605B1CDBB2042BF1D330BD2D1AF7E7BA
:4030800024110020002070471CB5002469460C70142001902346054A05480FF0FFFF04480068401C00D1FF2420461CBD05310000000D00203EB5124A0146FF20002301245A
:4030C000126800290DD0012914D0042908D104206946009308814B8110460FF0DAFF80B23EBD6846009304814381694610460FF0CBFFF4E768460093048143816946EBE7E8
:40310000000D002070B545890468416800890300FFF7B6FC08280509091E22282628002007F0F4F91EE0022908D0C8B22A4621460EF04CF82046FFF739FE13E002202A4679
:4031400021460EF043F82946204600F00DF809E000200FF09DFC05E02046FFF7CBFE01E0FEF780FC002070BD014B0022DB681847040D002070B5448905680089022803D075
:40318000032809D0FF2070BD2246094C0023A46829460120A04708E0FFF7AAFA241DA2B200232946022008F042FB002070BD0000040D00207047000002480021416001809A
:4031C00041807047040D002070B50C46002186B016460391012802D0022859D116E003A9012008F079FB01281BD1039D324621462846FEF73CFE0095287801900220694622
:4032000008814E816846FFF7B5FF41E0214D002B686809D0049004A9022008F05DFB01281DD0022006B070BD002812D0298840182146FEF71CFE28880024801980B22880DD
:403240006988091D884206D12C801348FFF792FF03E00320E6E788421AD96C6018E004986860E278A378110219430B4A698000231060E3565360032313815181A178817019
:40328000E178C1706178417021780170042028800020C7E7040D0020641100203EB515460C46022803D004280CD000203EBD0091019002206946088107484A8100680FF0D3
:4032C000E8FE07E00DF082FF044B0022DB6829462046984701203EBD000D0020040D0020014AD16090607047040D0020034801688068081A0A214843000970477011002078
:4033000010B5FEF781FB482204490548FEF7AFFD03490120C870002010BD0000846401007415002010B5FEF767FB10BD70B5134C2368002B08D0207B1149C20705D04008B8
:40334000400020738868A08070BD88680B4AA18880B29268814203D90A4D691A091802E0814202D2411A5118A160A080A0689842EAD30FF0ABFE00F013F870BD701100209B
:40338000C0102E40FFFF000010B508461946FFF7A7FF10BD704710B5FFF780FF10BD000003480021016041608160C1607047000070110020024610B5FF20002A0CD0FFF748
:4033C000EFFF064C0321207B0843207310010A21FEF716FC2060002010BD00007011002000B504480A21806848430209FFF7D8FF104600BD701100200248007B8007C00F59
:40340000704700007011002010B54B490868002802DA4A4B01221A70022290430860484800694549C00B4031096A0246C907C90F0A4259D0012000F0E5FA3F480E216C30E9
:40344000FEF736FA3E4820218430FEF731FA3C4814219C30FEF72CFA3948FF21C131A430FEF726FA3648FF212F31B030FEF720FA33483449BC30FEF71BFA31483249AC30C5
:40348000FEF716FA30492E48491CB430FEF710FA2B482E49B830FEF70BFA29482C49CC30FEF706FA26482B490830FEF701FA24482949A830FEF7FCF9214828498830FEF7FC
:4034C000F7F91F4826498C30FEF7F2F91C481921C9029030FEF7ECF9FEF7ECF9FEF7A8FAC0B2022812D01FE000290BD0002101420AD0114801216030FEF7DAF90120FEF74E
:4035000077FA97E70121F2E7FF2010BD15491648FEF7CEF914481549001DFEF7C9F9124800210830FEF7C4F954200449C043891C0870002010BD000000F02E40140D0020DD
:4035400000002E40320300002F3F00003102000010520000EC160000FA12000031D000003AE300009956000080012E40F80F000070B50646581C80B245086D00002408E0B7
:40358000304600F0C1F81055000A1119A41C4870A4B2AC42F4D3D80705D0D0182038D15CC47FD454C17770BD30B50A4C002100195B1E07E0541864782502545C2C430480F8
:4035C000891C89B29942F5DB994201D1515C018030BD000000102E4010B5FF2000F012FA0F49FF2048700E481021801D41800121417001700A490020C91C4870FFF704FFB9
:4036000004000AD100F02EF907210648FEF74EF9044807211830FEF749F9204610BD0000140D0020CC112E4070B5002405465B1E0AE0284600F068F8010A161971702D1D16
:403640001055A41CADB2A4B29C42F2DB9C4203D1284600F059F8105570BD000070B500210A4D5B1E0AE0541864782602545C344346193480001D891C80B289B29942F2DB51
:40368000994202D1515C4019018070BD00102E40F0B50599091FCFB200217E1E0BE0541864782502545C2C43164D45192C80001D891C80B289B2B142F1DBFC0712D01C7834
:4036C000515C24020F4A0C4381180C809C785D78001D210280B2294384182180001D80B2D9780CE059781A7809021143054A84182180001DD9789B78090280B2194380189A
:403700000180F0BD00102E40014940180088704700102E4010B50B490020487000F0A2F8002000F095F9002000F082F907210648FEF7BCF8044807211830FEF7B7F800203B
:4037400010BD0000170D0020CC112E4010B50C48007801280FD100F083FF00F0DDF8002804D10848016A490849000162054802213030FEF79DF802490020C91E087010BD76
:40378000170D002040F02E4010B50B46062812D006DC01280CD0032801D1FFF7BBFF10BD0A28FCD00B28FAD105480078107010BDFFF712FF10BD1146184600F065F910BDEE
:4037C0001A0D0020F8B5244DAC6A0127A007234E002816DA307806280ED1286A384328621F480069F903084381B21D481030FEF75FF8042000F006F9174802212830FEF78D
:4038000055F8E00718D000F065FF01280FD1002000F0B2FF062000F0F5F81049FF20C91E48707078002802D1686B384368630A4801212830FEF73AF8E0050BD530780428AC
:4038400002D1052000F0DEF80348FF2101312830FEF72CF8F8BD000040F02E40170D002000002E4010B503212348FEF721F80120FEF7BAF820483038406A204C8007617807
:40388000800F890001431C480C38FEF711F86078002808D0401E022181401820FEF7A0FAC000083800E0B82081B21548FEF700F81348032109021438FDF7FAFF104811497B
:4038C000B830FDF7F5FF612189010F48FDF7F0FF0D480321001FFDF7EBFF0C490C48FDF7E7FF0B480B496038FDF7E2FF084801218838FDF7DDFF10BD70F02E401A0D0020C1
:40390000D8102E4090890000041E2E40FF0F000058122E4020900000044800684007400F022801D0002070470120704700010B4000B5FFF7F1FF002805D009480168C9088F
:40394000C900016000BD0748016A490849000162054801690122D2039143016100BD000000010B4040F02E4000002E400849087806280BD148780749002803D1486B4008CD
:4039800040004863C86A01221043C86270470000170D002040F02E400148007870470000170D002000B50300FFF76AF8080D050D0B070507090D012000BD032000BD0420A8
:4039C00000BD022000BDFF2000BD0000074A9168D26889B2064B92B2994204D105498A4201D1012100E000210170704780002E4033D000003FE30000014948707047000048
:403A0000170D002010B50446FDF7FAFF072C01D9FF2C01D102480470FDF7EEFF10BD0000170D00200149487070470000140D002010B5064A012805D01921C9021046FDF730
:403A400037FF10BD1D21C902F8E7000090002E4010B50A4A141D012808D009491046FDF727FF08492046FDF723FF10BD04491046891CFDF71DFF0349491DF3E788002E40DC
:403A800031D000003AE3000070B50C460546FDF7CFFFC0B202280E49287804D0FF2810D04C280CD810E0FF2809D10A4AD0680004800F032801D0087807E09069000A55389B
:403AC00003E00878207070BD4F382070087070BD160D002000002E40F0B50122002834D0002932D00424420600D00524792342065B06D21800D0641C034600221EE00C2598
:403B000016466E43124D00277519AF72104F002ABB51696007D0661EB24209D10D4E86197606760E05E05E06760E8027BE1B00E080269B198919521C2E81D2B2A242DED363
:403B400003480549006B002288611046F0BD0000FC13002079020000200D002018B50020694608700A48006900280ED0132149014018047E684604704F21C900054800F077
:403B800059F8A04201D0012018BD002018BD0000200D002080110020074900200C2242435218927A012A05D0401CC0B20628F5D30020704701207047FC130020F8B50E0022
:403BC0000446154609D0194F19497868A04202D94018A04201D38D4201D90120F8BD31462046FEF735F900281ED02A4631462046FEF73DF9E8B200210C224A43D2191389C8
:403C00005568EE18A6420BD90126641B1B1B9672834209DA1469C01A044AC0B220329676491CC9B20629E7D30020F8BDFC13002079020000034610B50020024604E09C5C5A
:403C40002018521CC0B292B28A42F8D310BD000070B500F05FF8084C064A216907480D46FEF705F905492846FFF736FFFFF776FF207070BD79020000200D002080110020CD
:403C8000002070470020054A002902D0012902D002E0906000E0D06000207047200D002070B5084C154608460549E26889182A46FEF7DDF8E0684019E06028B270BD000044
:403CC00080110020200D00203EB50A226946FFF7E7FF044606480A2200686946FEF7B8F8002802D00020C0433EBD20463EBD0000240D0020002802D0044A914201D2FF20C5
:403D0000704703494A6108610020704779020000200D0020024800218160C16070470000200D002070B5074C15460548A26880182A46FFF743FFA0684019A06028B270BD8A
:403D400080110020200D002010B503490A220968FFF7E8FF10BD0000240D002010B50F4A002313600E4A13600E4B18600E4801600E49012008600E490860000290600E49AD
:403D80000C4808600D4914300860FF381538506000F0BCF800F0CAF9002010BD540D00203C0D0020680D00206C0D0020580D0020480D0020441500204C0D0020600D00203C
:403DC000014610B50020002910D0094B1A689C685118A14209D25868196080188A0704D08A07920F891A091D196010BD002010BD3C0D0020F8B50024164E671E321F3D4632
:403E00003168136806E01422624310328A58521C1BD0641C9C42F6D36A1C14D02C461422544322460C3288500C214843FFF7C8FF3168002808510AD0316800201034085123
:403E40007068401C70602846F8BD2546E4E73846F8BD00004C0D0020F3B50026F64381B000281BDB1E490968884217D80299002914D01B4F142204463F1D544325463968C1
:403E800010354859401C09D0FDF7BAFD38682F1F4159C359994203DBFDF7AEFD3046FEBD214608310091465801590C20704308180C220299FDF7DBFF0948761C001D0068E8
:403EC000C159B14200D100260549009A091D865008684159491C4151FDF78EFD0020FEBD480D0020002803DB07490968884202D90020C043704704491422091D0968504317
:403F00001030085870470000480D0020F0B500200D4A451E0346171F50600FE014260146714314680E1DA3510C461668083433511668083435511468401C63503968884282
:403F4000ECD30020F0BD00004C0D0020F3B50026F64381B0002841DB2349096888423DD8029900293AD0204F142204463F1D54432546396810354859401C2FD0FDF740FDD6
:403F80003868415900292BD0211D009146580C21005971430F46C1190C220298FDF767FF11480021001D0068761C00590C34C0190160416081600C48001D00680159B1429F
:403FC00000D100260849009A091D865008684159491E4151FDF710FD0020FEBD3046FEBDFDF70AFDFAE70000480D0020FEB504460D4600201E49089E0860471E0090019017
:404000000290002C11D0486885420ED2002A0CD0002E0AD0642E08D808460C3001681C2068430C18207A002801D03846FEBD0120226020721846FFF7DDFE6060401C13D0DD
:404040006681A6810A4827610C3067610179A94200D205710021684601810A462846029B00F040F82846FEBD00202072DDE70000540D002038B50124009400F039F838BDF7
:40408000FEB50027164EFF433D4600240EE01C20316860430818017A002906D04068FFF721FF002801D0254603E0641C3079A042EDDA681C12D01C2130684D434419FDF7E6
:4040C0009FFC69466068FFF741FF0546FDF794FC002DD9D1216868468847D5E7FEBD0000600D002038B50024009400F001F838BD1FB500220C49541E0A60002811DB496859
:4041000088420ED808491C220C31096850430818406801A9FFF7A0FE401C02D0002004B010BD2046FBE70000540D0020F0B50021114A4D1E174611710C3F0B46BD6016E047
:4041400008461C2460431668041D355114680646235014680836A3551468361DA353044616680A34335318301468491C255078688142E5D30020F0BD600D002038B500214A
:404180000091002811DB0F49097888420DDA0D4D04010C3529680859002807D0201D0818694600F06FF9002801D0002038BDFDF727FC28680F34015D491E0155FDF71CFCBC
:4041C000009838BD700D0020F7B582B0002502986E1E06602E48D21C024017462D4A2C4610460C380178106805E02301C358002B0FD0641CE4B28C42F7D3711C28D03401F9
:40420000211D40180191039900F02AF900281FD101E02646F1E71F48016820460C300F521C480399026820460E30115419480399026820460F3011540398784300F0A0F8D5
:40424000144900280968085102D00024009011E001251AE00F48016801980818009900F02CF9002801D0012502E00098C0190090641CE4B203988442ECD3002D05D102985C
:40428000066004480179491C0171284605B0F0BDFCFF00007C0D0020F8B50D4600216A468C461180002839DB23490978884235DA214B04010C3319680A59002A2ED020462F
:4042C0000C300B5A801C0E5C184670438018954224D3854222D2002006E007465F43BF18AF4206D0401CC0B2B042F6D36046002814D0114E271DC8190C366A46294600F042
:4043000006F900280AD168460088012808D030682946C01900F0D1F8002803D00120F8BD0020F8BDFDF76CFB30680F34015D491C0155FDF761FBF3E7700D0020F8B50F46ED
:40434000002400F031F8002817D10C4900220B460C334A600EE021011D680E466A501D680C36AA53B61C1D680F31AA551D68641C6A54E4B2BC42EED31A71F8BD700D00204D
:4043800000280BD0C01C074A81085068890053884118994203D89368516018187047002070470000700D0020F8B5064600200F4D009029700C0121466846FEF7FFFB00283B
:4043C0000CD129460C3100980860301B001F84B221466846FEF7F2FB002801D0FF20F8BD6C800098A8600020F8BD0000700D0020F8B5002827DB19490978884223DA174CEE
:4044000005010C342168485900281CD028460C30085A009028460E300E5C401C0E5420682F1DC01900F064F800280CD12068002445590EE0094829460C300068C01900F025
:404440003CF8002801D00120F8BD00982D18641CE4B2B442EED30020F8BD0000700D002030B50D4604000BD0A800FFF789FF6060002805D000202570C0436080002030BD7E
:40448000012030BD70B50D46040005D0002D03D00220205E002801DA012070BDFDF7B0FA0221615E60688900405828606088401E6080FDF7A1FA002070BD70B50D4604003D
:4044C00007D0002D05D002212078615E401E814201DB012070BDFDF793FA6088401C00B26080616880000D50FDF786FA002070BD10B5040009D0227800216068FDF7C0FC8B
:404500000020C0436080002010BD012010BDF0B500231D46002802D00224045F0AE00120F0BD46689F00F6598E4201D1012503E05B1CDBB29C42F4DA15700020F0BD0000EE
:404540000148007870470000840D00207CB505460024FEF7CDF8A8796946087000A8062229460130FDF783FC0021684606F094FA0C2806D0072806D01F2806D0122806D0FE
:4045800006E0022404E0042402E0272400E0012420467CBD10B502280BD0032802D0042809D102E000F08CF905E000F037FAFF2801D100F047FAFFF7EFF9FFF7F3F910BD31
:4045C00010B500F06FFAFFF7E7F9FFF7EBF910BD70B504460025FEF78BF8002C06D0A079012803D8214603F065FB00E00125284670BD01460120002902D05020088000201F
:404600007047000001460120002905D003485422007850430880002070470000860D002010B502460D49FE204870032410460FF053F8002810D10EF0F7FF00280CD107F086
:40464000A7F9002808D100F063FC002804D106F023FD002800D10024204610BD840D002002480021018280210180704700102E4070B50025044600280ED0A07901280BD832
:40468000FEF736F8A0790028204602D003F04AFF03E003F01FFF00E00125284670BD0000014610B50120002904D006220248FDF7DEFB002010BD0000900D00200146012012
:4046C000002903D0087802490870002070470000860D00200148007A704700007C16002038B504460120002C20D0617801291DD800290BD0FF25E535FDF7FAFF0C48281896
:404700000088C0B22070072803D00EE0FF25CD35F2E70020694608706846FFF757F969460878012801D108202070002038BD000000102E40014A002192681047840D0020E2
:4047400008B500226B461A7026280CD0094A342852680BD0352805D1900703D50021352007F0F2F908BD19462620F9E7D007F9D03420F5E7840D0020014908727047000071
:404780007C160020F8B504460120002C26D06178012902D92278092A20D8002905D0FF25E5352078092803D004E0FF25CD35F8E708202070FDF79CFF2078114F114E0828DB
:4047C0000DD00020FFF744F970780128207810D00D4969180880FE2070700020F8BD0120FFF736F90720B8810549203188800120F2E7B8810248217820308180EBE7000048
:40480000C0112E40840D002000102E4070B50E46050001D0002400E00C4C002C11D0E28A500609D5D107C90F022003F077FFE08A40218843E08204E0D107C90F012003F0D7
:404840006DFF3146284603F0B3FB70BDDC150020F8B50546002004460D4E009013E022466946284601F006FA0098002801D00EF015FFA878214603F021F9A878214603F0A1
:404880000FF9641CE4B2308AA042E8D8F8BD0000A8160020064A02235188891C89B25180814201D8102900D95380508870470000960D00200148407870470000960D00209E
:4048C000F8B54E4CFFF768F8012847D14C480078002843D003F0F4FA00283FD005F07EFD00283BD0474E7078C00703D000F090FD012833D0307E00287DD1707800250028BF
:404900005BD0000706D540488089070B00F02EF9384370D13B484178684605F08DFB21793A4CA2788918C9B2814262D803F0C8FA002860D0344860300789324E203603F0C8
:40494000ADF86846008803F0E3F803F0ADF930490988884203D10120FFF754F84BE02D49012008702748807B00281DD0002F1BD04036F07E002817D1234860300088214936
:404980004000C031498981420AD26078002807D103F0F2FE2049088A03221202104308822078002800D0257003F006F90120FFF723F800F099FC174C15E003F081FA0028CD
:4049C00019D0102403F070F9214603F01FF803F09FF8104C0120207003F0EEF80020FFF70BF800F081FC20780128B4D1FEF7A0FF25700020F8BDFF20F8BD0000B4150020D6
:404A0000140D0020BC150020A0102E40AE0D0020C00D0020960D0020E0112E4010B50848FF244078002809D103F04AFA012805D1FEF78CFE0720FEF7E5FF0024204610BD3E
:404A4000BC15002038B5FEF7A7FF012801D0002038BD03F035FA00280AD0114C6078C00703D000F0D5FC012802D0207E002801D0FF2038BD617800290FD0684605F0DCFAFA
:404A8000022806D96846008803F042F8012003F09DF80320FEF7B6FFD9E70020F7E70000BC15002038B51E4CFEF776FF042813D0052811D0062812D003282AD007280AD148
:404AC00000206946087002460120FEF75DFEFEF763FF0128FBD138BD00F026FC38BD03F08DF800F021FC03F019F98007800F0228F4D10C4841880029F0D05B21095D0029CE
:404B0000ECD101210170A07D0140022003F006FE38BD03F077F80120FEF774FF38BD0000DC150020AE0D0020F8B50646002403F063FE0546304603F079FE03460A48002195
:404B4000068A0DE001228A401046174628401F40002803D0002F01D1224394B2491CC9B28E42EFD82046F8BDA816002070B500252C460A4E03E0002C01D0002000E03046D0
:404B80000079002803D02046FFF7CEFF0543641C2406240EEFD0284670BD0000DC1500201CB50020694648706846FFF799FD01AA69460A20FEF7E8FD6946042008561CBDCF
:404BC00070B50D4601F080FD04000BD02079002808D0FDF78DFDE178A0782A4603F096FA002070BD022070BD0148007870470000B41500204030C07E002800D001207047FA
:404C000000B500F001F800BD902148430749084A40186030417F491CC9B24177D289914201D300214177C8B270470000BC150020A816002013B501F047FD04000BD002F052
:404C4000D8FA002807D0214601AA0A310620FEF79BFD00201CBD02201CBD000010B50C4601F032FD00280AD002F0C3FA002806D0224604490A20FEF787FD002010BD022022
:404C800010BD00009D150020F3B581B0074601460026029803F0A8FD0446002F01D0002500E0154D002D21D0284601F043FD032C04D13946029803F0F3FD064638460299BD
:404CC00002F0EEFE032C06D0002C10D00121384601F020FF03E03146384604F0A5F8284602F0AEFD0221284602F0C4FDFEBD3846029902F0D5FEFEBDDC15002010B50446E9
:404D000000F0DAFA002804D105F000F9002801D00C2010BD2078611C03F00CFBFF2801D01F2010BD03F052FBFF280AD02178621C02F03EFE044821780068026B601C90472C
:404D400010BD072010BD0000D40D002010B505F0DDF8002801D00C2010BD03F0CDFA03480068C06A8047002010BD0000D40D002070B50D46044610210EF0D0FB102160183F
:404D800006460EF0CBFB334610221946204605F0F3F8102130460EF0C1FB02202870204606F09EF870BD0000F8B504464078217802028006870FE0781143A6780905000217
:404DC000090D0643084601F07FFC00210546F2B2002812D0002C10D0022F0ED0032F0CD0002A0AD00279092A07D0002A05D0134A5A23527E1B5C9A4207D82889002105F02C
:404E00005CFF20460EF04AFCFF21002914D10C48224600682946436930469847C0B2FF280AD128464030817EF2B2491C8176FF232146284600F00DF9F8BD0000741500200F
:404E4000F00D00200020704710B5044605F05EF8002801D00C2010BD2078611C03F06AFAFF2808D003F096F9044821780068426B601C904710BD1F2010BD0000D40D0020DE
:404E800010B500F0ADF906F007F9002010BD000010B504460F4802F0DDF9012817D00D4805222146B030FCF7E2FF0A490522B0310846C038FCF7DBFF01F00AF8054880228F
:404EC0002038C17B1143C17300F0C6F910BD3A2010BD0000DC15002010B5044600786178E2780843A17811430843217908436179084305D004F0F4FF002803D00C2010BD6B
:404F0000122010BD204603F00DFB002010BD000010B5FCF78DFD03F091FC044805F0A6F903F042F9012000F003F810BD84150020F1B586B003A8009005A801902A489F223A
:404F4000817A114081726846FDF7ECFB002849D169460989C90705D0244806990068C2686846904769460989890706D5002839D11F480068816A06988847002832D11D4E84
:404F80000025757075737571F575357675767575B570F570B5713746F5730120D03738731F20F880FF2130467972A0300176457600F03EFB04F0A4FC02F0FCF80024204660
:404FC000069902F0A9F8002803D1641C2406240EF5D0FD720749BD72B573C0310D704D704D600D7207B0F0BD74150020F00D0020D40D0020BC15002070B505460E46084647
:4050000003F0FAFB0446304603F010FC0121A9400A46224001400A4301D0012070BD002070BD10B50446084603F000FC0121A140014201D0012010BD002010BD10B5FEF71A
:40504000ABFC032804D102F0DDFD0120FEF7DAFC10BDFEB51C4616460F46054602F0F0FBA878FFF7CDFD02460190334639460094284600F00DF8002808D1A8780199FFF7BD
:40508000C5FBFF2C02D138460EF008FBFEBD0000FFB585B005460E980C46FF2810D02B49C00009680A5840180179C0795278814201D9012601E09006860F6846038108E0FF
:4050C0006078A1788006860FE0780002014368460181284602F0A2F8070007D021462846079A00F054FD384609B0F0BD304600F059FE04AE0346039002AA29460096204601
:4051000000F01BFC3C20405D002818D0284602F085F8012813D0684600890096C0B20190A878231DFF22079902F0F6FE68460089039BC2B2A878079903F0CEFAD3E7684673
:4051400000890021C0B20091E9E70000EC0D0020F8B5002600253046FFF7E6FC07001DD090201149704340186030447F12E0601CFCF746FDCCB23846E040C007C00F07D0CA
:405180002146304602F082FC21463046FFF77CFD6D1CEDB20548018AA942E8D8761C3606360ED7D0F8BD0000BC150020A816002070B50024094D03E0002C01D0002000E0EF
:4051C00028464121095C012901D100F096FC641C2406240EF0D000F03FF870BDDC15002010B502F0E1FF0020FFF7A2FE0EF0ECFA002010BDF8B5002400F004F901250128D0
:4052000000D1012404F018FB012801D102200443104F00203E4620360423082203E0002801D0002100E031460979002907D001290BD002290BD0114681402143CCB2401C2C
:405240000006000EEBD07C70F8BD2C43F7E71C43F5E70000BC15002070B5144E0024F07BC00921D03546203503E0002C01D0002000E0284601F0C8FF012814D0641C2406E8
:40528000240EF2D0F07B4006400EF073002403E0002C01D0002000E0284600F02EFC641C2406240EF4D0002070BD0000BC15002010B5FFF79FFF10BD10B5044606F0C9F842
:4052C000002802D1601C00F001F810BD1CB500240094062269460194FCF7BAFD002800D1122420461CBD000070B50E4CFCF7C9FA0546FEF751FB062802D02078012803D01F
:405300002846FCF7C2FA70BDFCF7E2FB2846FCF7BCFAFEF741FB0628F5D020780028E5D170BD0000960D002010B5FCF7AAFA0446FEF732FB012809D0FEF72EFB022805D0CB
:40534000FCF7C6FB2046FCF7A0FAEEE72046FCF79CFA10BD10B50B4681791943817103D08078114603F070F910BD10B582798A43827102D1807803F07BF910BD30B50C4C90
:405380000220A28A0B4B9978002901D0022906D11D785B78EB18282B01D9032002E0032900D101205105490DC0020143A18230BDC0112E40A40D002000B500F029F80028C1
:4053C00007D0012805D0032801D0042801D0002000BD012000BD014600B50020C90701D000F010F800BD014600B50020C90701D000F008F800BD00000148006870470000E0
:405400009C0D002001480088000A704720102E400448008B410501D5042070474007800F7047000000102E4010B502F03DFC044602F084FC0146204602F05EFC10BD000028
:4054400001484068704700009C0D002038B50446000610D5FFF7DCFF01280CD1684602F0E1FB6846007800F096FB012002F064FA0220FFF71DFF600708D5074801790129C3
:4054800004D1002101712620FFF75AF90348006801692046884738BDA80D0020D40D002070B505460C49007800240870FFF7AAFF012803D1FFF7B8FF022803D3284602F056
:4054C0009DFF07E0284600F0EBF8040002D1034801210170204670BDA40D00207C16002070B50446FFF78EFF002801D00C2070BDA27B01211F48002A827801D00A4301E010
:405500005208520082706279012A14D0C17849084900C170184D2868016820468847207901280CD06188208804F012F82080207904280FD015E0C2780A43C270EAE72868CC
:40554000C168E01D8847E01D02F0D8FF0B48808C208006E02868C168E01D8847E01D02F0CDFF074920798870204602F055FF002070BD0000BC150020D40D002074150020D6
:40558000A40D002008B50178FFF73CFF814201D10C2008BD002914D0072069460870FFF70BFF012807D10121684600F0D9F8012801D0092008BDFFF7E1FE02F061FF012010
:4055C00011E0FFF7F9FE012806D1684602F02AFB6846007800F014FB02F048FFFFF712FF0028FBD10220FFF763FE002008BD000070B505460C49007800244870FFF702FF41
:40560000012803D1FFF710FF022803D3284602F0FBFF07E0284600F05DF8040002D1034801214170204670BDA40D00207C16002038B568460DF0C8FF002801D01F2038BDDD
:4056400001210098C90201804180002505714571857107214173857302F0DEFE009C202200212046FCF70CFC25702A460021601CFCF706FC204602F0C1FE204602F0C4FF51
:4056800000980EF00BF8062200210448FCF7F8FB02480C388560002038BD0000A80D0020F8B504460025684600950DF08DFF002801D007250AE0064E009830602278611CEF
:4056C000401CFCF7D4FB3168207808702846F8BD9C0D0020F8B504460025684600950DF073FF002801D007250AE0064E009870602278611C401CFCF7BAFB7168207808705A
:405700002846F8BD9C0D00200346084800B5834209D8184600F0D8FF002804D00089984201D1012000BD002000BD0000FF0E0000074A9179491C8906890E917138220A40DF
:4057400092014907090E11430843024908407047BC150020FF0E0000C006C00E70470000F8B507460E4600240D4803E0002C01D0002500E005462979002905D0641C2406BC
:40578000240EF3D00020F8BD0021204601F0C4FC2E712046FFF7CCFF28813C700120F8BDDC15002010B504F03DFC0222002100F003F802F099FC10BD10B5094B40074907BF
:4057C000000F090F185A595A40185043C0086421FCF716FA002800D1012080B210BD0000CC640100F7B53D20405C88B015460C46002802D02878042802D200200BB0F0BD2C
:405800006946087200262046FFF7F4F9012800D00126204603A938300191009023460327A17E34333246206A04F040FD02A8089900900B46019120463A4603A9243004F030
:405840007BFB02466846007A2870204601F050FC1046D3E7FFB587B00C4605461078694608723D20005D1746002826D000262046FFF7C0F9012800D00126204603A93830B4
:40588000019100902346A17E34333246206A04F00DFD02A80090291D019120462B1D03A924300A9A04F048FB02006846007A388002D1204601F01CFC10460BB0F0BDF0B5B5
:4058C00005463C20405C89B016460C4600280CD0307869460873002806D000272046FFF789F9012803D003E01F2009B0F0BD012703200890204604A9383001910090234638
:40590000E17E34333A46E06904F0D0FC6846007B03A928180290009120462B46019504A92430089A04F03CFB02466846007B3070204601F0E7FB1046D7E7FFB505463C20EC
:40594000405C89B016460C46002810D0084601F065FC01280BD0308869468883002809D000272046FFF746F9012805D005E000200DB0F0BD0220FBE70127204603A93830B0
:40598000019100902346E17E34333A46E06904F08DFC291D2B1D07A8129A6D4607C5204603A924300C9A04F0FBFA02466846808B3080204601F0A6FB1046D9E710B518490E
:4059C0000446484028D0002101231A468A40904221D0491C2029F8D300212046C840C243520618D0400616D0491C1929F5D3A0B2210C020AC3B2884201D193420BD01F2137
:405A0000204600F0D4F9182805D8A00E062100F0CEF9022801D2002010BD012010BD0000D6BE898E70B50D460446FFF7E3F801280AD0E87AA97A00020143A07802F01EFA94
:405A4000012808D0002070BD00222421204603F0BBFC242070BD28214C200155204600F03DFD282070BD0000002801D0002000E003484030C07F012800D00020704700001D
:405A8000DC1500200146002049070ED50021084B03E0002901D0002200E01A461279022A04D0491C0906090EF3D0704701207047DC1500200146002049070ED50021084B01
:405AC00003E0002901D0002200E01A461279022A04D0491C0906090EF3D0704701207047DC15002010B5044680346068002803D00DF0E8FD0020606010BD38B50546002081
:405B000000902846FFF776F801281FD1284601F070FB00281AD028792C46C01E40340300FCF7AEFF07050511110511141100284601F07AFB012806D068460DF055FD0028A0
:405B400005D0012008E060780028FAD038BD2846009903F0DBFA0220607038BD40304170704740308170704770B50546403528780C46052904D0002C05D1801E022802D865
:405B8000022003F091FC2C7070BD0171704792001018C166704770B53C2501F0C3FD040004D020460021433002F0F2F8FF222946204600F033FD002C02D0A07801F02EFD8C
:405BC00070BD000010B5002801D0002000E00348002802D0008905F0E4F810BDDC15002010B5002801D0002000E00448002804D00179072901D100F093F810BDDC15002062
:405C000010B501F08FFD002802D0807801F006FD10BD10B54121095C012901D1FFF76DFF002010BD70B50546008A00281ED01049F122897A1140C90618D5294640314A8A58
:405C4000098A521C4A4392B2D10800D10121540801E0621A94B2A042FBD9FEF771FC012804D1298AA878224602F0DEF970BD00007415002010B50023054C0B60248A94426F
:405C800004D992001018C26E0A60C36610BD0000A8160020FEB506460020009001908020855968460DF0A0FC002801D00720FEBD20213046009FFFF758FB34464034A08A48
:405CC000E080608AA080208A2081304603F07CFCA88C218A884207D1288A618A884203D1688AA18A884203D0F07920210843F071688AA082288A6082A88C2082E98CE182EC
:405D0000FEF7C8FDE081208AFEF7D4FD60733946304603F023FA0120A0700198FEBD000038B5044600200090A079002814D14020015D052901D00E290ED168460DF054FCA0
:405D4000002809D12046009903F01CFB03481021C28A2046FFF7FEFA38BD00007415002010B50446807803F05FFC204601F0E2FB002010BD10B50B4604460146184602F0F1
:405D8000C3FD002802D020460DF092FC10BD13B5044601AA11460620FDF7F6FC6846818861811CBD002800D102207047704770B500231A46491E0CE00446D440E507ED0F0F
:405DC000541C0646E640F407E40FA54200D05B1C521C8A42F0D3D8B270BD0000F8B504462346401D543300909A1EA078911E01F03DFF25464035A88A298A8000FBF700FF3B
:405E0000401E81B2688A884203D96982A07802F0BFFC698A8C20015120460021433001F0B7FF27480088E88104F0FCF8E989891C8AB26179FFF7C0FC02F056F904F0F2F8B1
:405E40002A8A6179FFF7B8FC074602F041F9688A002806D01B49088A032212021043088202E0002002F088FC1648803801886E8A002E0CD0304648431349FBF7B1FF000459
:405E8000000C01D0401C80B21049488002E00F4800214180288A704381B2A07802F0C2FBFF2228374932B9B21346204603F076FBE98AA07802F0EEFAA07801F01DFEF8BD15
:405EC00080102E40E0112E4071020000AE0D002030B50021124C0A46A05C002308E0C50701D0491CC9B201290AD840085B1CDBB20028F4D1012903D8521CD2B2052AEBD396
:405F000002290BD207488118C87B0122082B03D29A400243D0B200E01043C87330BD00008C160020BC1500207FB504468034616805460E46183108226846FBF798FF314699
:405F40002031082202A8FBF792FF102168460DF0E5FA6068102108300DF0E0FA60682B46083024331022694604F006F87FBD10B504460821FFF7F9F910212046FFF7F5F944
:405F80002079052822D0062820D008281DD12189002004F051FE072020712046FEF72AFE012819D00E212046FFF7DEFD002158200155204601F044FB2046FFF793FD204656
:405FC000FFF730FE2046FFF724FE10BD20890122002104F015FEDEE70521E4E7FFB581B01F4604460821FFF7C0F910212046FFF7BCF92079082803D0092804D0042503E02D
:406000000425012601E009250026204601F0E8F800212046FFF7A8FD25712046FFF762FD0398002E02D0012808D00BE001280AD120890022029904F0E3FD04E02189029844
:4060400004F0FAFD01272046002140300176012F07D0204601F0F4FA2046FFF7DAFD05B0F0BD02990173204603F0DAF9054605480121C28A2046FFF76DF9002DEFD10920A5
:406080002071ECE77415002070B50C460546FEF7B1FD012809D108212846FFF766F90023012221462846FFF799FF70BD10B5044601F096F82046FFF715FD00212046FFF730
:4060C00053FD10BD70B505461A24FEF793FD012809D108212846FFF748F90023012221462846FFF77BFF70BD38B505460021684600910DF079FA002801D00D2038BD284636
:40610000009C01F0C5F82146284603F0E5F806480821C28A2846FFF71DF906212846FFF723FD002038BD000074150020F8B50446002000900E4668460DF056FA002801D0DB
:406140000D20F8BD204604213430009D00F0B7FA842000590821183000F0B1FA012E02D1204601F095F82946204603F03DF806480821C28A2046FFF7EDF802212046FFF7A1
:40618000F3FC0020F8BD00007415002010B50446FFF7CAFE03212046FFF7E6FC204601F04FFB10BD10B50021FFF7C0FF10BD000038B504460021684600910DF015FA0028A2
:4061C00011D12046009A01F00BF81146204603F08EF805480821C28A2046FFF7BBF807212046FFF7C1FC38BD7415002038B504460021684600910DF0F7F9002810D12046F0
:40620000009903F002F907480821C28A2046FFF7A1F804212046FFF7A7FC204601F010FB38BD00007415002010B5FFF7A0FE10BDF8B50446002000900E4668460DF0D4F961
:40624000002801D00D20F8BD8420005908212030009D00F034FA20460421383000F02FFA002E02D1204601F013F82946204602F0E2FF0F480821C28A2046FFF76BF820460A
:4062800001F055FA00280AD0204600F027F8002803D009212046FFF767FC0020F8BD08212046FFF761FC204601F0CAFAF5E700007415002010B54021095C082906D0092928
:4062C00008D00A2901D100F097F810BD0B21FFF74BFC10BD00F002F810BD000070B504460079052805D0062803D0082811D00C2070BD03220621204603F066F80F480821B0
:40630000C28A2046FFF726F811212046FFF72CFC12E02546062140352973204603F080F80646AA8A0A20424301212046FFF712F8002E01D109202071002070BD7415002014
:4063400038B504460020009068460DF04DF9002801D00D2038BD2046009D00F0C7F908202071204600F094FF2946204602F0BFFF00213D2001550F212046FFF7F5FB20469A
:4063800001F05EFA002038BD10B5024600F028FF10211046FFF7E8FB10BD10B50446FEF729FC012809D04020005D112805D100231A4606212046FFF711FE10BD10B5FFF79A
:4063C000D6FD10BD38B504460021684600910DF00BF900280DD12046009903F016F805480821C28A2046FEF7B5FF0D212046FFF7BBFB38BD7415002038B5044600216846AA
:4064000000910DF0F1F8002801D00D2038BD2046009902F0EFFF06480821C28A2046FEF799FF0C212046FFF79FFB002038BD00007415002000787047F8B5002569460D7027
:40644000002801D0002400E0204C002C18D0204600F0CFFE002813D0207903280BD005280CD026464036B18AA07802F0E5F8B078012806D020E00420207120E00620207132
:40648000F8BD0021204602F06FFA274680373868002802D00DF016F93D600020B0702046FFF7B7FB2079072802D12046FFF7BAFB0221204601F0DEF920790428E0D1207A83
:4064C000694608703420FEF73BF9F8BDDC15002010B54C22115400F04CF810BD10B50446FF21FEF742FF09202071A07802F0CAF810BD000038B5FF216A461180002801D09A
:40650000002400E0084C002C0DD011460620FDF73BF9684601882046FFF739FC03480068C1692046884738BDDC150020F00D002010B504468079002809D022214C2001554A
:40654000FF212046FEF711FF204600F012F810BD10B5037902464032002B03D01173092B02D003E0002100E02221117300F001F810BDFEB504460089002700902781207901
:406580002646403600281AD0012818D0022816D0002002F089FF09E002AA01A9204602F0A1F9002807D101980DF082F8204602F0C1F90028F0D02046FEF74AF9B7762546BB
:4065C00080352868002802D00DF07CF82F606868002802D00DF076F86F60317B002919D0009800F065F8A078002101F0C5FA2046FFF7D8F8A07801F02BFCA07801F00EF861
:40660000FF212046FEF7B1FE0B20FEF751FE00F0A1FEFEBD1F213173E2E70000F8B517460E46054603F0E8FC04003CD020460C3001F09EFB2046062200211830FBF720FC09
:406640002046062200211230FBF71AFC1648224600683946436A28469847074626702846FEF7C8FA012148406070002D10D02889608028464030C1782171002E0FD16979C1
:406680006171018AE180418A2181808A608106E00648008BC005C00F2071002060803946204604F04CFAF8BDD40D002000102E400A4610B50146002004F08BFB10BD10B505
:4066C0000CF008FD10BD000000B50146FFF744F8002801D0002000E00348002802D002898A4200D0002000BDDC15002038B5044680346068002806D168460CF085FF002843
:4067000001D100986060606838BD000010B5014600F084FD0128887802D0FEF775FA10BD90214843024940186030007F10BD0000BC15002070B5054604464035A87F01289E
:4067400011D1A1789020084A484380186030067F3046FEF751FC002805D10220A877A078314601F02FFC70BDBC15002010B50C4CA07A002813D0FEF7EBFC0A48027F417F73
:40678000408B00F0FBFD012809D10020A07201F067FA05498989090B01D000F0AFFB10BD8C160020BC150020A0102E4070477047490510B5490F0B00FCF762F906070408D7
:4067C0000C0C0F073E21FFF783FE10BD0821FFF7BFFE10BDFFF7CDFE10BDFFF7A9FE10BDF8B507460025002D01D0002600E0204E01F0D8F93046403044890021418101F04D
:40680000F5F9304600F0F5FC01282BD1A00702D52846FFF711FEE00602D52846FFF76AFEA00601D5FEF794FC600601D500F024FD200602D5284600F01DF8600702D528460A
:4068400000F004FC380402D52846FFF7C9F9780402D52846FFF7B6F9E00703D021463046FFF7A6FF6D1C2D062D0EBCD0F8BD0000DC150020F8B5002801D0002400E0314CE7
:40688000002C5DD025464035A878012858D1FF278820493700593E46002805D02A49897A890601D5878AC68A2046FEF7A3F901280CD10096E88A2A8A3B46014602F04CFE0C
:4068C000E882A2780146104601F0E4FD2046FEF791F9012834D003F0A5FB2A8A6179FEF76BFF009001F0F4FB00983346283081B23A46204602F052FEE98AA07801F0CAFD9C
:4069000012480188688A124E002810D048431149FBF766FA0004000C01D0401C80B27080A07DC107C90F002001F0F8FE01E000207080288A698A484381B2A07801F072FEF3
:40694000F8BD0000DC1500207415002060112E40AE0D0020710200000149096809680847F00D002070B505460088FFF7ADFE04002AD000F03EFC002826D02079092823D047
:40698000204600F067FC012820D02046FEF732F90646E07920210843E071204601F0FCFF002815D0294600F03DFF4220005D002810D02325E079DF210840E071294620462D
:4069C00002F039F9284670BD022070BD3A2070BD072070BD002E05D02046FFF75BF90500E8D1EFE70C2070BD70B50E460C2500F07DFE040012D0002522892946094803F090
:406A0000F1FDFF2202212046FFF708FEA07801F08FF82046FFF7ADFD022000E000203070284670BD0E200000FEB5044600F05EFE002801D00C20FEBD022101A8FEF790FE29
:406A4000012859D168460079304F002801D0002601E03E462036002E4ED000213046FFF783F83546002040356870A8700620FEF71FFC208A6882228AE189A08902F0D0FD27
:406A800028820246608AFF23A88249330093E18AA08A02F061FDE882288AFDF70BFF6873288AFDF7F7FEE881184806228778A11DB030FBF7DCF9207901281FD06079E870F3
:406AC000A01D01F01BFDFB20074010488770217EC278012917D0FB210A40C2700C4821460068826830469047B178204601F0D8FA3046FFF735F9FEBD0920FEBD0020E87040
:406B000004200743E1E704210A43E6E7BC150020D40D002070B50D460026194A0146002801D0002401E014462034002C26D0204600F074FB01280AD19020484380186030AC
:406B4000007FFEF759FA002801D102F0DBFB0D48006881692046884700280CD020464030817EA94202D3491B817600E086762089294604F0A2F8204600F062FE70BD000057
:406B8000BC150020F00D002070B503460088FFF79BFD040013D000F02CFB00280FD02079092819D02546997840352973204602F037FC0646A878012803D0AA8A02E00220D3
:406BC00070BDEA880A20424301212046FEF7C2FB002E01D109202071002070BD0EB5002217216B460292198100905A810120029B00990CF007FE0EBDF8B518480024807A51
:406C0000002822D1164E0025B089000B22E0204601F0D8F81249A039401807882A462146384600F0ABFB012810D00E480122478305770A4944778A72002D01D0002000E06D
:406C40002030002801D000F0FBFDF8BDB089000B641CE4B20028DAD1F8BD00008C160020A0102E40BC15002010B50446C0060ED500200B4A03E0002801D0002100E011461A
:406C80000979022909D0401C0006000EF3D00548006881692046884710BD00F04DF8F6E7DC150020D40D002010B50088FFF70CFD040007D04020005D082805D00B2803D067
:406CC0000C2010BD022010BD2046FFF707FB002803D009212046FEF747FF002010BD70B503460088FFF7F0FC040008D0254640352878082805D00B2803D00C2070BD0220E1
:406D000070BD8420005910220830991CFBF7AFF82046FFF709F92878082804D02046FFF76BFB002803D00A212046FEF71DFF204600F086FD002070BD70B51C4D002801D063
:406D4000002401E02C4620342179022904D0002901D001F097FC70BD01225B210A5501F04FF8032020710820FEF7A2FA00212046FEF7FAFE0121204600F07CFD2046433023
:406D80000121064601F004F809480068016A30468847024600212046FFF740FCA078FFF7DBFDA87B401CA87370BD0000BC150020D40D002010B50C46002121700088FFF728
:406DC00083FC03000BD000F014FA002807D00948F121807A0840C00603D4112010BD022010BD022020701A8A1889002104F00EF8002010BD7415002070B50088FFF764FC5F
:406E0000040008D000F0F5F9002804D0E079C10903D0002070BD022070BDC1068025002908DA2843E07108480221C28A2046FEF791FAEEE7204600F065FA0028ECD1E17969
:406E40002943E17170BD000074150020F8B50F46002100910088FFF737FC040012D000F0C8F900280ED0E079410641D4617E02264A07002A08DB8907402500291ADA2843E5
:406E8000E07135E00220F8BD03F0B6F80021017021894180A1898180217E4170E189C1803E7005460178134803F05CFC284603F050FF1DE0204600F0B7F9012806D0684659
:406EC0000CF092FB002803D00720F8BD2A20F8BDE07900992843E071204602F0CBFA607E0421304360760448C28A2046FEF732FA0020F8BD1D040000741500203EB5002249
:406F00000F236C460292238100910190628169460EC900200CF076FC3EBD0000F8B50F46054600F0FFFB040033D003202071254600264035EE76E6702046FEF74FFF01F0D5
:406F400095FA0920FEF7B4F9A07800F06FFF0121204600F08FFC00212046FEF705FE6E70AE703A4600212046FFF758FB0B49887B401C8873A078FFF7EFFC00F0B7FB040026
:406F800006D00648B03001F0B9FA2046FEF7E8FEF8BD284601F076FBF8BD0000BC150020F8B50446002000902088FFF78DFB05001AD0FDF71FFE002812D02348807AC007BA
:406FC00010D0284600F015F900280DD0287903280CD004280AD0072808D009282AD103E00C20F8BD1120F8BD0220F8BD2F464037387801281ED02846FFF778FB06001BD063
:407000000822211DFAF733FF3046A1782030017261881022090A417221460C311838FAF726FFB878002809D001212846FEF79CFD0098F8BD0D20F8BD0720F8BD284600F0D0
:407040005BFA0090F8BD00007415002010B5002801D0002400E00B4C002C11D0214640314878022801D100204870A07DC107C90F002001F053FB2046FEF7CBFDFEF798F877
:4070800010BD0000DC15002070B503460D460088FFF71AFB04000BD000F0ABF8002807D01248F121807A0840C00603D4112070BD022070BD20464030418A008A491C414321
:4070C0000804C10C5888884201D2122070BD20822079072802D12046FEF7A4FD022028702089002103F0BAFE002070BD74150020016A491C016204D1817E491C4906490E6B
:4071000081767047C169491CC16104D1C17E491C4906490EC1767047F0B5064687B003A8009005A800270D460190002E01D0002400E01C4C002C05D06846FBF7F3FA0028A7
:4071400003D00BE0022007B0F0BD68460089C00704D1902200212046FAF792FE124829460068826820469047050018D1A6706776277100212046FEF7F7FC204600F030F880
:40718000204601F0D3FB094820825E2007550848F121807A084000D001202075E782E8B2D1E70000DC150020F00D0020B80B00007415002010B50020074B084AFF21195448
:4071C0001418401CC0B221740428F8D31F2119541018017410BD00008C160020BC150020002101628176C161C17620300177417770470079002805D0012803D0022801D0C7
:40720000012070470020704740304078012803D0022801D000207047012070474030807F002800D00120704740300078002807D0012805D0052803D00E2801D001207047CE
