:4000000000800020110000009D0200009D02000008B500F04BF9C04638B5284D12232B6001F0F6FD012001F013FE182001F0FCFC234A244B1A60244A116802230B4313606D
:40004000224A234B1A600024224B1C60224A136808218B431360FA20C00001F097FD1F4801F0D8FCFE2212021D4B1A601D4B1E4919601E490A601E4A1A60802189001D4AA1
:4000800011601D4A1A60802212061C4B1A601C4B1C6040221B4B1A6001321B4B1A6001321A4B1A6008201A4901F07CFC082001F063FC184B1C6011232B6038BD300010408A
:4000C0000600008004010B4078002E402D3E00007C002E4064F02E406CF02E40DC050000000301400000014040FF00800403014041FF00800803014042FF008008010B40D5
:4001000000010B40140101401001014008010140691D00000C020B4010B572B600222A4B1A60002410E0294863001A195200821891881B195B001A5AC3185888000410436F
:4001400000F01CF90134E4B2012CECD91F49081C0C301C3100F0F8F88022D2021C4B1A60EE2212041B4B1A6000231B4A13601B4A136099231B041A4A13601A4A13601A4BAA
:40018000197802220A431A70184C22783C20824314210A432270197816220A431A70144B18603E22134B1A600E3A134B1A6090229202124B1A600122114B1A60FFF72CFF7A
:4001C00000F002F910BDC0466CF02E40D424000014000B4000030240000002400800044020500F4030500F4000700F4001700F400002044018020440000304400803044006
:400200001804044010B5064C2378002B07D1054B002B02D0044800E000BF0123237010BD5801002000000000D024000008B5084B002B03D00748084900E000BF0748036879
:40024000002B00D108BD064B002BFBD09847F9E700000000D02400005C010020C80000200000000008B562B601F01CF968206821094A01F089F900F0CFF800F021FC00F0F8
:40028000E7FB0028FBD100F0EFF800F081FA00F065FA00F015FCF2E70C02002008B502F0D9F803680C2B00D1FEE7FEE770B50F4E0F4D13E029686B68AC68002202E001C9FB
:4002C00001C30432A242FAD1E868002202E0002102C304328242FAD11035013E002EE9D102F0BEF8FFF7BEFFFEE7C046010000005426000008B50F4A136801218B43136035
:4003000000230AE0032B03D89A000B49505800E00A4899000A4A885001332F2BF2D9FFF7FBFE0022074B1A60024A116801230B43136008BD00001040000000009D02000086
:4003400000000020C0000020F0B50025002711E0BB00C658F3B2FF22964308E06A008A181478A419527822700135013BDBB2002BF4D10137032FEBD9F0BDC04608B50A1CD7
:40038000002102F09CF808BD0C4B1B68002803D080221206134301E05B005B08074A1360074B1B68002803D080229204134301E0044A1340024A13607047C04680033A4030
:4003C00008010B40FFFFFFFD08B50323054A1360054A13600022054B1A600120FFF7D4FF08BDC0463000304030003140000E3F4008B5084B1B78002B06D100F07FF900F0DC
:40040000BDF90122034B1A7000F052F800F092FC08BDC0467401002038B5FFF7E9FF051E02D100F0E9FB051C002D02D100F048FB051C002D12D101F0F4FC041C07E001F000
:40044000CFFB201C01F0F1FC01F0EBFC041C00F0FFFA0028F3D1201C01F0E7FC00F00CFA00F072FA281C38BD70B50F4E0024002515E06B0902339B000C4AD3185A681F23E7
:400480002B40DA40131CDB0707D5301C00F06EF8041C281C311C00F005F928360135002DE7D0201C70BDC046182500000C02002030B500230BE01948191D890000220A50A8
:4004C0009A1C920082180121494251600133002BF1D0134A01231CE05568137E0F48401800240475023B012B11D81369002B01D0E87918705468002307E0181C0830400060
:40050000201801256D4245800133002BF5D028320B1C591E002BDFD130BDC0460C0200201825000010B582B0041C131C428868460280228A081C694601F096FD6B461B88FD
:4005400063806B469B7823716B46DB7863716B461B79A37102B010BD0B884A889B1A0022CA8002799A4200DACB807047F0B5574680B482B0824684684568037E0193076A48
:4005800000260023009316E02088298A3A1C01F097FD281C391C321CFFF7C4FF0C37281C211C019A00F0E6F90090281C211CFFF7D3FF0A3401365346DB8AB342E4D80098D0
:4005C00002B004BC9246F0BDF0B5474680B482B08446CB8A8A684D68086980466046002803D16C88A879201802E06C88A879201A0024012609E0D388984201D3002300E00F
:40060000331C1C430A3276003B1C5F1E002BF2D1002C0BD043461B78002B02D0013B4246137043461B78002B04D104E0EB794246137000E06446002C23D00E1C6B88AA79D9
:400640009A1ACF8A8868391C00F088FE002822D0337E022B1FD1F16901A83A1C00F0CCFE00220BE0530002A98C466344043B1988131C08335B00EB18598001329042F1D8E4
:4006800009E0002007E0031C08335B00EB18012252425A8001300028F5D0201C02B004BC9046F0BD38B5041C0B7E134A1218157D023B012B04D8281CFFF786FF051C02E0FC
:4006C000002001F06DF90C4B1B191D7563091F2214401E3AA240141C002D06D1064904339B005A58A2435A5005E0034A04339B0099580C439C5038BD0C02002038B5144DF4
:40070000281C0021682201F0DAFE124B2B8060236B805E3B2B76104C281C1A30211C3031142201F0C3FE221C083401230CE0A168E38A04E013784B7201320A31031C581EB2
:40074000002BF7D128342B1C5D1E002BEFD138BD0C0200202A280000102500000123002005E0131D9B0004495B581843131C5A1E002BF6D17047C0460C0200200023024A91
:400780009380024A136070470C020020BC01002038B500250022344B9C88E4B2052C1AD8A3003249CB589F460122314B1A6012E000222F4B1A6001320DE0FFF72DFE00226B
:4007C0002B4B1A600125013205E00222284B1A60013A00E00122002A0FD001F022FB224B9B88DBB2A34205D11F4A918880231B020B43938001F019FB00221D4B1B68012BAC
:40080000C9D0022B2ED1184A5E33D35CDBB26121525CD2B2002B25D19900C918C90015484118C98A91421DD90F48C1886224005B89B2814216D09900CB18DB000D49CB1865
:400840009C6893009A185200A41801F0EAFA064BDA8892B262215A52228892B202315A5201F0E3FA281C38BD0C020020E0250000BC01002018250000F8B501231EE0AB008B
:400880005B19DB000F4AD3185E68DB8A12E0AB005B19DB000B4AD3189F68A000001940001A6A61000B199B00D218385A318A01F0FBFB231C5C1E002BE9D12B1C5D1E002B01
:4008C000DDD1F8BD18250000C9B2062902D08318002119715300195AC3185980821800231372704770B50D4A85002B18DB00D3189C688B005918490064182818C00010182C
:40090000067E012305E0201C311C2A1CFFF7DCFF2B1C5D1E002BF6D170BDC0461825000038B5051C83001B18DB00064AD318DB8A04E0281C211CFFF7D5FF231C5C1E002B14
:40094000F7D138BD1825000010B5012303E0201CFFF7E6FF231C5C1E002BF8D110BDC0469840031C534380204000801A41435818000A7047F0B583B0071C0E1C0192012382
:400980003BE06300985BF3185988884205D3431A321900251572012201E00B1A0022002A11D17D799D420ED233191B7A3A7A934205D3301C0199221CFFF786FF1CE03219B0
:4009C0000133137218E03D799D4204D27D799D4212D9002A10D16B461B79062B0CD0090235192B79194301220823FFF7B9FF020A6300F3185A802871231C5C1E002BC0D107
:400A0000002003B0F0BDC046024A40231168994311607047CC00002030B5094803680F24A343191C074D2A780F2313400B43F02293431A1C2B78A3431343036030BDC0460D
:400A400000FF284062F2FF0F08B5FFF7E5FF08BD024B9B68802018407047C0460C02002010B50F4B9B68DB030FD400280FD1430902339B000A4AD3185A681F230340DA4077
:400A8000131CDB0705D4012404E0112402E0012400E00024002C01D100F0F8FA201C10BD0C02002008B5054B9B68DB0303D400F06BFA002000E0112008BDC0460C020020A8
:400AC00010B50C4B9B681B0612D40024012040420BE0201CFFF7C4FF002805D10022064B1A70FFF7DFFF04E00134002CF1D000E0112010BD0C020020C00100207047C046AA
:400B0000074A084B1A6001380002074B1860054B1B68002BFBDB054A024B1A607047C04640000040000001400003014040FF0080074A084B1A6001380002074B1860054BB4
:400B40001B68002BFBDB054A024B1A607047C04641000040000001400403014041FF008070B5002516E0AB005B19DB000B4A9E58002406E0E000001B8000301800F054FAC4
:400B80000134AB005B19DB00044AD3189B7DA342F0D80135002DE6D070BDC0461825000083001818C000024B18184368D87A70471825000010B50A4B1A7E0403241A012383
:400BC0008B40591E51438C4205D30302181A814203D9402002E0C02000E00020C0B210BD0C02002010B50C1CFFF7DAFF2188FFF7E1FF207310BDC046F0B5474680B488B0D5
:400C000001ABFA2292001A80C8325A80962212019A805522DA73384A9A810022374B5A70FFF7F2FE002398460024002627E0A3001B19DB00324AD3185D680C232B8001AF98
:400C4000B889304901F084FAE872201C552100F001FB2B1C0A333B6101337B61381C01F095F98046284B984200D90626274B1A7EEB7A5B00DBB29A4200D3EA720134002C75
:400C8000D5D001231D4A537001AA937300242CE0A3001B19DB001A4AD3185D682B1C0A3301AF05930133069343460393EB89FB802B1C10330793201C291CFFF793FF201C8A
:400CC000552100F0C7FA0643381C01F093F92880201C291CFFF786FF2B7B002B04D1201C552100F0B7FA06430134002CD0D0301C08B004BC9046F0BDE02E0000C001002096
:400D000018250000DC050000870D01000C02002010B5002409E0A3001B19DB00044AD3185968201CFFF75EFF0134002CF3D010BD1825000008B5FFF787FEFFF7E9FF00F091
:400D400043F8002008BDC046014A024B1A6070470002000108002840014A024B1A607047000200010800284070B50D1C161C04880123A3401C1C013CA000001940006421CF
:400D800001F0E6F901302B18A34200D9231C854201D3281A00E00020864203D39E4203D9062002E0062000E0002070BD10B5054AC02314689C4320431060081CFFF7B8FE6B
:400DC00010BDC046CC00002008B5FFF7C9FEFFF7BBFF07490B680F229343093A13430B60044B1B68044A1343044A136008BDC04600040240CC0000202008E881040028400B
:400E000038B50A30041C01F00CF8094D2A68094B1A40094B1978645C084B1B6859184B7A1B04234313432B6000F0FFFF38BDC0460800284000FF80FFF8250000740200203F
:400E400008B50A4B1B789A00D318DB00084AD3185B68D97A187B074B1B78012B02D1FFF7A5FF02E0081CFFF763FE08BDC301002018250000C1010020028801239340013B27
:400E80001B04014A53607047CC00002070B500F0C8FF041C1C4B1B681C4A13431C4A13601C4B187EFFF72CFE1B4A1C4B1A601B4B1B68002BFBDB1A4A184B1A60194D2E686D
:400EC000272000F0A5FF184B2B60F0235B0000E0013B164A1268120701D4002BF8D1114B1E60094D124B2A681343094A1360102000F042FD6F2000F08BFF6A680D4B1A609C
:400F0000201C00F092FF70BDCC0000202008E881040028400C020020410000400000014041FF008008002840F0060040100028402018E8810C00284008B5044A044B9168A8
:400F40000B439360FFF7A2FF08BDC0460C0200208000010070B5041C857E067E00F061FF23681B680F22B24093431A1C0423B3401343666832680721A9408A4332602268F4
:400F8000136000F052FF70BD70B5174E3378174D9A00D318DB00EB185868154C0023237033789A00D318DB00EB189968227893009B185B00CB180F4A1360FFF721FF3378C3
:400FC0009A00D318DB0058592178CA00531A9B00C018094B1860FFF7BDFF084800F0B6FCFFF7AAFF70BDC046C301002018250000C20100207402002078020020891E000080
:4010000008B583001818C000054BC058CB00591A89004018034B1860FFF79CFF08BDC046182500007802002038B5041C007EA57E21680B680F22824093430B6000F0F1FE43
:4010400061680B680722AA4093431A1C0623AB4013430B6000F0E9FEA1680B68607E0122824093430B6038BD08B5064B1B78012B06D1054B1868FFF7D7FF0022014B1A70BC
:4010800008BDC046C40100207802002070B5041C104D83001B18DB00EB185E68FFF7E4FFE4B20D490C700B789A00D318DB005A590A4B1A600A4A7F2390689843031C90606C
:4010C00009780B439360301CFFF7D6FEFFF7B8FE70BDC04618250000C3010020780200200C02002038B583001B18DB00124AD3185D68C9B2114C21709968227893009B187C
:401100005B00CB180E4A1360FFF7C0FF281CFFF777FE20780B4AC300181A800013689C4660441060FFF716FF0122074B1A70074800F00CFC38BDC04618250000C201002003
:401140007402002078020020C4010020311E0000044A1168044B0B40802189000B4313607047C04608002840FFFCFFFCF0B5474680B482B0071C0E1C90462E4A1378990045
:40118000CB18DB002C49CB185B680193802333701078C0B2294B1978C9B2FFF7A3FFFFF7D7FF8025FFF7C8FE254A00E0013A254B1B7A5BB2002B01DA002AF7D1224B1B68B9
:4011C0001C88BC4202D23378AB4333706D0833782B4333700198FFF713FE002DE2D1154B1B789A00D318DB00134A9858134B1978CA00531A9B00C018144B1860FFF714FF73
:401200000022134B1A70FFF7A7FD0198391C221CFFF7AAFD43461A7833789A4201D242461370094B1B6832785A7202B004BC9046F0BDC046C301002018250000C201002075
:40124000666600000C0200207402002078020020C4010020F0B54F4680B484B0051C894683001B18DB00384AD3185F68012303AA137038888340181C01384843642100F0C4
:4012800067FF0190EAB2314B1A70314800F05EFB3C1C0A3400222F4B1A7000260AE00198211C03AAFFF762FF06432A4A13780133DBB21370AB005B19DB00234AD318254AE0
:4012C00012785B7E9342EAD803AB1B7801335B08BB7200221F4B1A7023E0AB005B19DB00194AD3189A681B4B1B789C00E41864001419194B1C60637AB87A83420AD31B1AA4
:40130000D8B260724B4658436330642100F020FF607201E0002363720E4A13780133DBB21370AB005B19DB00074AD318094A12785B7E9342D1D80022064B1A70301C04B0C5
:4013400004BC9146F0BDC04618250000C3010020311E0000C201002074020020F0B50024244B1C70041C002600230BE0E588954206D9AE4204D21F4E3371012737702E1C0F
:401380000A3401338B42F1D31A4B1C78002C2FD01D1C1B799A00D21852008618F6886E81002B0ED18A00511849000A394118C988298101339900CB185B00C318DB88AB8106
:4013C00016E001398B4207D10A3A8218D288094B1A81C2889A810BE00A3A8218D188054A118101339900CB185B00C318DB889381201CF0BDC8010020F0B5474680B482B0C2
:4014000080460F1C019200262CE01A4B9B191C79002C07D173009B195B00164AD31800221A810AE0019B013B9C4206D173009B195B00104AD31800229A817500AB195B00AB
:401440000C4AD3189A891989501A5B89C9185118784300F00DFF7C4300197F30000A434658530136034B1878B042CED802B004BC9046F0BDC801002008B50A2000F07CFA7A
:4014800008BDC04608B500F01DF808BD08B5044A1368802109060B431360FFF7EDFF08BD0000254008B5064B1B78002B04D1FFF7E9FF0122024B1A70FFF7E8FF08BDC046B6
:4014C000D801002010B500241A4B1C601A4A1B4B1A601B4B1B4A13601B4A14601B491C4A11601C4A13601C4B1C600A2000F04EFA0A20032100F068FA0A20184900F052FA0E
:40150000174B1C60174B1C605222FF32164B1A60164B1C60164B1C60164B1C60503AFF3A154B1A70154B1C70154B1C80154B1C8010BDC04600002540000800406000254002
:401540000701008000032540040325401000FE00100325400002254004022540B9150000C80E2540880E2540480F2540080F2540C80F2540880F25408002002084020020FB
:401580007E0200207C02002070B5061C0D1C141E0BD00A2000F0FAF9044B1C60044B1E80044B1D800A2000F0E7F970BD880200208C0200208202002070B5B24B1B68002BCC
:4015C00000D09847B04B1C88B04B1D68B04B1E680223FF331D4236D0AE4A13685B005B081360AD4B1A7820218A431A70197810220A431A70A94B1B68DB060BD4A24B1A88BA
:40160000A74B1B889A420AD0A34A117808230B43137004E0A04A117802230B431370A14A1168A14B0B4013600023A04A13609B4A136002229E4B1A70964A13688021090618
:401640000B4313601AE1F30602D50022994B1A600A23334200D1A3E0974B1B685B0769D5964B1A68924B1B78012B04D0002B22D0022B16D057E0924B1B88002B0DD001217F
:40168000904B1960904B1B681B19D2B21A7001348B4A1388013B138048E00222894B1A6044E00121874B1960D2B2854B1A8000227F4B1A703AE0824B1B881B021A43834B61
:4016C0001B8893422BD901217E4B1960804B1B88934202D99B1A9BB200E0002378490B80072B03D80121724B197014E0082B09D16C490B68A020000203430B6000216B4BB3
:40170000196008E067490B688020800103430B600821664B1960624B1A80141C06E00222684B1A6002E0002000F03AF90422694B1A6035E05B4B1B689B0431D5B3070DD55A
:40174000654B1B681F211940564A1068564B03401360012014E00821012011E0584B1988083989B219800829F5D8002008E0564B1B681B19514A1268D2B21A700134013995
:401780000029F4D1002808D1464A1368802109020B4313600022454B1A600C224D4B1A60B3074AD5EB0615D50023404A13603B4A13603B4B1B88A34201D1022300E00A2378
:4017C0002B40354A11780B4320218B4313700222374B1A706B062ED52F4A117820230B4313702F4B1B881C1C3C4A1268D20612D5364A1288D31A324A1380394B1A6880210B
:4018000049020A431A601968364A0A401A601022224B1A6002E00422244B1A600122324B1A603249194B196031490868102303430B60244B1A60154B1D60154B1B685B077C
:401840001CD51F4B1B88002B0CD01F4B1B681B191B78DBB2274A13600134194A1388013B138002E0FF22234B1A60234B1B681F221340082BE5D10F3A204B1A60024B1C80CC
:4018800070BDC046DC0100207E020020400F2540000E25400000254084020020880F25407C02002060002540FF5FFFFFC80F254080020020880E2540CC0F254040032540AA
:4018C000E00100206C002540880200208C02002082020020C00F2540080325406400254004022540FFFFFEFF800E2540FF0F0000480F25404002254008022540800F254080
:401900008023014AD05070470000002010B5041C00F087FA044A1368C0218B43A4011C43146000F082FA10BD10E400E080225202014B1A607047C04600E100E0802252023F
:40194000014B1A607047C04680E100E010B5041CFFF7F4FF201CFFF7D3FF0320FFF7D6FFFFF7E4FF10BDC046024B1B68012018407047C0460C002E401F2318401E3B834001
:40198000181C014B1860704700E100E01F2318401E3B8340181C014B1860704780E100E001BE704738B5041C0D1C1F2802D90020FFF7F6FFA400034B9C46644420682560AF
:4019C00038BDC0464000002070B5041C0E1E032E02D90020FFF7E4FF1F2C02D90020FFF7DFFF03252540ED00063500F01AFAA408A400074B9C46644423680322AA409343A7
:401A0000AE40351C1D43256000F00FFA70BDC04600E400E008B5034B1B7B584300F0F8F908BDC046D4000020F0B557464E46C0B483B0041C00F0F5F90190E71E2D2F74D8FD
:401A40003F4B1B78DBB2A34208D33E4B1B78DBB29A463D4B1B78DBB2994631E03B4B1B78DBB2A34208D33A4B1B78DBB29A46394B1B78DBB2994623E0374B1B78DBB2A342E3
:401A800008D3364B1B78DBB29A46354B1B78DBB2994615E0334B1B78DBB2A34208D3324B1B78DBB29A46314B1B78DBB2994607E02F4B1B78DBB29A462E4B1B78DBB2994627
:401AC0002D4BDE5D2F2E09D92A2C07D919222B4B1A60052000F09CF9192503E0274B1D683F231D40AE4206D2234BDA5D234B1A60052000F08DF91F4B9C4664442378DBB206
:401B00001F4A13601F4B52461A601F4B4A461A600520FFF77FFFAE420AD9174BDA5D174B1A60052000F074F902E00020FFF738FF019800F07AF903B00CBC91469A46F0BD6C
:401B400040F3FF0F41F3FF0F42F3FF0F43F3FF0F44F3FF0F45F3FF0F46F3FF0F47F3FF0F48F3FF0F49F3FF0F4AF3FF0F4BF3FF0F4CF3FF0F4DF3FF0FFC2500002CFF0B40E5
:401B800028FF0B401CFF0B4020FF0B4010B5041C0F4A116801230B4313600E4A0E4B1A600E4A1368802109020B431360002809D100200CE00120FFF72DFFFFF7D5FE00289A
:401BC00004D1013C002CF5D1102000E0002010BD60F02E400220000078002E4010002E4008B500F01EF9044A136804218B43136030BF00F01AF908BD10ED00E0034B18684B
:401C0000C0231B02184000D00120704700010B4010B50D4B1A6801218A431A601A68022082431A60094A10683024A043203C204310601068093CA043014311601A688021C4
:401C400009060A431A6010BD00F02E4000FF2E4038B51D4B1B6801241C40002802D0012816D02BE0184B19680122914319601968022081431960154B19682E3081432038FA
:401C8000014319601968093881430A431A6018E00D4B1A6802218A431A600C4A10680725A84301431160116830208143103801431160196801220A431A6002E00020FFF757
:401CC0006FFE201C38BDC04600F02E4000FF2E4008B500F0A6F8044A1368C02109020B43136000F0A2F808BD00010B4010B500F098F808490A68084B1A408024E401224376
:401D00000A600A6813408022120213430B6000F08CF810BD00010B40FF3FFFFF70B5061C00F07FF8041CFFF769FF002803D0FFF7DDFF012500E000250848331C0340084ADC
:401D4000106808490840184310601368012D01D1FFF7BEFF201C00F068F870BD0404040010020B40FBFBFBFF10B5244B1B685B0715D5234B5B685B070ED5224B596A04207A
:401D800001401F4C62688A4362605A6A82435A629B69002B00D098470420FFF7BFFF174B1B685B0518D5164B5B685B0510D5154B596A8022D2001140114842688A4342602E
:401DC000596A114A0A405A62DB69002B00D098478020C000FFF7A2FF084B1B685B030CD5074B5B685B0304D5064B1B6A002B00D098478020C002FFF791FF10BD10020B4087
:401E0000E8000020E4010020FFFBFFFF000000000230800803D00138FDD1C046C046C0467047EFF3108072B6704780F31088704701220C4B1A600C4B1A680C4B1B780C4921
:401E400009685B00D1520B4B1B680B4A13430B4A13600B4BDA880132DA800A4A99680A409A6070471400284074020020F82500000C002840CC0000202008E8810400284006
:401E80000C0200207FFFFEFF70B5334E3378334C9A00D318DB001859314D2978CA00531A9B00C01801222F4B1A602F4B1A682F4B1B782F4909685B00D1522E4B1B682E4A14
:401EC00013432E4A1360FFF7AFF833789A00D318DB00E3185868327893009B18DB00E3189B7D2A78013B93421ED91D4C23780133DBB22370184D2B789A00D318DB00174A95
:401F0000D3189968227893009B185B00CB18164A1360FEF775FF2878C0B22178C9B2FFF76FF8FEF7B3FF15E000220D4B1A70144A144B91680B409360134A1278012A02D15F
:401F4000FEF7DCFD06E00E4A80218B439360D3880133D38070BDC046C301002018250000C20100201400284074020020F82500000C002840CC0000202008E881040028404E
:401F80000C020020FFFFFEFFC001002070B5041CFA26036980881D78E37BB60058431349704300F0D5F875436188684300F0D0F8051C2088311C684300F0CAF8A3890C4936
:401FC000584300F0C5F8013063691022082809D80822042806D80422022803D801D1187001E001221A70281C70BDC046F049020000E1F50538B5041C63698089197800F022
:40200000A7F8051C60880304181A23691978A388594300F09DF8A37B1149DD40684300F097F8E3880A21584300F092F800230D4AA16810258A425B410222D31A6232534391
:40204000984203D9013DEDB24008F9E74B236421584300F07DF8A4692080281C38BDC046A0860100A761000010B50024A34200D00C880088131C800080B2824200D2031C47
:402080009AB2A24200D2231C9AB20B805308FF2B01D9FF2300E0DBB28B70CB70D308FF2B00D9FF230B7110BD8B0813800F2393720023C90851809080D0801081D37270478C
:4020C000937A30B594885B00041B9080DBB2002C01DB937202E00133937264420F23957A1D40538895729C4203D2012B03D9013B00E0013353800F2D05D0002D03D05388A3
:402100009D00AC4204D90023D0801081D3721DE0D488844201D9D08003E01489844200D21081D07A092802D80130D0720EE01089D488001B80B2834204D989088B4203D928
:40214000013B00E0013353805388138030BD0000002243088B4274D303098B425FD3030A8B4244D3030B8B4228D3030C8B420DD3FF22090212BA030C8B4202D312120902FA
:4021800065D0030B8B4219D300E0090AC30B8B4201D3CB03C01A5241830B8B4201D38B03C01A5241430B8B4201D34B03C01A5241030B8B4201D30B03C01A5241C30A8B42EE
:4021C00001D3CB02C01A5241830A8B4201D38B02C01A5241430A8B4201D34B02C01A5241030A8B4201D30B02C01A5241CDD2C3098B4201D3CB01C01A524183098B4201D367
:402200008B01C01A524143098B4201D34B01C01A524103098B4201D30B01C01A5241C3088B4201D3CB00C01A524183088B4201D38B00C01A524143088B4201D34B00C01A00
:402240005241411A00D20146524110467047FFE701B5002000F0FCF802BDC0460029F7D003B5FFF775FF0EBC4243891A1847C04603460B437FD4002243088B4274D3030972
:402280008B425FD3030A8B4244D3030B8B4228D3030C8B420DD3FF22090212BA030C8B4202D31212090265D0030B8B4219D300E0090AC30B8B4201D3CB03C01A5241830B9D
:4022C0008B4201D38B03C01A5241430B8B4201D34B03C01A5241030B8B4201D30B03C01A5241C30A8B4201D3CB02C01A5241830A8B4201D38B02C01A5241430A8B4201D3B0
:402300004B02C01A5241030A8B4201D30B02C01A5241CDD2C3098B4201D3CB01C01A524183098B4201D38B01C01A524143098B4201D34B01C01A524103098B4201D30B01F1
:40234000C01A5241C3088B4201D3CB00C01A524183088B4201D38B00C01A524143088B4201D34B00C01A5241411A00D201465241104670475DE0CA0F00D04942031000D319
:402380004042534000229C4603098B422DD3030A8B4212D3FC22890112BA030A8B420CD3890192118B4208D3890192118B4204D389013AD0921100E08909C3098B4201D383
:4023C000CB01C01A524183098B4201D38B01C01A524143098B4201D34B01C01A524103098B4201D30B01C01A5241C3088B4201D3CB00C01A524183088B4201D38B00C01A7D
:402400005241D9D243088B4201D34B00C01A5241411A00D20146634652415B10104601D34042002B00D54942704763465B1000D3404201B5002000F00BF802BD0029F8D0CF
:4024400003B5FFF715FF0EBC4243891A1847C0467047C046014B18687047C046500100200E4B70B500251E1C0D4CE41AA410A54204D0AB00F35898470135F8E700F0D8F83F
:40248000084B00251E1C084CE41AA410A54204D0AB00F35898470135F8E770BD3C2600003C2600003C26000044260000002310B5934203D0CC5CC4540133F9E710BD031C32
:4024C0008218934202D019700133FAE7704700000000000000300F40000400400F40000404300F4002310F4002330F4008410F4038283E1458045F0119081A04AD08AE04FB
:402500003B043F029304A301AF05CEC0EA40EE10202020202000000054250000260200203A02002000000000B80100200100050002056400001900007C0100207801002020
:402540000C00640028280A031E6420040000E8030000FFFF00020240080204400002044004020440F0000000020000000401030000020240080204400002044004020440C1
:40258000000F000004000000080206000002024008020440000204400402044000F00000080000000C0309000002024008020440000204400402044000000F001000000085
:4025C00010040C00000202400802044000020440040204400000F0002000000014050F00D6070000A8070000B0070000BA070000CA070000D407000000000000030405069F
:402600000708090A0B0C0E0F101112131415161718191B1C1D1E1F2021222325262728292A2B2E2F303132333435000043000000F8B5C046F8BC08BC9E4670472D02000084
:40264000F5020000F8B5C046F8BC08BC9E4670470502000068260000C8000020900000003801000000000000000000000008C0010000FF0F010000000000E02EC05D000054
:402680001800000000366E01F00000000404040000000000000000000000000000000000000000000000000000000000000000002C2600000000000000000000000000000F
:4026C000000000000000000000000000000000000000000000000000000000000000000000000000000000000000000000000000F0000020000000000000000000000000CA
:402700000000000000000000000000000000000000000000000000000000000000000000000000000000000000000000000000000000000000000000000000000000000099
:402740000000000000000000000000000000000000000000000000000000000000000000000000000000000000000000000000000000000000000000000000000000000059
:402780000000000000000000000000000000000000000000000000000000000000000000000000000000000000000000000000000000000000000000000000000000000019
:4027C00000000000000000000000000000000000000000000000000000000000000000000000000000000000000000000000000000000000000000000000000000000000D9
:020000040003F7
:0200000490303A
:02000000613667
:0200000490402A
:4000000000000000000000000000000000000000000000000000000000000000000000000000000000000000000000000000000000000000000000000000000000000000C0
:400040000000000000000000000000000000000000000000000000000000000000000000000000000000000000000000000000000000000000000000000000000000000080
:0200000490501A
:0C00000000021A1711AA00001A2372E077
:0200000490600A
:0100000001FE
:00000001FF