:4000000000800020110000007D0B00007D0B000080B500AF00F0B6FD80B500AF2F4B12221A6003F02DFA2E4B181C03F079FC012003F036FA0C2002F0C7FF2A4B2A4A1A60B2
:400040002A4B8022D2051A60294B294A126802210A431A60274B284A1A60284B00221A60274B274A126808218A431A60FA23DB00181C03F09FF8234B181C03F0A5F9224B3D
:40008000EE22D2011A60214B214A1A60214BFE2212021A601D4B204A1A60204BFE2212021A601A4B1E4A1A601E4B802212061A601D4B00221A601D4B42221A601C4B40221C
:4000C0001A601C4B41221A60084B8022D2051A60024B00221A60BD4680BDC04630001040001BB70004010B40060000800C020B4078002E407C002E406A2D000064F02E4023
:400100006CF02E40DC050000080301400000014042FF00800003014040FF00800403014041FF008008010B4000010B402C010140140101401001014080B582B000AF72B6C7
:400140004E4B00221A60FB1D00221A7023E0FB1D1A78131C5B009B185B00494A9B183B603B681A78597809020A43997809040A43DB781B061343191C3B681A795B791B0271
:4001800013439BB2081C191C00F080FDFB1D1A78FB1D01321A70FB1D1B78012BD7D9394A394B101C191C00F081FD384B802252001A80374B01221A70364B8022D2021A6049
:4001C000354BC02292041A60344BCC2292051A60334B00221A60334B00221A60324B992212041A60314B802212061A60304B802292051A602F4B992212041A602E4BC52210
:4002000012061A602D4A2D4B1B78DBB202210B43DBB213702A4A2A4B1B78DBB23C218B43DBB214210B43DBB21370244A234B1B78DBB216210B43DBB21370224BFA221A60B4
:40024000214B224A1A60224B802212021A60214B3A221A60204BC0221A60204B902292031A601F4B03221A601E4B03221A60FFF7D3FE00F05BFDBD4602B080BD6CF02E407E
:40028000A8500100B4500100CC50010000600F4002600F4014000B400002024000030240000002400800044020500F4024500F4028500F4030500F4038500F4000700F409F
:4002C00001700F400002044008020440860144000C020440180204400003044008030440000404401804044010B5064C2378002B07D1054B002B02D0044800E000BF0123E0
:40030000237010BD2810002000000000A450010008B5084B002B03D00748084900E000BF07480368002B00D108BD064B002BFBD09847F9E700000000A45001002C100020F1
:40034000A80B00200000000080B500AF00F032F804F052F800F0FAFA124B1B78012B0CD100F036FA104B1B78012B06D105F078FF031E052B01D100F04FF80C4B1B78002BA5
:400380000ED00A4B00221A70094B1B78002B04D0074B00221A7001F00FFA002002F030F8D6E7C046481000204610002049100020AC0B002080B500AF62B6144B181C01F0C5
:4003C00089FF02F05FFB02F009FCFF2002F0E6FBFF2002F0F3FBFF2002F082FC062002F0B7FC062002F0CCFC062002F099FC084B181C02F0F5FC00F08BFD01F0DDF9054B61
:400400000820191C02F020FFBD4680BD810400006D0B0000690A000090B583B000AF002000F0D6FDC04600F043FE031EFBD101F015FBBC1D002001F05DFC031C23800E4B11
:400440001B88BA1D12889A4212D0BB1D1B880B4A934203D0BB1D1B88642B05D8BB1D1B88DBB2181C00F056F9034BBA1D12881A80BD4603B090BDC04644100020FFFF0000FC
:4004800080B584B000AF786039607B68272B00D11EE10CD8022B00D11CE102D8012B14D019E1052B00D10EE1262B12D013E1422B2DD004D8282B15D0412B1AD00BE14C2B9D
:4004C00073D0712B00D1FAE005E1844B01221A7001E1834B1B78042B03D1804B01221A70F9E0F8E07D4B01221A707E4B01221A70F1E07D4A3B68111C1A1C0223081C111CA2
:400500001A1C03F038FF794B01221A70E3E0774B00221A70764B00221A70764B00221A70734B1A78744B1A70734B00225A70734B0F221A81714B704A1A60704B02229A8029
:400540006E4A694B101C00211A1C40230FF036FF684B1A786A4B1A70694B00225A70694B14221A81674B664A1A60664B02229A80644A5D4B101C00211A1C40230FF01EFF29
:40058000614B00221A70604B00225A705E4B00229A705D4B0022DA7000F038F95B4B01221A70504B01221A7095E03B68FB60FB689B890F2B28D1FB685B681B78012B03D1C1
:4005C0004B4B01221A7007E0FB685B681B78002B02D1474B00221A70454B1A78464B1A70454B00225A70454B0F221A81434B424A1A60424B02229A80404A3B4B101C00210B
:400600001A1C40230FF0DAFEFB689B89142B2DD1FB685B681B78012B03D1364B01221A7007E0FB685B681B78002B02D1314B00221A70304B1A78324B1A70314B00225A705D
:40064000304B14221A812F4B2D4A1A602D4B02229A802C4A244B101C00211A1C40230FF0ADFE294B181C042100F082F8FB689B89132B15D1FB685B681A78234B1A70FB68A3
:400680005B685A78204B5A70FB685B689A781E4B9A70FB685B68DA781B4BDA7000F0B6F8114B1A785B781B021A4300231204120C1B0C1B041343181C0FF048F90BE0134B14
:4006C00000221A7007E03B681A78114B1A7002E0C04600E0C046BD4604B080BD491000207A220020BC0B0020902100204810002046100020471000208C210020A02100208A
:4007000088210020B0210020AC210020B00B00204E10002080B586B000AF021CFB1D1A70114B1B78002B1BD10C23FB180E221A810C23FB18FA1D1A600C23FB1801229A807A
:400740000A4B0C22B9181A785B781B021A4300231204120C1B0C1B041343181C0FF0A0F8BD4606B080BDC0464E1000209021002080B586B000AF78600A1CFB1C1A70124B27
:400780001B78002B1DD10C23FB1813221A810C23FB187A681A60FB1C1B789AB20C23FB189A800A4B0C22B9181A785B781B021A4300231204120C1B0C1B041343181C0FF032
:4007C0006FF8BD4606B080BD4E1000209021002080B500AF094B1B78002B0DD0084B1B78002B09D0064B00221A70064B1A78064B101C191C0BF0D8FFBD4680BD4810002074
:40080000B00B002090210020B40B002080B582B000AFFB1D484AD2781A70474B1B781A1CFB1D1B785343181CFF2103F07DFC031C1A1CBB1D1A70404B5B781A1CFB1D1B7847
:400840005343181CFF2103F06FFC031C1A1C7B1D1A70394B9B781A1CFB1D1B785343181CFF2103F061FC031C1A1C3B1D1A70012003F00CF8304BDB78032B0CD82F4B01223B
:400880001A70002002F064FA002002F079FA002002F046FA3CE0BB1D1B78032B14D87B1D1B78032B10D83B1D1B78032B0CD8234B01221A70002002F04BFA002002F060FAAA
:4008C000002002F02DFA23E01C4B00221A701C4B02221A70062002F03BFA062002F050FA062002F01DFABB1D1B78DB43DBB2181C02F054F97B1D1B78DB43DBB2181C02F031
:400900005DF93B1D1B78DB43DBB2181C02F0E8F90C4B13221A810B4B074A1A60094B04229A80084A084B101C00211A1C00230FF045FDBD4602B080BDAC210020BC0B002096
:400940004B100020942100209021002080B582B000AFFB1D00221A703C4B1A783C4B1B789A4209D0FB1D01221A70394B1B78032B02D1384B01221A60354B1A78334B1A707D
:40098000324B1B78032B1ED0042B45D0022B00D055E0FB1D1B78002B14D0FB1D00221A70062002F0D5F9002002F0F8F82A4B01221A702A4B02221A70012002F067FF00F081
:4009C000B5F83CE03BE0234B1B685A1E214B1A60204B1B68002B1ED102F0D6F8031EFF2B0CD1002002F0DAF8062002F0B1F9012002F072FF174B1A4A1A600CE0FF2002F06D
:400A0000CDF8002002F0A4F9002002F065FF114B144A1A6013E012E0FF2002F0BFF8002002F096F9002002F0ABF9002002F078F9002002F02BFF082002F094FCC046FB1D0D
:400A400000221A70BD4602B080BDC046BD0B00207A220020C00B00204D1000204C10002010270000983A000080B500AF02F0AEFE021C042313404ED0042002F0B5FE274BCE
:400A80001B78002B14D0264B1B78002B09D1FF2002F084F8002002F05BF9204B00221A7020E01F4B1B78013BDAB21D4B1A7019E01C4B1B78002B0FD11B4B01221A70002099
:400AC00002F046F9002002F05BF9002002F028F9002002F0DBFE05E0124B1B78013BDAB2104B1A7002F026FD012002F0F3FD082002F0B2FE642002F067FC80231B02002024
:400B0000191C02F01BFE642002F05EFC012002F0B1FD02F0E5FCBD4680BDC0464D1000204C1000204B100020BC0B002080B500AF02F000FD0020012102F03AFD00200121F0
:400B400002F062FD0820032102F0A4FB082002F0F5FB80231B020020191C02F0EFFD012002F088FD02F0BCFCBD4680BD80B500AF02F090F902F01CF9BD4680BD80B500AF3E
:400B8000FEE7C04680B586B000AF224B7B61224B3B61204B7B6135E03B691B68FB603B695B68BB603B699B683B6000237B600CE0FB681A68BB681A60BB680433BB60FB68F8
:400BC0000433FB607B6804337B607A683B689A42EED13B69DB683B6000237B6008E0BB6800221A60BB680433BB607B6804337B607A683B689A42F2D13B6910333B617B6932
:400C0000013B7B617B69002BC6D103F07FFBFFF79BFBFEE701000000D456010080B582B000AF154B144A126801218A431A6000237B600FE07B68032B04D8104B7A6892008C
:400C4000D35800E00E4B0F4A796889008B507B6801337B607B682F2BECD9FFF76DFA0A4B00221A60044B044A126801210A431A60BD4602B080BDC0460000104000000000E8
:400C80007D0B000000000020C000002080B582B000AF786039607A683B68101C00211A1C03F072FBBD4602B080BDC04680B586B000AF7860396000233B6100237B612FE06D
:400CC0007B699B007A68D3181B68BB600F23FB18BA681A70BB68FF229343BB6018E03B695B003A68D3181B781A1CBB68D318191C3B695B003A68D3185B780B703B690133A2
:400D00003B610F23FB181A780F23FB18013A1A700F23FB181B78002BE1D17B6901337B617B69052BCCD9BD4606B080BD80B500AF064B03221A60064B03221A60054B0022A8
:400D40001A60012000F008F8BD4680BD3000304030003140000E3F4080B584B000AF021CFB1D1A70154B1B68FB60FB1D1B78002B05D0FB68802212061343FB6003E0FB6805
:400D80005B005B08FB600D4BFA681A600C4B1B68FB60FB1D1B78002B05D0FB68982292051343FB6003E0FB68064A1340FB60044BFA681A60BD4604B080BDC04680033A403B
:400DC00008010B40FFFFFFD980B582B000AF00237B6007E07B68181C002100F043FC7B6801337B607B68042BF4D900F009F8002000F0A2FB00F078F9BD4602B080BDC0469F
:400E000080B582B000AF244B1B68DAB2234B1A70224B1B787B607B680F2293437B60204B1B78DBB21A1C0F2313407A6813437B607B68F02293437B60194B1B78DBB21A1CCD
:400E4000F02313407A6813437B60134B7A681A60144B154A1A60154B154A1A60154B1B687B607B680F2293437B607B68062213437B60104B7A681A60102002F073FA0E4B70
:400E80001020191C02F0E0F91020032102F002FABD4602B080BDC04600FF2840BC21002062F2FF0F0800284000020001040028400008A00100040240F51E000080B582B0BA
:400EC00000AF02F04FF802F005F80020002102F011F80020002102F055F8FF2001F0E4FF402002F029F8084B1B687B607B68074A13437B60044B7A681A60102002F01EFAFE
:400F0000BD4602B080BDC046040028400010088080B500AF0C4B1B78002B04D1FFF754FF094B01221A70FFF7C9FF01F04FF8074B01221A70064B064A12688021C9030A43D3
:400F40001A60BD4680BDC0465E100020501000200400284080B584B000AF021CFB1D1A70FB1D1A78FB1D01321A70FB1D1B78052B00D10BE0FB1D1B78074A101C191C00F0FC
:400F8000F3FA031CFB60FB68002BE9D0FB1D1B78181CBD4604B080BDC40B002080B582B000AF7860084B00221A707B68DAB2074B1A70054B81221A707B68181C00F098F974
:400FC000BD4602B080BDC046511000205210002080B586B000AF78602F4A7B68D3181A782E4B1A702E4A7B68D3181B787B617B69002B01D101237B61274A7B68D3181B78C0
:401000001A1C7B69D318013BFB6000233B610BE0244A3B69D3181978234A3B69D3180A1C1A703B6901333B613B69002BF0D000233B611CE0194B1B78DBB21A1E3B699A4236
:401040000BD83A69FB689A4207D8164A3B69101C191C012200F0AAFA06E0124A3B69101C191C002200F0A2FA3B6901333B613B69042BDFD9094B1B78DBB2042B08D80B4BE3
:4010800041221A70054B1B78DBB2181C00F030F9BD4606B080BDC046405201005210002044520100C40B0020C42100205110002080B500AF044B1B78DBB21A1C0123134069
:4010C000181CBD4680BDC0465110002080B582B000AF7860034B7A685200D35A181CBD4602B080BD5410002080B582B000AF00237B6006E07B68181C00F06EF87B68013330
:401100007B607B68042BF5D9BD4602B080BDC04690B587B000AF78602B4A7B68D3181B787B612A4A7B68D3181B781322BA18191C0B1CDB185B181370244A7B68D3181A7858
:401140001223FB1892001A701123FC1802F0F1FB031C23701E4B7A699200D3581B68FB601223FB181B780F229A40131CDA43FB681340FB601223FB181B7804229A40131CFF
:40118000FA681343FB60134B7A699200D358114A796989008A58126813217918097807208840011CC9430A401A60094B7A699200D358FA681A601123FB181B78181C02F00A
:4011C000BCFBBD4607B090BDC0510100DC510100EC5101000852010090B589B000AF78603D4A7B68D3181B787B613C4A7B68D3181A781323FB1892001A70384A7B68D318F4
:401200001B781222BA18191C0B1CDB185B1813700023FB61324A7B68D3181B78BB61314B7A699200D3582F4A796989008A5812681321791809780F208840011CC9430A404C
:401240001A60BB69022B01D10023BB61BB69012B01D00623FB611123FC1802F06AFB031C2370214B7A699200D3581B68FB601223FB181B7807229A40131CDA43FB681340D1
:40128000FB601223FB181B78FA699A40131CFA681343FB60144B7A699200D358FA681A601123FB181B78181C02F047FB0F4B7A699200D3580D4A796989008A5812680748F5
:4012C000796841180978081C01218140C9430A401A60BD4609B090BDC0510100DC510100E0210020EC510100085201002452010090B589B000AF78601B23FB184E497A6813
:401300008A1812781A701B23FB181A784B4B9200D358FB614A4A7B68101C191C00F024F9031C7B61FB69474A934209D87B69FA699A40131CFB61FB69FF2212041343FB61E1
:4013400001F010FE01F0C6FD3F4A7B68D3181B789BB2013B9BB2181C002101F0CBFD3B4A7B68D3181B789BB2013B9BB2181C002101F008FEFF2001F097FD402001F0DCFD16
:40138000102001F0EFFF324B802252021A60C0462F4B1B681B0C1B04FAD12E4B01221A60102001F0F3FF102001F0C8FF102001F0D9FF294B1B683B613B69284A13403B617B
:4013C000274A7B68D3181B78191C264A7B68D3181B781B040B433A6913433B611E4B3A691A60214B1B683B613B69204A13403B613B691F4A13433B61102001F09FFF7B6864
:40140000181CFFF785FE0F23FC1802F092FA031C2370154B3A691A60002002F081FA0C4BFA691A600F23FB181B78181C02F085FABD4609B090BDC046E4510100DC0B002082
:40144000C0210020FFFFFEFFE8210020C82100200C002840140028400800284000FF80FFD0210020D821002004002840FF1FDFFF2000200080B586B000AF7860244B1B68AA
:4014800099B2244B7A685200D152234A7B68D3181B787B61214B7A699200D358204A934214D8204A7B68101C191C00F05DF8031C3B61184B7A685200D35A1A1C3B691A4193
:4014C000131C99B2134B7A685200D1527B68181CFFF782FE102001F045FF134B1B68FB60FB68124A1340FB60FB68A02212021343FB600D4BFA681A600D4B0D4A12680D4985
:401500000A401A60102001F019FFBD4606B080BD0C00284054100020E4510100DC0B0020FFFFFEFFC021002004002840FF1FDFFF0800284000FF80FF80B584B000AF786041
:401540007B68032213407B60064B1B68FB607B685B02FA681343FB60024BFA681A60BD4604B080BD0400284080B584B000AF786039603B68DB08FB603B680722134001227E
:401580009A400B23FB181A707A68FB68D3181B780B22BA1812781340DBB2002B01D0012300E00023181CBD4604B080BD80B586B000AFF860B9607A60BB68DB087B61BB68A5
:4015C0000722134001229A401323FB181A707B68002B0DD0FA687B69D318F9687A698A1811781322BA1812780A43D2B21A700EE0FA687B69D318F9687A698A181278132165
:4016000079180978C943C9B20A40D2B21A70BD4606B080BD80B584B000AF78600023BB600023FB6015E07B68181CFFF7B7FCC046FFF73EFD031E012BFAD07B68181CFFF707
:4016400045FD031C1A1CBB689B18BB60FB680133FB60FB68002BE6D0BB689BB2181CBD4604B080BD80B582B000AF786039603B68D9B2044A7B68D3180A1C1A70BD4602B0DE
:4016800080BDC046E021002080B588B000AF786039600023FB613AE000237B611F4AFB69D3181B783B611E4AFB69D3181B78BB61BA693B69D318FB600FE03A68BB69D318A7
:4016C0001B781A1E7B699A4204D93A68BB69D3181B787B61BB690133BB61BA69FB689A42EBD30F4AFB69D3181B78BB6108E03A68BB69D3187A69D2B21A70BB690133BB6179
:40170000BA69FB689A42F2D3FB690133FB61FA697B689A42C0D3BD4608B080BD445201004052010080B582B000AF7860124B7A685200D15A114B7A685200D152104A7B681D
:40174000D31800221A700F4A7B68D31800221A70094B7A685200D15A0B4B7A685200D152054B7A685200D15A084B7A685200D152BD4602B080BDC04654100020601000203A
:401780006C10002074100020002200201422002080B582B000AF78607B68181CFFF7FEFBC046FFF785FC031EFBD17B68181CFFF7B9FFBD4602B080BD80B582B000AF002303
:4017C0007B6006E07B68181CFFF7E2FF7B6801337B607B68042BF5D9BD4602B080BDC04690B587B000AF78600F23FB1886497A688A1812781A700F23FB181A780E23FB18A6
:4018000082498A5C1A701023FB18814A796849008A5A1A807F4B1B78002B26D01223FB181022BA1812881A807B4B7A685200D15A7A4B7A685200D25A1023FC181023FB18DF
:401840001B88181C00F032FB031C2380724B7A685200D15A714B7A685200D1526E4B7A685200122179180988D1527B68DAB26C49674B081C111C1A1C02F022F9694B7A681E
:401880005200D35A1022BA1812889A4212D3664A7B68D31800221A70624B7A685200D25A1223FB181021791809888A1A1A8001237B610CE05B4B7A685200D15A1223FB1801
:4018C0001022BA1812888A1A1A8000237B617B69002B2AD10F23FB181B78544AD35C9BB21222BA1812889A421FD94F4A7B68D3181A784F497B68CB181B789A4209D37B6818
:40190000181CFFF70FFF484A7B68D31800221A7051E0454A7B68D3181B780133D9B2424A7B68D3180A1C1A7045E00E23FB181B789BB21222BA1812889A420DD90F23FB1889
:401940001B783A4AD35C9BB21222BA1812889A4231D27B69002B2ED1324B7A685200D35A1B02BB60334A7B68D3181B781A1CBB681343BB601023FB181B88BA68D318BB6078
:40198000284B7A685200D35A1A1CBB689B1ABB60BB681B0A99B2234B7A685200D152BB68D9B2244A7B68D3180A1C1A701E4A7B68D31800221A700E23FB181B789BB21222FE
:4019C000BA1812889A4217D97B69002B14D01223FB181B88FF2B05D9174A7B68D318FF221A700EE01223FB181B88D9B2124A7B68D3180A1C1A7004E00F4A7B68D318002284
:401A00001A70BD4607B090BDE4510100F021002054100020E50B002000220020142200205C22002060100020F4210020FC210020E00B00206C1000207410002080B582B030
:401A400000AF78607B68181C00F042FB7B68181CFFF7C6FEBD4602B080BDC04680B582B000AF00237B6011E00B4A7B68101C191CFFF77AFD031C3B603B68002B03D07B6889
:401A8000181CFFF7DBFF7B6801337B607B68042BEAD9BD4602B080BDC40B002090B585B000AF041C081C111CFB1D221C1A70BB1D021C1A707B1D0A1C1A700E23FB18FF22D3
:401AC0001A700D23FB1800221A70FB1D1A78204BD318BB600F23FB1800221A702AE00F23FB181B78BA68D3181B787A1D12789A4219D20F23FB181B78BA68D3181B780D2250
:401B0000BA1812789A420ED20E23FB180F22BA1812781A700F23FB181B78BA68D2180D23FB1812781A700F23FB181A780F23FB1801321A700F23FA18BB1D12781B789A4209
:401B4000CDD30E23FB181B78181CBD4605B090BD74100020B0B588B000AF051C0C1C101C191CFB1D2A1C1A70BB1D221C1A707B1D021C1A70BB1C0A1C1A80BB1D1A785B4BAC
:401B8000D318BB611F23FB1800221A70FB1D1B78002B05D01F23FB18FA1D1278013A1A701723FB18FA1D127801321A70FB1D1B78BA69D3181A784E4B5A70FB1D1B78002B88
:401BC0000BD14B4B00221A701723FB181B78BA69D3181A78464B9A7022E0FB1D1A787B1D1B78013B9A420BD11F23FB181B78BA69D3181A783E4B1A703D4B00229A700FE0A3
:401C00001F23FB181B78BA69D3181A78384B1A701723FB181B78BA69D3181A78344B9A70334B1B783022BA1812789A4209D2304B1A783023FB181B78D31ADAB22C4B1A7010
:401C400002E02B4B00221A70294B5A783023FB181B78D31ADAB2264B5A70254B9B783022BA1812789A4209D2214B9A783023FB181B78D31ADAB21E4B9A7002E01C4B0022B7
:401C80009A701B4B9B781A1C194B1B78D31A3B61174B1B781A1C164B5B78D318144A92789B18FB603B691B02181CF96802F03CFA031C1A1CFB1D1B781B02D318FB60BB1C73
:401CC0001B881AB2FB685343FB60FB68FE22D201944663441A0C0B23FB181A700B23FB181B78181CBD4608B0B0BDC046741000208410002090B589B002AF78601523FB1879
:401D000066497A688A1812781A701423FB1864497A688A1812781A701323FB1800221A701223FB1805221A705E4A7B68D3181A781123FC181323FB1819781223FB181B78DA
:401D4000081C191CFFF7AAFE031C23701123FB181B78FF2B00D189E0C8235C01524A7B68D3181B781122BA1810781322BA1811781222BA1812780093231CFFF7EBFE031CBA
:401D80001A1C1623FB181A801423FB181B781F22134000D17BE01023FB181522BA18127801321A701523FB181B783C4AD35C002B25D11023FB181B781622BA181288D1B220
:401DC000364AD1541423FB181B780122134005D11423FB181B780222134009D01023FB181B7801331622BA181288D1B22B4AD1541523FB181B78294A0121D15447E0142324
:401E0000FB181B780222134041D00F23FB181622BA1812881A701023FB181B781F4AD35C99B21023FB181B7801331C4AD35C9AB21623FC181623FB181B88181C00F036F8C9
:401E4000031C23801023FB181B7801331022BA1812781249895C114AD1541023FB181B780E4A0F2179180978D15410E01623FB18012252421A801423FB181B781F221340AF
:401E800005D01523FB181B78044A0021D1541623FB181B88181CBD4607B090BDF00B0020EC0B002010220020F021002090B585B000AF041C081C111CBB1D221C1A803B1D5A
:401EC000021C1A80BB1C0A1C1A80BB1D1A883B1D1B88D218BB1C1B88D318181C032102F093F8031CFB60FB689BB2181CBD4605B090BDC04680B500AF102001F033FA2D4BE7
:401F000001221A602C4B1B78DBB2181CFFF7B2FA2A4B1B78DBB2DBB25BB2002B08DA274B1B78DBB201229343DAB2244B1A703CE0214B1B78DBB2181CFFF70CF8031C1A1C20
:401F40001D4B1A701C4B1B78DBB2042B06D81A4B1B78DBB2181CFFF7CBF926E0174B1B78DBB201229343DAB2144B1A70134B1B78DBB21A1C4023134017D0114B00221A7019
:401F80000FE00F4B1B781A1C0D4B1B78191C0D4B595C0D4B99540A4B1B780133DAB2084B1A70074B1B78002BEBD0102001F0C6F9BD4680BD140028405210002051100020AE
:401FC00088100020C4210020C40B002080B582B000AF364B05221A70344B01225A70334B05229A70314B0C22DA80304B304A9A802E4B304A9A6000F0E3F800233B6007E062
:402000002D4B3A6892002D49D1503B6801333B60264B5B781A1E3B689A42F1D800237B600CE0274A7B68D31804221A70254A7B68D31801221A707B6801337B607B68042B60
:40204000EFD900F0C9F8194B1F4A181C111C01F097FC1E4B0120191CFFF716FB134B181C01F09FFC114B184A181C111C01F088FC164B0120191CFFF707FB0C4B181C01F092
:40208000B1FC0A4B181C00F0C1F800237B6006E07B68181C00F01CF87B6801337B607B68042BF5D9BD4602B080BDC0465C220020980900005C520100DC0B00200000FF0F75
:4020C000C8210020E82100209A0D0000D021002090B587B002AF7860334A7B68D3181B78FB607B68D9B2FB68DAB23048304C314B0093231C01F062FD0B23FB182C49FA68B1
:402100008A1812781A702B4AFB68D31819782A4AFB68D3180A1C1A700B23FB181B78DB2B0AD80B23FB181B78DB08D9B2234AFB68D3180A1C1A7034E00B23FB181B78EC2BBB
:402140000AD80B23FB181B781B09D9B21B4AFB68D3180A1C1A7024E00B23FB181B78F42B0AD80B23FB181B785B09D9B2134AFB68D3180A1C1A7014E00B23FB181B78F92BB4
:402180000AD80B23FB181B789B09D9B20B4AFB68D3180A1C1A7004E0084AFB68D31800221A70BD4605B090BDE45101005C22002010220020F0210020FC2100200C220020D0
:4021C00080B500AF034B034A126840218A431A60BD4680BD0400284080B582B000AF094B1B687B607B68084A13407B607B688022920013437B60034B7A681A60BD4602B0C0
:4022000080BDC04608002840FFFCFFFC80B584B000AF78600023FB6019E01B4AFB68D3181B785B08D9B2194AFB68D3180A1C1A70154AFB68D3181B7801335B08D9B2124A3B
:40224000FB68D3180A1C1A70FB680133FB607B681B781A1EFB689A42DFD8102001F082F80B4B1B68BB60BB680A4A1340BB60BB68094A1343BB60064BBA681A60102001F061
:402280005DF8BD4604B080BDD0210020D821002008002840FFFCFFFC0002000180B500AF064B00221A70064B00221A70054B00221A7000F009F8BD4680BDC046832200206C
:4022C0007C2200208222002080B500AF00F0D6FBBD4680BDB0B594B004AF78603E23FB1800221A802823FA183E4B111C1A1C1423081C111C1A1C02F03EF83B4B1B78002BA0
:4023000004D1FFF7CBFF384B01221A707B68002B5CD0364B7A681A603E23FB181B88002B29D11023FB181C22BA185A601023FB182022BA181A601023FB1800221A8120235B
:40234000FB181B221A802023FB181B225A802023FB1804221A711C23FB1808221A703E23FC181023FA180E23FB18101C191C02F019F9031C23803E23FB181B88002B29D198
:402380003E23FC181A481B49AE231A012823FD180523009300230193002302932B1C02F05DF8031C23803E23FB181B88002B11D1114B01221A703E23FC18104B181C1521B5
:4023C0000F220DF0E3FF031C238003E03E23FB1801221A803E23FB181B88181CBD4610B0B0BDC046B8520100891000207022002035270000C80000207A2200201453010098
:4024000090B585B000AF021CFB1D1A70FB1D1B78022B04D90E23FB1801221A804DE02A4B1B78042B44D1294B1B78DBB21A1C042313403DD1FB1D1B78002B0DD1244B1E22CF
:402440001A82234B5B68902252001A80204B5B68A02252005A8010E0FB1D1B78012B0CD11B4B96221A821A4B5B68C822D2001A80174B5B68FA2212015A80164BFA1D1278C9
:402480001A700E23FC18124B181C0CF0A9F8031C23800E23FB181B88002B08D10B4B1B78DBB204221343DAB2084B1A7005E004E00E23FB180422FF321A800E23FB181B8832
:4024C000181CBD4605B090BD7A220020832200204C0C00208222002080B584B000AF78600A1CFB1C1A700023BB60BB68002B20D07B689A79BB681A700F23FB1800221A701F
:4025000012E00F23FB181B780133BA68D3180F22BA18127879688A5C1A700F23FB181A780F23FB1801321A700F23FB181B78052BE7D9BD4604B080BD80B582B000AF78602F
:402540007B681B789AB27B6801331B789BB21B029BB213439BB2181CBD4602B080BDC04690B585B000AF78600F23FB1800221A707B689B890B22934237D17B681A1D7B6869
:402580000F217C18101C00211A1C40230DF016FF031C23700F23FB181B78002B1DD17B685B68181CFFF7C8FF031C1A1C022313409BB2002B08D0104B1B68822251007A6853
:4025C000081C111C984708E00B4B1B680622FF32111C7A68081C111C9847084B1B78DBB201229343DAB2054B1A700F23FB181B78181CBD4605B090BD7022002083220020F8
:4026000090B585B000AF78600F23FC187B68181CFFF7A6FF031C2370144B1B78DBB21A1C012313401FD10F23FB181B78002B16D00823FB1812229A707B689A890823FB182A
:402640001A800823FB180F22BA181278DA707B680822BA181868111C0DF0E4F803E07B6818680DF073F9BD4605B090BD8322002080B582B000AF7860BD4602B080BDC046E7
:4026800080B500AF034B00225A70024B00221A70BD4680BD8022002080B582B000AF7860BD4602B080BDC04680B500AFBD4680BD80B584B000AF78600E23FB1800221A7017
:4026C0007B689B79002B1CD10F23FB1800221A7012E00F23FB181B787A68D35C002B04D00E23FB1801221A700BE00F23FB181A780F23FB1801321A700F23FB181B78052B43
:40270000E7D90E23FB181B78181CBD4604B080BD80B582B000AF021CBB1D1A80BD4602B080BDC04680B582B000AF7860BD4602B080BDC04680B588B000AF021C3960FB1D6B
:402740001A70BF4B1B78DBB201221343DAB2BC4B1A70FB1D1B78712B00D956E19A00B94BD3181B689F461023FB1807221A701023FB1800225A701023FB18181C03F0A2FD90
:402780001023FB1807221A701023FB1801225A701023FB18181C03F095FDAB4B1B68181CFFF786FF031E11D0A74B1B68181C01F027FEA54B1B68181C0021FFF78DFEA24BCF
:4027C0001B68181C0121FFF787FE36E09F4B1B781A1C3F231A409E4B1B78191C3F230B409B011A439B4B1B78191C1F230B401B031A43994B1B78191C7F230B405B041343A5
:40280000BB61BB69DAB2954B1A70BB691B0ADAB2924B5A70BB691B0CDAB2904B9A708F4B181C01F0EDFD8D4B181C0021FFF754FE8A4B181C0121FFF74FFE03200BF080FDC3
:402840000C23FB183F221A700C23FB1800225A700C23FB18181C0BF091FD814B04221A70D4E03B68181CFFF717FFCFE03B681A787C4B1A70CAE03B687B617B691B78002BEB
:4028800018D17B695B78002B0BD1774B0022DA80754B00229A80744B744A1A607B69724A5A60674B1B78DBB201229343DAB2644B1A70ABE0AAE0624B1B78DBB21A1C2023FB
:4028C000134016D16A4B1B78102B02D1684B0522DA70684B1A78664B101C191C0BF040FE574B1B78DBB201221343DAB2544B1A708CE08BE03B68181CFFF714FF86E03B68E4
:40290000181CFFF70FFF564B02221A707EE0544B04221A707AE0524B1B78022B34D0484B1B78DBB21A1C012313402DD0444B1B78DBB21A1C042313400BD0494B03221A70CE
:402940003F4B1B78DBB204229343DAB23C4B1A701AE03B4B1B78DBB21A1C082313400BD03F4B04221A70364B1B78DBB208229343DAB2334B1A7007E0394B1B78032B03D176
:40298000374B04221A7041E040E03B681B88181CFFF7BEFE3AE0374A3B68111C1A1C0223081C111C1A1C01F0E6FC2E4B00221A70FFF77AFE2AE0FFF763FE27E03B685B88D7
:4029C000172B05D81E23FB183A6852881A8003E01E23FB1818221A803B681E22BA1811881A8800231204120C1B0C1B041343181C0CF022FF0AE03B68181CFFF701FE05E074
:402A00003B68181CFFF734FE00E0C0460C4B1B78DBB21A1C112313400FD0094B1B78DBB201229343DAB2064B1A70134B1B68FA1D11783A68081C111C9847BD4608B080BD7F
:402A400083220020B8540100680C00207CF2FF0F7DF2FF0F7BF2FF0F78F2FF0F600C00207A2200207C2200208C100020A80B0020200D0020802200207022002080B500AFCA
:402A8000BD4680BD80B500AF064B1B78002B04D100F00AF8034B01221A7000F03DF8BD4680BDC0469410002090B583B000AFFF2000F040F8B82000F057F8012000F06EF8F6
:402AC000012000F07BF8FC1D00F033FF031C23700F4A0F4B1B78DBB201210B43DBB21370FB1D1B78181C00F028FF0A4A094B1B78DBB202218B43DBB21370064A054B1B7820
:402B0000DBB204218B43DBB21370BD4603B090BD93000F4073000F4080B500AF044A044B1B78DBB201210B43DBB21370BD4680BD73000F4080B582B000AF021CFB1D1A7065
:402B4000FB1D1B78002B07D0054AFB1D1B781370044AFB1D1B781370BD4602B080BDC04643000F4003000F4080B582B000AF021CFB1D1A70034AFB1D1B781370BD4602B0CD
:402B800080BDC04613000F4080B500AF024B1B78DBB2181CBD4680BD23000F4080B582B000AF021CFB1D1A70034AFB1D1B781370BD4602B080BDC04623000F4080B582B017
:402BC00000AF021CFB1D1A70034AFB1D1B781370BD4602B080BDC04633000F4080B500AF064B1B78002B04D100F00AF8034B01221A7000F03DF8BD4680BDC046951000208C
:402C000090B583B000AFFF2000F040F8B82000F057F8012000F064F8012000F071F8FC1D00F087FE031C23700F4A0F4B1B78DBB201210B43DBB21370FB1D1B78181C00F0C6
:402C40007CFE0A4A094B1B78DBB202218B43DBB21370064A054B1B78DBB204218B43DBB21370BD4603B090BD92000F4072000F4080B500AF044A044B1B78DBB201210B4398
:402C8000DBB21370BD4680BD72000F4080B582B000AF021CFB1D1A70FB1D1B78002B07D0054AFB1D1B781370044AFB1D1B781370BD4602B080BDC04642000F4002000F40AD
:402CC00080B582B000AF021CFB1D1A70034AFB1D1B781370BD4602B080BDC04612000F4080B582B000AF021CFB1D1A70034AFB1D1B781370BD4602B080BDC04622000F4070
:402D000080B582B000AF021CFB1D1A70034AFB1D1B781370BD4602B080BDC04632000F4080B582B000AF021CFB1D1A70064B064A126806491140FA1D127852050A431A6079
:402D4000BD4602B080BDC04608030440FFFF1FFF80B582B000AF021CFB1D1A70064B064A126806491140FA1D127892040A431A60BD4602B080BDC04608020440FFFFE3FF3B
:402D800080B582B000AF021CFB1D1A70064B064A126806491140FA1D127892040A431A60BD4602B080BDC04608030440FFFFE3FF80B582B000AF094B1B68DAB2FB1D7F212C
:402DC0008A431A70054BFA1D12781A60FB1D1B78DB09DBB2181CBD4602B080BD1002044080B582B000AF786000F04AF87B68181C00F008F8032000F011F800F037F8BD4614
:402E000002B080BD80B582B000AF7860024B7A689A64BD4602B080BD0000002090B585B000AF021CFB1D1A701623FB600B23FC1800F07FFD031C23700A4B0A4A12680A4923
:402E40001140FA1D1078FA689040021C0A431A600B23FB181B78181C00F06FFDBD4605B090BDC04600E400E0FFFF3FFF80B500AF024B04221A60BD4680BDC04600E100E004
:402E800080B500AF024B04221A60BD4680BDC04680E100E080B500AF024B04221A60BD4680BDC04680E200E080B582B000AF7860C046064B1B68002BFBDB044B7A68120253
:402EC00003490A431A60BD4602B080BD000001404000008080B500AFC046044B1B68002BFBDB024B024A1A60BD4680BD000001404000004080B584B000AF021CBB1D1A8053
:402F00007B1D0A1C1A700B4B1B6807221340FB60BB1D1B881A02FB681A437B1D1B78DB00FF210B401343BB60024BBA681A60BD4604B080BD0003014080B582B000AF786051
:402F4000C046064B1B68002BFBDB044B7A68120203490A431A60BD4602B080BD000001404100008080B500AFC046044B1B68002BFBDB024B024A1A60BD4680BD00000140D9
:402F80004100004080B584B000AF021CBB1D1A807B1D0A1C1A700B4B1B6807221340FB60BB1D1B881A02FB681A437B1D1B78DB00FF210B401343BB60024BBA681A60BD46CB
:402FC00004B080BD0403014090B585B000AF78600C23FC1800F0ADFC031C23707B68022B00D8B4E07B68302B00D9B0E05E4B1B78DBB21A1E7B689A420AD35C4A0F23FB185E
:4030000012781A705A4A0E23FB1812781A703FE0584B1B78DBB21A1E7B689A420AD3564A0F23FB1812781A70544A0E23FB1812781A702DE0524B1B78DBB21A1E7B689A421A
:403040000AD3504A0F23FB1812781A704E4A0E23FB1812781A701BE04C4B1B78DBB21A1E7B689A420AD34A4A0F23FB1812781A70484A0E23FB1812781A7009E0464A0F2388
:40308000FB1812781A70454A0E23FB1812781A707B68DA1E0B23FB1841498A5C1A700B23FB181B782F2B0DD97B682A2B0AD93D4B19221A60052000F033FC0D23FB181922BE
:4030C0001A7007E0374B1B68DAB20D23FB183F210A401A700B23FA180D23FB1812781B789A4208D22F4B7A68033A2D498A5C1A60052000F015FC7B68284A9A180A23FB1825
:4031000012781A70284B0A22BA1812781A60274B0F22BA1812781A60254B0E22BA1812781A60052000F050F90B23FA180D23FB1812781B789A4209D91A4B7A68033A184976
:403140008A5C1A60052000F0EBFB03E002E0002000F030F90C23FB181B78181C00F0EDFBBD4605B090BDC04640F3FF0F41F3FF0F42F3FF0F43F3FF0F44F3FF0F45F3FF0F75
:4031800046F3FF0F47F3FF0F48F3FF0F49F3FF0F4AF3FF0F4BF3FF0F4CF3FF0F4DF3FF0F805601002CFF0B4028FF0B401CFF0B4020FF0B4080B584B000AF78600023FB60BE
:4031C000154B154A126801210A431A60134B144A1A60144B134A1268802109020A431A607B68002B12D01023FB600CE0012000F0EBF800F019F8031E02D00023FB6005E019
:403200007B68013B7B607B68002BEFD1FB68181CBD4604B080BDC04660F02E4078002E400220000010002E4080B582B000AF054B1B68012213407B607B68181CBD4602B0EB
:4032400080BDC0460C002E4080B584B000AF021C3960FB1D1A7080239B05FB60FB1D1B781F2B02D9002000F0A5F8FB1D1B7810339B00FA68D3181B68BB60FB1D1B781033A3
:403280009B00FA68D3183A681A60BB68181CBD4604B080BD90B587B000AF021CFB1D1A70BB1D0A1C1A70BB1D1B78032B02D9002000F080F8FB1D1B781F2B02D9002000F070
:4032C00079F8FB1D1B7803221340DB0006337B611323FC1800F02DFB031C2370FB1D1B789B08DBB29B00144A944663441B68FB607B6903229A40131CDA43FB681340FB60C3
:40330000BB1D1A787B699A40131CFA681343FB60FB1D1B789B08DBB29B00074A94466344FA681A601323FB181B78181C00F005FBBD4607B090BDC04600E400E080B582B0C7
:4033400000AF021CFB1D1A70054BFA1D12781F210A40012191400A1C1A60BD4602B080BD00E100E080B582B000AF021CFB1D1A70054BFA1D12781F210A40012191400A1CB3
:403380001A60BD4602B080BD80E100E080B582B000AF021CFB1D1A70054BFA1D12781F210A40012191400A1C1A60BD4602B080BD80E200E080B582B000AF021CFB1D1A7072
:4033C00001BEBD4602B080BD80B582B000AF021CBB1D1A80BB1D1B88044A12785343181C00F09EFABD4602B080BDC046300D002080B500AF0E4B0E4A126801218A431A6004
:403400000B4B0B4A126802218A431A60094B094A126830218A4310210A431A60054B054A126807218A4301210A431A60BD4680BD00F02E4000FF2E4080B500AF0E4B0E4A2F
:40344000126802218A431A600C4B0C4A126807218A4302210A431A60084B084A126830218A4320210A431A60034B034A126801210A431A60BD4680BD00F02E4000FF2E4014
:4034800080B500AFFFF7B4FF044B044A1268802109060A431A60BD4680BDC04600F02E4080B584B000AF78600C4B1B6801221340FB607B68002B02D0012B03D005E0FFF7F8
:4034C00097FF06E0FFF7B8FF03E00020FFF772FFC046FB68181CBD4604B080BD00F02E4090B583B000AFFC1D00F023FA031C2370074B074A1268C02109020A431A60FB1D63
:403500001B78181C00F019FABD4603B090BDC04600010B4080B500AF054B1A68C0231B02134001D0012300E00023181CBD4680BD00010B4090B583B000AFFC1D00F0F9F989
:40354000031C23700C4B0C4A12680C490A408021C9010A431A60084B074A126807490A40802109020A431A60FB1D1B78181C00F0E4F9BD4603B090BD00010B40FF3FFFFF3F
:4035800080B582B000AF78607B68022B02D90020FFF710FF054B1B687A68D2000132D34001221340181CBD4602B080BD10020B4080B584B000AF786039607B68022B02D9D3
:4035C0000020FFF7F7FE7B68181CFFF7D9FF031E15D10C4B1B687A68D200111C03228A40D2431340FB603B68032213407A68D2009340FA681343FB60024BFA681A60BD4686
:4036000004B080BD0C020B4080B584B000AF786039607B68002B02D07B68012B01D1012300E00023002B02D10020FFF7C3FE7B68181CFFF7A5FF031E16D10D4B1B687A6884
:40364000D2000232111C01228A40D2431340FB607B68DB0002331A1C3B689340FA681343FB60034BFA681A60BD4604B080BDC0460C020B4080B582B000AF7860144B144A8D
:4036800011687A680A431A607B680122134005D0C0460020FFF774FF031EFAD07A6880235B00134005D0C0460120FFF769FF031EFAD07A6880235B02134005D0C046022096
:4036C000FFF75EFF031EFAD0BD4602B080BDC04610020B4080B582B000AF7860FFF71AFF031E26D1144B144A12687968C9430A401A607B680122134005D0C0460020FFF7F0
:403700003FFF031EFAD17A6880235B00134005D0C0460120FFF734FF031EFAD17A6880235B02134005D0C0460220FFF729FF031EFAD1BD4602B080BD10020B4080B584B027
:4037400000AF786039607B68002B02D07B68012B01D1012300E00023002B02D10020FFF729FE174B1B689B0F9B0701D1C92300E05D23181CFFF728FE124B1B68FB607B6849
:403780001B011A1C104B9340DA43FB681340FB600C4B7A681201111C3A688A40111CFA680A431A60064B1B689B0F9B0701D1432300E01F23181CFFF707FEBD4604B080BD83
:4037C0000C020B4008020B40FFFF000080B500AF034B1B68034A1340181CBD4680BDC04610020B400404040090B585B000AF78600B23FC1800F09DF8031C2370FFF78AFEED
:40380000031E04D00123FB60FFF794FE01E00023FB607B680D4A13407B600D4B0C4A12680C4911407A680A431A60094B1B68FB68012B01D1FFF754FE0B23FB181B78181CC6
:4038400000F07BF8BD4605B090BDC0460404040010020B40FBFBFBFF80B582B000AF7860084B084A11687A68074802400A431A60C046044B1B68044A1340FAD1BD4602B042
:4038800080BDC04610020B400808080080B584B000AF021CFB1D1A700E4B1B68DAB20F23FB1804218A431A70FB1D1B789B00DBB204221340D9B20F23FB180F22BA181278A6
:4038C0000A431A70034B0F22BA1812781A60BD4604B080BD0002044080B584B000AF021CFB1D1A700D4B1B68DAB20F23FB1801218A431A70FB1D1B7801221340D9B20F2387
:40390000FB180F22BA1812780A431A70034B0F22BA1812781A60BD4604B080BD000204400230800803D00138FDD1C046C046C0467047EFF3108072B6704780F31088704711
:40394000F7B59C180023071C08268025019100922370237800982B432370BB689B6C9847019B984202D22378AB432370013E6D08002EEED12378F82B01D9F8232370F7BDD9
:4039800070B5051C0E1C00242B789C4208D2AB68221C281C311C1B68FFF7D2FF0134F3E770BD38B5051C00242B789C4219D2AA6813681B5DDB080F2B00D90F23D16BD2686F
:4039C000C95C1155AA68042B04D9936D906B211C012203E0936D906B211C002298470134E2E738BDF0B5041C002687B063789E4262D2A3685A6C925D0392002A01D101321F
:403A000003921A6C925D019201992278914251D29A689B69515C0F221140B2000492002205910499019D5A50019B5B000293039B019A9B189D423DD2A768E388A088584302
:403A4000FB68595D00F070FB3B68595D00F0DCFA059B5843194B40005A2802D95B084008FAE7BA6904991B0C1B045350A36882085B6B01215855A368C008DB69029F5A55B1
:403A80000F22A36849421B6A5855A3685B6A5A55A368986AC1530021D86AC153186B9B68C1535B19197801350A401A703B1C02330293BCE7013699E707B0F0BD0000FFFF70
:403AC000F0B585684E002B6B925B9B191C8887B0141B0094AC6A1A80A45B6B6A0294EC6A5F5CA45B2B6A03946C6B7F00645C5B180494AC680193645C1B780594009CE40F77
:403B0000A4460F24251C6744009C3D40AC46E51764196C409C4203D2012B05D0013B00E00133FF273F2B00D89F00019D2B7065460F2D29D0002D24D0BC4225D8059C029FCA
:403B400024090094974200D9171C039D954200D2151C009A092A01D8141C01343A1C0A2C14D1EA1B934206D9049A92089A42924152429B1A00E001338268D26953543A1C8A
:403B800004E0151C644601E0151C00246746836824015B6A5F5483689F6ABA53DA6A9B6895530F225B181D782A401A7083689B6859180B781C430C7007B0F0BD70B5806850
:403BC000446BC069655C405CFF213F2801D88100C9B246B2FF24002E01DB4000C4B28D4201D9291C6C08012081439954049B9C5470BD000080B582B000AF78600A1CBB1C7E
:403C00001A80BB1C1A887B681A60BD4602B080BD80B582B000AF78600A1CBB1C1A80BB1C1A887B681A60BD4602B080BD80B584B000AF494B1B78DBB21B02484A1278D2B24C
:403C40001343FB60464B1B78DBB21B02454A1278D2B21343BB60BB68434A934207D1FB68072B04D1414BBB600423FB6009E0BA68D4231B019A4204D1FB68042B01D13B4B0E
:403C8000BB603B4BBA681A603A4BFA681A603A4B1B78DBB21B02394A1278D2B21343FB60FA6880239B019A4202D0FB68002B01D1334BFB60334BFA681A60334B1B78DBB2E2
:403CC0001B02324A1278D2B21343FB60FB68304A934206D0FB682F4A934202D0FB68052B01D12D4BFB602D4BFA681A602C4B1B681B097B602B4B1B68AA2B29D17B68012B05
:403D000026D9214B1B78DBB20E2B21D1264B1B78DBB29BB21B0299B2244B1B78DBB29AB2BB1C0A431A80224BBA1C12881A60214B1B78DBB29BB21B0299B21F4B1B78DBB2CC
:403D40009AB23B1C0A431A801C4B3A1C12881A60BD4604B080BDC04659F1FF0F58F1FF0F5FF1FF0F5EF1FF0F580B0000580D00006C002E4074002E405BF1FF0F5AF1FF0F4D
:403D80000220000078002E405DF1FF0F5CF1FF0F0F0F000005050000050F000080002E40EC0F00F0E00F00F06DF2FF0F6CF2FF0F84002E406FF2FF0F6EF2FF0F94002E40A6
:403DC00080B582B000AF021CBB1D1A80BB1D1B88181CFFF7F9FABD4602B080BD80B500AF00F0DEF8BD4680BD80B500AF00F0E2F8BD4680BD80B500AF00F0DCF8044B181C90
:403E000000F09CF8022000F0A5F8BD4680BDC046FD3F000080B500AF024B181C00F07CF8BD4680BDFD3F000080B500AF014B181CBD4680BD0202000080B582B000AF7860F2
:403E40002B23181CBD4602B080BDC04680B582B000AF78602B23181CBD4602B080BDC04680B582B000AF78602B23181CBD4602B080BDC04680B582B000AF78602B23181C88
:403E8000BD4602B080BDC04680B582B000AF78602B23181CBD4602B080BDC04680B582B000AF78602B23181CBD4602B080BDC04680B582B000AF78602B23181CBD4602B015
:403EC00080BDC04680B582B000AF78602B23181CBD4602B080BDC04680B500AF2B23181CBD4680BD80B582B000AF021CFB1D1A702B23181CBD4602B080BDC04680B582B0BA
:403F000000AF786039602B23181CBD4602B080BD80B500AFBD4680BD80B582B000AF786000F048F87B68181C00F008F8022000F011F800F035F8BD4602B080BD80B582B013
:403F400000AF7860024B7A681A67BD4602B080BD0000002090B585B000AF021CFB1D1A700623FB600B23FC18FFF7E3FC031C23700A4B0A4A1268C0218A43111CFA1D107825
:403F8000FA689040021C0A431A600B23FB181B78181CFFF7D2FCBD4605B090BD0CE400E080B500AF024B802252011A60BD4680BD00E100E080B500AF024B802252011A6008
:403FC000BD4680BD80E100E090B583B000AFFC1DFFF7AFFC031C2370074B074A126804218A431A6030BFFB1D1B78181CFFF7A5FCBD4603B090BDC04610ED00E080B500AFF5
:4040000011F03CF8BD4680BD002243088B4274D303098B425FD3030A8B4244D3030B8B4228D3030C8B420DD3FF22090212BA030C8B4202D31212090265D0030B8B4219D328
:4040400000E0090AC30B8B4201D3CB03C01A5241830B8B4201D38B03C01A5241430B8B4201D34B03C01A5241030B8B4201D30B03C01A5241C30A8B4201D3CB02C01A5241FD
:40408000830A8B4201D38B02C01A5241430A8B4201D34B02C01A5241030A8B4201D30B02C01A5241CDD2C3098B4201D3CB01C01A524183098B4201D38B01C01A5241430951
:4040C0008B4201D34B01C01A524103098B4201D30B01C01A5241C3088B4201D3CB00C01A524183088B4201D38B00C01A524143088B4201D34B00C01A5241411A00D2014660
:40410000524110467047FFE701B5002000F0FCF802BDC0460029F7D003B5FFF775FF0EBC4243891A1847C04603460B437FD4002243088B4274D303098B425FD3030A8B42C1
:4041400044D3030B8B4228D3030C8B420DD3FF22090212BA030C8B4202D31212090265D0030B8B4219D300E0090AC30B8B4201D3CB03C01A5241830B8B4201D38B03C01A8E
:404180005241430B8B4201D34B03C01A5241030B8B4201D30B03C01A5241C30A8B4201D3CB02C01A5241830A8B4201D38B02C01A5241430A8B4201D34B02C01A5241030A13
:4041C0008B4201D30B02C01A5241CDD2C3098B4201D3CB01C01A524183098B4201D38B01C01A524143098B4201D34B01C01A524103098B4201D30B01C01A5241C3088B42D5
:4042000001D3CB00C01A524183088B4201D38B00C01A524143088B4201D34B00C01A5241411A00D201465241104670475DE0CA0F00D04942031000D34042534000229C4626
:4042400003098B422DD3030A8B4212D3FC22890112BA030A8B420CD3890192118B4208D3890192118B4204D389013AD0921100E08909C3098B4201D3CB01C01A52418309F8
:404280008B4201D38B01C01A524143098B4201D34B01C01A524103098B4201D30B01C01A5241C3088B4201D3CB00C01A524183088B4201D38B00C01A5241D9D243088B420D
:4042C00001D34B00C01A5241411A00D20146634652415B10104601D34042002B00D54942704763465B1000D3404201B5002000F00BF802BD0029F8D003B5FFF715FF0EBCBB
:404300004243891A1847C0467047C0460E4B70B500251E1C0D4CE41AA410A54204D0AB00F35898470135F8E711F0C2F9084B00251E1C084CE41AA410A54204D0AB00F35881
:4043400098470135F8E770BDBC560100BC560100BC560100C456010030B50024944208D0035D651C0C5DA34201D0181B02E02C1CF4E7002030BD002310B5934203D0CC5C14
:40438000C4540133F9E710BD031C8218934202D019700133FAE77047134A1088810703D08107890F401A001D11791030484381B25088820703D08207920F801A001D80004B
:4043C00040180A494030098980B2CA0701D0503080B2890706D504495422091F09785143081880B2704700003E0D00209810002010B501F0B3FE10BD10B500F04FFA10BDE4
:4044000010B50749044609780220002907D1204601F0F4FE002802D120460AF087F810BDA80E002070B504460120002C12D02368002B0FD0616800290CD0074D0622288985
:40444000208118462968FFF796FF6968606809780170002070BD000098100020FFB585B0002768460E9D07734C481C460078002802D0082009B0F0BD10990F980190009532
:40448000029105A807C800F0FBF80028F2D16946264603AB84460873002C19D0002115E08A00B75A082F09D990198078002805D0083FB7521878401C187005E0002915D0DD
:4044C0000027B75290198770491CC9B2A942E7D360460028CED10F9800280AD0109901F0F1F90006000E04D00120C3E701208446EEE701F033FE2948002101610C3005996A
:40450000016021888180022D03D3A1798171A17AC17100211EE0481C19E082008B00A75AE65ABE46BE4211D26F463E80B4461E190296B678BE7001967646E6521719029E6E
:40454000BB78B3706646A652019EBE70401CA842E3D3491CA942DED3114800906846037B22460799069800F013F9002882D168460A4C007B60700A4801F020FE0028B4D1E8
:40458000204607490C3006F031FF0028ADD106F04BFF0028A9D1012121706BE7380D002098100020F8B5054633480E460078002802D002242046F8BD002E5BD000242F49BA
:4045C000002D16D02A89D0070DD02868002808D003881B3BE12B04D24088FB2801D81B2801D2012409E0900707D56868002804D1F7E70020088108604860002CDAD11F48F1
:404600002F8907811C481B21801D018041800421017119490020891C0870F80705D016480622801D2968FFF7A6FE1449B80703D56A681148127882700F480D46801D086019
:40464000001F486001F000FE0B48801D01F0EEFD28890CF061FF28890DF0C8F803461033FFF79AFE1F21C018890140180249308088809FE701249DE7380D002098100020CA
:40468000FFB58446384F1C460020BB883F78054602460646002F11D100290ED0029999420BD36146002908D0002C06D00A99002906D02E4B0B99994202D2012004B0F0BD94
:4046C000002144E0AB001F19BF78002F3BD0E35A002B38D07B43591889B22B0000F04AF8050410161C253100A7782388BC46FF27233BEB37BB4222D26346032B1FD322E01B
:40470000A388002B1FD0302B19D31CE02389002B19D0282B13D316E0A289002A13D01346134F233BBB420AD20DE0268A002A0AD033460F4F233BBB4201D2964203D901205D
:404740000EE0002001E000280AD16D1CEDB2099B9D42B7D31C2463435B1802998B42ACD89642AAD8AAE70000380D002079020000BAFF000030B47446641E2578641CAB421F
:4047800000D21D46635D5B00E31830BC18470000FFB583B0002469460C801F4606468C80002806D00598002803D004983043800701D0012467E0002FFBD034490498098853
:4047C0008842F6D3FFF726FBFFF70EFB00F010FC002856D100F06CFD002852D12C49084601F0A4F805042D0C4BD12A480499066081800021C18007810C98007AC00704D05A
:40480000684601F0C4FC040007D10C98007A800703D501A801F0C4FC0446BF1DFEB2002C21D13146059800F05DF804001BD10CF0EBFF0406240E16D16A4610889288083680
:404840008518144AF1B29088D288AEB29319984207D3401B801A80B201F058FB050007D000E0FF25012400F05BFA002D04D008E0F8B200F01BF9F6E700F07EFA0649012067
:40488000087000F0C7FB204607B0F0BD3C0D0020D1490000A41000204C0D002010B503480078012801D101F0D3F910BD4C0D002070B5084B0446DA889E8800205518B542E0
:4048C00006D81D68AA182260DA885118D98070BD032070BDA41000200148008970470000A4100020F0B587B007460D4600208900009006916846FFF7DBFF844600285DD155
:40490000304800990160002117E02E4B88001A680629115406D22C4C0419667882185670628805E0C419203CA67A8218567022891B68C018491C4280C9B2A942E5D3002434
:404940002DE0601CC2B2059025E01E4FA30039689600581840887118039604904E88B04217D938466F46FE80B6464F786E4677710297049F4F800168039F5E187678791898
:404980004E700168764659184E800068029F18184770521CD2B2AA42D7D30598C4B2AC42CFD36046002809D168460699FFF780FF8446002802D1054900980860604607B0E0
:4049C000F0BD0000500D0020E8560100540D00207047000010B5002809D005494A68002A05D0011F08788000105801F03DFA10BD500D002010B50446FFF76EFFC0B2801DD6
:404A0000A0420CD307484068002808D0A100405801F09CF9002801D00470001D10BD002010BD0000500D0020F8B516460D460446FFF752FFC0B2801DA04203D20020C04368
:404A40000090F8BDB2B2E9B2684601F0A5F90099481C03D0024AA000526811500098F8BD500D0020F8B50746FFF736FF801DC6B20A49002005460C680DE06178002907D0E2
:404A80006188B94202D32078FFF7B4FF002804D1241D6D1CEDB2B542EFD3F8BD500D002010B5002801D0FFF795FF10BD70B506460948002504680BE06178002905D0628897
:404AC0002078121D0023FFF7AFFF241D6D1CEDB2B542F1D370BD0000500D0020FFB581B00A9C16002BD000F0F1F80546042826D0214F002C0BD02046FFF7B4FF2901C919E6
:404B0000486000281BD022460499FFF734FC1A4928010E5046187481019805707D20029CC000444300F0C0F8009004280AD000F055FAA0420ED800F051FA201A06E0FF2003
:404B400005B0F0BD204600F0ADFA0020B08135720020F5E700F042FA074600F0B9FA381B87B23846012100F0EFF800980101024808188781E6E70000B0100020F8B5060156
:404B800017483418217A042903D0A089002802D018E00020F8BD00F021FA054600F098FA00F0A2F804280DD001010D480F18B88941198DB2002100F0C7F80020B881284665
:404BC00000F070FA6068064D002801D0FFF768FF042020720020A8516081A081D9E70000B0100020FEB500266A46304601232549050169180D7A042D02D0898900291BD0B1
:404C000000211154401CC0B20428F0D300246846005D002830D01B482101081841894768056802910021016041600422418102728181002E02D015E01354E3E700F054F8D9
:404C400004280ED001010F480818019086890021304600F079F8019800218181304600F021FA0126002D07D038460299A847002F02D03846FFF714FF641CE4B2042CC6D342
:404C8000FEBD0000B01000200EB5002005216A460090118150810348694600680DF029FC0EBD0000580D0020074A0020010189180B7A042B02D08989002903D0401CC0B263
:404CC0000428F3D370470000B01000200549002002015218127A042A03D0401CC0B20428F6D37047B010002030B50A4B04200A4C00210A011219157A042D06D09289002A83
:404D000003D09A4201D808461346491CC9B20429EFD330BDFFFF0000B01000207047000030B50020074C05460423020111190B72A5504D60401C4D81C0B28D810428F4D340
:404D400030BD0000B010002030B5094C00231A011219157A042D04D09589002906D02D1895815B1CDBB2042BF1D330BD2D1AF7E7B0100020002070471CB5002469460C70D7
:404D8000142001902346054A05480DF0B7FB04480068401C00D1FF2420461CBDF54D0000580D00203EB5124A0146FF2000230124126800290DD0012914D0042908D10420BB
:404DC0006946009308814B8110460DF092FB80B23EBD6846009304814381694610460DF083FBF4E768460093048143816946EBE7580D002070B54589046841680089030006
:404E0000FFF7B8FC08280509091E22282628002005F0FEF91EE0022908D0C8B22A4621460BF02AFD2046FFF73BFE13E002202A4621460BF021FD2946204600F00DF809E0FE
:404E400000200DF045F805E02046FFF7CBFE01E0FFF75EF8002070BD014B0022DB6818475C0D002070B5448905680089022803D0032809D0FF2070BD2246094C0023A4689A
:404E800029460120A04708E0FFF7B2FA241DA2B200232946022006F05AF9002070BD00005C0D0020704700000248002141600180418070475C0D002070B50C46002186B076
:404EC00016460391012802D0022859D116E003A9012006F09CF901281BD1039D324621462846FFF748FA0095287801900220694608814E816846FFF7B5FF41E0214D002BEA
:404F0000686809D0049004A9022006F080F901281DD0022006B070BD002812D0298840182146FFF728FA28880024801980B228806988091D884206D12C801348FFF792FFBC
:404F400003E00320E6E788421AD96C6018E004986860E278A378110219430B4A698000231060E3565360032313815181A1788170E178C17061784170217801700420288058
:404F80000020C7E75C0D0020F01000203EB515460C46022803D004280CD000203EBD0091019002206946088107484A8100680DF0A0FA07E00BF060FC044B0022DB682946C4
:404FC0002046984701203EBD580D00205C0D0020014AD160906070475C0D0020034801688068081A0A21484300097047FC10002010B5FEF7FFFE482204490548FFF7BBF9D1
:4050000003490120C870002010BD0000045701000015002010B5FEF7E1FE10BD70B5134C2368002B08D0207B1149C20705D04008400020738868A08070BD88680B4AA1887C
:4050400080B29268814203D90A4D691A091802E0814202D2411A5118A160A080A0689842EAD30DF063FA00F013F870BDFC100020C0102E40FFFF000010B508461946FFF71B
:40508000A7FF10BD704710B5FFF780FF10BD000003480021016041608160C16070470000FC100020024610B5FF20002A0CD0FFF7EFFF064C0321207B0843207310010A212B
:4050C000FFF728F82060002010BD0000FC10002000B504480A21806848430209FFF7D8FF104600BDFC1000200248007B8007C00F70470000FC10002010B544490868002863
:4051000002DA434B01221A70022290430860414800693E49C00B4031096A08425ED0012000F08EFA3B483C497C30FEF771FD37480E216C30FEF76CFD364820218430FEF799
:4051400067FD344814219C30FEF762FD3148FF21C131A430FEF75CFD2E48FF212F31B030FEF756FD2B482D49BC30FEF751FD29482B49AC30FEF74CFD29492648491CB430EF
:40518000FEF746FD23482749B830FEF741FD21482549CC30FEF73CFD1E4824490830FEF737FD1C482249A830FEF732FD194821498830FEF72DFD17481F498C30FEF728FD82
:4051C00014481921C9029030FEF722FDFEF72EFDFEF72AFEC0B2022802D00FE0FF2010BD16491748FEF714FD15481649001DFEF70FFD134800210830FEF70AFD54200449E5
:40520000C043891C0870002010BD000000F02E406C0D002000002E4055650000320300002F3F00003102000010520000EC160000FA12000031D000003AE3000099560000EF
:4052400080012E40F80F000070B50646581C80B245086D00002408E0304600F0C1F81055000A1119A41C4870A4B2AC42F4D3D80705D0D0182038D15CC47FD454C17770BD2F
:4052800030B50A4C002100195B1E07E0541864782502545C2C430480891C89B29942F5DB994201D1515C018030BD000000102E4010B5FF2000F0C4F90F49FF2048700E4820
:4052C0001021801D41800121417001700A490020C91C4870FFF710FF04000AD100F008F907210648FEF786FC044807211830FEF781FC204610BD00006C0D0020CC112E40C4
:4053000070B5002405465B1E0AE0284600F068F8010A161971702D1D1055A41CADB2A4B29C42F2DB9C4203D1284600F059F8105570BD000070B500210A4D5B1E0AE054186F
:4053400064782602545C344346193480001D891C80B289B29942F2DB994202D1515C4019018070BD00102E40F0B50599091FCFB200217E1E0BE0541864782502545C2C4316
:40538000164D45192C80001D891C80B289B2B142F1DBFC0712D01C78515C24020F4A0C4381180C809C785D78001D210280B2294384182180001D80B2D9780CE059781A7886
:4053C00009021143054A84182180001DD9789B78090280B2194380180180F0BD00102E40014940180088704700102E4010B50B490020487000F07CF8002000F047F9002040
:4054000000F034F907210648FEF7F4FB044807211830FEF7EFFB002010BD00006F0D0020CC112E4010B50B46062812D006DC01280CD0032801D1FFF7D9FF10BD0A28FCD0E3
:405440000B28FAD105480078107010BDFFF730FF10BD1146184600F035F910BD720D0020F8B5204DAC6A0127A0071F4E002816DA307806280ED1286A384328621B4800694F
:40548000F903084381B219481030FEF7C1FB042000F0D6F8134802212830FEF7ABFBE00711D0062000F0CCF80F49FF20C91E48707078002802D1686B3843686309480121A6
:4054C0002830FEF797FBE0050BD53078042802D1052000F0B5F80348FF2101312830FEF789FBF8BD40F02E406F0D002000002E4010B503212348FEF78BFB0120FEF760FC93
:4055000020483038406A204C80076178800F890001431C480C38FEF77BFB6078002808D0401E022181401820FEF7E4FEC000083800E0B82081B21548FEF76AFB134803216C
:4055400009021438FEF764FB10481149B830FEF75FFB612189010F48FEF75AFB0D480321001FFEF755FB0C490C48FEF751FB0B480B496038FEF74CFB084801218838FEF781
:4055800047FB10BD70F02E40720D0020D8102E4090890000041E2E40FF0F000058122E40209000000849087806280BD148780749002803D1486B400840004863C86A0122B8
:4055C0001043C862704700006F0D002040F02E4001480078704700006F0D002002484078022800D0012070476C0D002000B50300FFF7C0F8080D050D0B070507090D0120DA
:4056000000BD032000BD042000BD022000BDFF2000BD0000074A9168D26889B2064B92B2994204D105498A4201D1012100E000210170704780002E4033D000003FE30000E3
:4056400010B50446FEF7D0FB072C01D9FF2C01D102480470FEF7C2FB10BD00006F0D002001494870704700006C0D002010B5064A012805D01921C9021046FEF7C9FA10BD33
:405680001D21C902F8E7000090002E4010B50A4A141D012808D009491046FEF7B9FA08492046FEF7B5FA10BD04491046891CFEF7AFFA0349491DF3E788002E4031D00000D8
:4056C0003AE3000070B50C460546FEF7ADFBC0B202280E49287804D0FF2810D04C280CD810E0FF2809D10A4AD0680004800F032801D0087807E09069000A553803E0087802
:40570000207070BD4F382070087070BD6E0D002000002E40F0B50122002830D000292ED00424420600D00524792342065B06D21800D0641C034600221EE00C2516466E4341
:40574000104D00277519AF720E4F002ABB51696007D0661EB24209D10B4E86197606760E05E05E06760E8027BE1B00E080269B198919521C2E81D2B2A242DED300221046A2
:40578000F0BD00008813002079020000074900200C2242435218927A012A05D0401CC0B20628F5D3002070470120704788130020F8B50F000446164609D0184D184968686E
:4057C000A04202D94018A04201D38E4201D90120F8BD39462046FEF7BFFD00281BD0324639462046FEF7C7FDF0B200210C224A43521913895668F718A74208D90127A41B9C
:405800001B1B9772834206DAC01A1469C0B2491CC9B20629EAD30020F8BD0000881300207902000010B500F05DF80748054AC16806480C46FEF79FFD04492046FFF76AFFD0
:4058400010BD000079020000780D00200C110020002070470020054A002902D0012902D002E0506000E0906000207047780D002070B5084C154608460549A26889182A4658
:40588000FEF779FDA0684019A06028B270BD00000C110020780D00203EB50A226946FFF7E7FF044606480A2200686946FEF754FD002802D00020C0433EBD20463EBD0000EF
:4058C000780D0020002802D0044A914201D2FF20704703490A61C8600020704779020000780D0020024800214160816070470000780D002070B5074C15460548626880189E
:405900002A46FFF755FF60684019606028B270BD0C110020780D002010B503490A220968FFF7E8FF10BD0000780D002010B50F4A002313600E4A13600E4B18600E480160DF
:405940000E49012008600E490860000290600E490C4808600D4914300860FF381538506000F0BCF800F0CAF9002010BDA40D00208C0D0020B80D0020BC0D0020A80D0020DC
:40598000980D0020D01400209C0D0020B00D0020014610B50020002910D0094B1A689C685118A14209D25868196080188A0704D08A07920F891A091D196010BD002010BDDE
:4059C0008C0D0020F8B50024164E671E321F3D463168136806E01422624310328A58521C1BD0641C9C42F6D36A1C14D02C461422544322460C3288500C214843FFF7C8FF4B
:405A00003168002808510AD031680020103408517068401C70602846F8BD2546E4E73846F8BD00009C0D0020F3B50026F64381B000281BDB1E490968884217D80299002918
:405A400014D01B4F142204463F1D54432546396810354859401C09D0FEF7C6F938682F1F4159C359994203DBFEF7B8F93046FEBD214608310091465801590C20704308182E
:405A80000C220299FEF777FC0948761C001D0068C159B14200D100260549009A091D865008684159491C4151FEF798F90020FEBD980D0020002803DB07490968884202D9D2
:405AC0000020C043704704491422091D096850431030085870470000980D0020F0B500200D4A451E0346171F50600FE014260146714314680E1DA3510C4616680834335106
:405B00001668083435511468401C635039688842ECD30020F0BD00009C0D0020F3B50026F64381B0002841DB2349096888423DD8029900293AD0204F142204463F1D5443F2
:405B40002546396810354859401C2FD0FEF74CF93868415900292BD0211D009146580C21005971430F46C1190C220298FEF703FC11480021001D0068761C00590C34C019AB
:405B80000160416081600C48001D00680159B14200D100260849009A091D865008684159491E4151FEF71AF90020FEBD3046FEBDFEF714F9FAE70000980D0020FEB5044642
:405BC0000D4600201E49089E0860471E009001900290002C11D0486885420ED2002A0CD0002E0AD0642E08D808460C3001681C2068430C18207A002801D03846FEBD0120D6
:405C0000226020721846FFF7DDFE6060401C13D06681A6810A4827610C3067610179A94200D205710021684601810A462846029B00F040F82846FEBD00202072DDE7000016
:405C4000A40D002038B50124009400F039F838BDFEB50027164EFF433D4600240EE01C20316860430818017A002906D04068FFF721FF002801D0254603E0641C3079A04260
:405C8000EDDA681C12D01C2130684D434419FEF7ABF869466068FFF741FF0546FEF79EF8002DD9D1216868468847D5E7FEBD0000B00D002038B50024009400F001F838BD26
:405CC0001FB500220C49541E0A60002811DB496888420ED808491C220C31096850430818406801A9FFF7A0FE401C02D0002004B010BD2046FBE70000A40D0020F0B5002184
:405D0000114A4D1E174611710C3F0B46BD6016E008461C2460431668041D355114680646235014680836A3551468361DA353044616680A34335318301468491C25507868FD
:405D40008142E5D30020F0BDB00D002038B500210091002811DB0F49097888420DDA0D4D04010C3529680859002807D0201D0818694600F06FF9002801D0002038BDFEF7C9
:405D800033F828680F34015D491E0155FEF726F8009838BDC00D0020F7B582B0002502986E1E06602E48D21C024017462D4A2C4610460C380178106805E02301C358002BE8
:405DC0000FD0641CE4B28C42F7D3711C28D03401211D40180191039900F02AF900281FD101E02646F1E71F48016820460C300F521C480399026820460E3011541948039905
:405E0000026820460F3011540398784300F0A0F8144900280968085102D00024009011E001251AE00F48016801980818009900F02CF9002801D0012502E00098C019009001
:405E4000641CE4B203988442ECD3002D05D10298066004480179491C0171284605B0F0BDFCFF0000CC0D0020F8B50D4600216A468C461180002839DB23490978884235DA52
:405E8000214B04010C3319680A59002A2ED020460C300B5A801C0E5C184670438018954224D3854222D2002006E007465F43BF18AF4206D0401CC0B2B042F6D360460028FD
:405EC00014D0114E271DC8190C366A46294600F006F900280AD168460088012808D030682946C01900F0D1F8002803D00120F8BD0020F8BDFDF778FF30680F34015D491C68
:405F00000155FDF76BFFF3E7C00D0020F8B50F46002400F031F8002817D10C4900220B460C334A600EE021011D680E466A501D680C36AA53B61C1D680F31AA551D68641CE4
:405F40006A54E4B2BC42EED31A71F8BDC00D002000280BD0C01C074A81085068890053884118994203D89368516018187047002070470000C00D0020F8B5064600200F4D31
:405F8000009029700C0121466846FEF791FC00280CD129460C3100980860301B001F84B221466846FEF784FC002801D0FF20F8BD6C800098A8600020F8BD0000C00D00201E
:405FC000F8B5002827DB19490978884223DA174C05010C342168485900281CD028460C30085A009028460E300E5C401C0E5420682F1DC01900F064F800280CD1206800241F
:4060000045590EE0094829460C300068C01900F03CF8002801D00120F8BD00982D18641CE4B2B442EED30020F8BD0000C00D002030B50D4604000BD0A800FFF789FF60603B
:40604000002805D000202570C0436080002030BD012030BD70B50D46040005D0002D03D00220205E002801DA012070BDFDF7BCFE0221615E60688900405828606088401EE7
:406080006080FDF7ABFE002070BD70B50D46040007D0002D05D002212078615E401E814201DB012070BDFDF79FFE6088401C00B26080616880000D50FDF790FE002070BD20
:4060C00010B5040009D0227800216068FEF75CF90020C0436080002010BD012010BDF0B500231D46002802D00224045F0AE00120F0BD46689F00F6598E4201D1012503E0A6
:406100005B1CDBB29C42F4DA15700020F0BD00000148007870470000D40D00207CB505460024FEF765F9A8796946087000A8062229460130FEF71FF90021684604F02EFB40
:406140000C2804D0072804D01F2804D004E0022402E0042400E0272420467CBD10B500F039F9FFF735FAFFF741FA10BD70B504460025FEF73DF9002C06D0A079012803D833
:40618000214602F075FB00E00125284670BD01460120002902D05020088000207047000001460120002905D003485422007850430880002070470000D60D002010B50246A2
:4061C0000D49FE204870032410460CF0B5FC002810D10CF059FC00280CD105F075F8002808D100F0E7FA002804D104F05BFD002800D10024204610BDD40D002070B50025D2
:40620000044600280ED0A07901280BD8FEF7F0F8A0790028204602D002F0B8FE03E002F08DFE00E00125284670BD0000014610B50120002904D006220248FEF79CF80020A5
:4062400010BD0000D80D002001460120002903D0087802490870002070470000D60D002010B5FFF7B5F9012801D1FFF7B7F910BD38B504460120002C20D0617801291DD888
:4062800000290BD0FF25E535FEF7B2F80C4828180088C0B22070072803D00EE0FF25CD35F2E70020694608706846FFF7B3F969460878012801D108202070002038BD000062
:4062C00000102E40F8B504460120002C26D06178012902D92278092A20D8002905D0FF25E5352078092803D004E0FF25CD35F8E708202070FEF77CF82078114F114E0828DA
:406300000DD00020FFF7C2F970780128207810D00D4969180880FE2070700020F8BD0120FFF7B4F90720B8810549203188800120F2E7B8810248217820308180EBE70000F0
:40634000C0112E40D40D002000102E4070B50E46050001D0002400E00C4C002C11D0E28A500609D5D107C90F022002F0A3FEE08A40218843E08204E0D107C90F012002F003
:4063800099FE3146284602F081FB70BD68150020F8B50546002004460D4E009013E022466946284600F01EFF0098002801D00CF0A5FBA878214602F0CBF9A878214602F074
:4063C000B9F9641CE4B2308AA042E8D8F8BD00002016002038B51E4CFFF7FAF8042813D0052811D0062812D003282AD007280AD100206946087002460120FFF713F8FFF72C
:40640000E7F80128FBD138BD00F048FB38BD02F0EDF900F043FB02F04DFA8007800F0228F4D10C4841880029F0D05B21095D0029ECD101210170A07D0140022002F03AFE1C
:4064400038BD02F0D7F90120FFF7FAF838BD000068150020E40D0020F8B50646002402F097FE0546304602F0ADFE03460A480021068A0DE001228A401046174628401F4017
:40648000002803D0002F01D1224394B2491CC9B28E42EFD82046F8BD201600201CB50020694648706846FFF7E3FE01AA69460A20FEF7B8FF6946042008561CBD10B50C461F
:4064C00001F062FA002809D00179002906D0C1788078224602F060FB002010BD022010BD0148007870470000401500204030C07E002800D00120704700B500F001F800BD4D
:406500008C2148430749084A40186030417F491CC9B24177D289914201D300214177C8B270470000481500202016002013B501F02BFA04000BD001F0C8FD002807D0214689
:4065400001AA0A310620FEF76DFF00201CBD02201CBD000010B50C4601F016FA00280AD001F0B3FD002806D0224604490A20FEF759FF002010BD022010BD0000291500209B
:40658000F3B581B0074601460026029802F0F8FD0446002F01D0002500E0154D002D21D0284601F027FA032C04D13946029802F043FE06463846029902F0BCF8032C06D018
:4065C000002C10D00121384601F01AFB03E03146384603F02DF8284601F0A0FF0221284601F0B6FFFEBD3846029902F0A3F8FEBD6815002010B5044603F064FC002801D0B0
:406600000C2010BD2078611C02F0C8FBFF2801D01F2010BD02F00EFCFF280AD02178621C02F016F8044821780068026B601C904710BD072010BD0000FC0D002010B503F0D0
:4066400041FC002801D00C2010BD02F089FB03480068C06A8047002010BD0000FC0D002070B50D46044610210CF088F91021601806460CF083F9334610221946204603F07B
:406680004FFC102130460CF079F902202870204604F060FA70BD0000F8B504464078217802028006870FE0781143A67809050002090D0643084601F067F900210546F2B28F
:4066C000002812D0002C10D0022F0ED0032F0CD0002A0AD00279092A07D0002A05D0134A5A23527E1B5C9A4207D82889002104F066F920460CF002FAFF21002914D10C48FE
:40670000224600682946436930469847C0B2FF280AD128464030817EF2B2491C8176FF232146284600F0DDF8F8BD000000150020140E00200020704710B5044603F0C2FB4A
:40674000002801D00C2010BD2078611C02F026FBFF2808D002F05EFA044821780068426B601C904710BD1F2010BD0000FC0D002010B504F097FA00F057F9002010BD10B52B
:40678000044600786178E2780843A17811430843217908436179084305D003F085FB002803D00C2010BD122010BD204602F0EEFB002010BD10B5FDF737FB02F00BFD04483D
:4067C00003F0ECFB02F030FA012000F003F810BD10150020F1B586B003A8009005A8019025489F22817A114081726846FDF71AFE00283FD169460989C90705D01F480699E5
:406800000068C2686846904769460989890706D500282FD11A480068816A06988847002828D1184E0025757075737571F575357675767575B570F570B5713746F57301204C
:40684000BC3738731F20F880FF2130467972A0300175457500F056FA00242046069901F0DFFB002803D1641C2406240EF5D0FD72BD72B57307B0F0BD00150020140E0020D0
:40688000FC0D00204815002070B505460E46084602F07EFC0446304602F094FC0121A9400A46224001400A4301D0012070BD002070BD10B50446084602F084FC0121A140E9
:4068C000014201D0012010BD002010BD10B5FEF77FFE032804D101F08DFF0120FEF7B0FE10BDFEB51C4616460F46054601F016FEA878FFF701FE02460190334639460094D4
:40690000284600F00DF8002808D1A8780199FFF71DFDFF2C02D138460CF0F0F8FEBD0000FFB585B005460E980C46FF2810D02B49C00009680A5840180179C079527881423C
:4069400001D9012601E09006860F6846038108E06078A1788006860FE0780002014368460181284601F0BCFB070007D021462846079A00F0CBFB384609B0F0BD304600F0AC
:4069800079FC04AE0346039002AA29460096204600F005FB3C20405D002818D0284601F09FFB012813D0684600890096C0B20190A878231DFF22079902F01CF86846008991
:4069C000039BC2B2A878079902F05CFBD3E7684600890021C0B20091E9E70000100E0020F8B5104F002500242846FFF735FD060012D00EE03046E040C007C00F07D021462E
:406A0000284601F08FFE21462846FFF7B9FD641CE4B2388AA042EDD86D1C2D062D0EE2D0F8BD00002016002010B502F0FDF80020FFF7D0FE0CF0F8F8002010BDF8B500247C
:406A400000F094F80123012800D10124104F00203E4620360425082203E0002801D0002100E031460979002907D001290BD002290BD0114681402143CCB2401C0006000E60
:406A8000EBD07C70F8BD1C43F7E72C43F5E700004815002010B5FFF7D1FF10BD10B5FCF748FF0446FEF794FD012809D0FEF790FD022805D0FDF788FA2046FCF73EFFEEE7EA
:406AC0002046FCF73AFF10BD10B50B4681791943817103D08078114602F0A2FA10BD10B582798A43827102D1807802F0ADFA10BD30B50C4C0220A28A0B4B9978002901D0BF
:406B0000022906D11D785B78EB18282B01D9032002E0032900D101205105490DC0020143A18230BDC0112E40DF0D002000B500F023F8002807D0012805D0032801D00428A6
:406B400001D0002000BD012000BD014600B50020C90701D000F00AF800BD014600B50020C90701D000F002F800BD000001480088000A704720102E400448008B410501D596
:406B8000042070474007800F7047000000102E4038B50446000610D5FFF7EEFF01280CD1684601F02DFE6846007800F0B3FA012001F01CFD0220FFF76DFF0348006801698B
:406BC0002046884738BD0000FC0D002010B5034A0178117002F046F9002010BDDF0D002070B50446FFF7C2FF002801D00C2070BDA27B01211F48002A827801D00A4301E0CB
:406C00005208520082706279012A14D0C17849084900C170184D2868016820468847207901280CD06188208802F07CFF2080207904280FD015E0C2780A43C270EAE7286846
:406C4000C168E01D8847E01D02F08CF90B48808C208006E02868C168E01D8847E01D02F081F9074920798870204602F009F9002070BD000048150020FC0D00200015002075
:406C8000DF0D002008B50178FFF770FF814201D10C2008BD002914D0072069460870FFF745FF012807D10121684600F08BF8012801D0092008BDFFF71BFF02F015F90120B5
:406CC00011E0FFF733FF012806D1684601F098FD6846007800F052FA02F0FCF8FFF746FF0028FBD10220FFF7D5FE002008BD000010B5034A0178517002F072F9002010BD6A
:406D0000DF0D002038B568460BF08EFE002801D01F2038BD01210098C90201804180002505714571857107214173857302F0A8F8009C202200212046FDF726FB25702A4605
:406D40000021601CFDF720FB204602F08BF8204602F046F900980BF0D1FE042200210248FDF712FB002038BDDF0D00200346084800B5834209D8184600F006FE002804D09E
:406D80000089984201D1012000BD002000BD0000FF0E0000074A9179491C8906890E917138220A4092014907090E1143084302490840704748150020FF0E0000C006C00E49
:406DC00070470000F8B507460E4600240D4803E0002C01D0002500E005462979002905D0641C2406240EF3D00020F8BD0021204601F016F92E712046FFF7CCFF28813C702F
:406E00000120F8BD6815002010B503F0BDF80222002100F003F801F0B3FE10BD10B5094B40074907000F090F185A595A40185043C0086421FDF76EF9002800D1012080B2F8
:406E400010BD00004C570100F7B53D20405C88B015460C46002802D02878042802D200200BB0F0BD6946087200262046FFF73EFB012800D00126204603A938300191009055
:406E800023460327A17E34333246206A03F0A0F802A8089900900B46019120463A4603A9243003F01DF802466846007A2870204601F0A2F81046D3E7FFB587B00C460546EF
:406EC0001078694608723D20005D1746002826D000262046FFF70AFB012800D00126204603A93830019100902346A17E34333246206A03F06DF802A80090291D01912046A8
:406F00002B1D03A924300A9A02F0EAFF02006846007A388002D1204601F06EF810460BB0F0BDF0B505463C20405C89B016460C4600280CD0307869460873002806D0002790
:406F40002046FFF7D3FA012803D003E01F2009B0F0BD012703200890204604A93830019100902346E17E34333A46E06903F030F86846007B03A928180290009120462B46C2
:406F8000019504A92430089A02F0DEFF02466846007B3070204601F039F81046D7E7FFB505463C20405C89B016460C46002810D0084601F095F801280BD0308869468883F4
:406FC000002809D000272046FFF790FA012805D005E000200DB0F0BD0220FBE70127204603A93830019100902346E17E34333A46E06902F0EDFF291D2B1D07A8129A6D46DC
:4070000007C5204603A924300C9A02F09DFF02466846808B3080204600F0F8FF1046D9E770B50D460446FFF761FA01280AD0E87AA97A00020143A07801F09EFC012808D051
:40704000002070BD00222421204602F0BDFC242070BD28214C200155204600F0A3FB282070BD0000002801D0002000E003484030C07F012800D00020704700006815002006
:407080000146002049070ED50021084B03E0002901D0002200E01A461279022A04D0491C0906090EF3D0704701207047681500200146002049070ED50021084B03E0002964
:4070C00001D0002200E01A461279022A04D0491C0906090EF3D07047012070476815002010B5044680346068002803D00BF01AFD0020606010BD40304170704740308170DA
:4071000070474030017070470171704792001018C166704770B53C2501F080F9040004D020460021433001F0DBFBFF222946204600F0D4FB002C02D0A07801F0F1F870BDE4
:4071400010B5002801D0002000E00348002802D0008903F07BFC10BD6815002010B5002801D0002000E00448002804D00179072901D100F047F810BD6815002010B501F0DE
:407180004DF9002802D0807801F0CAF810BD00207047000070B50546008A00281ED01049F122897A1140C90618D5294640314A8A098A521C4A4392B2D10800D10121540806
:4071C00001E0621A94B2A042FBD9FEF7A1FF012804D1298AA878224601F094FC70BD00000015002010B50023054C0B60248A944204D992001018C26E0A60C36610BD000036
:407200002016002038B5044600200090A079002814D14020015D052901D00E290ED168460BF012FC002809D12046009902F0AAFB03481021C28A2046FFF746FC38BD00006E
