:4000000000800020110000008D0500008D05000008B500F0DBFAC04638B51222224B1A6001F000FF214802F09FF8012001F01AFF302001F011FE1E4A1E4B1A601E4C8025A4
:40004000ED0525601D4A116802230B4313601C4A1C4B1A6000221C4B1A601C4A136808218B431360FA20C00001F0A8FE184801F0E9FD88229201174B1A60174A174B1A60B0
:4000800080221206164B1A608022D202154B1A604022154B1A600820144901F0A9FD082001F09AFD256038BD30001040001BB7000600008004010B400C020B4078002E4072
:4000C0002D3E00007C002E4064F02E406CF02E40DC0500000003014040FF00800000014008010B4000010B40040101407D1F000010B572B60022284B1A60002410E02748F9
:4001000063001A195200821891881B195B001A5AC31858880004104300F0B6FA0134E4B2012CECD9EE2212061D4B1A6099231B041C4A13601C4A13601C4A13601C4A136069
:400140001C4A13601C4B197802220A431A701B4802783C218A4328390A430270197816220A431A70D8221204154B1A602023154A1360C4218902144A1160144A1360C022FB
:400180005203134B1A60C0221204124B1A60FFF743FF00F069FA10BD6CF02E40E44C0100000002400001024000500F4010500F4020500F4030500F4000700F4001700F4010
:4001C00008000440000104400801044018010440080204400803044010B5064C2378002B07D1054B002B02D0044800E000BF0123237010BDE80F002000000000A44C0100AE
:4002000008B5084B002B03D00748084900E000BF07480368002B00D108BD064B002BFBD09847F9E700000000A44C0100EC0F0020A80B00200000000070B5041E412C48D045
:40024000412814D8282800D1D6E007D820283CD0272846D0012800D0DDE01FE031283DD0402800D1A9E02B2800D0D4E01AE0482800D18FE007D845285DD0462862D04228D9
:4002800000D0C8E0CAE04D2800D193E01223FF33984231D0492800D0BDE073E00122604B1A70BBE05F4B1B78052B0AD101225E4B1A705B4B5B78002B00D0AFE0584B1A702F
:4002C000ACE00222584B1A70A8E00222564B1A70A4E05648022202F046FA9FE0544B18709CE0524A137850780002184300F02EFB04224D4B1A7091E04E4901230B802F33EA
:400300004B804D4E4D4B33804D4D281C042202F02AFA281D311C102202F025FA01232B75484A1378507800021843291C0EF06EFB3F4B1C7072E0444B15C915C304223A4B13
:400340001A706BE0414D29600A89414C201C414902F01AFA201C01F0FBFE2B685A68201C3D4902F011FA201C01F0F2FE2B685A68D17813791B020B43294A538006222A4BD6
:400380001A704BE00A88354B1A80294B18700422254B1A70324B19604A681188284B198052885A80224B1C700EF0A6FB05221E4B1A7033E01E4B187030E02A48082202F06B
:4003C000D2F91B4B1C7029E0274C8A0053189B00E31800205D6828705D6868705D68A8705D68E8705B68187152189200A21853685871013189B200E00021094B1B798B427C
:40040000E2D8074B00221A715A705A71013206490A701A7002E00022014B5A7170BDC04604100020E2230020AC0B002008220020B2230020B4230020CC210020B75E000012
:400440009C230020F4230020E02100200422002098210020A84C0100CC4C0100C8220020DC210020CC220020D4220020F0B585B062B63B4800F066F93A4B00225A71A032C5
:400480001A71503ADA707C329A70A93A5A70103A1A70012001F0C4FD01F0E2FD002602F0A7FD002E12D12F4B1A782F4802705A7842709A788270DA78C2701A7902715B7959
:4004C00043710023837100F0C5F90136274B1B78052B11D12649274B0B80274C201D102202F041F901232375244A1378507800021843211C0EF030FA1C4B1B78062BCED1B2
:400500001B491C4B0B801C4D1D48102202F02BF901272F75194C2378607800021843291C0EF074FA6B461F7001A901938F80154B5B880B8123786078000218430EF0E2FA97
:400540000F481149102202F00EF92378607800021843291C0EF05AFA02F04AFD9FE7C046390200000C220020FC210020AC0B0020EC210020C8F4FFFF9C23002008220020C6
:40058000A023002004100020CC21002008B502F0AFF803680C2B00D1FEE7FEE708B5031C084A1068C318084A9A1A802A02DC054A136005E002F09CF80C2303600120404213
:4005C00008BDC046B40B00201024002070B50F4E0F4D13E029686B68AC68002202E001C901C30432A242FAD1E868002202E0002102C304328242FAD11035013E002EE9D1D2
:4006000002F07CF8FFF732FFFEE7C04601000000C04E010008B50F4A136801218B43136000230AE0032B03D89A000B49505800E00A4899000A4A885001332F2BF2D9FFF74C
:4006400057FD0022074B1A60024A116801230B43136008BD00001040000000008D05000000000020C00000200323044A1360044A13600022034B1A607047C04630003040F8
:4006800030003140000E3F4008B50A1C002102F073F808BD08B50C4B1B88002B08D10B4B00221A805A809A80DA801A815A819A81054BDB88002B04D1054B00221A805A80A1
:4006C0009A8001F0BBF808BD000C0020F8230020E823002010B50022124B1A70124B1A70124B1A7012494888124B18808888588088791873C97919710621D981223119827A
:4007000000245A82FA2189009982DA82013A1A831F32094B1A80FFF7BDFF084B1C70084B1C7010BD08240020F023002006240020B80B0020C4230020DE230020B82300207B
:40074000C023002010B590B0041C0BA82149142202F009F8204B1B78002B04D1FFF7BAFF01221D4B1A70002C30D01C4B1C6008A805AA426006AB0893002101811B31198065
:40078000598017391971082313701231694402F00BFD00281BD105230093114B0193114B029311481149AE2212010BAB02F052FC00280CD101220E4B1A7007320D4B1A708C
:4007C0000D480D21043A0FF0DDFA00E0012010B010BDC046F04C01000A100020BC2300200057010079020000F9140000C8000020E2230020E3230020044D010008B502280C
:400800001FD8002806D1104B1E221A8112325A809A8009E0012807D10B4B96221A81802212015A80F83A9A80084B187006480DF0C9FA002806D1064A117804230B4313702D
:4008400000E0012008BDC046B80B0020062400200824002010B5134B1B78052B1CD100281DD0002305E0C15C0F4AD21851710133DBB2052BF7D983790B48C3720DF048FA9D
:40088000041E0DD10422074B1A70084B1888002806D00AF02DFA03E00424FF3400E00124201C10BDE2230020C4230020DE23002010B50B4B1B78042B0ED10DF01BFA041C9D
:4008C000084B1B88002B01D00AF02CFA002C05D10522034B1A7001E00424FF34201C10BDE2230020DE23002003784078000218437047C04638B583890D2B20D1041C043097
:400900000021221C33330FF055FA051E11D16068FFF7EAFF830706D50A4B1B6882204000211C984705E0074B1B680620FF30211C9847054A137801218B43137000E0002540
:40094000281C38BDBC2300200824002000B583B001AB18801D4B1B78022B2FD11C4B1B78002B0ED0052B2CD100230BE05A00D2185200184952180021118051800133DBB2BC
:4009800000E00023022BF1D9134801A9022201F0EAFE124B01221A80023A5A80FFF77AFE01980DF0C1FF00280DD10122084B1A700B4A117802230B43137004E00420FF3036
:4009C00001E00420FF3003B000BDC046E2230020E3230020000C0020F4230020E42300200824002008B5C288094B9A420FD1094B5B88002B05D18288064B5A8082781A7024
:400A000005E0811D044B1B6886204000984708BD052A0000E8230020BC23002008B58288084B9A420DD1084B9B88002B03D14288054B9A8005E0011D044B1B688620400046
:400A4000984708BD02290000E8230020BC23002008B5084B5A8883899A420AD1011C064B1B68832040009847044A137801218B43137008BDE8230020BC230020082400208E
:400A8000074B00225A701A70064B1B78052B03D10732044B1A7002E00822024B1A707047F4230020E323002008B5C3883F4A93426CD007D83E4A93421DD058D8013A934272
:400AC0000AD071E03B4A934233D03B4A93423FD03A4A934268D11DE0394B1B88002B03D18288374B1A805FE0811D364B1B6886204000984758E0324B5B88002B03D18288E3
:400B00002F4B5A8050E0811D2E4B1B6886204000984749E02A4B1B89002B03D18288284B1A8141E0811D274B1B688620400098473AE0234B5B89002B03D18288204B5A8145
:400B400032E0811D1F4B1B688620400098472BE01B4B9B89002B03D18288194B9A8123E0811D184B1B688620400098471CE0144B9B88002B03D18288114B9A8014E0811D1B
:400B8000104B1B688620400098470DE00C4BDB88002B03D182880A4BDA8005E0811D094B1B6886204000984708BDC046032A0000012A0000A62A0000C92A0000042A000000
:400BC000F8230020BC23002082B000236A4613805380094B1B78002B06D1084B5B8801331380074B1B895380009B180C00041B041B0C184302B0704707240020E82300205E
:400C0000000C002010B5041C0378032B35D1204B1B789B0731D51F4B1B78022B11D0DAB2022A02D8012B05D01FE0032B10D0042B15D01AE0184B1B680820FF300021984758
:400C400013E0154B1B6884204000002198470CE0114B1B680A20FF300021984705E00E4B1B688520400000219847094A137802218B4313700022074B1A702378042B05D100
:400C8000064B1B78042B01D1FFF712FE10BDC04608240020E3230020BC230020E223002010B582B0041CFFF725FE0A4B1B78DB070ED4002809D001A912238B70A3890B8072
:400CC000C87020680EF0E0F902E020680EF05EFA02B010BD082400208379002B07D000200BE0C25C002A07D10133DBB200E00023052BF6D9002000E001207047F0B55746CC
:400D00004E464546E0B482B03A4B1B78012B6AD1394B1B789B0766D5071C03899846062B01D0142B59D17B89994600244DE07B681D192B88314A1288934244D32F4A52880F
:400D4000934240D84346062B3AD132E0019673009B195B002A48C3189888AB88984225D170008246B24452465200924624488446105A002808D1524660468018291C042254
:400D800001F0F1FC012111E0012E08D8721C5000821852001A4882189288934206D0291D184B1B680C20FF30984701210136B6B201E000210026022E05D80029C6D002E0AB
:400DC000281C00F077FD4444A4B24C45AFD30A4A137801218B43137005E00A4B1B680820FF300021984702B01CBC90469946A246F0BDC046E323002008240020E423002081
:400E0000000C0020BC230020F0B54F464646C0B487B0764B1B789B0700D4E1E0058947894468734B1B78032B67D162E0201CFFF75BFD6B461880A3786A469370E01CFFF7F5
:400E400053FD6B469880631D9846152D1DD102236A4693754146901D102201F084FC15239846A044634B1A7853009B185B006249CB189988614B994232D0022A30D1023ADB
:400E800090B2694600F04EFD2AE0072D28D101236A4693754046FFF727FD6B46D880E31D9846544B1A7853009B185B005249CB189B88C02149018B4203D051498B4204D033
:400EC00007E06846FFF7F0FD0AE06846FFF78AFD06E0022A04D1023A90B2694600F022FD424A137801218B4313707619B6B2444600E00026BE4299D372E0022B70D16CE0B9
:400F0000201CFFF7F1FC6B461880A01CFFF7ECFC81466B465880201DFFF7E6FC6B469880A31D9846062D22D102236A4693750DF0E3FD344A137850780002184349460DF049
:400F40005DFD002807D130490B1C6A4613CA13C313CA13C338E02D4B1B688420400000219847224A137802218B4313702CE0082D2AD101236A4693754046FFF7B5FC011C9D
:400F80006B46D88008239846A04400231AE05A00D2185200184882189288914210D15A00D2185200125A002A0AD15800C1184900114840186B46991C043201F0D4FB03E04F
:400FC00001339BB2022BE2D9084A137801218B4313707619B6B2444600E00026BE428FD307B00CBC90469946F0BDC04608240020E323002007240020000C0020FEFF000082
:4010000001180000F423002014100020BC230020F0B587B000236A465380254B1B78042B44D1244B1B789B0740D50689037B1375028869460A80012B01D1042700E0122701
:40104000456800242BE0281CFFF74EFC6B465880A81C1B7D022B0DD1011C01A8102201F082FB1235144B1B78012B16D1684600F047FD12E0FFF738FC6B46988004350E4B15
:401080001B78002B02D16846FFF7C8FC0A4B1B78012B02D1684600F033FDE419A4B2B442D1D3044A137801218B43137007B0F0BDE3230020082400200724002030B583B010
:4010C000051C01AB00221A805A802E4B1B78012B0ED0002D06D00133DBB22A4A1370012B06D104E00022274B1A70012500E00025244B1B78012B04D1281C00F09FFC019029
:401100000125204B1C78012C02D0FFF75DFD019001AB1B881C4A1288934209D91A4949888B4205D801A949888A4201D88B4201D9012CCAD9012C15D8144A13785078000262
:40114000184301A90DF0BEFB002819D0104B1B6885204000002198470E4A137802218B4313700DE005220C4B1A70094B1B681220FF3000219847074A137802218B4313700C
:4011800003B030BD07240020E4230020F4230020BC23002008240020E323002008B5002804D0224A13780133137006E000221F4B1A7002E001331D4A13701C4B1B78022BEB
:4011C0000CD85A00D21852001949525A194909888A42EFD3174949888A42EBD8022B1DD8154813495A00D3185B0002784078000210435A5ACB185988090411430DF078FBDB
:40120000002811D00D4B1B680A20FF30002198470B4A137802218B43137005E00422094B1A700020FFF74AFF08BDC04607240020000C0020E4230020F4230020BC23002036
:4012400008240020E323002008B5002804D0214A13780133137008E000231E4A13701E4A138002E001311B4B19701A4B197802290CD84B005B185B00184A9B5A184A128831
:401280009342EFD3164A52889342EBD8022919D8144A4B0059184900104B591813785078000218430DF08CFB002811D00E4B1B6884204000002198470C4A137802218B43AB
:4012C000137005E003220A4B1A700020FFF766FF08BDC0460724002014100020000C0020E4230020F4230020BC23002008240020E323002070B586B0244B1B78022B43D114
:40130000234B1B88002B3FD0041C01AD204EB11C281C042201F027FA6168228902A801F022FA281C00F0C6FA3288013292B22A80184B1B785900CB185B001749CB185B8830
:401340006B809A4215D8154A137850780002184301A90DF035FB00280ED0114B1B6884204000002198470F4A137802218B43137002E00120FFF768FF0A4A137801218B4383
:4013800013700022024B1A8006B070BDE32300201410002007240020000C0020F4230020BC2300200824002070B586B0244B1B78022B43D1234B1B88002B3FD0041C01ADA4
:4013C000204EB11C281C042201F0CDF96168228902A801F0C8F9281C00F06CFA3288013292B22A80184B1B785900CB185B001749CB185B886B809A4215D8154A1378507833
:401400000002184301A90DF0DBFA00280ED0114B1B6884204000002198470F4A137802218B43137002E00120FFF70EFF0A4A137801218B4313700022024B1A8006B070BD6E
:40144000E32300201410002007240020000C0020F4230020BC2300200824002008B51D4B1B789B0734D51C4B1B78022B16D0DAB2022A02D8012B05D02AE0032B17D0042BB8
:401480001ED025E00222144B1A700020FFF7DCFE104A137801218B43137019E00120FFF7D3FE0C4A137801218B43137010E00120FFF774FE074A137801218B43137007E000
:4014C0000120FFF7FBFD034A137801218B43137008BDC04608240020E323002008B5054B1B789B0704D583790A2B01D1FFF7B6FF08BDC04608240020F0B583B0041C0D1C54
:40150000B94A117801230B431370412800D109E123D8212800D1ABE00DD8022800D18AE002D8012841D04EE1052800D187E0062800D188E047E1282800D1BAE006D8242800
:4015400000D1A8E0272800D1A9E03CE12B2800D1B3E0402800D11AE135E1492800D125E111D8452800D103E106D8422800D1F0E0432800D1F0E026E1462800D1FCE0472872
:4015800000D100E11FE1532800D104E106D84B2800D10FE14C2800D1E6E014E1582800D1EEE0FA2800D109E10DE101AE0727377000237370301C03F0E3FC377001237370F6
:4015C000301C03F0DDFC01F00BFD884B1E68301CFFF782FB002803D0301C01F00DFD1CE0834B1B78834A12783F210A4092010B401343814A127820390A40120313437F4AC2
:40160000127860310A40520413437D4803701A0A42701B0C837001F0EFFC00200CF064FA01A83F230370002343700CF07BFA0522744B1A70C7E0281CFFF7E4FAC3E02A78E2
:40164000714B1A70BFE02B78002B00D0BBE06B78002B07D16D4B0022DA839A836C4A9A6118336B60604A137801218B431370AAE05D4B1B789B0600D5A5E0664B1B7D102B5F
:4016800002D10522634BDA75634B1878614914310CF064F897E06A78604B1A7093E0604B1B88002B01D009F03DFB0222554B1A7089E00522534B1A7085E0524B1B78022B6A
:4016C00000D180E0484A1278D2077CD5464A1278520708D503224B4B1A70434A137804218B4313706FE0404A1278120708D50522444B1A703C4A137808218B43137062E0EA
:40170000032B60D105223F4B1A70464B1B78002B59D10120FFF772F8002854D10322394B1A7050E03C4F381C291C022201F01BF80026354B1E7039783D31FF3149003A4BC8
:40174000591801313948022201F00DF8384B1E7039E0FFF795F936E06988162900D9172128880DF09BFC2EE0281CFFF799FA2AE0281CFFF7C3FA26E0281CFFF745FB22E084
:40178000FFF76CFE1FE0281CFFF742FC1BE0281CFFF7A4FE17E0281CFFF75AF9124B1B78DB0710D428680DF085F80CE0281CFFF7A1FD08E0281CFFF7F7FD04E01D4A117889
:4017C00001230B431370084B1A7811231A4209D0054A137801218B431370174B1B68201C291C984703B0F0BD08240020C40B00207CF2FF0F7DF2FF0F7BF2FF0F78F2FF0F8D
:40180000C80B0020E2230020F023002014100020A80B0020000C0020F4230020C0230020DE2300200624002000570100E0230020E3230020B8230020BC230020F0B500260F
:4018400030E0301CB31C5A00D3185B00174A9B5A002B1ED024E00301154AD318DB682C011B1900221A80002108E0DF684A0053189B00FB1800221A80013189B203010C4A46
:40188000D318DB681B199A7A8A42EED80135ADB200E000250301064AD3185B7AAB42DAD80136B6B2002ECCD0F0BDC046000C00201C0C0020F8B5061C0027002426E0251CE2
:4018C0002301154AD3181B7A022B1DD1311D2301D3185868102200F037FF002814D102356B005B195B000D4A9B5A002B0CD1680045196D005019311C042200F034FF084AFF
:4019000013780133137001270134A4B2002C01D1002FD4D0F8BDC0461C0C0020000C002007240020F8B54F464646C0B4061C0F1C3E4B1B68002B09D03C4A9288824202D191
:401940000A88013A1A800022384B1A6000239846002451E0BD7D022D12D13301344AD318DA682301D3181A7A022A0CD1B91D58680E3200F0E9FE002808D00023994607E01E
:401980000023994604E00023994601E001239946012D11D13301264AD318DA682301D3181A7A012A08D1B91D5868013200F0CCFE002801D1012399464B46012B1AD1330177
:4019C0001B4AD318DA682301D2181188002911D1B98811803101164A5218D1680832C918B87848725268D3180233104A13609680012398460134A4B233010D4AD3185B7A02
:401A0000A34202D94346002BA4D0084B1A68002A08D0084B1B785900CB185B000649CB185B8813800CBC90469946F8BD341000201C0C002007240020000C002030B583B055
:401A400000236A461380538000281CD0284AD3885C1C11890A01274DAA18527A944202D2234AD48014E04A1C05D1214B013119810022DA800CE020490A7801320A70013326
:401A80001B4AD38004E01A4B00221A81DA80012017490B891A01174CA218547ACA8894420BD91B011349CB18D9681301CB18198801316D4629805B886B806B461B880F49AB
:401AC00009888B4209D90D4D6D88AB4205D86D466D88A94201D8AB4201D99442B4D8009B180C00041B041B0C184303B030BDC046341000201C0C002007240020E4230020D0
:401B0000F8B54F464646C0B4061C00239846002542E0377D022F12D16B005B199B00E268944663441A7A022A0CD1311D58680E3200F00AFE002808D00023994607E00023FD
:401B4000994604E00023994601E001239946012F11D16B005B199B00E268944663441A7A012A08D1311D5868013200F0EDFD002801D1012399464B46012B0BD1E1686A0069
:401B800053199B00CB181A88002A03D172881A80012398460135EDB2094A13891B010949CB18DB68D48824011C19A37AAB4202D94346002BADD00CBC90469946F8BDC046A9
:401BC000341000201C0C0020024B1B68012018407047C0460C002E401F2318401E3B8340181C014B1860704700E100E001BE704738B5041C0D1C1F2802D90020FFF7F6FFBA
:401C0000A400034B9C4664442068256038BDC0464000002010B5041C06E0084B586800F0A3FA074B9C46644480231B029C42F4D8024B9868604300F097FA10BD480C00205D
:401C40000080FFFF08B5034B1B7B584300F08CFA08BDC046480C0020F0B557464E46C0B483B0041C00F089FA0190E71E2D2F74D83F4B1B78DBB2A34208D33E4B1B78DBB294
:401C80009A463D4B1B78DBB2994631E03B4B1B78DBB2A34208D33A4B1B78DBB29A46394B1B78DBB2994623E0374B1B78DBB2A34208D3364B1B78DBB29A46354B1B78DBB2B8
:401CC000994615E0334B1B78DBB2A34208D3324B1B78DBB29A46314B1B78DBB2994607E02F4B1B78DBB29A462E4B1B78DBB299462D4BDE5D2F2E09D92A2C07D919222B4B08
:401D00001A60052000F030FA192503E0274B1D683F231D40AE4206D2234BDA5D234B1A60052000F021FA1F4B9C4664442378DBB21F4A13601F4B52461A601F4B4A461A60A6
:401D40000520FFF77FFFAE420AD9174BDA5D174B1A60052000F008FA02E00020FFF746FF019800F00EFA03B00CBC91469A46F0BD40F3FF0F41F3FF0F42F3FF0F43F3FF0FB4
:401D800044F3FF0F45F3FF0F46F3FF0F47F3FF0F48F3FF0F49F3FF0F4AF3FF0F4BF3FF0F4CF3FF0F4DF3FF0F344E01002CFF0B4028FF0B401CFF0B4020FF0B4010B5041C24
:401DC0000F4A116801230B4313600E4A0E4B1A600E4A1368802109020B431360002809D100200CE00120FFF72DFFFFF7EDFE002804D1013C002CF5D1102000E0002010BD66
:401E000060F02E400220000078002E4010002E40034B1868C0231B02184000D00120704700010B4010B50D4B1A6801218A431A601A68022082431A60094A10683024A04357
:401E4000203C204310601068093CA043014311601A68802109060A431A6010BD00F02E4000FF2E4038B51D4B1B6801241C40002802D0012816D02BE0184B19680122914305
:401E800019601968022081431960154B19682E3081432038014319601968093881430A431A6018E00D4B1A6802218A431A600C4A10680725A8430143116011683020814301
:401EC000103801431160196801220A431A6002E00020FFF78BFE201C38BDC04600F02E4000FF2E4008B500F048F9044A1368C02109020B43136000F044F908BD00010B4055
:401F000010B500F03AF908490A68084B1A408024E40122430A600A6813408022120213430B6000F02EF910BD00010B40FF3FFFFF70B5061C00F021F9041CFFF769FF002852
:401F400003D0FFF7DDFF012500E000250848331C0340084A106808490840184310601368012D01D1FFF7BEFF201C00F00AF970BD0404040010020B40FBFBFBFF10B5244B6A
:401F80001B685B0715D5234B5B685B070ED5224B596A042001401F4C62688A4362605A6A82435A629B69002B00D098470420FFF7BFFF174B1B685B0518D5164B5B685B05D2
:401FC00010D5154B596A8022D2001140114842688A434260596A114A0A405A62DB69002B00D098478020C000FFF7A2FF084B1B685B030CD5074B5B685B0304D5064B1B6A32
:40200000002B00D098478020C002FFF791FF10BD10020B405C0C002040100020FFFBFFFF044A11687F230B40C001C0B2184310607047C0460003044008B500F073F808BD31
:4020400008B500F01DF808BD08B5044A1368802109060B431360FFF7EFFF08BD0000244008B5064B1B78002B04D1FFF7E9FF0122024B1A70FFF7E8FF08BDC046681000201C
:4020800010B5154A154B1A600023154A13600121144A1160144A15480260072414480460144803601448016014490A60144A13600421144A1160144A1360144A1360144A2C
:4020C0001360144A1360144A1360144A13601268134B1A8010BDC0460B00000200002440400024404800244007000080000324400403244010032440440024400002244016
:402100000402244050002440880E2440C80E2440480F2440080F2440C80F2440880F24406A100020064A1168064B0B40902109040B431360044B1A88044B1A607047C046EC
:4021400000010240FFFF0FFF6A100020880F244038B5051C002402E000F016F80134285D0028F9D138BDC0460230800803D00138FDD1C046C046C0467047EFF3108072B6CB
:40218000704780F310887047044B1B681F221340082BF9D0024B18607047C04608022440400224400160704701607047324B1A781202324B1B781A43314B1B781B02314948
:4021C00009780B4330498B4201D1072A06D0D42109018B4206D1042A04D102E02B4B042200E02A4B2A490B602A4B1A602A4B1B781B022A4A1278134380229201934202D056
:40220000002B02D002E0264B00E0254B254A1360254B1B781B02254A12781343244A934205D0244A934204D0052B05D103E0224B02E0214B00E0204B204A1360204B1B68C4
:402240001B09204A1268AA2A15D1012B13D9164B1B780E2B0FD11C4B1B781B021B4A127813431B4A13601B4B1B781B021A4A127813431A4A1360704759F1FF0F58F1FF0FAC
:402280005FF1FF0F5EF1FF0F580B0000580D00006C002E4074002E405BF1FF0F5AF1FF0F0220000078002E405DF1FF0F5CF1FF0F0F0F000005050000050F000080002E4043
:4022C000EC0F00F0E00F00F06DF2FF0F6CF2FF0F84002E406FF2FF0F6EF2FF0F94002E4008B5FFF7AFFC08BD08B5FFF793FC08BD08B500F04BF808BD08B500F04FF808BDD2
:4023000008B500F04BF8034800F02AF8032000F02DF808BDE523000008B5024800F046F808BDC046E523000000487047020200002B2070472B2070472B2070472B20704738
:402340002B2070472B2070472B2070472B2070472B2070472B2070472B2070477047C046014B18677047C0460000002010B5041CFFF703FF044A1368C0218B43A4011C4391
:402380001460FFF7FEFE10BD0CE400E080225201014B1A607047C04600E100E080225201014B1A607047C04680E100E010B5041CFFF7F4FF201CFFF7D3FF0320FFF7D6FF68
:4023C000FFF7E4FF10BDC04608B5FFF7D6FE044A136804218B43136030BFFFF7D2FE08BD10ED00E008B512F049FC08BD002243088B4274D303098B425FD3030A8B4244D3DE
:40240000030B8B4228D3030C8B420DD3FF22090212BA030C8B4202D31212090265D0030B8B4219D300E0090AC30B8B4201D3CB03C01A5241830B8B4201D38B03C01A52416F
:40244000430B8B4201D34B03C01A5241030B8B4201D30B03C01A5241C30A8B4201D3CB02C01A5241830A8B4201D38B02C01A5241430A8B4201D34B02C01A5241030A8B4236
:4024800001D30B02C01A5241CDD2C3098B4201D3CB01C01A524183098B4201D38B01C01A524143098B4201D34B01C01A524103098B4201D30B01C01A5241C3088B4201D32B
:4024C000CB00C01A524183088B4201D38B00C01A524143088B4201D34B00C01A5241411A00D20146524110467047FFE701B5002000F0FCF802BDC0460029F7D003B5FFF7C5
:4025000075FF0EBC4243891A1847C04603460B437FD4002243088B4274D303098B425FD3030A8B4244D3030B8B4228D3030C8B420DD3FF22090212BA030C8B4202D312120A
:40254000090265D0030B8B4219D300E0090AC30B8B4201D3CB03C01A5241830B8B4201D38B03C01A5241430B8B4201D34B03C01A5241030B8B4201D30B03C01A5241C30AEC
:402580008B4201D3CB02C01A5241830A8B4201D38B02C01A5241430A8B4201D34B02C01A5241030A8B4201D30B02C01A5241CDD2C3098B4201D3CB01C01A524183098B42AA
:4025C00001D38B01C01A524143098B4201D34B01C01A524103098B4201D30B01C01A5241C3088B4201D3CB00C01A524183088B4201D38B00C01A524143088B4201D34B0043
:40260000C01A5241411A00D201465241104670475DE0CA0F00D04942031000D34042534000229C4603098B422DD3030A8B4212D3FC22890112BA030A8B420CD389019211B7
:402640008B4208D3890192118B4204D389013AD0921100E08909C3098B4201D3CB01C01A524183098B4201D38B01C01A524143098B4201D34B01C01A524103098B4201D319
:402680000B01C01A5241C3088B4201D3CB00C01A524183088B4201D38B00C01A5241D9D243088B4201D34B00C01A5241411A00D20146634652415B10104601D34042002B98
:4026C00000D54942704763465B1000D3404201B5002000F00BF802BD0029F8D003B5FFF715FF0EBC4243891A1847C0467047C046014B18687047C046E00F00200E4B70B5F5
:4027000000251E1C0D4CE41AA410A54204D0AB00F35898470135F8E712F0C0FB084B00251E1C084CE41AA410A54204D0AB00F35898470135F8E770BDA84E0100A84E010055
:40274000A84E0100B04E010030B50024944208D0035D651C0C5DA34201D0181B02E02C1CF4E7002030BD002310B5934203D0CC5CC4540133F9E710BD031C8218934202D056
:4027800019700133FAE770470EB410B59DB002A9029008610B48822488604861012040421FABC881084804CBA400006801938C8100F06CF80023029A13701DB010BC08BC4B
:4027C00003B01847FFFFFF7FE00F0020F0B58E6885B0071C0C1C03920193B34245D390238A89DB001A423DD003250969236801985B1A029363695D43EB0F5D19029B6D1023
:4028000001331B189D4200D21D1C381C53050FD5291C00F01DFB061E13D0029A2169FFF7A2FFA289184B134080221343A38111E02A1C00F065FB061E0CD1381C216900F053
:40284000C1FA0C23402201203B60A38940421343A38117E0029B2661F61826606561019EED1AA560019BB34200D2019E321C2068039900F092FA0020A3689B1BA3602368A9
:402880009E19266005B0F0BD7FFBFFFFF0B59FB0029005938B890E1C171C1B0610D50B69002B0DD1402100F0D3FA30603061002804D10C23029A01381360D0E04023736155
:4028C000002306AD6B6120336B761033AB763C1C2378002B03D1E31B049312D003E0252BF9D00134F4E7049B0298311C3A1CFFF76DFF431C00D1ACE06A69049B944663443C
:402900006B612378002B00D1A3E00122002352426A6002A95432521801342B60EB60AB601370AB654F4F2178381C052200F02AFA002808D0C01B01278740381C2B6801341D
:4029400018432860EEE72B68DA0604D55322202102A8121811701A0704D553222B2102A81218117022782A2A01D0099B0EE0059A111D12680591002A01DB099204E05242F1
:40298000EA60022213432B60013409E02278303A092A04D80A214B4301349B18F6E7099323782E2B18D163782A2B09D1059B02341A1D1B680592002B0DDA01235B420AE0B2
:4029C000002301342278303A092A04D80A214B4301349B18F6E70793234F2178381C032200F0D0F9002807D0C01B40278740381C2B6801341843286021781C480622671C68
:402A0000297600F0BFF9002812D0194B002B06D10722059B073393430833059314E005AB00930298291C321C124B00E000BF07E005AB00930298291C321C0E4B00F08AF8B1
:402A40000390039B013304D06B69039A9B186B613DE7B3890B985B0601D5012040421FB0F0BDC046664E01006C4E0100704E010000000000CD270000F7B5171C01930A69C5
:402A80008B6800900C1C934200DA131C221C3B6043321278002A01D001333B6023689B0602D53B6802333B60062523681D401ED0231C43331B785A1E9341226892061CD5CD
:402AC0003020E1184031C870211C5A1C45310978A21840320233D1700FE0221C0123009801991932089EB047431C0ED00135E3683A689B1A9D42F0DBDAE7221C009801993D
:402B00004332089DA847431C02D10120404220E006232068E1683A6803400025042B03D18D1AEB43DB171D40A3682269934201DD9B1AED180027AF420ADA221C0123009893
:402B400001991A32089EB047431CDED00137F2E70020FEBDF0B58BB006920A1C43320793059004920A7E0C1C109B6E2A00D1A8E011D8632A22D009D8002A00D1B2E0582A5D
:402B800000D0C2E045310A707C4A4FE0642A1DD0692A1BD0B9E0732A00D1A7E009D86F2A29D0702A00D0B0E0202209680A43226037E0752A1FD0782A33D0A6E00E1C1A68CC
:402BC0004236111D196013683370A1E021681A68080606D4490604D5111D19600023D55E02E0111D19601568002D3BDA2D23049A6D42137036E021681A68080606D449063F
:402C000004D51568111D1960ADB202E0111D196015685A4B227E03930A276F2A1DD108271BE0221C782145321170554A19680392081D226818600D68100602D4500600D53E
:402C4000ADB2D30702D520231A4322601027002D03D1202322689A432260231C002243331A7002E00A27454B03936368A360002B03DB0422216891432160002D02D1049EA7
:402C8000002B0ED0049E281C391CFFF735FC039B013E5B5C281C3370391CFFF7A7FB051EF1D1082F09D12368DB0706D563682269934202DC3023013E3370049B9B1B2361EC
:402CC0002BE009681A68080607D4490605D5111D19601368A28A1A8004E0111D1960136862691A600023049E236116E01A68111D196016680021301C626800F043F8002821
:402D000001D0801B6060636803E0261C42363270012323610023049A1370079B05980093211C069B09AAFFF7A7FE431C02D10120404221E0236905980699321C079DA847F4
:402D4000431CF4D023689B0705D4099BE068984212DA181C10E00025E368099A9B1A9D42F3DA221C0123059806991932079EB047431CDCD00135EFE70BB0F0BD774E010016
:402D8000884E0100C9B28218904204D003788B4202D00130F8E70020704710B5814208D28B18984205D29B1A013A09D3995C8154FAE70023934203D0CC5CC4540133F9E734
:402DC00010BD000030B500293ED004390B68002B00DAC9181D4A1368141C002B02D14B60116031E099420DD208680A189A4203D11368C3180B6053684B60216024E08A42A3
:402E000003D8131C5A68002AF9D11D685C198C420BD10968691858181960904214D110685268091819605A600EE08C4202D90C23036009E008680C18944203D11468526890
:402E4000001908604A60596030BDC04694210020032370B5CC1C9C430834051C0C2C01D20C2405E0002C03DA0C2300202B6042E08C42F9D3204A1368101C191C002913D026
:402E80000A68121B0DD40B2A02D90A608B181FE08B4202D15A6802601BE04A685A600B1C17E00B1C4968E9E7144E3368002B03D1281C00F04BF83060281C211C00F046F8D3
:402EC000031C421CD0D00322C61C964386420AD11C60181C07210B301A1D8843821A0AD05142995007E0311A281C00F02FF8431CBAD0331CECE770BD9421002090210020C0
:402F0000F8B5061C0C1C151C002904D1111CFFF79FFF041C18E0002A03D1FFF753FF2C1C12E000F025F8A8420ED2301C291CFFF78FFF071E07D0211C2A1CFFF714FC301C55
:402F4000211CFFF73FFF3C1C201CF8BD38B50023064C051C081C2360FDF720FB431C03D12368002B00D02B6038BDC0460C2400200B1F1A68101F002A04DA891804390B689B
:402F8000D018043870470000134A1088810703D08107890F401A001D11791030484381B25088820703D08207920F801A001D800040180A494030098980B2CA0701D0503031
:402FC00080B2890706D504495422091F09785143081880B2704700006A0C00207810002010B501F0EDFE10BD10B501F0EFFE10BD10B500F055FA10BD10B50749044609785E
:403000000220002907D1204601F030FF002802D120460AF055FE10BDFA0D002070B504460120002C12D02368002B0FD0616800290CD0074D06222889208118462968FFF791
:4030400092FB6968606809780170002070BD000078100020FFB585B0002768460E9D07734F481C460078002802D0082009B0F0BD10990F9801900095029105A807C800F0F2
:4030800001F90028F2D16946264603AB84460873002C19D0002115E08A00B75A082F09D990198078002805D0083FB7521878401C187005E0002914D00027B752901987701A
:4030C000491CC9B2A942E7D360460028CED10F98002809D0109901F023FA002804D00120C4E701208446EFE701F070FE2D480021416081600599016021888180022D07D3CD
:40310000A1798171A17AC171A1890181218A418100211EE0481C19E082008B00A75AE65ABE46BE4211D26F463E80B4461E190296B678BE7001967646E6521719029EBB7846
:40314000B3706646A652019EBE70401CA842E3D3491CA942DED3134822460C3000906846037B0799069800F015F90028B8D168460B4C007B60700B480C3001F057FE0028C9
:40318000AED1084907480C3107F068FD0028A7D107F082FD0028A3D10121217066E70000640C00206C100020F8B5054633480E460078002802D002242046F8BD002E5BD0A6
:4031C00000242F49002D16D02A89D0070DD02868002808D003881B3BE12B04D24088FB2801D81B2801D2012409E0900707D56868002804D1F7E70020088108604860002C7B
:40320000DAD11F482F8907811C481B21801D018041800421017119490020891C0870F80705D016480622801D2968FFF79CFA1449B80703D56A681148127882700F480D462E
:40324000801D0860001F486001F036FE0B48801D01F024FE28890DF021FF28890EF056F803461033FFF790FE1F21C018890140180249308088809FE701249DE7640C0020C3
:4032800078100020FFB58446384F1C460020BB883F78054602460646002F11D100290ED0029999420BD36146002908D0002C06D00A99002906D02E4B0B99994202D2012061
:4032C00004B0F0BD002144E0AB001F19BF78002F3BD0E35A002B38D07B43591889B22B0000F04AF8050410161C253100A7782388BC46FF27233BEB37BB4222D26346032BC2
:403300001FD322E0A388002B1FD0302B19D31CE02389002B19D0282B13D316E0A289002A13D01346134F233BBB420AD20DE0268A002A0AD033460F4F233BBB4201D296427A
:4033400003D901200EE0002001E000280AD16D1CEDB2099B9D42B7D31C2463435B1802998B42ACD89642AAD8AAE70000640C002079020000BAFF000030B47446641E257878
:40338000641CAB4200D21D46635D5B00E31830BC18470000FFB583B0002469460C801F4606468C80002806D00598002803D004983043800701D0012466E0002FFBD0344928
:4033C000049809888842F6D3FEF7A6FFFEF794FF00F012FC002855D100F062FD002851D12C49084601F0D0F805042D0C4AD12A480499066081800021C18007810C98007AAF
:40340000C00704D0684601F0FAFC040007D10C98007A800703D501A801F0FAFC0446BF1DFEB2002C20D13146059800F05DF804001AD10DF079FF040016D16A461088928876
:4034400008368518144AF1B29088D288AEB29319984207D3401B801A80B201F085FB050007D000E0FF25012400F05EFA002D04D008E0F8B200F01CF9F6E700F081FA074929
:403480000120087000F0CAFB204607B0F0BD0000680C0020D535000084100020700C002010B503480078012801D101F0FFF910BD700C002070B5084B0446DA889E880020C7
:4034C0005518B54206D81D68AA182260DA885118D98070BD032070BD84100020014800897047000084100020F0B587B007460D4600208900009006916846FFF7DBFF84469B
:4035000000285DD1304800990160002117E02E4B88001A680629115406D22C4C0419667882185670628805E0C419203CA67A8218567022891B68C018491C4280C9B2A942CE
:40354000E5D300242DE0601CC2B2059025E01E4FA30039689600581840887118039604904E88B04217D938466F46FE80B6464F786E4677710297049F4F800168039F5E184F
:40358000767879184E700168764659184E800068029F18184770521CD2B2AA42D7D30598C4B2AC42CFD36046002809D168460699FFF780FF8446002802D1054900980860D2
:4035C000604607B0F0BD0000740C0020D04E0100780C00207047000010B5002809D005494A68002A05D0011F08788000105801F069FA10BD740C002010B50446FFF76EFF27
:40360000C0B2801DA0420CD307484068002808D0A100405801F0C8F9002801D00470001D10BD002010BD0000740C0020F8B516460D460446FFF752FFC0B2801DA04203D241
:403640000020C0430090F8BDB2B2E9B2684601F0D1F90099481C03D0024AA000526811500098F8BD740C0020F8B50746FFF736FF801DC6B20A49002005460C680DE0617884
:40368000002907D06188B94202D32078FFF7B4FF002804D1241D6D1CEDB2B542EFD3F8BD740C002010B5002801D0FFF795FF10BD70B506460948002504680BE06178002947
:4036C00005D062882078121D0023FFF7AFFF241D6D1CEDB2B542F1D370BD0000740C0020FFB581B00A9F16000C4620D000F0F2F8054604281BD0002F0CD03846FFF7B4FF38
:4037000020492A0151184860002810D03A460499FFF729F81B4928010E504618778101980570200406D47D20C000444304E0FF2005B0F0BD6404640C00F0BAF8074604281F
:4037400007D000F04FFAA0420BD800F04BFA201A03E0204600F0AAFA0020F06035720020E6E700F03FFA009000F0B6FA00980121001B009000F0ECF802493A01511800980B
:40378000C860E6E790100020F8B5060116483418217A042903D0E068002802D017E00020F8BD00F01FFA054600F096FA00F0A0F804280CD001010C480F18F868002145198D
:4037C00000F0C6F80020F860284600F06FFA6068054D002801D0FFF765FF042020720020A8516081E060DAE790100020FEB500266A46304601232549050169180D7A042D2E
:4038000002D0C96800291BD000211154401CC0B20428F0D300246846005D002830D01B48210108184189476805680291002101604160042241810272C160002E02D015E024
:403840001354E3E700F054F804280ED001010F4808180190C6680021304600F079F801980021C160304600F021FA0126002D07D038460299A847002F02D03846FFF712FF8C
:40388000641CE4B2042CC6D3FEBD0000901000200EB5002005216A460090118150810348694600680EF0A5FB0EBD00007C0C0020074A0020010189180B7A042B02D0C968C4
:4038C000002903D0401CC0B20428F3D370470000901000200549002002015218127A042A03D0401CC0B20428F6D370479010002030B50A4B04200A4C00210A011219157A59
:40390000042D06D0D268002A03D09A4201D808461346491CC9B20429EFD330BDFFFF0000901000207047000030B50020074C05460423020111190B72A5504D60401C4D817C
:40394000C0B2CD600428F4D330BD00009010002030B5094C00231A011219157A042D04D0D568002906D02D18D5605B1CDBB2042BF1D330BD2D1AF7E790100020002070477B
:403980001CB5002469460C70142001902346054A05480EF033FB04480068401C00D1FF2420461CBDFD3900007C0C00203EB5124A0146FF2000230124126800290DD0012929
:4039C00014D0042908D104206946009308814B8110460EF00EFB80B23EBD6846009304814381694610460EF0FFFAF4E768460093048143816946EBE77C0C002070B5458991
:403A00000468416800890300FFF7B6FC08280509091E22282628002005F0A8FE1EE0022908D0C8B22A4621460CF0DCFB2046FFF739FE13E002202A4621460CF0D3FB2946A8
:403A4000204600F00DF809E000200DF0D1FF05E02046FFF7CBFE01E0FEF780FC002070BD014B0022DB681847800C002070B5448905680089022803D0032809D0FF2070BD7B
:403A80002246094C0023A46829460120A04708E0FFF7AAFA241DA2B200232946022006F090FF002070BD0000800C002070470000024800214160018041807047800C0020F2
:403AC00070B50C46002186B016460391012802D0022859D116E003A9012006F0C7FF01281BD1039D324621462846FEF73CFE0095287801900220694608814E816846FFF776
:403B0000B5FF41E0214D002B686809D0049004A9022006F0ABFF01281DD0022006B070BD002812D0298840182146FEF71CFE28880024801980B228806988091D884206D1C8
:403B40002C801348FFF792FF03E00320E6E788421AD96C6018E004986860E278A378110219430B4A698000231060E3565360032313815181A1788170E178C17061784170B4
:403B800021780170042028800020C7E7800C0020D01000203EB515460C46022803D004280CD000203EBD0091019002206946088107484A8100680EF01CFA07E00CF012FBF3
:403BC000044B0022DB6829462046984701203EBD7C0C0020800C0020014AD16090607047800C0020034801688068081A0A21484300097047DC10002010B5FEF781FB48223E
:403C000004490548FEF7AFFD03490120C870002010BD0000EC4E0100E014002010B5FEF767FB10BD70B5134C2368002B08D0207B1149C20705D04008400020738868A080AF
:403C400070BD88680B4AA18880B29268814203D90A4D691A091802E0814202D2411A5118A160A080A0689842EAD30EF0DFF900F013F870BDDC100020C0102E40FFFF0000A0
:403C800010B508461946FFF7A7FF10BD704710B5FFF780FF10BD000003480021016041608160C16070470000DC100020024610B5FF20002A0CD0FFF7EFFF064C0321207B11
:403CC0000843207310010A21FEF716FC2060002010BD0000DC10002000B504480A21806848430209FFF7D8FF104600BDDC1000200248007B8007C00F70470000DC100020B6
:403D000010B54B490868002802DA4A4B01221A70022290430860484800694549C00B4031096A0246C907C90F0A4259D0012000F07FFA3F480E216C30FEF736FA3E482021B2
:403D40008430FEF731FA3C4814219C30FEF72CFA3948FF21C131A430FEF726FA3648FF212F31B030FEF720FA33483449BC30FEF71BFA31483249AC30FEF716FA30492E48B4
:403D8000491CB430FEF710FA2B482E49B830FEF70BFA29482C49CC30FEF706FA26482B490830FEF701FA24482949A830FEF7FCF9214828498830FEF7F7F91F4826498C3065
:403DC000FEF7F2F91C481921C9029030FEF7ECF9FEF7ECF9FEF7A8FAC0B2022812D01FE000290BD0002101420AD0114801216030FEF7DAF90120FEF777FA97E70121F2E7DD
:403E0000FF2010BD15491648FEF7CEF914481549001DFEF7C9F9124800210830FEF7C4F954200449C043891C0870002010BD000000F02E40900C002000002E4032030000A0
:403E40002F3F00003102000010520000EC160000FA12000031D000003AE300009956000080012E40F80F000070B50646581C80B245086D00002408E0304600F0A9F81055E5
:403E8000000A1119A41C4870A4B2AC42F4D3D80705D0D0182038D15CC47FD454C17770BD10B5FF2000F0C4F90F49FF2048700E481021801D41800121417001700A490020FE
:403EC000C91C4870FFF71CFF04000AD100F010F907210648FEF766F9044807211830FEF761F9204610BD0000900C0020CC112E4070B5002405465B1E0AE0284600F068F878
:403F0000010A161971702D1D1055A41CADB2A4B29C42F2DB9C4203D1284600F059F8105570BD000070B500210A4D5B1E0AE0541864782602545C344346193480001D891C38
:403F400080B289B29942F2DB994202D1515C4019018070BD00102E40F0B50599091FCFB200217E1E0BE0541864782502545C2C43164D45192C80001D891C80B289B2B1429B
:403F8000F1DBFC0712D01C78515C24020F4A0C4381180C809C785D78001D210280B2294384182180001D80B2D9780CE059781A7809021143054A84182180001DD9789B78BD
:403FC000090280B2194380180180F0BD00102E40014940180088704700102E4010B50B490020487000F084F8002000F047F9002000F034F907210648FEF7D4F804480721F0
:404000001830FEF7CFF8002010BD0000930C0020CC112E4010B50B46062812D006DC01280CD0032801D1FFF7D9FF10BD0A28FCD00B28FAD105480078107010BDFFF730FFAD
:4040400010BD1146184600F035F910BD960C0020F8B5244DAC6A0127A007234E002816DA307806280ED1286A384328621F480069F903084381B21D481030FEF795F80420A4
:4040800000F0D6F8174802212830FEF78BF8E00718D000F01DFF01280FD1002000F06AFF062000F0C5F81049FF20C91E48707078002802D1686B384368630A4801212830E1
:4040C000FEF770F8E0050BD53078042802D1052000F0AEF80348FF2101312830FEF762F8F8BD000040F02E40930C002000002E4010B503212348FEF757F80120FEF7F0F8E2
:4041000020483038406A204C80076178800F890001431C480C38FEF747F86078002808D0401E022181401820FEF7D6FAC000083800E0B82081B21548FEF736F81348032100
:4041400009021438FEF730F810481149B830FEF72BF8612189010F48FEF726F80D480321001FFEF721F80C490C48FEF71DF80B480B496038FEF718F8084801218838FEF7DF
:4041800013F810BD70F02E40960C0020D8102E4090890000041E2E40FF0F000058122E40209000000849087806280BD148780749002803D1486B400840004863C86A0122E0
:4041C0001043C86270470000930C002040F02E400148007870470000930C002000B50300FFF7CAF8080D050D0B070507090D012000BD032000BD042000BD022000BDFF208F
:4042000000BD0000074A9168D26889B2064B92B2994204D105498A4201D1012100E000210170704780002E4033D000003FE3000010B50446FEF760F8072C01D9FF2C01D10D
:4042400002480470FEF754F810BD0000930C00200149487070470000900C002010B5064A012805D01921C9021046FDF79DFF10BD1D21C902F8E7000090002E4010B50A4A74
:40428000141D012808D009491046FDF78DFF08492046FDF789FF10BD04491046891CFDF783FF0349491DF3E788002E4031D000003AE3000070B50C460546FEF735F8C0B2F0
:4042C00002280E49287804D0FF2810D04C280CD810E0FF2809D10A4AD0680004800F032801D0087807E09069000A553803E00878207070BD4F382070087070BD920C0020CD
:4043000000002E40F0B50122002834D0002932D00424420600D00524792342065B06D21800D0641C034600221EE00C2516466E43124D00277519AF72104F002ABB516960CE
:4043400007D0661EB24209D10D4E86197606760E05E05E06760E8027BE1B00E080269B198919521C2E81D2B2A242DED303480549006B002288611046F0BD0000681300200E
:40438000790200009C0C002018B50020694608700A48006900280ED0132149014018047E684604704F21C900054800F059F8A04201D0012018BD002018BD00009C0C00203E
:4043C000EC100020074900200C2242435218927A012A05D0401CC0B20628F5D3002070470120704768130020F8B50E000446154609D0194F19497868A04202D94018A04220
:4044000001D38D4201D90120F8BD31462046FEF79BF900281ED02A4631462046FEF7A3F9E8B200210C224A43D21913895568EE18A6420BD90126641B1B1B9672834209DAB7
:404440001469C01A044AC0B220329676491CC9B20629E7D30020F8BD6813002079020000034610B50020024604E09C5C2018521CC0B292B28A42F8D310BD000070B500F0EC
:404480005FF8084C064A216907480D46FEF76BF905492846FFF736FFFFF776FF207070BD790200009C0C0020EC100020002070470020054A002902D0012902D002E09060FF
:4044C00000E0D060002070479C0C002070B5084C154608460549E26889182A46FEF743F9E0684019E06028B270BD0000EC1000209C0C00203EB50A226946FFF7E7FF044651
:4045000006480A2200686946FEF71EF9002802D00020C0433EBD20463EBD0000A00C0020002802D0044A914201D2FF20704703494A61086100207047790200009C0C00205B
:40454000024800218160C160704700009C0C002070B5074C15460548A26880182A46FFF743FFA0684019A06028B270BDEC1000209C0C002010B503490A220968FFF7E8FF0E
:4045800010BD0000A00C002010B50F4A002313600E4A13600E4B18600E4801600E49012008600E490860000290600E490C4808600D4914300860FF381538506000F0BCF8DD
:4045C00000F0CAF9002010BDD00C0020B80C0020E40C0020E80C0020D40C0020C40C0020B0140020C80C0020DC0C0020014610B50020002910D0094B1A689C685118A142EC
:4046000009D25868196080188A0704D08A07920F891A091D196010BD002010BDB80C0020F8B50024164E671E321F3D463168136806E01422624310328A58521C1BD0641CF7
:404640009C42F6D36A1C14D02C461422544322460C3288500C214843FFF7C8FF3168002808510AD031680020103408517068401C70602846F8BD2546E4E73846F8BD00001D
:40468000C80C0020F3B50026F64381B000281BDB1E490968884217D80299002914D01B4F142204463F1D54432546396810354859401C09D0FDF720FE38682F1F4159C359BD
:4046C000994203DBFDF714FE3046FEBD214608310091465801590C20704308180C220299FEF741F80948761C001D0068C159B14200D100260549009A091D86500868415951
:40470000491C4151FDF7F4FD0020FEBDC40C0020002803DB07490968884202D90020C043704704491422091D096850431030085870470000C40C0020F0B500200D4A451E19
:404740000346171F50600FE014260146714314680E1DA3510C461668083433511668083435511468401C635039688842ECD30020F0BD0000C80C0020F3B50026F64381B0CD
:40478000002841DB2349096888423DD8029900293AD0204F142204463F1D54432546396810354859401C2FD0FDF7A6FD3868415900292BD0211D009146580C210059714360
:4047C0000F46C1190C220298FDF7CDFF11480021001D0068761C00590C34C0190160416081600C48001D00680159B14200D100260849009A091D865008684159491E415115
:40480000FDF776FD0020FEBD3046FEBDFDF770FDFAE70000C40C0020FEB504460D4600201E49089E0860471E009001900290002C11D0486885420ED2002A0CD0002E0AD064
:40484000642E08D808460C3001681C2068430C18207A002801D03846FEBD0120226020721846FFF7DDFE6060401C13D06681A6810A4827610C3067610179A94200D2057100
:404880000021684601810A462846029B00F040F82846FEBD00202072DDE70000D00C002038B50124009400F039F838BDFEB50027164EFF433D4600240EE01C203168604340
:4048C0000818017A002906D04068FFF721FF002801D0254603E0641C3079A042EDDA681C12D01C2130684D434419FDF705FD69466068FFF741FF0546FDF7FAFC002DD9D170
:40490000216868468847D5E7FEBD0000DC0C002038B50024009400F001F838BD1FB500220C49541E0A60002811DB496888420ED808491C220C31096850430818406801A991
:40494000FFF7A0FE401C02D0002004B010BD2046FBE70000D00C0020F0B50021114A4D1E174611710C3F0B46BD6016E008461C2460431668041D3551146806462350146869
:404980000836A3551468361DA353044616680A34335318301468491C255078688142E5D30020F0BDDC0C002038B500210091002811DB0F49097888420DDA0D4D04010C35C5
:4049C00029680859002807D0201D0818694600F06FF9002801D0002038BDFDF78DFC28680F34015D491E0155FDF782FC009838BDEC0C0020F7B582B0002502986E1E066043
:404A00002E48D21C024017462D4A2C4610460C380178106805E02301C358002B0FD0641CE4B28C42F7D3711C28D03401211D40180191039900F02AF900281FD101E026462D
:404A4000F1E71F48016820460C300F521C480399026820460E30115419480399026820460F3011540398784300F0A0F8144900280968085102D00024009011E001251AE0E3
:404A80000F48016801980818009900F02CF9002801D0012502E00098C0190090641CE4B203988442ECD3002D05D10298066004480179491C0171284605B0F0BDFCFF00002C
:404AC000F80C0020F8B50D4600216A468C461180002839DB23490978884235DA214B04010C3319680A59002A2ED020460C300B5A801C0E5C184670438018954224D3854255
:404B000022D2002006E007465F43BF18AF4206D0401CC0B2B042F6D36046002814D0114E271DC8190C366A46294600F006F900280AD168460088012808D030682946C019C5
:404B400000F0D1F8002803D00120F8BD0020F8BDFDF7D2FB30680F34015D491C0155FDF7C7FBF3E7EC0C0020F8B50F46002400F031F8002817D10C4900220B460C334A6079
:404B80000EE021011D680E466A501D680C36AA53B61C1D680F31AA551D68641C6A54E4B2BC42EED31A71F8BDEC0C002000280BD0C01C074A8108506889005388411899427F
:404BC00003D89368516018187047002070470000EC0C0020F8B5064600200F4D009029700C0121466846FEF765FC00280CD129460C3100980860301B001F84B221466846DC
:404C0000FEF758FC002801D0FF20F8BD6C800098A8600020F8BD0000EC0C0020F8B5002827DB19490978884223DA174C05010C342168485900281CD028460C30085A0090E1
:404C400028460E300E5C401C0E5420682F1DC01900F064F800280CD12068002445590EE0094829460C300068C01900F03CF8002801D00120F8BD00982D18641CE4B2B44211
:404C8000EED30020F8BD0000EC0C002030B50D4604000BD0A800FFF789FF6060002805D000202570C0436080002030BD012030BD70B50D46040005D0002D03D00220205EA8
:404CC000002801DA012070BDFDF716FB0221615E60688900405828606088401E6080FDF707FB002070BD70B50D46040007D0002D05D002212078615E401E814201DB0120B5
:404D000070BDFDF7F9FA6088401C00B26080616880000D50FDF7ECFA002070BD10B5040009D0227800216068FDF726FD0020C0436080002010BD012010BDF0B500231D4677
:404D4000002802D00224045F0AE00120F0BD46689F00F6598E4201D1012503E05B1CDBB29C42F4DA15700020F0BD00000148007870470000000D00207CB505460024FEF775
:404D800033F9A8796946087000A8062229460130FDF7E9FC0021684604F0AEFF0C2806D0072806D01F2806D0122806D006E0022404E0042402E0272400E0012420467CBDA1
:404DC0000148012141717047E815002010B500F075F9FFF7FDF9FFF701FA10BD70B504460025FEF701F9002C06D0A079012803D8214602F009FD00E00125284670BD01460C
:404E00000120002902D05020088000207047000001460120002905D003485422007850430880002070470000020D002010B502460D49FE204870032410460DF0FDFB0028F4
:404E400010D10DF0A1FB00280CD105F06BFE002808D100F04FFB002804D105F01DFA002800D10024204610BD000D002070B50025044600280ED0A07901280BD8FEF7B4F834
:404E8000A0790028204602D003F002F803E002F0D7FF00E00125284670BD0000014610B50120002904D006220248FDF75CFC002010BD00000C0D002001460120002903D0CE
:404EC000087802490870002070470000020D00200148007970470000E815002038B504460120002C20D0617801291DD800290BD0FF25E535FEF778F80C4828180088C0B232
:404F00002070072803D00EE0FF25CD35F2E70020694608706846FFF775F969460878012801D108202070002038BD000000102E40014A002192681047000D002008B500225B
:404F40006B461A7026280CD0094A342852680BD0352805D1900703D50021352005F0BEFE08BD19462620F9E7D007F9D03420F5E7000D00200149087170470000E8150020E1
:404F8000F8B504460120002C26D06178012902D92278092A20D8002905D0FF25E5352078092803D004E0FF25CD35F8E708202070FEF71AF82078114F114E08280DD0002010
:404FC000FFF75CF970780128207810D00D4969180880FE2070700020F8BD0120FFF74EF90720B8810549203188800120F2E7B8810248217820308180EBE70000C0112E40CE
:40500000000D002000102E4070B50E46050001D0002400E00C4C002C11D0E28A500609D5D107C90F022003F00DF8E08A40218843E08204E0D107C90F012003F003F8314691
:40504000284602F0E7FC70BD48150020F8B50546002004460D4E009013E022466946284600F0A6FE0098002801D00DF0C7FAA878214602F01BFBA878214602F009FB641C0F
:40508000E4B2308AA042E8D8F8BD000010160020064A02235188891C89B25180814201D8102900D95380508870470000120D00200148407870470000120D002038B51E4C67
:4050C000FFF786F8042813D0052811D0062812D003282AD007280AD100206946087002460120FEF797FFFFF773F80128FBD138BD00F0E1FB38BD02F045FB00F0DCFB02F0AE
:40510000A5FB8007800F0228F4D10C4841880029F0D05B21095D0029ECD101210170A07D0140022002F08EFF38BD02F02FFB0120FFF77EF838BD000048150020160D002017
:40514000F8B50646002402F0DBFF0546304602F0F1FF03460A480021068A0DE001228A401046174628401F40002803D0002F01D1224394B2491CC9B28E42EFD82046F8BDCA
:40518000101600201CB50020694648706846FFF7A5FE01AA69460A20FEF73CFF6946042008561CBD70B50D4601F0A8F904000BD02079002808D0FDF717FFE178A0782A46DF
:4051C00002F0BEFC002070BD022070BD0148007870470000201500204030C07E002800D00120704700B500F001F800BD902148430749084A40186030417F491CC9B24177A3
:40520000D289914201D300214177C8B270470000281500201016002013B501F06FF904000BD001F032FE002807D0214601AA0A310620FEF7EFFE00201CBD02201CBD000056
:4052400010B50C4601F05AF900280AD001F01DFE002806D0224604490A20FEF7DBFE002010BD022010BD000009150020F3B581B0074601460026029802F03AFF0446002F2F
:4052800001D0002500E0154D002D21D0284601F06BF9032C04D13946029802F085FF06463846029902F0F4F9032C06D0002C10D00121384601F008FB03E03146384603F08E
:4052C00007F9284602F0ECF80221284602F002F9FEBD3846029902F0DBF9FEBD4815002010B5044600F0D0FA002804D104F07AF8002801D00C2010BD2078611C02F01CFDDC
:40530000FF2801D01F2010BD02F062FDFF280AD02178621C02F052F9044821780068026B601C904710BD072010BD0000340D002010B504F057F8002801D00C2010BD02F0A8
:40534000DDFC03480068C06A8047002010BD0000340D002070B50D46044610210DF08EF81021601806460DF089F8334610221946204604F065F8102130460DF07FF802207B
:405380002870204604F0ACFE70BD0000F8B504464078217802028006870FE0781143A67809050002090D0643084601F0A7F800210546F2B2002812D0002C10D0022F0ED070
:4053C000032F0CD0002A0AD00279092A07D0002A05D0134A5A23527E1B5C9A4207D82889002104F073FD20460DF008F9FF21002914D10C48224600682946436930469847DF
:40540000C0B2FF280AD128464030817EF2B2491C8176FF232146284600F009F9F8BD0000E0140020500D00200020704710B5044603F0D8FF002801D00C2010BD2078611C35
:4054400002F07AFCFF2808D002F0BEFB044821780068426B601C904710BD1F2010BD0000340D002010B500F0A9F904F015FF002010BD000010B504460F4801F02FFD01289B
:4054800017D00D4805222146AC30FDF76CF90A490522AC310846BC38FDF765F900F03CFD054880222038C17B1143C17300F0BCF910BD3A2010BD00004815002010B50446A9
:4054C00000786178E2780843A17811430843217908436179084305D003F076FF002803D00C2010BD122010BD204602F0D1FC002010BD000010B5FCF717FF02F023FE044885
:4055000003F0FEFF02F06AFB012000F003F810BDF0140020F1B586B003A8009005A8019028489F22817A114081726846FDF776FD002845D169460989C90705D02248069920
:405540000068C2686846904769460989890706D5002835D11D480068816A0698884700282ED11B4E0025757075737571F575357675767575B570F570B5713746F57301200D
:40558000CC3738731F20F880FF2130467972A0300176457603F074FC01F058FC00242046069901F005FC002803D1641C2406240EF5D0FD720649BD72B573C0310D600D71B2
:4055C00007B0F0BDE0140020500D0020340D00202815002070B505460E46084602F090FD0446304602F0A6FD0121A9400A46224001400A4301D0012070BD002070BD10B596
:405600000446084602F096FD0121A140014201D0012010BD002010BD10B5FEF7D9FD032804D102F0B3F80120FEF702FE10BDFEB51C4616460F46054601F032FFA878FFF702
:40564000D1FD02460190334639460094284600F00DF8002808D1A8780199FFF7D5FCFF2C02D138460CF0CAFFFEBD0000FFB585B005460E980C46FF2810D02B49C00009683E
:405680000A5840180179C0795278814201D9012601E09006860F6846038108E06078A1788006860FE0780002014368460181284601F000FC070007D021462846079A00F050
:4056C00023FB384609B0F0BD304600F009FC04AE0346039002AA29460096204600F00FFA3C20405D002818D0284601F0E3FB012813D0684600890096C0B20190A878231D1D
:40570000FF22079902F03AF968460089039BC2B2A878079902F07EFCD3E7684600890021C0B20091E9E700004C0D0020F8B5002600253046FFF704FD07001DD0902011494D
:40574000704340186030447F12E0601CFCF7D4FECCB23846E040C007C00F07D02146304601F08EFF21463046FFF780FD6D1CEDB20548018AA942E8D8761C3606360ED7D000
:40578000F8BD0000281500201016002070B50024094D03E0002C01D0002000E028464121095C012901D100F068FA641C2406240EF0D000F039F870BD4815002010B502F071
:4057C0000DFA0020FFF7A6FE0CF0AEFF002010BDF8B5002403F0F0FA012800D10224114F00203E46203601230425082203E0002801D0002100E031460979002907D00129B3
:405800000BD002290BD0114681402143CCB2401C0006000EEBD07C70F8BD1C43F7E72C43F5E700002815002070B5144E0024F07BC00921D03546203503E0002C01D000203C
:4058400000E0284601F02CFB012814D0641C2406240EF2D0F07B4006400EF073002403E0002C01D0002000E0284600F006FA641C2406240EF4D0002070BD00002815002009
:4058800010B5FFF7A5FF10BD10B5044604F0E1FE002802D1601C00F001F810BD1CB500240094062269460194FCF74EFF002800D1122420461CBD10B5FCF75FFC0446FEF7B8
:4058C00087FC012809D0FEF783FC022805D0FCF77BFD2046FCF755FCEEE72046FCF751FC10BD10B50B4681791943817103D08078114602F047FB10BD10B582798A43827152
:4059000002D1807802F052FB10BD00000346084800B5834209D8184600F0F0FD002804D00089984201D1012000BD002000BD0000FF0E0000074A9179491C8906890E917180
:4059400038220A4092014907090E1143084302490840704728150020FF0E0000C006C00E70470000F8B507460E4600240D4803E0002C01D0002500E005462979002905D054
:40598000641C2406240EF3D00020F8BD0021204601F00EFA2E712046FFF7CCFF28813C700120F8BD48150020F7B53D20405C88B015460C46002802D02878042802D2002041
:4059C0000BB0F0BD6946087200262046FFF704FC012800D00126204603A938300191009023460327A17E34333246206A03F0A8FD02A8089900900B46019120463A4603A9D5
:405A0000243003F0FDFC02466846007A2870204601F0BAF91046D3E7FFB587B00C4605461078694608723D20005D1746002826D000262046FFF7D0FB012800D001262046C3
:405A400003A93830019100902346A17E34333246206A03F075FD02A80090291D019120462B1D03A924300A9A03F0CAFC02006846007A388002D1204601F086F910460BB0E1
:405A8000F0BDF0B505463C20405C89B016460C4600280CD0307869460873002806D000272046FFF799FB012803D003E01F2009B0F0BD012703200890204604A9383001910B
:405AC00000902346E17E34333A46E06903F038FD6846007B03A928180290009120462B46019504A92430089A03F0BEFC02466846007B3070204601F051F91046D7E7FFB587
:405B000005463C20405C89B016460C46002810D0084601F0CFF901280BD0308869468883002809D000272046FFF756FB012805D005E000200DB0F0BD0220FBE701272046E2
:405B400003A93830019100902346E17E34333A46E06903F0F5FC291D2B1D07A8129A6D4607C5204603A924300C9A03F07DFC02466846808B3080204601F010F91046D9E70C
:405B800010B518490446484028D0002101231A468A40904221D0491C2029F8D300212046C840C243520618D0400616D0491C1929F5D3A0B2210C020AC3B2884201D193426A
:405BC0000BD01F21204600F090F9182805D8A00E062100F08AF9022801D2002010BD012010BD0000D6BE898E002801D0002000E003484030C07F012800D000207047000000
:405C0000481500200146002049070ED50021084B03E0002901D0002200E01A461279022A04D0491C0906090EF3D0704701207047481500200146002049070ED50021084BA7
:405C400003E0002901D0002200E01A461279022A04D0491C0906090EF3D07047012070474815002010B5044680346068002803D00CF0D8FC0020606010BD38B505460020A5
:405C800000902846FFF7A8FA01281FD1284601F0FCF800281AD028792C46C01E40340300FDF76AFB07050511110511141100284601F006F9012806D068460CF045FC002831
:405CC00005D0012008E060780028FAD038BD2846009902F043FD0220607038BD40308170704770B50546403528780C46052904D0002C05D1801E022802D8022002F0BEFE82
:405D00002C7070BD0171704792001018C166704710B5002801D0002000E00348002802D0008904F047F910BD4815002010B5002801D0002000E00448002804D0017907291F
:405D400001D100F08BF810BD4815002010B54121095C012901D1FFF790FF002010BD000070B50546008A00281ED01049F122897A1140C90618D5294640314A8A098A521C59
:405D80004A4392B2D10800D10121540801E0621A94B2A042FBD9FEF7E9FF012804D1298AA878224601F072FE70BD0000E014002010B50023054C0B60248A944204D9920042
:405DC0001018C26E0A60C36610BD000010160020FEB506460020009001908020855968460CF0B2FB002801D00720FEBD20213046009FFFF781FD34464034A08AE080608A89
:405E0000A080208A2081304602F09EFEA88C218A884207D1288A618A884203D1688AA18A884203D0F07920210843F071688AA082288A6082A88C2082E98CE182FFF728F9BA
:405E4000E081208AFFF734F960733946304602F0ADFC0120A0700198FEBD000038B5044600200090A079002814D14020015D052901D00E290ED168460CF066FB002809D11F
:405E80002046009902F074FD03481021C28A2046FFF727FD38BD0000E014002010B50446807802F081FE204601F088F9002010BD10B50B4604460146184602F0A9F9002831
:405EC00002D020460CF0A4FB10BD13B5044601AA11460620FEF79EF86846818861811CBD002800D102207047704770B500231A46491E0CE00446D440E507ED0F541C064645
:405F0000E640F407E40FA54200D05B1C521C8A42F0D3D8B270BD000030B50021124C0A46A05C002308E0C50701D0491CC9B201290AD840085B1CDBB20028F4D1012903D8E9
:405F4000521CD2B2052AEBD302290BD207488118C87B0122082B03D29A400243D0B200E01043C87330BD0000F4150020281500207FB504468034616805460E461831082255
:405F80006846FCF7F0FB31462031082202A8FCF7EAFB102168460CF071FA6068102108300CF06CFA60682B46083024331022694603F046FA7FBD10B504460821FFF79CFC2A
:405FC00010212046FFF798FC2079052822D0062820D008281DD12189002003F05DFF072020712046FFF7F8F8012819D00E212046FFF777FE002158200155204601F064F9BA
:406000002046FFF72FFE2046FFF7AAFE2046FFF79DFE10BD20890122002103F021FFDEE70521E4E7FFB581B01F4604460821FFF763FC10212046FFF75FFC2079082803D0C3
:40604000092804D0042503E00425012601E009250026204600F010FF00212046FFF741FE25712046FFF7FEFD0398002E02D0012808D00BE001280AD120890022029903F098
:40608000EFFE04E02189029803F006FF01272046002140300176012F07D0204601F014F92046FFF753FE05B0F0BD02990173204602F0A1FC054605480121C28A2046FFF75D
:4060C00010FC002DEFD109202071ECE7E014002070B50C460546FFF77FF8012809D108212846FFF709FC0023012221462846FFF799FF70BD10B5044600F0BEFE2046FFF755
:40610000B1FD00212046FFF7ECFD10BD70B505461A24FFF761F8012809D108212846FFF7EBFB0023012221462846FFF77BFF70BD38B505460021684600910CF005FA002898
:4061400001D00D2038BD2846009C00F0E5FE2146284602F0B7FB06480821C28A2846FFF7C0FB06212846FFF7BCFD002038BD0000E0140020F8B50446002000900E466846DE
:406180000CF0E2F9002801D00D20F8BD204604213430009D00F0ADF9842000590821183000F0A7F9012E02D1204600F0B5FE2946204602F041FB06480821C28A2046FFF7E0
:4061C00090FB02212046FFF78CFD0020F8BD0000E014002010B50446FFF7CAFE03212046FFF77FFD204601F05BF910BD10B50021FFF7C0FF10BD000038B504460021684674
:4062000000910CF0A1F9002811D12046009A00F033FE1146204602F060FB05480821C28A2046FFF75EFB07212046FFF75AFD38BDE014002038B504460021684600910CF014
:4062400083F9002810D12046009902F0C9FB07480821C28A2046FFF744FB04212046FFF740FD204601F01CF938BD0000E014002010B5FFF7A0FE10BD00787047F8B500252B
:4062800069460D70002801D0002400E01E4C002C18D0204600F0F9FD002813D0207903280BD005280CD026464036B18AA07801F061FEB078012806D01CE0042020711CE0DF
:4062C00006202071F8BD0021204601F0D1FF274680373868002802D00CF0A4F93D600020B0702046FFF732FD2079072802D12046FFF736FD20790428E4D1207A69460870C6
:406300003420FEF71BFEF8BD4815002010B54C22115400F04CF810BD10B50446FF21FFF7EBFA09202071A07801F04AFE10BD000038B5FF216A461180002801D0002400E003
:40634000084C002C0DD011460620FDF763FE684601882046FFF7B9FD03480068C1692046884738BD48150020500D002010B504468079002809D022214C200155FF21204610
:40638000FFF7BAFA204600F012F810BD10B5037902464032002B03D01173092B02D003E0002100E02221117300F001F810BDFEB504460089002700902781207926464036C2
:4063C00000281AD0012818D0022816D0002002F055FB09E002AA01A9204601F007FF002807D101980CF014F9204601F027FF0028F0D02046FEF72AFEB77625468035286805
:40640000002802D00CF00EF92F606868002802D00CF008F96F60317B002916D0009800F061F8A078002101F085F9A07801F05EFAA07800F037FFFF212046FFF75DFA0B2059
:40644000FFF71EFA00F0CAFDFEBD1F213173E5E7F8B517460E46054603F032F804003CD020460C3001F0F8F92046062200211830FCF782F92046062200211230FCF77CF9D4
:406480001648224600683946436A28469847074626702846FEF7A0FE012148406070002D10D02889608028464030C1782171002E0FD169796171018AE180418A2181808A6B
:4064C000608106E00648008BC005C00F2071002060803946204603F062FCF8BD340D002000102E400A4610B50146002003F07AFD10BD10B50BF09EFD10BD000000B5014636
:40650000FFF72CFA002801D0002000E00348002802D002898A4200D0002000BD4815002038B5044680346068002806D168460CF01BF8002801D100986060606838BD000002
:4065400010B5014600F0B6FC0128887802D0FEF74DFE10BD90214843024940186030007F10BD00002815002070B5054604464035A87F012811D1A1789020084A48438018AE
:406580006030067F3046FFF725F8002805D10220A877A078314601F047FA70BD2815002010B50C4CA07A002813D0FFF7BFF80A48027F417F408B00F025FD012809D1002031
:4065C000A07201F00DF905498989090B01D000F023FB10BDF415002028150020A0102E4070477047490510B5490F0B00FCF7C4FE060704080C0C0F073E21FFF787FE10BD47
:406600000821FFF7C3FE10BDFFF7D1FE10BDFFF7ADFE10BDF8B507460025002D01D0002600E0204E01F09CF83046403044890021418101F09FF8304600F027FC01282BD1CB
:40664000A00702D52846FFF719FEE00602D52846FFF76EFEA00601D5FFF768F8600601D500F04EFC200602D5284600F01DF8600702D5284600F036FB380402D52846FFF798
:4066800055FB780402D52846FFF742FBE00703D021463046FFF7A6FF6D1C2D062D0EBCD0F8BD000048150020F8B5002801D0002400E0144C002C23D025464035A87801285D
:4066C0001ED1FF278820493700593E46002805D00D49897A890601D5878AC68A2046FEF77BFD01280CD10096E88A2A8A3B46014602F008FAE882A2780146104601F080FB86
:40670000F8BD000048150020E01400200149096809680847500D002070B505460088FFF7EDFE04002AD000F0B0FB002826D02079092823D0204600F0D1FB012820D020462D
:40674000FEF74AFD0646E07920210843E071204601F0A6FD002815D0294600F093FE4220005D002810D02325E079DF210840E0712946204601F0E9FD284670BD022070BDCD
:406780003A2070BD072070BD002E05D02046FFF71FFB0500E8D1EFE70C2070BD70B50E460C2500F0E7FD040012D0002522892946094803F047F8FF2202212046FFF748FE8C
:4067C000A07800F09BFF2046FFF7F1FD022000E000203070284670BD0E200000FEB5044600F0C8FD002801D00C20FEBD022101A8FFF7B8F8012859D168460079304F0028FD
:4068000001D0002601E03E462036002E4ED000213046FFF766FA3546002040356870A8700620FFF72DF8208A6882228AE189A08902F0B6F928820246608AFF23A882493314
:406840000093E18AA08A02F05DF9E882288AFEF72FFC6873288AFEF71BFCE881184806228778A11DB030FBF77EFF207901281FD06079E870A01D01F0F7FAFB20074010489B
:406880008770217EC278012917D0FB210A40C2700C4821460068826830469047B178204601F030F93046FFF7F9FAFEBD0920FEBD0020E87004200743E1E704210A43E6E771
:4068C00028150020340D002070B50D460026194A0146002801D0002401E014462034002C26D0204600F0E6FA01280AD19020484380186030007FFEF76DFE002801D101F05D
:40690000F7FF0D48006881692046884700280CD020464030817EA94202D3491B817600E086762089294603F0D1FA204600F0B8FD70BD000028150020500D002070B503465F
:406940000088FFF7DBFD040013D000F09EFA00280FD02079092819D02546997840352973204602F048F80646A878012803D0AA8A02E0022070BDEA880A20424301212046FD
:40698000FEF7AFFF002E01D109202071002070BD0EB5002217216B460292198100905A810120029B00990BF0DDFE0EBDF8B518480024807A002822D1164E0025B089000BBB
:4069C00022E0204600F068FF1249A039401807882A462146384600F015FB012810D00E480122478305770A4944778A72002D01D0002000E02030002801D000F051FDF8BD5C
:406A0000B089000B641CE4B20028DAD1F8BD0000F4150020A0102E402815002010B50446C0060ED500200B4A03E0002801D0002100E011460979022909D0401C0006000E79
:406A4000F3D00548006881692046884710BD00F005F8F6E748150020340D002070B51A4D002801D0002401E02C4620342179022904D0002901D001F0A3FA70BD01225B21CD
:406A80000A5500F01DFF032020710820FEF7F8FE00212046FFF725F9204643300121064600F0EAFE09480068016A30468847024600212046FFF7CCFCA078FFF727FEA87B9E
:406AC000401CA87370BD000028150020340D002010B50C46002121700088FFF70FFD03000BD000F0D2F9002807D00948F121807A0840C00603D4112010BD022010BD0220F8
:406B000020701A8A1889002103F088FA002010BDE014002070B50088FFF7F0FC040008D000F0B3F9002804D0E079C10903D0002070BD022070BDC1068025002908DA284372
:406B4000E07108480221C28A2046FEF7CAFEEEE7204600F01BFA0028ECD1E1792943E17170BD0000E0140020F8B50F46002100910088FFF7C3FC040012D000F086F90028F6
:406B80000ED0E079410641D4617E02264A07002A08DB8907402500291ADA2843E07135E00220F8BD02F08CFC0021017021894180A1898180217E4170E189C1803E7005468D
:406BC0000178134802F0FEFE284603F0CBF91DE0204600F075F9012806D068460BF0B4FC002803D00720F8BD2A20F8BDE07900992843E071204601F027FF607E042130431E
:406C000060760448C28A2046FEF76BFE0020F8BD1D040000E01400203EB500220F236C460292238100910190628169460EC900200BF098FD3EBD0000F8B50446002000900A
:406C40002088FFF75BFC05001AD0FEF7C5FA002812D02348807AC00710D0284600F015F900280DD0287903280CD004280AD0072808D009282AD103E00C20F8BD1120F8BD6A
:406C80000220F8BD2F464037387801281ED02846FFF746FC06001BD00822211DFBF763FD3046A1782030017261881022090A417221460C311838FBF756FDB878002809D05C
:406CC00001212846FFF70DF80098F8BD0D20F8BD0720F8BD284600F053FA0090F8BD0000E014002010B5002801D0002400E00B4C002C11D0214640314878022801D1002020
:406D00004870A07DC107C90F002001F09BF92046FFF71CF8FEF73AFD10BD00004815002070B503460D460088FFF7E8FB04000BD000F0ABF8002807D01248F121807A084012
:406D4000C00603D4112070BD022070BD20464030418A008A491C41430804C10C5888884201D2122070BD20822079072802D12046FEF7F6FF022028702089002103F076F98D
:406D8000002070BDE0140020016A491C016204D1817E491C4906490E81767047C169491CC16104D1C17E491C4906490EC1767047F0B5064687B003A8009005A800270D466A
:406DC0000190002E01D0002400E01C4C002C05D06846FCF723F9002803D00BE0022007B0F0BD68460089C00704D1902200212046FBF7C2FC12482946006882682046904759
:406E0000050018D1A6706776277100212046FEF768FF204600F030F8204601F00BFA094820825E2007550848F121807A084000D001202075E782E8B2D1E7000048150020ED
:406E4000500D0020B80B0000E014002010B50020074B084AFF2119541418401CC0B221740428F8D31F2119541018017410BD0000F415002028150020002101628176C161E8
:406E8000C17620300177417770470079002805D0012803D0022801D0012070470020704740304078012803D0022801D000207047012070474030807F002800D0012070473B
:406EC00040300078002807D0012805D0052803D00E2801D00120704700207047074A0146927B0020002A07D040314A78022A02D08978012900D101207047000028150020CF
:406F000010B500F06DFC03498989090B01D0FFF783FE10BDA0102E4070B5054604464035A87F002825D1FF206075A0789021154A484380186030417F9023491CC9B2417740
:406F4000A0785843104B8018DB896030994201D300214177A0789021484380186030467F0677A1783046FEF735FB002802D00120A87770BD0220A877A078314600F054FD05
:406F800070BD0000281500201016002038B5002105460091FFF794FF012806D068460BF0D3FA002803D0072038BD2A2038BD2846009CFEF711F900280BD02146284601F0F1
:406FC00063FC05480221C28A2846FEF78AFC002038BD112038BD0000E014002070B50024074D03E0002C01D0002000E02846FEF7ADFE641C2406240EF4D0002070BD0000C6
:4070000048150020F0B515468207920F85B0000A02926A469080002D01D0002400E0564C002C28D0084600F037FC07466846808800280BD00298012843D0022841D003289B
:407040000BD03D20005D012879D08FE04B48381801882046FEF739FF88E00020029002A80BF052FA002807D03D20005D012802D12046FFF789FE7CE06846029E83883246CB
:4070800000213846FCF7F0FE3C48381801882046FEF71BFF284600F03BFB01AA21463046FEF782FC002806D030460BF09DFA3D204C21085531E0F5773146204601F08EF9F0
:4070C00057E0002000902089039068460BF00CFA002802D0002005B0F0BD6846009E8388321D00213846FCF7BFFE2448381801882046FEF7EAFE284600F00AFB2046FFF706
:40710000C4FE002805D025464035287E002810D107E030460BF05EFA2BE02046FFF7FCF827E001AA21463046029BFEF775FC002806D030460BF04EFA3D202873EDE712E0EF
:407140000298FEF7D1FE0399317003990001090A0143717068468088B070000AF0703046FFF716FC05E02046FFF70EFE284600F0CFFA0120AFE700004815002000102E40BB
:4071800070B501790546032904D0042904D0072908D109E0052400E006240121FEF7EAFF002805D00D2070BD0824FEF7C1FFF7E7284600F075F92C71002070BDFEB50646F4
:4071C00002F07EF9044602F074F9074602F067F9054602F079F9029002F088F901902570280A6070280CA070280E3546E0704035687B20716771380AA071380CE071A87BF1
:407200002072E8892549000A6072287CA072288A0522000AE072A87C2073688A000A6073287DA073A88A000AE073204610300091FBF799FA0027F770B078009900F0D4FE7C
