:400000000080002011000000510500005105000008B500F0A5FAC04638B51222324B1A6001F032FD314801F03FFF012001F04CFD302001F043FC2E4A2E4B1A602E4C8025CC
:40004000ED0525602D4A116802230B4313602C4A2C4B1A6000222C4B1A602C4A136808218B431360FA20C00001F0DAFC284801F01BFC284A284B1A60284B29491960294916
:400080000A60294A1A60C621C901284A1160284A1A60FE22120227490A602749196027490A60274A1A6080221206264B1A608022D202254B1A604422244B1A60013A244BAF
:4000C0001A60013A234B1A60023A234B1A600132224B1A600820224901F096FB082001F073FB256038BDC04630001040001BB7000600008004010B400C020B4078002E40A2
:400100002D3E00007C002E4064F02E406CF02E40DC050000007FBB00100301400000014044FF00800C03014043FF00800803014042FF00800003014040FF00800403014001
:4001400041FF008008010B4000010B402C010140200101401C0101401401014010010140E11B000010B572B60022354B1A60002410E0344863001A195200821891881B19E5
:400180005B001A5AC31858880004104300F050FA0134E4B2012CECD92A49081C0C30283100F02CFA8022D202274B1A60EE221206264B1A600322264B1A60C0229205254BB7
:4001C0001A6099231B04244A1360244A136080214902234A1160234A136080221206224B1A60224B197802220A431A70204802783C218A4328390A430270197816220A4362
:400200001A70D82212041B4B1A607F221A4B1A601A4A1B4B1A603E221A4B1A6042321A4B1A60C0221204194B1A600123184A1360184A1360FFF7F0FE00F020FA10BDC04689
:400240006CF02E402040010014000B4000000240000202400003024000500F4020500F4028500F4030500F4038500F4000700F4001700F400800044000020440060018002F
:4002800008020440180204400003044008030440000404401804044010B5064C2378002B07D1054B002B02D0044800E000BF0123237010BDA0100020000000001C400100B6
:4002C00008B5084B002B03D00748084900E000BF07480368002B00D108BD064B002BFBD09847F9E7000000001C400100A4100020A80B00200000000008B5002001F0D2FC90
:40030000012001F093FD08BD00B585B0074B1B78022B09D101A80C3303810D3B83800021034A00230EF03EFF05B000BDF4220020FC22002000B585B000F0C0F9434243417B
:400340006A46D3700332084B1B78022B0AD101A80C3303810192012383800021034A00230EF020FF05B000BDF4220020FC22002000B585B0124B1B78022B1FD101A80F33CB
:400380000381104B01930223838000210E4A00230EF008FF0D4B1B68002B0CD0094B1A885B889A4207D0084A137850780002184301A90EF08DF8034B1A885A8005B000BD28
:4003C000F4220020AC0B0020FC2200203C22002038B50C1C282808D002D8012805D082E041280BD04C2812D07DE000223E4B1A60002000F015FF01F07BF974E0FFF784FF4B
:40040000FFF798FFFFF7B4FF01F014F96BE08B89152B39D1081D0021344A2B330EF0C2FE002831D163681B78012B0DD0002B02D0022B13D01AE02E4801F034FC2D4801F06A
:400440009FFC01F0E3FC11E0294801F02BFC8720800001F095FC01F0D9FC07E0244801F021FCE12001F08CFC01F0D0FC63681B7858425841C0B200F015F91C4A13785078D6
:40048000000218430EF07AF8A3890E2B15D1201D0021164A32330EF085FE00280DD163681B7858425841C0B200F0FCF80F4A13785078000218430EF061F8A389122B12D1E7
:4004C000201D0A4D00212A1C2E330EF06BFE63681B7801221340044A13602B786878000218430EF04BF838BD3C220020FC2200205C120000B504000008B562B600F01CFBCF
:4005000000F068FB0F4801F0BFFC01F021FC0E4800F02EFE002001F0C5FB00F037F9002809D100F0A5FC094B188000F08FFC00F061FAFFF71DFF02F047F9032002F03CF921
:40054000EBE7C046F9020000D1030000AC0B002008B502F0B9F803680C2B00D1FEE7FEE770B50F4E0F4D13E029686B68AC68002202E001C901C30432A242FAD1E86800222E
:4005800002E0002102C304328242FAD11035013E002EE9D102F09EF8FFF7AEFFFEE7C046010000006044010008B50F4A136801218B43136000230AE0032B03D89A000B498E
:4005C000505800E00A4899000A4A885001332F2BF2D9FFF7C7FD0022074B1A60024A116801230B43136008BD00001040000000005105000000000020C0000020F0B500257C
:40060000002711E0BB00C658F3B2FF22964308E06A008A181478A419527822700135013BDBB2002BF4D10137062FEBD9F0BDC04608B50A1C002102F08BF808BD0C4B1B68A6
:40064000002803D080221206134301E05B005B08074A1360074B1B68002803D080229204134301E0044A1340024A13607047C04680033A4008010B40FFFFFFFD08B5032382
:40068000054A1360054A13600022054B1A600120FFF7D4FF08BDC0463000304030003140000E3F4004490A68BF231A4080017F3B184010430860704700020440024B186834
:4006C0004006C00F7047C0460402044038B5164C2368DBB2154A13700F208343191C144D2A780F2313400B43F02293431A1C2B788343134323600F4A0F4B1A600F4A104B54
:400700001A6010490B688343062213430B60013001F064F810200C4901F076F81020032101F084F838BDC04600FF28404D22002062F2FF0F00020001080028400008A00132
:400740000400284000040240ED0E000008B501F017F800F0EBFF0020002100F0F3FF0020002101F019F8FF2000F0D2FF402000F0F9FF044A136804490B431360102001F0AF
:4007800023F808BD0400284000100880024B1878012318407047C046BC1000204000024B181880887047C046BC100020F8B5104F3C5C3818027A55005519EDB29200D6B2F9
:4007C00001F07BFBA4003B191C6922680F21B1408A43111C0422B2400A43DE6A33680721A9408B433360226001F06BFBF8BDC04600410100F8B519490C5C0B181E7AB200FC
:40080000D2B275007519EDB2154B185CA300CB181F693B680F2191408B433B60022800D10020012801D1002700E0062701F045FBA4000A4B1C19E16A0B680722AA40934353
:400840001A1C3B1CAB4013430B6001F03AFBA16C0B680122B24093430B60F8BD004101005822002010B5002403E0201CFFF7C2FF0134042CF9D910BD03231840024B1A68A2
:40088000400210431860704704002840CA0807231940063B8B40191C835C194201D0012000E000207047C04610B5041C0134E4B2052C06D004480430211CFFF7E7FF002811
:4008C000F4D0201C10BDC046B00B0020F8B5041C324B64331B5C9B00314A9E583148211CFFF7D4FF304B9E4203D88640FF200004064300F045FF00F019FF2C4B185D01389E
:4009000080B2002100F01EFF294B185D013880B2002100F041FFFF2000F0FAFE402000F021FF102000F05AFF80225202214B1A60204B1B681B0CFBD101221F4B1A601020CE
:4009400000F056FF102000F03FFF102000F046FF1A490A681A4B1A401A4B185D1A4B1B5D1B04034313430B60184F3D68184B1D40184B1D43102000F027FF201CFFF716FFE2
:4009800001F09BFA041C3D60002001F08DFA094B1E60201C01F095FAF8BDC04600410100B00B00204C220020FFFFFEFF60220020682200200C0028401400284008002840C1
:4009C00000FF80FF442200205022002004002840FF1FDFFF20E0200008B5054B00221A70C2B29A7381221A70FFF770FF08BDC046BC10002010B50B4C00232370FF33A3733C
:400A0000A07BC0B2FFF750FFA073A37BDBB2042B07D8217801220A432270A07BC0B2FFF755FF10BDBC10002038B5051C174B1C68A4B24300164AD3189C80164B64331B5C8A
:400A40009B00154A9A58154B9A4208D81448291CFFF71CFF6B000E4AD31804419C80281CFFF7C8FE102000F0B9FE0E4A11680E4B0B40A02109020B4313600C4A11680C4BAE
:400A80000B401360102000F09FFE38BD0C002840BC10002000410100B00B0020FFFFFEFF4C22002004002840FF1FDFFF0800284000FF80FF10B5CC0807231940063B8B4042
:400AC000D9B2002A04D0041923781943217003E0041923788B43237010BDC04670B5061C002400250BE0301CFFF776FFFFF74EFE0128FBD0301CFFF751FE24180135002D61
:400B0000F1D0A0B270BDC046014B19547047C0465822002010B5002404E0201C0021FFF7F3FF0134042CF8D9FFF7D0FD0020FFF7A3FEFFF797FE10BD08B50B4BDB7B002BB1
:400B400004D1FFF7E7FF0122074BDA73FFF7FEFD00F092FA0122044B1A74044A13688021C9030B43136008BDBC10002004002840F0B5002714E00C4BDE5D0C4BDB5D9E19E9
:400B80001A1C002404E08D5CA54200D92C1C0132B242F8D301E0CC540133B342FBD301378742E8D3F0BDC04680410100844101004300054A9A5A05495A52081800210173F0
:400BC000017503495A527047C0100020D01000207422002010B5FFF70DFFFFF7D7FD0028FBD1002409E00648211CFFF74FFE002802D0201CFFF7DCFF0134042CF3D910BDC5
:400C0000B40B002070B5094D14352D180026FF20002308E0EC5C944203D9A64201D2261C181C0133DBB28B42F4D370BDD0100020F0B583B0041C0192009308AB1878344BEF
:400C400014335918002C02D0661EF6B200E00026631CDDB20B5D9C462D4B243362465A70002C07D12A4B002624229E544A5D24339A7012E0019A013A944207D1895D244B49
:400C800024229954243300229A7006E08E5D204B24229E544A5D24339A7024231C4AD35C834204D91B1A242219498B5403E000212423174AD154164A243253781B1ADBB2B4
:400CC00053709278824204D9101A114A2432907003E000210E4A243291700D490A1C243292782420095C501AC9188918000201F0F9FB240204196B460020185E6043FE2352
:400D0000DB019C466044000CC0B203B0F0BDC046D010002043184900C818800880B27047F0B5474680B482B0041C3B4B1E5C3B4B9B5D019342003A4BD75A3A4B5B7A002B31
:400D400008D0394D9046515B381CFFF7E3FF071C43465853E1B23548314A01F075F96300334A9A5ABA4207D80021324B1955BD1AADB20123984603E0D51BADB20023984600
:400D80004346002B15D12C4B9B5DAB4211D2294B1B5D244A12191279934206D3201CFFF707FF0022234B1A551CE00133214A135518E06B469B88AB4206D21F4B9B5DAB4282
:400DC00010D94346002B0DD11302194801190E7B3343FF18BF1A3A0A6300C2520F730022144B1A556B469E88AE420DD24346002B0AD0FF2D04D90E4B1C19FF23237507E060
:400E00000B4B1C19257503E0094B1C190023237502B004BC9046F0BD6441010084220020C0100020CC0B002074220020A0220020D01000208C2200208822002010B5041C09
:400E400000F0A2F8201CFFF76BFF10BD10B5002409E00648211CFFF719FD002802D0201CFFF7ECFF0134042CF3D910BDB40B002030B583B0041C194B1B181D7B184B1A5CE2
:400E800000200521FFF7BEFEFF2820D0154B1B5D009300210522C8235B01FFF7C9FE011C80B26B1CDBB20D4A5219127B002A06D10A4AD3181973551901232B730CE0074C7F
:400EC000E418217BFFF726FF031C237304E0034B5D1900232B73044803B030BDCC0B00207022002084220020FFFF000010B5102000F074FC01221E4B1A601E4B1878C0B202
:400F0000FFF792FD1C4B1B785BB2002B05DA1A4A137801218B43137026E0164C2078C0B2FFF7C2FC20702378DBB2042B05D8114B1878C0B2FFF7CAFC16E00F4B1A780121B1
:400F40008A431A701B785B060ED500220B4B1A7006E00B4AD15C0B4AD1540133074A1370064B1B78002BF4D0102000F02DFC10BD14002840CA100020BC100020F8100020E4
:400F800040220020B40B002070B582B0154B1C5CC1B2154E154D00951548221C331C01F0D1F8335D295D134A1155DB2B03D8DB08114A135514E0EC2B03D81B090E4A135506
:400FC0000EE0F42B03D85B090B4A135508E0F92B03D89B09084A135502E00022064B1A5502B070BD644101007022002084220020A02200208822002080220020024A1368AD
:4010000040218B431360704704002840044A1168044B0B40802189000B4313607047C04608002840FFFCFFFC38B5002208E00D498B5C5D080C4CA55401335B088B540132E9
:4010400003789342F3D8102000F0C8FB074A1168074B0B4007490B431360102000F0B4FB38BDC046442200205022002008002840FFFCFFFC0002000170B5254B05221A7069
:40108000012159709A702B32DA80224A9A80224A9A60FFF7B3FF002304E099001F48204A885001331A4A52789A42F6D8002306E010211C4AD1540C391B4AD1540133042BA4
:4010C000F6D9FFF7A3FF124C184E201C311C00F01BFF174D0120291CFFF74AFD201C00F024FF201C311C00F00FFF0120291CFFF73FFD201C00F03AFF201CFFF795FF00246E
:4011000003E0201CFFF740FF0134042CF9D970BDA022002098090000884101000000FF0FB00B002068220020602200209A0D00004422002008B500F073FA08BD10B5002480
:40114000064B1C70064B1C70064B1C70FFF7F2FF054B1C70054B1C7010BDC046FF220020F8220020FE220020E4220020EC22002010B590B0041C0BA82049142201F0DFFA16
:4011800020231F4AD35C002B05D1FFF7D7FF012120231B4AD154002C2DD01A4B1C6008A805AA426006AB0893002101811B311980598017391971082313701231694401F077
:4011C000DFFB002818D1052300930F4B01930F4B02930F480F49AE2212010BAB01F026FB002809D101220C4B1A700C4816210E320DF0C0FF00E0012010B010BDF4410100C1
:40120000FC100020E8220020004D01007902000079130000C8000020F42200200842010008B502282ED81B4B1B78042B2CD11A4B1B785B072BD4002809D1184B00221A8608
:401240002032596A0A805B6A10325A800CE001280AD1124B96221A86C822D200596A0A805B6A8022D2015A800D4B18700B4820300BF0A4FF00280CD1074A117804230B43B7
:40128000137006E0012004E00420FF3001E00420FF3008BDF4220020FF220020E40B0020FE2200207047C04603784078000218437047C04638B583890B2B20D1041C043030
:4012C0000021221C35330DF06DFF051E11D16068FFF7EAFF830706D50A4B1B6882204000211C984705E0074B1B680620FF30211C9847054A137801218B43137000E000255A
:40130000281C38BDE8220020FF220020024B00225A701A707047C046FC22002010B582B0041CFFF7C7FF0A4B1B78DB070ED4002809D001A912238B70A3890B80C87020687A
:401340000DF088F802E020680DF018F902B010BDFF2200208379002B07D000200BE0C25C002A07D10133DBB200E00023052BF6D9002000E001207047F0B583B0041C0D1CD3
:40138000954A117801230B431370272800D1B9E012D8062800D17EE004D8012821D0052875D007E1242800D1A8E0262800D1B1E0212800D0FEE082E0422800D1E6E006D8F3
:4013C000282800D1A2E0412800D1CBE0F2E04C2800D1E6E0FA2800D1E7E0432800D0E9E0D7E001AE0727377000237370301C03F031FA377001237370301C03F02BFA774B4B
:401400001E68301CFFF7A6FF00280CD0301C01F0DFF9724E30680021FFF744FF30680121FFF740FF25E06E4B1B786E4A12783F210A4092010B4013436B4A127820390A4032
:4014400012031343694A127860310A4052041343674E33701A0A72701B0CB370301C01F0B7F9301C0021FFF71DFF301C0121FFF719FF00200BF036FD01A83F2303700023BE
:4014800043700BF04DFD04225A4B1A7092E02A78594B1A708EE02B78002B00D08AE06B78002B06D1554B0022DA809A80544A1A606B60494A137801218B4313707AE0464BAD
:4014C0001B789B0676D44F4B1B78102B02D105224C4BDA704C4B18784A490BF02DFE01AB1880002804D0494B1B68362001A99847394A117801230B4313705BE06A78444B68
:401500001A7057E002223B4B1A7053E00422394B1A704FE0374B1B78022B4BD02E4A1278D20747D52C4A1278520708D50322314B1A70294A137804218B4313703AE0264A6D
:401540001278120708D504222A4B1A70224A137808218B4313702DE0032B2BD10422254B1A7027E0284E301C291C022201F0E7F80022214B1A7031789E318900254B591802
:4015800001312548043201F0DAF813E0FFF7BEFE10E06988162900D9172128880CF064FF08E0281CFFF7BAFE04E01C4A117801230B431370084B1A7811231A4209D0064A6E
:4015C000137801218B431370104B1B68201C291C984703B0F0BDC046FF220020180C00207CF2FF0F7DF2FF0F7BF2FF0F78F2FF0F1C0C0020F4220020F822002020110020CF
:40160000A80B0020F00C0020FC220020E8220020EC220020004D0100F0220020E42200207047C046024A117880230B431370704772000F40024A11787F230B401370704705
:4016400072000F40014B18707047C04602000F40014B18707047C04642000F40014B18707047C04622000F40014B18707047C04682000F40014B1878C0B2704762000F408B
:40168000014B1878C0B2704752000F4008B501E0FFF7F6FFFFF7EEFFC306F9D408BDC04610B511490B783F229343363A13430B700E4C2278012313432370FF20FFF7C2FFC6
:4016C000FF20FFF7C5FF7F20FFF7C8FF0020FFF7CBFF00F0F2FB227810231343237000F0F0FBFFF7D3FF10BD72000F4092000F4008B5064B1B78002B04D1FFF7D1FF0122A6
:40170000024B1A70FFF78EFF08BDC04628110020044B1B68002BFBDB0002034B1843014B186070470000014040000080034B1B68002BFBDB024A014B1A6070470000014055
:401740004000004010B5064A13680724234000021843CB00FF2119400143116010BDC04600030140044B1B68002BFBDB0002034B1843014B18607047000001404100008063
:40178000034B1B68002BFBDB024A014B1A607047000001404100004010B5064A13680724234000021843CB00FF2119400143116010BDC04604030140024B1B6801201840F4
:4017C0007047C0460C002E401F2318401E3B8340181C014B1860704700E100E01F2318401E3B8340181C014B1860704780E100E01F2318401E3B8340181C014B1860704781
:4018000080E200E001BE704738B5041C0D1C1F2802D90020FFF7F6FFA400034B9C4664442068256038BDC0464000002070B5041C0E1E032E02D90020FFF7E4FF1F2C02D90D
:401840000020FFF7DFFF03252540ED00063500F034FBA408A400074B9C46644423680322AA409343AE40351C1D43256000F029FB70BDC04600E400E010B5041C06E0084BB7
:40188000586800F011FB074B9C46644480231B029C42F4D8024B9868604300F005FB10BDF80C00200080FFFF08B5034B1B7B584300F0FAFA08BDC046F80C0020F0B5574686
:4018C0004E46C0B483B0041C00F0F7FA0190E71E2D2F74D83F4B1B78DBB2A34208D33E4B1B78DBB29A463D4B1B78DBB2994631E03B4B1B78DBB2A34208D33A4B1B78DBB2D8
:401900009A46394B1B78DBB2994623E0374B1B78DBB2A34208D3364B1B78DBB29A46354B1B78DBB2994615E0334B1B78DBB2A34208D3324B1B78DBB29A46314B1B78DBB273
:40194000994607E02F4B1B78DBB29A462E4B1B78DBB299462D4BDE5D2F2E09D92A2C07D919222B4B1A60052000F09EFA192503E0274B1D683F231D40AE4206D2234BDA5D6B
:40198000234B1A60052000F08FFA1F4B9C4664442378DBB21F4A13601F4B52461A601F4B4A461A600520FFF77FFFAE420AD9174BDA5D174B1A60052000F076FA02E0002051
:4019C000FFF720FF019800F07CFA03B00CBC91469A46F0BD40F3FF0F41F3FF0F42F3FF0F43F3FF0F44F3FF0F45F3FF0F46F3FF0F47F3FF0F48F3FF0F49F3FF0F4AF3FF0FF2
:401A00004BF3FF0F4CF3FF0F4DF3FF0F084401002CFF0B4028FF0B401CFF0B4020FF0B4010B5041C0F4A116801230B4313600E4A0E4B1A600E4A1368802109020B431360B3
:401A4000002809D100200CE00120FFF72DFFFFF7B3FE002804D1013C002CF5D1102000E0002010BD60F02E400220000078002E4010002E40034B1868C0231B02184000D00B
:401A80000120704700010B4010B50D4B1A6801218A431A601A68022082431A60094A10683024A043203C204310601068093CA043014311601A68802109060A431A6010BDCB
:401AC00000F02E4000FF2E4038B51D4B1B6801241C40002802D0012816D02BE0184B19680122914319601968022081431960154B19682E30814320380143196019680938A0
:401B000081430A431A6018E00D4B1A6802218A431A600C4A10680725A84301431160116830208143103801431160196801220A431A6002E00020FFF765FE201C38BDC046BD
:401B400000F02E4000FF2E4008B500F0B6F9044A1368C02109020B43136000F0B2F908BD00010B4010B500F0A8F908490A68084B1A408024E40122430A600A681340802297
:401B8000120213430B6000F09CF910BD00010B40FF3FFFFF70B5061C00F08FF9041CFFF769FF002803D0FFF7DDFF012500E000250848331C0340084A1068084908401843A1
:401BC00010601368012D01D1FFF7BEFF201C00F078F970BD0404040010020B40FBFBFBFF10B5244B1B685B0715D5234B5B685B070ED5224B596A042001401F4C62688A4314
:401C000062605A6A82435A629B69002B00D098470420FFF7BFFF174B1B685B0518D5164B5B685B0510D5154B596A8022D2001140114842688A434260596A114A0A405A62CE
:401C4000DB69002B00D098478020C000FFF7A2FF084B1B685B030CD5074B5B685B0304D5064B1B6A002B00D098478020C002FFF791FF10BD10020B400C0D00202C11002096
:401C8000FFFBFFFF0004000C014B18607047C046080120400004000C014B18607047C046140120400004000C014B18607047C0460C01204038B5041C0D1C00F0FEF8AC4026
:401CC000024B1C6000F0FDF838BDC0460800204008B500F0F2F8064A116801230B43136000F0EFF801201821FFF7E4FF08BDC04600002040014B18607047C046380120403F
:401D000010B50F4C8023DB042360236880229202134323600120FFF7B5FF236823600C22084B1A600120FFF7E5FF1222064B1A6096204001FFF7AEFF0448FFF7B3FF10BDBB
:401D4000000120402401204028012040A811000008B5064B1B78002B04D1FFF7D1FF0122024B1A70FFF7B4FF08BDC046541100200004000C014B18607047C04648012040A7
:401D80000004000C014B18607047C0465401204038B5041C0D1C00F090F8AC40024B1C6000F08FF838BDC0460800204008B500F084F8064A116802230B43136000F081F85F
:401DC00002201821FFF7E4FF08BDC04600002040014B18607047C0467801204008B581229204074B1A600C22064B1A600120FFF7EFFF0548FFF7C4FF0020FFF7B9FF08BDD1
:401E00004001204064012040B80B000008B5064B1B78002B04D1FFF7E1FF0122024B1A70FFF7C4FF08BDC04655110020014B18607047C046700120408823014AD0507047DF
:401E40000000002010B5041C00F037F8044A1168044B0B40A4051C43146000F032F810BD10E400E0FFFF3FFF8022D202014B1A607047C04600E100E08022D202014B1A6074
:401E80007047C04680E100E010B5041CFFF7F4FF201CFFF7D1FF0320FFF7D4FFFFF7E4FF10BDC046000000000230800803D00138FDD1C046C046C0467047EFF3108072B6C5
:401EC000704780F310887047F7B59C180023071C08268025019100922370237800982B432370BB689B6C9847019B984202D22378AB432370013E6D08002EEED12378F82B37
:401F000001D9F8232370F7BD70B5051C0E1C00242B789C4208D2AB68221C281C311C1B68FFF7D2FF0134F3E770BD38B5051C00242B789C4219D2AA6813681B5DDB080F2B4E
:401F400000D90F23D16BD268C95C1155AA68042B04D9936D906B211C012203E0936D906B211C002298470134E2E738BDF0B5041C002687B063789E4262D2A3685A6C925DFC
:401F80000392002A01D1013203921A6C925D019201992278914251D29A689B69515C0F221140B2000492002205910499019D5A50019B5B000293039B019A9B189D423DD216
:401FC000A768E388A0885843FB68595D00F08AFA3B68595D00F0F6F9059B5843194B40005A2802D95B084008FAE7BA6904991B0C1B045350A36882085B6B01215855A36839
:40200000C008DB69029F5A550F22A36849421B6A5855A3685B6A5A55A368986AC1530021D86AC153186B9B68C1535B19197801350A401A703B1C02330293BCE7013699E710
:4020400007B0F0BD0000FFFFF0B585684E002B6B925B9B191C8887B0141B0094AC6A1A80A45B6B6A0294EC6A5F5CA45B2B6A03946C6B7F00645C5B180494AC680193645C6A
:402080001B780594009CE40FA4460F24251C6744009C3D40AC46E51764196C409C4203D2012B05D0013B00E00133FF273F2B00D89F00019D2B7065460F2D29D0002D24D0E7
:4020C000BC4225D8059C029F24090094974200D9171C039D954200D2151C009A092A01D8141C01343A1C0A2C14D1EA1B934206D9049A92089A42924152429B1A00E001330A
:402100008268D26953543A1C04E0151C644601E0151C00246746836824015B6A5F5483689F6ABA53DA6A9B6895530F225B181D782A401A7083689B6859180B781C430C7039
:4021400007B0F0BD70B58068446BC069655C405CFF213F2801D88100C9B246B2FF24002E01DB4000C4B28D4201D9291C6C08012081439954049B9C5470BD0000016070477A
:4021800001607047324B1A781202324B1B781A43314B1B781B02314909780B4330498B4201D1072A06D0D42109018B4206D1042A04D102E02B4B042200E02A4B2A490B608C
:4021C0002A4B1A602A4B1B781B022A4A1278134380229201934202D0002B02D002E0264B00E0254B254A1360254B1B781B02254A12781343244A934205D0244A934204D07B
:40220000052B05D103E0224B02E0214B00E0204B204A1360204B1B681B09204A1268AA2A15D1012B13D9164B1B780E2B0FD11C4B1B781B021B4A127813431B4A13601B4B63
:402240001B781B021A4A127813431A4A1360704759F1FF0F58F1FF0F5FF1FF0F5EF1FF0F580B0000580D00006C002E4074002E405BF1FF0F5AF1FF0F0220000078002E4033
:402280005DF1FF0F5CF1FF0F0F0F000005050000050F000080002E40EC0F00F0E00F00F06DF2FF0F6CF2FF0F84002E406FF2FF0F6EF2FF0F94002E4008B5FFF7F5FA08BD62
:4022C00008B5FFF7D9FA08BD08B500F04BF808BD08B500F04FF808BD08B500F04BF8034800F02AF8032000F02DF808BDBD23000008B5024800F046F808BDC046BD2300001B
:4023000000487047020200002B2070472B2070472B2070472B2070472B2070472B2070472B2070472B2070472B2070472B2070472B2070477047C046014B18677047C0463F
:402340000000002010B5041CFFF7B7FD044A1368C0218B43A4011C431460FFF7B2FD10BD0CE400E080225201014B1A607047C04600E100E080225201014B1A607047C046CB
:4023800080E100E010B5041CFFF7F4FF201CFFF7D3FF0320FFF7D6FFFFF7E4FF10BDC04608B5FFF78AFD044A136804218B43136030BFFFF786FD08BD10ED00E008B511F03F
:4023C00019FE08BD002243088B4274D303098B425FD3030A8B4244D3030B8B4228D3030C8B420DD3FF22090212BA030C8B4202D31212090265D0030B8B4219D300E0090A2B
:40240000C30B8B4201D3CB03C01A5241830B8B4201D38B03C01A5241430B8B4201D34B03C01A5241030B8B4201D30B03C01A5241C30A8B4201D3CB02C01A5241830A8B42F2
:4024400001D38B02C01A5241430A8B4201D34B02C01A5241030A8B4201D30B02C01A5241CDD2C3098B4201D3CB01C01A524183098B4201D38B01C01A524143098B4201D366
:402480004B01C01A524103098B4201D30B01C01A5241C3088B4201D3CB00C01A524183088B4201D38B00C01A524143088B4201D34B00C01A5241411A00D201465241104674
:4024C0007047FFE701B5002000F0FCF802BDC0460029F7D003B5FFF775FF0EBC4243891A1847C04603460B437FD4002243088B4274D303098B425FD3030A8B4244D3030BE2
:402500008B4228D3030C8B420DD3FF22090212BA030C8B4202D31212090265D0030B8B4219D300E0090AC30B8B4201D3CB03C01A5241830B8B4201D38B03C01A5241430B2E
:402540008B4201D34B03C01A5241030B8B4201D30B03C01A5241C30A8B4201D3CB02C01A5241830A8B4201D38B02C01A5241430A8B4201D34B02C01A5241030A8B4201D3AF
:402580000B02C01A5241CDD2C3098B4201D3CB01C01A524183098B4201D38B01C01A524143098B4201D34B01C01A524103098B4201D30B01C01A5241C3088B4201D3CB0033
:4025C000C01A524183088B4201D38B00C01A524143088B4201D34B00C01A5241411A00D201465241104670475DE0CA0F00D04942031000D34042534000229C4603098B4249
:402600002DD3030A8B4212D3FC22890112BA030A8B420CD3890192118B4208D3890192118B4204D389013AD0921100E08909C3098B4201D3CB01C01A524183098B4201D38C
:402640008B01C01A524143098B4201D34B01C01A524103098B4201D30B01C01A5241C3088B4201D3CB00C01A524183088B4201D38B00C01A5241D9D243088B4201D34B00EB
:40268000C01A5241411A00D20146634652415B10104601D34042002B00D54942704763465B1000D3404201B5002000F00BF802BD0029F8D003B5FFF715FF0EBC4243891A0E
:4026C0001847C0467047C046014B18687047C046981000200E4B70B500251E1C0D4CE41AA410A54204D0AB00F35898470135F8E711F0A4FE084B00251E1C084CE41AA4107F
:40270000A54204D0AB00F35898470135F8E770BD4844010048440100484401005044010030B50024944208D0035D651C0C5DA34201D0181B02E02C1CF4E7002030BD00236C
:4027400010B5934203D0CC5CC4540133F9E710BD031C8218934202D019700133FAE77047134A1088810703D08107890F401A001D11791030484381B25088820703D08207EA
:40278000920F801A001D800040180A494030098980B2CA0701D0503080B2890706D504495422091F09785143081880B2704700001A0D00206411002010B501F053FF10BDE9
:4027C00010B501F065FF10BD10B500F055FA10BD10B50749044609780220002907D1204601F0AEFF002802D120460AF08BFC10BDB80E002070B504460120002C12D023685C
:40280000002B0FD0616800290CD0074D06222889208118462968FFF792FF6968606809780170002070BD000064110020FFB585B0002768460E9D07734F481C460078002893
:4028400002D0082009B0F0BD10990F9801900095029105A807C800F001F90028F2D16946264603AB84460873002C19D0002115E08A00B75A082F09D990198078002805D013
:40288000083FB7521878401C187005E0002914D00027B75290198770491CC9B2A942E7D360460028CED10F98002809D0109901F089FA002804D00120C4E701208446EFE752
:4028C00001F0E6FE2D480021416081600599016021888180022D07D3A1798171A17AC171A1890181218A418100211EE0481C19E082008B00A75AE65ABE46BE4211D26F4661
:402900003E80B4461E190296B678BE7001967646E6521719029EBB78B3706646A652019EBE70401CA842E3D3491CA942DED3134822460C3000906846037B0799069800F0AC
:4029400015F90028B8D168460B4C007B60700B480C3001F0CDFE0028AED1084907480C3107F070FC0028A7D107F08AFC0028A3D10121217066E70000140D00205811002093
:40298000F8B5054633480E460078002802D002242046F8BD002E5BD000242F49002D16D02A89D0070DD02868002808D003881B3BE12B04D24088FB2801D81B2801D20124DC
:4029C00009E0900707D56868002804D1F7E70020088108604860002CDAD11F482F8907811C481B21801D018041800421017119490020891C0870F80705D016480622801DED
:402A00002968FFF79CFE1449B80703D56A681148127882700F480D46801D0860001F486001F0B4FE0B48801D01F0A2FE28890DF0ADFC28890DF014FE03461033FFF790FE19
:402A40001F21C018890140180249308088809FE701249DE7140D002064110020FFB58446384F1C460020BB883F78054602460646002F11D100290ED0029999420BD36146E1
:402A8000002908D0002C06D00A99002906D02E4B0B99994202D2012004B0F0BD002144E0AB001F19BF78002F3BD0E35A002B38D07B43591889B22B0000F04AF80504101624
:402AC0001C253100A7782388BC46FF27233BEB37BB4222D26346032B1FD322E0A388002B1FD0302B19D31CE02389002B19D0282B13D316E0A289002A13D01346134F233B6E
:402B0000BB420AD20DE0268A002A0AD033460F4F233BBB4201D2964203D901200EE0002001E000280AD16D1CEDB2099B9D42B7D31C2463435B1802998B42ACD89642AAD87B
:402B4000AAE70000140D002079020000BAFF000030B47446641E2578641CAB4200D21D46635D5B00E31830BC18470000FFB583B0002469460C801F4606468C80002806D08E
:402B80000598002803D004983043800701D0012466E0002FFBD03449049809888842F6D3FFF7A6FBFFF794FB00F012FC002855D100F07AFD002851D12C49084601F036F978
:402BC00005042D0C4AD12A480499066081800021C18007810C98007AC00704D0684601F070FD040007D10C98007A800703D501A801F070FD0446BF1DFEB2002C20D1314689
:402C0000059800F05DF804001AD10DF037FD040016D16A461088928808368518144AF1B29088D288AEB29319984207D3401B801A80B201F0EBFB050007D000E0FF25012434
:402C400000F05EFA002D04D008E0F8B200F01CF9F6E700F081FA07490120087000F0CAFB204607B0F0BD0000180D0020AD2D000070110020200D002010B503480078012806
:402C800001D101F065FA10BD200D002070B5084B0446DA889E8800205518B54206D81D68AA182260DA885118D98070BD032070BD70110020014800897047000070110020F7
:402CC000F0B587B007460D4600208900009006916846FFF7DBFF844600285DD1304800990160002117E02E4B88001A680629115406D22C4C0419667882185670628805E0CF
:402D0000C419203CA67A8218567022891B68C018491C4280C9B2A942E5D300242DE0601CC2B2059025E01E4FA30039689600581840887118039604904E88B04217D9384669
:402D40006F46FE80B6464F786E4677710297049F4F800168039F5E18767879184E700168764659184E800068029F18184770521CD2B2AA42D7D30598C4B2AC42CFD36046D3
:402D8000002809D168460699FFF780FF8446002802D1054900980860604607B0F0BD0000240D002070440100280D00207047000010B5002809D005494A68002A05D0011F3B
:402DC00008788000105801F0CFFA10BD240D002010B50446FFF76EFFC0B2801DA0420CD307484068002808D0A100405801F02EFA002801D00470001D10BD002010BD0000C4
:402E0000240D0020F8B516460D460446FFF752FFC0B2801DA04203D20020C0430090F8BDB2B2E9B2684601F037FA0099481C03D0024AA000526811500098F8BD240D0020E2
:402E4000F8B50746FFF736FF801DC6B20A49002005460C680DE06178002907D06188B94202D32078FFF7B4FF002804D1241D6D1CEDB2B542EFD3F8BD240D002010B5002814
:402E800001D0FFF795FF10BD70B506460948002504680BE06178002905D062882078121D0023FFF7AFFF241D6D1CEDB2B542F1D370BD0000240D0020FFB581B00A9F160017
:402EC0000C4620D000F0F2F8054604281BD0002F0CD03846FFF7B4FF20492A0151184860002810D03A460499FFF729FC1B4928010E504618778101980570200406D47D2053
:402F0000C000444304E0FF2005B0F0BD6404640C00F0BAF80746042807D000F04FFAA0420BD800F04BFA201A03E0204600F0AAFA0020F06035720020E6E700F03FFA009014
:402F400000F0B6FA00980121001B009000F0ECF802493A0151180098C860E6E77C110020F8B5060116483418217A042903D0E068002802D017E00020F8BD00F01FFA0546F4
:402F800000F096FA00F0A0F804280CD001010C480F18F8680021451900F0C6F80020F860284600F06FFA6068054D002801D0FFF765FF042020720020A8516081E060DAE79A
:402FC0007C110020FEB500266A46304601232549050169180D7A042D02D0C96800291BD000211154401CC0B20428F0D300246846005D002830D01B48210108184189476885
:4030000005680291002101604160042241810272C160002E02D015E01354E3E700F054F804280ED001010F4808180190C6680021304600F079F801980021C160304600F013
:4030400021FA0126002D07D038460299A847002F02D03846FFF712FF641CE4B2042CC6D3FEBD00007C1100200EB5002005216A460090118150810348694600680EF063F9CD
:403080000EBD00002C0D0020074A0020010189180B7A042B02D0C968002903D0401CC0B20428F3D3704700007C1100200549002002015218127A042A03D0401CC0B204289F
:4030C000F6D370477C11002030B50A4B04200A4C00210A011219157A042D06D0D268002A03D09A4201D808461346491CC9B20429EFD330BDFFFF00007C1100207047000051
:4031000030B50020074C05460423020111190B72A5504D60401C4D81C0B2CD600428F4D330BD00007C11002030B5094C00231A011219157A042D04D0D568002906D02D186B
:40314000D5605B1CDBB2042BF1D330BD2D1AF7E77C110020002070471CB5002469460C70142001902346054A05480EF0F1F804480068401C00D1FF2420461CBDD531000073
:403180002C0D00203EB5124A0146FF2000230124126800290DD0012914D0042908D104206946009308814B8110460EF0CCF880B23EBD6846009304814381694610460EF098
:4031C000BDF8F4E768460093048143816946EBE72C0D002070B545890468416800890300FFF7B6FC08280509091E22282628002005F0EAFE1EE0022908D0C8B22A46214653
:403200000CF030FA2046FFF739FE13E002202A4621460CF027FA2946204600F00DF809E000200DF08FFD05E02046FFF7CBFE01E0FFF780F8002070BD014B0022DB681847BA
:40324000300D002070B5448905680089022803D0032809D0FF2070BD2246094C0023A46829460120A04708E0FFF7AAFA241DA2B200232946022006F098FE002070BD0000B5
:40328000300D002070470000024800214160018041807047300D002070B50C46002186B016460391012802D0022859D116E003A9012006F0CFFE01281BD1039D3246214671
:4032C0002846FFF73CFA0095287801900220694608814E816846FFF7B5FF41E0214D002B686809D0049004A9022006F0B3FE01281DD0022006B070BD002812D02988401852
:403300002146FFF71CFA28880024801980B228806988091D884206D12C801348FFF792FF03E00320E6E788421AD96C6018E004986860E278A378110219430B4A6980002390
:403340001060E3565360032313815181A1788170E178C1706178417021780170042028800020C7E7300D0020BC1100203EB515460C46022803D004280CD000203EBD009108
:40338000019002206946088107484A8100680DF0DAFF07E00CF066F9044B0022DB6829462046984701203EBD2C0D0020300D0020014AD16090607047300D0020034801681A
:4033C0008068081A0A21484300097047C811002010B5FEF781FF482204490548FFF7AFF903490120C870002010BD00008C440100CC15002010B5FEF767FF10BD70B5134CA3
:403400002368002B08D0207B1149C20705D04008400020738868A08070BD88680B4AA18880B29268814203D90A4D691A091802E0814202D2411A5118A160A080A06898429F
:40344000EAD30DF09DFF00F013F870BDC8110020C0102E40FFFF000010B508461946FFF7A7FF10BD704710B5FFF780FF10BD000003480021016041608160C16070470000D9
:40348000C8110020024610B5FF20002A0CD0FFF7EFFF064C0321207B0843207310010A21FFF716F82060002010BD0000C811002000B504480A21806848430209FFF7D8FFF1
:4034C000104600BDC81100200248007B8007C00F70470000C811002010B54B490868002802DA4A4B01221A70022290430860484800694549C00B4031096A0246C907C90F61
:403500000A4259D0012000F0E5FA3F480E216C30FEF736FE3E4820218430FEF731FE3C4814219C30FEF72CFE3948FF21C131A430FEF726FE3648FF212F31B030FEF720FEF7
:4035400033483449BC30FEF71BFE31483249AC30FEF716FE30492E48491CB430FEF710FE2B482E49B830FEF70BFE29482C49CC30FEF706FE26482B490830FEF701FE244820
:403580002949A830FEF7FCFD214828498830FEF7F7FD1F4826498C30FEF7F2FD1C481921C9029030FEF7ECFDFEF7ECFDFEF7A8FEC0B2022812D01FE000290BD0002101427D
:4035C0000AD0114801216030FEF7DAFD0120FEF777FE97E70121F2E7FF2010BD15491648FEF7CEFD14481549001DFEF7C9FD124800210830FEF7C4FD54200449C043891C4A
:403600000870002010BD000000F02E40400D002000002E40320300002F3F00003102000010520000EC160000FA12000031D000003AE300009956000080012E40F80F0000A3
:4036400070B50646581C80B245086D00002408E0304600F0C1F81055000A1119A41C4870A4B2AC42F4D3D80705D0D0182038D15CC47FD454C17770BD30B50A4C00210019CC
:403680005B1E07E0541864782502545C2C430480891C89B29942F5DB994201D1515C018030BD000000102E4010B5FF2000F012FA0F49FF2048700E481021801D41800121B1
:4036C000417001700A490020C91C4870FFF704FF04000AD100F02EF907210648FEF74EFD044807211830FEF749FD204610BD0000400D0020CC112E4070B5002405465B1E04
:403700000AE0284600F068F8010A161971702D1D1055A41CADB2A4B29C42F2DB9C4203D1284600F059F8105570BD000070B500210A4D5B1E0AE0541864782602545C34436D
:4037400046193480001D891C80B289B29942F2DB994202D1515C4019018070BD00102E40F0B50599091FCFB200217E1E0BE0541864782502545C2C43164D45192C80001DD3
:40378000891C80B289B2B142F1DBFC0712D01C78515C24020F4A0C4381180C809C785D78001D210280B2294384182180001D80B2D9780CE059781A7809021143054A8418E2
:4037C0002180001DD9789B78090280B2194380180180F0BD00102E40014940180088704700102E4010B50B490020487000F0A2F8002000F095F9002000F082F90721064851
:40380000FEF7BCFC044807211830FEF7B7FC002010BD0000430D0020CC112E4010B50C48007801280FD100F083FF00F0DDF8002804D10848016A49084900016205480221D9
:403840003030FEF79DFC02490020C91E087010BD430D002040F02E4010B50B46062812D006DC01280CD0032801D1FFF7BBFF10BD0A28FCD00B28FAD105480078107010BD20
:40388000FFF712FF10BD1146184600F065F910BD460D0020F8B5244DAC6A0127A007234E002816DA307806280ED1286A384328621F480069F903084381B21D481030FEF735
:4038C0005FFC042000F006F9174802212830FEF755FCE00718D000F065FF01280FD1002000F0B2FF062000F0F5F81049FF20C91E48707078002802D1686B384368630A48E5
:4039000001212830FEF73AFCE0050BD53078042802D1052000F0DEF80348FF2101312830FEF72CFCF8BD000040F02E40430D002000002E4010B503212348FEF721FC0120C1
:40394000FEF7BAFC20483038406A204C80076178800F890001431C480C38FEF711FC6078002808D0401E022181401820FEF7A0FEC000083800E0B82081B21548FEF700FC32
:403980001348032109021438FEF7FAFB10481149B830FEF7F5FB612189010F48FEF7F0FB0D480321001FFEF7EBFB0C490C48FEF7E7FB0B480B496038FEF7E2FB084801210F
:4039C0008838FEF7DDFB10BD70F02E40460D0020D8102E4090890000041E2E40FF0F000058122E4020900000044800684007400F022801D0002070470120704700010B4057
:403A000000B5FFF7F1FF002805D009480168C908C900016000BD0748016A490849000162054801690122D2039143016100BD000000010B4040F02E4000002E4008490878FA
:403A400006280BD148780749002803D1486B400840004863C86A01221043C86270470000430D002040F02E400148007870470000430D002000B50300FFF76AF8080D050D94
:403A80000B070507090D012000BD032000BD042000BD022000BDFF2000BD0000074A9168D26889B2064B92B2994204D105498A4201D1012100E000210170704780002E404F
:403AC00033D000003FE300000149487070470000430D002010B50446FEF7FAFB072C01D9FF2C01D102480470FEF7EEFB10BD0000430D00200149487070470000400D002076
:403B000010B5064A012805D01921C9021046FEF737FB10BD1D21C902F8E7000090002E4010B50A4A141D012808D009491046FEF727FB08492046FEF723FB10BD04491046F9
:403B4000891CFEF71DFB0349491DF3E788002E4031D000003AE3000070B50C460546FEF7CFFBC0B202280E49287804D0FF2810D04C280CD810E0FF2809D10A4AD06800042B
:403B8000800F032801D0087807E09069000A553803E00878207070BD4F382070087070BD420D002000002E40F0B50122002834D0002932D00424420600D00524792342065E
:403BC0005B06D21800D0641C034600221EE00C2516466E43124D00277519AF72104F002ABB51696007D0661EB24209D10D4E86197606760E05E05E06760E8027BE1B00E0A0
:403C000080269B198919521C2E81D2B2A242DED303480549006B002288611046F0BD000054140020790200004C0D002018B50020694608700A48006900280ED01321490171
:403C40004018047E684604704F21C900054800F059F8A04201D0012018BD002018BD00004C0D0020D8110020074900200C2242435218927A012A05D0401CC0B20628F5D304
:403C8000002070470120704754140020F8B50E000446154609D0194F19497868A04202D94018A04201D38D4201D90120F8BD31462046FEF735FD00281ED02A463146204639
:403CC000FEF73DFDE8B200210C224A43D21913895568EE18A6420BD90126641B1B1B9672834209DA1469C01A044AC0B220329676491CC9B20629E7D30020F8BD54140020E2
:403D000079020000034610B50020024604E09C5C2018521CC0B292B28A42F8D310BD000070B500F05FF8084C064A216907480D46FEF705FD05492846FFF736FFFFF776FF71
:403D4000207070BD790200004C0D0020D8110020002070470020054A002902D0012902D002E0906000E0D060002070474C0D002070B5084C154608460549E26889182A464F
:403D8000FEF7DDFCE0684019E06028B270BD0000D81100204C0D00203EB50A226946FFF7E7FF044606480A2200686946FEF7B8FC002802D00020C0433EBD20463EBD000024
:403DC000500D0020002802D0044A914201D2FF20704703494A61086100207047790200004C0D0020024800218160C160704700004C0D002070B5074C15460548A2688018F8
:403E00002A46FFF743FFA0684019A06028B270BDD81100204C0D002010B503490A220968FFF7E8FF10BD0000500D002010B50F4A002313600E4A13600E4B18600E48016014
:403E40000E49012008600E490860000290600E490C4808600D4914300860FF381538506000F0BCF800F0CAF9002010BD800D0020680D0020940D0020980D0020840D0020AB
:403E8000740D00209C150020780D00208C0D0020014610B50020002910D0094B1A689C685118A14209D25868196080188A0704D08A07920F891A091D196010BD002010BD98
:403EC000680D0020F8B50024164E671E321F3D463168136806E01422624310328A58521C1BD0641C9C42F6D36A1C14D02C461422544322460C3288500C214843FFF7C8FF8A
:403F00003168002808510AD031680020103408517068401C70602846F8BD2546E4E73846F8BD0000780D0020F3B50026F64381B000281BDB1E490968884217D80299002957
:403F400014D01B4F142204463F1D54432546396810354859401C09D0FEF7BAF938682F1F4159C359994203DBFEF7AEF93046FEBD214608310091465801590C20704308185F
:403F80000C220299FEF7DBFB0948761C001D0068C159B14200D100260549009A091D865008684159491C4151FEF78EF90020FEBD740D0020002803DB07490968884202D9B8
:403FC0000020C043704704491422091D096850431030085870470000740D0020F0B500200D4A451E0346171F50600FE014260146714314680E1DA3510C4616680834335145
:404000001668083435511468401C635039688842ECD30020F0BD0000780D0020F3B50026F64381B0002841DB2349096888423DD8029900293AD0204F142204463F1D544331
:404040002546396810354859401C2FD0FEF740F93868415900292BD0211D009146580C21005971430F46C1190C220298FEF767FB11480021001D0068761C00590C34C0196F
:404080000160416081600C48001D00680159B14200D100260849009A091D865008684159491E4151FEF710F90020FEBD3046FEBDFEF70AF9FAE70000740D0020FEB5044695
:4040C0000D4600201E49089E0860471E009001900290002C11D0486885420ED2002A0CD0002E0AD0642E08D808460C3001681C2068430C18207A002801D03846FEBD0120F1
:40410000226020721846FFF7DDFE6060401C13D06681A6810A4827610C3067610179A94200D205710021684601810A462846029B00F040F82846FEBD00202072DDE7000031
:40414000800D002038B50124009400F039F838BDFEB50027164EFF433D4600240EE01C20316860430818017A002906D04068FFF721FF002801D0254603E0641C3079A0429F
:40418000EDDA681C12D01C2130684D434419FEF79FF869466068FFF741FF0546FEF794F8002DD9D1216868468847D5E7FEBD00008C0D002038B50024009400F001F838BD7B
:4041C0001FB500220C49541E0A60002811DB496888420ED808491C220C31096850430818406801A9FFF7A0FE401C02D0002004B010BD2046FBE70000800D0020F0B50021C3
:40420000114A4D1E174611710C3F0B46BD6016E008461C2460431668041D355114680646235014680836A3551468361DA353044616680A34335318301468491C2550786818
:404240008142E5D30020F0BD8C0D002038B500210091002811DB0F49097888420DDA0D4D04010C3529680859002807D0201D0818694600F06FF9002801D0002038BDFEF708
:4042800027F828680F34015D491E0155FEF71CF8009838BD9C0D0020F7B582B0002502986E1E06602E48D21C024017462D4A2C4610460C380178106805E02301C358002B3D
:4042C0000FD0641CE4B28C42F7D3711C28D03401211D40180191039900F02AF900281FD101E02646F1E71F48016820460C300F521C480399026820460E3011541948039920
:40430000026820460F3011540398784300F0A0F8144900280968085102D00024009011E001251AE00F48016801980818009900F02CF9002801D0012502E00098C01900901C
:40434000641CE4B203988442ECD3002D05D10298066004480179491C0171284605B0F0BDFCFF0000A80D0020F8B50D4600216A468C461180002839DB23490978884235DA91
:40438000214B04010C3319680A59002A2ED020460C300B5A801C0E5C184670438018954224D3854222D2002006E007465F43BF18AF4206D0401CC0B2B042F6D36046002818
:4043C00014D0114E271DC8190C366A46294600F006F900280AD168460088012808D030682946C01900F0D1F8002803D00120F8BD0020F8BDFDF76CFF30680F34015D491C8F
:404400000155FDF761FFF3E79C0D0020F8B50F46002400F031F8002817D10C4900220B460C334A600EE021011D680E466A501D680C36AA53B61C1D680F31AA551D68641C2D
:404440006A54E4B2BC42EED31A71F8BD9C0D002000280BD0C01C074A81085068890053884118994203D893685160181870470020704700009C0D0020F8B5064600200F4D94
:40448000009029700C0121466846FEF7FFFB00280CD129460C3100980860301B001F84B221466846FEF7F2FB002801D0FF20F8BD6C800098A8600020F8BD00009C0D002083
:4044C000F8B5002827DB19490978884223DA174C05010C342168485900281CD028460C30085A009028460E300E5C401C0E5420682F1DC01900F064F800280CD1206800243A
:4045000045590EE0094829460C300068C01900F03CF8002801D00120F8BD00982D18641CE4B2B442EED30020F8BD00009C0D002030B50D4604000BD0A800FFF789FF60607A
:40454000002805D000202570C0436080002030BD012030BD70B50D46040005D0002D03D00220205E002801DA012070BDFDF7B0FE0221615E60688900405828606088401E0E
:404580006080FDF7A1FE002070BD70B50D46040007D0002D05D002212078615E401E814201DB012070BDFDF793FE6088401C00B26080616880000D50FDF786FE002070BD5B
:4045C00010B5040009D0227800216068FEF7C0F80020C0436080002010BD012010BDF0B500231D46002802D00224045F0AE00120F0BD46689F00F6598E4201D1012503E05E
:404600005B1CDBB29C42F4DA15700020F0BD00000148007870470000B00D00207CB505460024FEF7CDF8A8796946087000A8062229460130FEF783F80021684604F08AFF55
:404640000C2806D0072806D01F2806D0122806D006E0022404E0042402E0272400E0012420467CBD10B502280BD0032802D0042809D102E000F076F905E000F021FAFF28F0
:4046800001D100F031FAFFF7EFF9FFF7F3F910BD10B500F059FAFFF7E7F9FFF7EBF910BD70B504460025FEF78BF8002C06D0A079012803D8214602F0D5FD00E00125284631
:4046C00070BD01460120002902D05020088000207047000001460120002905D003485422007850430880002070470000B20D002010B502460D49FE204870032410460DF038
:4047000045F9002810D10DF0E9F800280CD105F0FDFC002808D100F027FC002804D105F0BFF9002800D10024204610BDB00D002002480021018280210180704700102E4031
:4047400070B50025044600280ED0A07901280BD8FEF736F8A0790028204602D003F05EF903E003F033F900E00125284670BD0000014610B50120002904D006220248FDF761
:40478000DEFF002010BD0000BC0D002001460120002903D0087802490870002070470000B20D00200148007A70470000D416002038B504460120002C20D0617801291DD8F9
:4047C00000290BD0FF25E535FDF7FAFF0C4828180088C0B22070072803D00EE0FF25CD35F2E70020694608706846FFF757F969460878012801D108202070002038BD00004B
:4048000000102E40014A002192681047B00D002008B500226B461A7026280CD0094A342852680BD0352805D1900703D50021352005F048FD08BD19462620F9E7D007F9D09C
:404840003420F5E7B00D00200149087270470000D4160020F8B504460120002C26D06178012902D92278092A20D8002905D0FF25E5352078092803D004E0FF25CD35F8E708
:4048800008202070FDF79CFF2078114F114E08280DD00020FFF744F970780128207810D00D4969180880FE2070700020F8BD0120FFF736F90720B8810549203188800120D1
:4048C000F2E7B8810248217820308180EBE70000C0112E40B00D002000102E4070B50E46050001D0002400E00C4C002C11D0E28A500609D5D107C90F022003F02DF9E08A59
:4049000040218843E08204E0D107C90F012003F023F93146284602F001FE70BD34160020F8B50546002004460D4E009013E022466946284601F002F90098002801D00DF079
:4049400007F8A878214602F0CBFBA878214602F0B9FB641CE4B2308AA042E8D8F8BD000000170020F8B54E4CFFF77EF8012847D14C480078002843D002F058FD00283FD0B5
:4049800004F08AFA00283BD0474E7078C00703D000F01CFD012833D0307E00287DD17078002500285BD0000706D540488089070B00F02EF9384370D13B484178684604F046
:4049C000C1F821793A4CA2788918C9B2814262D802F02CFD002860D0344860300789324E203602F06DFB6846008802F097FB02F033FC30490988884203D10120FFF76AF870
:404A00004BE02D49012008702748807B00281DD0002F1BD04036F07E002817D123486030008821494000C031498981420AD26078002807D103F0BEF82049088A032212026B
:404A4000104308822078002800D0257002F09CFB0120FFF739F800F025FC174C15E002F0E5FC002819D0102402F0F6FB214602F0DFFA02F053FB104C0120207002F084FB0F
:404A80000020FFF721F800F00DFC20780128B4D1FEF7B6FF25700020F8BDFF20F8BD00000C160020400D002014160020A0102E40D60D0020E80D0020C20D0020E0112E4023
:404AC00010B50848FF244078002809D102F0AEFC012805D1FEF7A2FE0720FEF7FBFF0024204610BD1416002038B5FEF7BDFF012801D0002038BD02F099FC00280AD0114C4A
:404B00006078C00703D000F061FC012802D0207E002801D0FF2038BD617800290FD0684604F010F8022806D96846008802F0F6FA012002F033FB0320FEF7CCFFD9E7002060
:404B4000F7E700001416002038B51E4CFEF78CFF042813D0052811D0062812D003282AD007280AD100206946087002460120FEF773FEFEF779FF0128FBD138BD00F0B2FBD0
:404B800038BD02F023FB00F0ADFB02F09FFB8007800F0228F4D10C4841880029F0D05B21095D0029ECD101210170A07D0140022002F0D2FF38BD02F00DFB0120FEF78AFF95
:404BC00038BD000034160020D60D0020F8B50646002403F02FF80546304603F045F803460A480021068A0DE001228A401046174628401F40002803D0002F01D1224394B2E4
:404C0000491CC9B28E42EFD82046F8BD0017002070B500252C460A4E03E0002C01D0002000E030460079002803D02046FFF7CEFF0543641C2406240EEFD0284670BD000026
:404C4000341600201CB50020694648706846FFF7AFFD01AA69460A20FEF7FEFD6946042008561CBD70B50D4601F048FB04000BD02079002808D0FDF7A3FDE178A0782A460B
:404C800002F0D2FC002070BD022070BD01480078704700000C1600204030C07E002800D00120704700B500F001F800BD902148430749084A40186030417F491CC9B24177E7
:404CC000D289914201D300214177C8B270470000141600200017002013B501F00FFB04000BD001F0ACFE002807D0214601AA0A310620FEF7B1FD00201CBD02201CBD0000E1
:404D000010B50C4601F0FAFA00280AD001F097FE002806D0224604490A20FEF79DFD002010BD022010BD0000F5150020F3B581B0074601460026029802F074FF0446002F72
:404D400001D0002500E0154D002D21D0284601F00BFB032C04D13946029802F0BFFF06463846029902F0AEF9032C06D0002C10D00121384601F0FEFB03E03146384603F047
:404D8000ABF9284602F08CF80221284602F0A2F8FEBD3846029902F095F9FEBD3416002010B5044600F066FA002804D103F05EFE002801D00C2010BD2078611C02F036FDFE
:404DC000FF2801D01F2010BD02F07CFDFF280AD02178621C02F0FEF8044821780068026B601C904710BD072010BD0000FC0D002010B503F03BFE002801D00C2010BD02F078
:404E0000F7FC03480068C06A8047002010BD0000FC0D002070B50D46044610210CF0D8FC1021601806460CF0D3FC334610221946204603F049FE102130460CF0C9FC02200E
:404E40002870204604F062FD70BD0000F8B504464078217802028006870FE0781143A67809050002090D0643084601F047FA00210546F2B2002812D0002C10D0022F0ED05E
:404E8000032F0CD0002A0AD00279092A07D0002A05D0134A5A23527E1B5C9A4207D82889002104F068FC20460CF052FDFF21002914D10C48224600682946436930469847E3
:404EC000C0B2FF280AD128464030817EF2B2491C8176FF232146284600F0E3F8F8BD0000CC150020180E00200020704710B5044603F0BCFD002801D00C2010BD2078611C0A
:404F000002F094FCFF2808D002F0CCFB044821780068426B601C904710BD1F2010BD0000FC0D002010B500F06BF904F0B9FD002010BD10B5044600786178E2780843A1781A
:404F400011430843217908436179084305D003F07FFD002803D00C2010BD122010BD204602F05CFD002010BD10B5FDF7C9F902F083FE044803F0DEFE02F09EFB012000F00E
:404F800003F810BDDC150020F1B586B003A8009005A8019028489F22817A114081726846FDF728FC002845D169460989C90705D0224806990068C268684690476946098908
:404FC000890706D5002835D11D480068816A0698884700282ED11B4E0025757075737571F575357675767575B570F570B5713746F5730120D03738731F20F880FF213046EC
:405000007972A0300176457600F0F0FA00242046069901F0BFFC002803D1641C2406240EF5D0FD720749BD72B573C0310D704D704D600D7207B0F0BDCC150020180E00201F
:40504000FC0D00201416002070B505460E46084602F0F0FD0446304602F006FE0121A9400A46224001400A4301D0012070BD002070BD10B50446084602F0F6FD0121A1401A
:40508000014201D0012010BD002010BD10B5FEF7EBFC032804D102F09DF80120FEF71AFD10BDFEB51C4616460F46054601F0F8FEA878FFF7F7FD0246019033463946009478
:4050C000284600F00DF8002808D1A8780199FFF705FCFF2C02D138460CF03AFCFEBD0000FFB585B005460E980C46FF2810D02B49C00009680A5840180179C0795278814260
:4051000001D9012601E09006860F6846038108E06078A1788006860FE0780002014368460181284601F096FC070007D021462846079A00F097FC384609B0F0BD304600F05C
:4051400045FD04AE0346039002AA29460096204600F0D1FB3C20405D002818D0284601F079FC012813D0684600890096C0B20190A878231DFF22079902F084F9684600890C
:40518000039BC2B2A878079902F0C4FCD3E7684600890021C0B20091E9E70000140E0020F8B5002600253046FFF710FD07001DD090201149704340186030447F12E0601C09
:4051C000FDF786F9CCB23846E040C007C00F07D02146304601F06CFF21463046FFF7A6FD6D1CEDB20548018AA942E8D8761C3606360ED7D0F8BD000014160020001700206A
:4052000010B502F059FA0020FFF7BEFE0CF036FC002010BDF8B5002400F0D2F80123012800D10124104F00203E4620360425082203E0002801D0002100E0314609790029FE
:4052400007D001290BD002290BD0114681402143CCB2401C0006000EEBD07C70F8BD1C43F7E72C43F5E700001416002010B5FFF7D1FF10BD10B5044604F064FD002802D1FD
:40528000601C00F001F810BD1CB500240094062269460194FDF744FA002800D1122420461CBD000070B50E4CFCF707FE0546FEF7DBFB062802D02078012803D02846FCF7A5
:4052C00000FE70BDFDF76CF82846FCF7FAFDFEF7CBFB0628F5D020780028E5D170BD0000C20D002010B5FCF7E8FD0446FEF7BCFB012809D0FEF7B8FB022805D0FDF750F81B
:405300002046FCF7DEFDEEE72046FCF7DAFD10BD10B50B4681791943817103D08078114602F0C6FB10BD10B582798A43827102D1807802F0D1FB10BD30B50C4C0220A28A06
:405340000B4B9978002901D0022906D11D785B78EB18282B01D9032002E0032900D101205105490DC0020143A18230BDC0112E40CC0D002000B500F029F8002807D0012827
:4053800005D0032801D0042801D0002000BD012000BD014600B50020C90701D000F010F800BD014600B50020C90701D000F008F800BD00000148006870470000C40D00202F
:4053C00001480088000A704720102E400448008B410501D5042070474007800F7047000000102E4010B501F037FF044601F07EFF0146204601F058FF10BD0000014840684D
:4054000070470000C40D002038B50446000610D5FFF7DCFF01280CD1684601F0EBFE6846007800F023FB012001F0A2FD0220FFF71DFF600708D507480179012904D10021FD
:4054400001712620FFF7E4F90348006801692046884738BDD00D0020FC0D002070B505460C49007800240870FFF7AAFF012803D1FFF7B8FF022803D3284602F03BFA07E096
:40548000284600F0EBF8040002D1034801210170204670BDCC0D0020D416002070B50446FFF78EFF002801D00C2070BDA27B01211F48002A827801D00A4301E052085200A7
:4054C00082706279012A14D0C17849084900C170184D2868016820468847207901280CD06188208803F074F82080207904280FD015E0C2780A43C270EAE72868C168E01D32
:405500008847E01D02F076FA0B48808C208006E02868C168E01D8847E01D02F06BFA074920798870204602F0F3F9002070BD000014160020FC0D0020CC150020CC0D0020A0
:4055400008B50178FFF73CFF814201D10C2008BD002914D0072069460870FFF70BFF012807D10121684600F0D9F8012801D0092008BDFFF7E1FE02F0FFF9012011E0FFF7A2
:40558000F9FE012806D1684601F034FE6846007800F0A0FA02F0E6F9FFF712FF0028FBD10220FFF763FE002008BD000070B505460C49007800244870FFF702FF012803D13C
:4055C000FFF710FF022803D3284602F051FA07E0284600F05DF8040002D1034801214170204670BDCC0D0020D416002038B568460CF044F9002801D01F2038BD012100981B
:40560000C90201804180002505714571857107214173857302F07CF9009C202200212046FDF796F825702A460021601CFDF790F8204602F05FF9204602F01AFA00980CF026
:4056400087F9062200210448FDF782F802480C388560002038BD0000D00D0020F8B504460025684600950CF009F9002801D007250AE0064E009830602278611C401CFDF7D3
:405680005EF83168207808702846F8BDC40D0020F8B504460025684600950CF0EFF8002801D007250AE0064E009870602278611C401CFDF744F87168207808702846F8BD1B
:4056C000C40D00200346084800B5834209D8184600F014FE002804D00089984201D1012000BD002000BD0000FF0E0000074A9179491C8906890E917138220A4092014907FD
:40570000090E1143084302490840704714160020FF0E0000C006C00E70470000F8B507460E4600240D4803E0002C01D0002500E005462979002905D0641C2406240EF3D091
:405740000020F8BD0021204601F024F92E712046FFF7CCFF28813C700120F8BD3416002010B503F0E5F90222002100F003F801F04FFF10BD10B5094B40074907000F090FBB
:40578000185A595A40185043C0086421FCF7A0FE002800D1012080B210BD0000D4440100F7B53D20405C88B015460C46002802D02878042802D200200BB0F0BD69460872F4
:4057C00000262046FFF768FA012800D00126204603A938300191009023460327A17E34333246206A03F0C0FA02A8089900900B46019120463A4603A9243003F045F9024624
:405800006846007A2870204601F0B0F81046D3E7FFB587B00C4605461078694608723D20005D1746002826D000262046FFF734FA012800D00126204603A9383001910090BF
:405840002346A17E34333246206A03F08DFA02A80090291D019120462B1D03A924300A9A03F012F902006846007A388002D1204601F07CF810460BB0F0BDF0B505463C20D1
:40588000405C89B016460C4600280CD0307869460873002806D000272046FFF7FDF9012803D003E01F2009B0F0BD012703200890204604A93830019100902346E17E3433E5
:4058C0003A46E06903F050FA6846007B03A928180290009120462B46019504A92430089A03F006F902466846007B3070204601F047F81046D7E7FFB505463C20405C89B07D
:4059000016460C46002810D0084601F0A3F801280BD0308869468883002809D000272046FFF7BAF9012805D005E000200DB0F0BD0220FBE70127204603A9383001910090F5
:405940002346E17E34333A46E06903F00DFA291D2B1D07A8129A6D4607C5204603A924300C9A03F0C5F802466846808B3080204601F006F81046D9E770B50D460446FFF73D
:405980008BF901280AD0E87AA97A00020143A07801F02AFD012808D0002070BD00222421204602F067FD242070BD28214C200155204600F0B1FB282070BD0000002801D008
:4059C000002000E003484030C07F012800D0002070470000341600200146002049070ED50021084B03E0002901D0002200E01A461279022A04D0491C0906090EF3D0704796
:405A000001207047341600200146002049070ED50021084B03E0002901D0002200E01A461279022A04D0491C0906090EF3D07047012070473416002010B50446803460687A
:405A4000002803D00BF098FF0020606010BD4030417070474030817070474030017070470171704792001018C166704770B53C2501F096F9040004D020460021433001F0DA
:405A800053FCFF222946204600F0E2FB002C02D0A07801F007F970BD10B5002801D0002000E00348002802D0008903F0ABFE10BD3416002010B5002801D0002000E0044837
:405AC000002804D00179072901D100F047F810BD3416002010B501F063F9002802D0807801F0E0F810BD00207047000070B50546008A00281ED01049F122897A1140C906B8
:405B000018D5294640314A8A098A521C4A4392B2D10800D10121540801E0621A94B2A042FBD9FEF775FD012804D1298AA878224601F030FD70BD0000CC15002010B500239D
:405B4000054C0B60248A944204D992001018C26E0A60C36610BD00000017002038B5044600200090A079002814D14020015D052901D00E290ED168460BF090FE002809D16E
:405B80002046009902F054FC03481021C28A2046FFF7BEFB38BD0000CC15002010B50B4604460146184602F0CDF8002802D020460BF0D8FE10BD13B5044601AA11460620DD
:405BC000FDF74AFE6846818861811CBD002800D10220704770470000F8B504462346401D543300909A1EA078911E01F01FFB25464035A88A298A8000FCF76AFC401E81B2E1
:405C0000688A884203D96982A07801F0DFFF698A8C20015120460021433001F085FB27480088E88102F084FFE989891C8AB26179FFF7A0FD01F0ECFC02F07AFF2A8A617937
:405C4000FFF798FD074601F0D7FC688A002806D01B49088A032212021043088202E0002001F0A8FF1648803801886E8A002E0CD0304648431349FCF71BFD0004000C01D008
:405C8000401C80B21049488002E00F4800214180288A704381B2A07801F0F8FEFF2228374932B9B21346204602F096FCE98AA07801F06CFEA07801F025FAF8BD80102E4019
:405CC000E0112E4071020000D60D00207FB504468034616805460E46183108226846FCF72EFD31462031082202A8FCF728FD102168460BF06DFD6068102108300BF068FD6D
:405D000060682B46083024331022694602F0DCFE7FBD10B504460821FFF705FB10212046FFF701FB207905281FD006281DD008281AD12189002003F0DDFC0720207120465C
:405D4000FEF7AAFF014620464030012913D00E21017000210176204600F0B6FF2046FFF76BFE2046FFF7C2FE10BD20890122002103F0A4FCE1E70521EAE70000FFB581B046
:405D80001F4604460821FFF7CEFA10212046FFF7CAFA2079082803D0092804D0042203E00422012501E009220025204600F03EFE264600204036307022712046FFF73CFE78
:405DC0000398002D02D0012808D00BE001280AD120890022029903F071FC04E02189029803F088FC012700203076012F04D0204600F06AFF05B0F0BD02983073204602F00C
:405E000065FB054605480121C28A2046FFF780FA002DEFD109202071ECE70000CC15002070B50C460546FEF737FF012809D108212846FFF778FA0023012221462846FFF7AB
:405E40009DFF70BD10B5044600F0F0FD2046FFF7F3FD00214034217010BD70B505461A24FEF71AFF012809D108212846FFF75BFA0023012221462846FFF780FF70BD0000D0
:405E8000F8B50446002000900E4668460BF006FD002801D00D20F8BD8420005908212030009D00F026FA20460421383000F021FA002E02D1204600F0F5FD2946204602F02F
:405EC00046FA0E480821C28A2046FFF721FA204600F06BFF25464035002808D0204600F023F8002801D0092028700020F8BD08202870204600F0D4FFF7E70000CC150020B8
:405F0000014610B540310A460978082906D0092907D00A2901D100F091F810BD0B20107010BD00F001F810BD70B50446007925464035052805D0062803D008280FD00C2084
:405F400070BD03220621204602F094FA0D480821C28A2046FFF7DCF91120287010E006202873204602F0B2FA0646AA8A0A20424301212046FFF7CCF9002E01D1092020711D
:405F8000002070BDCC15002038B504460020009068460BF083FC002801D00D2038BD2046009D00F0BDF908202071204600F07AFD2946204602F0FEF900213D2001550F2079
:405FC00040210855204600F06BFF002038BD00B5024600F02BFD10214032117000BD10B50446FEF759FE012809D04020005D112805D100231A4606212046FFF7BFFE10BD5F
:4060000010B5FFF786FE10BD38B504460021684600910BF043FC00280CD12046009902F04AFA05480821C28A2046FFF771F90D204034207038BD0000CC15002038B5044663
:406040000021684600910BF029FC002801D00D2038BD2046009902F023FA05480821C28A2046FFF755F90C2040342070002038BDCC15002000787047F8B5002569460D7098
:40608000002801D0002400E01F4C002C18D0204600F0D5FC002813D0207903280BD005280CD026464036B18AA07801F0F9FCB078012806D01DE0042020711DE006202071E2
:4060C000F8BD0021204601F05AFE274680373868002802D00BF050FC3D600020B0702079072802D12046FFF701FD0221204600F0F1FE20790428E3D1207A6946087034204E
:40610000FEF786FBF8BD00003416002010B54C22115400F04CF810BD10B50446FF21FFF702F909202071A07801F0E0FC10BD000038B5FF216A461180002801D0002400E05A
:40614000084C002C0DD011460620FDF785FB684601882046FFF72FFD03480068C1692046884738BD34160020180E002010B504468079002809D022214C200155FF212046C7
:40618000FFF7D1F8204600F012F810BD10B5037902464032002B03D01173092B02D003E0002100E02221117300F001F810BDFEB504460089002700902781207926464036AF
:4061C000002817D0012815D002280AD112E002AA01A9204601F0A4FD002807D101980BF0C1FB204601F0C4FD0028F0D02046FEF797FBB776254680352868002802D00BF02E
:40620000BBFB2F606868002802D00BF0B5FB6F60317B002919D0009800F064F8A078002100F092FF2046FFF79BFAA07801F0C6F8A07800F037FDFF212046FFF774F80B2072
:40624000FFF714F800F068FCFEBD1F213173E2E7F8B517460E46054602F066FC04003CD020460C3001F050F82046062200211830FCF76EFA2046062200211230FCF768FAE0
:406280001648224600683946436A28469847074626702846FEF700FD012148406070002D10D02889608028464030C1782171002E0FD169796171018AE180418A2181808A0E
:4062C000608106E00648008BC005C00F2071002060803946204603F090F9F8BDFC0D002000102E400A4610B50146002003F0A2FA10BD10B50BF048F810BD000000B501467B
:40630000FFF708FA002801D0002000E00348002802D002898A4200D0002000BD3416002038B5044680346068002806D168460BF0C5FA002801D100986060606838BD000090
:4063400010B5014600F086FB0128887802D0FEF7ADFC10BD90214843024940186030007F10BD00001416002070B5054604464035A87F012811D1A1789020084A4843801896
:406380006030067F3046FEF75FFE002805D10220A877A078314601F0CBF870BD1416002010B50C4CA07A002813D0FEF7F9FE0A48027F417F408B00F0B7FB012809D10020B6
:4063C000A07200F02DFF05498989090B01D000F03BFA10BDE416002014160020A0102E4070477047490510B5490F0B00FCF7B0FB060704080C0C0F073E21FFF787FE10BD46
:406400000821FFF7C3FE10BDFFF7D1FE10BDFFF7ADFE10BDF8B507460025002D01D0002600E0204E00F0A6FE3046403044890021418100F0C3FE304600F001FB01282BD1BC
:40644000A00702D52846FFF717FEE00602D52846FFF76EFEA00601D5FEF7A2FE600601D500F014FB200602D5284600F01DF8600702D5284600F02CFA380402D52846FFF7A3
:4064800019FB780402D52846FFF706FBE00703D021463046FFF7A6FF6D1C2D062D0EBCD0F8BD000034160020F8B5002801D0002400E0284C002C4BD025464035A8780128AE
:4064C00046D1FF278820493700593E46002805D02149897A890601D5878AC68A2046FEF7DBFB012834D002F023FB2A8A6179FFF741F9009001F080F800983346283081B269
:406500003A46204602F068F8E98AA07801F03EFA12480188688A124E002810D048431149FCF7C6F80004000C01D0401C80B27080A07DC107C90F002001F00EFB01E0002065
:406540007080288A698A484381B2A07801F09EFAF8BD000034160020CC15002060112E40D60D0020710200000149096809680847180E002070B50D460026194A0146002881
:4065800001D0002401E014462034002C26D0204600F060FA01280AD19020484380186030007FFEF751FD002801D101F00FFF0D48006881692046884700280CD020464030AD
:4065C000817EA94202D3491B817600E086762089294603F0D0F8204600F062FC70BD000014160020180E002070B503460088FFF785FE040013D000F022FA00280FD020795F
:40660000092819D02546997840352973204601F05DFF0646A878012803D0AA8A02E0022070BDEA880A20424301212046FEF770FE002E01D109202071002070BD0EB500223B
:4066400017216B460292198100905A810120029B00990BF031FA0EBDF8B518480024807A002822D1164E0025B089000B22E0204600F074FE1249A039401807882A46214681
:40668000384600F051FA012810D00E480122478305770A4944778A72002D01D0002000E02030002801D000F0FBFBF8BDB089000B641CE4B20028DAD1F8BD0000E416002071
:4066C000A0102E401416002010B50088FFF716FE002809D0014640310C460978082905D00B2903D00C2010BD022010BDFFF71CFC002801D009202070002010BD70B503463F
:406700000088FFF7FBFD040008D0254640352878082805D00B2803D00C2070BD022070BD8420005910220830991CFCF708F82046FFF7CCFA2878082804D02046FFF77EFC29
:40674000002801D00A202870204600F0A9FB002070BD000010B50C46002121700088FFF7CDFD03000BD000F06AF9002807D00948F121807A0840C00603D4112010BD022074
:4067800010BD022020701A8A1889002103F06EF8002010BDCC150020F8B50F46002100910088FFF7ABFD040012D000F048F900280ED0E079410641D4617E02264A07002A7F
:4067C00008DB8907402500291ADA2843E07135E00220F8BD02F0A8F90021017021894180A1898180217E4170E189C1803E7005460178134802F014FD284602F0DBFF1DE03F
:40680000204600F02DF9012806D068460BF046F8002803D00720F8BD2A20F8BDE07900992843E071204601F07BFE607E0421304360760448C28A2046FEF76AFD0020F8BD27
:406840001D040000CC1500203EB500220F236C460292238100910190628169460EC900200BF02AF93EBD0000F8B50F46054600F097FA040025D00320207125460026403580
:40688000EE76E6702046FFF7A7F901F06BF80920FEF7ECFCA07800F07FFD0121204600F019FB2E706E70AE703A4600212046FFF7CFFC0649887B401C8873A078FFF754FE4D
:4068C000F8BD284601F012F9F8BD00001416002010B5002801D0002000E0094800280DD0014640310A464978022901D100215170807DC107C90F002001F02EF910BD00001C
:406900003416002070B503460D460088FFF7F6FC04000BD000F093F8002807D01248F121807A0840C00603D4112070BD022070BD20464030418A008A491C41430804C10C7E
:406940005888884201D2122070BD20822079072802D12046FFF7CAF8022028702089002102F0ACFF002070BDCC150020016A491C016204D1817E491C4906490E81767047B1
:40698000C169491CC16104D1C17E491C4906490EC1767047F0B5074687B003A8009005A800260D460190002F01D0002400E01B4C002C05D06846FBF71DFF002803D00BE0F0
:4069C000022007B0F0BD68460089C00704D1902200212046FBF7BCFE114829460068826820469047050016D1A77066762746267140373E70204600F019F8204601F0B4F98F
:406A0000084820820848BE77807AF121084000D001202075E682E8B2D3E7000034160020180E0020B80B0000CC150020002101628176C161C1762030017741777047007951
:406A4000002805D0012803D0022801D001207047002070474030807F002800D00120704740300078002807D0012805D0052803D00E2801D0012070470020704710B58078DC
:406A800001F0F2F8002800D0012010BD10B500F0C7FB03498989090B01D0FFF7D5FE10BDA0102E4070B5054604464035A87F002825D1FF206075A0789021154A48438018F4
:406AC0006030417F9023491CC9B24177A0785843104B8018DB896030994201D300214177A0789021484380186030467F0677A1783046FEF7A9FA002802D00120A87770BD8D
:406B00000220A877A078314600F012FD70BD000014160020001700200020401C0006000EFBD0002070470000F0B515468207920F85B0000A02926A469080002D01D00024C7
:406B400000E0564C002C28D0084600F007FC07466846808800280BD00298012843D0022841D003280BD03D20005D012879D08FE04B48381801882046FFF71DF888E0002011
:406B8000029002A80AF06AFE002807D03D20005D012802D12046FFF7E9FE7CE06846029E8388324600213846FCF74AFD3C48381801882046FEF7FFFF284600F0B5FA01AACB
:406BC00021463046FEF7ECFD002806D030460AF0B5FE3D204C21085531E0F5773146204601F02AFA57E0002000902089039068460AF024FE002802D0002005B0F0BD68460C
:406C0000009E8388321D00213846FCF719FD2448381801882046FEF7CEFF284600F084FA2046FFF70CFF002805D025464035287E002810D107E030460AF076FE2BE020463C
:406C4000FFF76AFA27E001AA21463046029BFEF7DFFD002806D030460AF066FE3D202873EDE712E00298FEF7B5FF0399317003990001090A0143717068468088B070000AF8
:406C8000F0703046FFF7DAFC05E02046FFF76EFE284600F049FA0120AFE700003416002000102E4010B5074A917B002901D0491E91730021FFF76EFE002801D0002010BD55
:406CC000012010BD14160020F8B5074606464037B87F00282DD0B078902100904843234945186035287F0099FEF7C3F901281ED0287F401CC4B21E48C089A04200D80024E3
:406D00000020B877FF276F772F77A87702460146009800F079FD717DFF2903D0304600F0E4FF777501F052FB0025114F19E00320B877F8BD00200090224669463046FEF793
:406D4000FDFE0099002904D0FF231A463046FEF7A8F9641CF889E4B2A04200D800246D1CEDB2F889A842E5D8F8BD0000141600200017002010B502460021084B03E000296C
:406D800001D0002000E018460479944204D0491C0906090EF3D0002010BD00003416002000B50120FFF7E6FF00BD10B5044601F0BBFE218901808034616841606168283146
:406DC000816002F0B1FC10BDF7B50646087982B00C46092807D0A078F0770846FFF73AFE012806D010E030460AF0BCFD022005B0F0BDA1789020294A484380186030007F3C
:406E0000FEF722F9012810D0A078FEF7D7FD01280BD037780121304601F084FA25462035062F38D00B2F0FD107E06846027C21463046FEF7B3FE0D20D9E72046FDF72CFF7F
:406E4000012801D1002028772046FFF779FA054604AA21463046FEF710FD01205F2108556946097C002001910090A07833463A46294600F007FB69460A7CA07803232946E9
:406E800000F048FEA0782946FDF728FD30460AF069FD0020ABE70120D5E700001416002010B502464032937F0021002B03D1927E002A00D00121064A927A002A00D00021F9
:406EC0000279092A00D10121807800F065FE10BDE416002070B50C460546FDF7DDFE00280BD1012C06D92879092806D02846FFF7C5FD0446002C02D004E0012402E0A87DF8
:406F0000C007FAD1A87DC107C90F204600F024FE70BD0000012807D0082804D104480282034808300180704701488038FAE70000A0102E40014908817047000000102E40BD
:406F400010B50446FF20F130012C01D1FF20D530002200F053FE044A108A044980B2A0430880108210BD000000102E40DA0D0020034B198A034A89B2814311801982704766
:406F800000102E40DA0D002010B50446012802D0082C07D102E0FF20D53001E0FF20F13000F024FE0348018A034A89B221431180018210BD00102E40DA0D0020034B198AE4
:406FC000034A89B2014311801982704700102E40DA0D0020F8B505460120A84086B214460F46012231467C2000F008FE3A463146782000F003FE6078267800020643E078B0
:40700000A2780002024360792379000203430C2045430D2080010549281844182680001D44182280001D40180380F8BD00102E40401880B270470000CB065B0E03434809E8
:4070400001021943D00108430121C902084301490881704780142E404278037812021343084A1382C37880781B021843908248780B78000203431383C878897800020143E6
:407080009183704700142E40024A1080000C90801181704700142E40044A002180180288491C89B21029FAD37047000000102E40024A10820148803081817047A0102E40A6
:4070C0007047000010B5054A1082084600F0BAFD024A0021A03A8018018010BDA0102E4010B50B46044600F005F819462046FFF7DFFF10BD024A1082014880300181704730
:40710000A0102E4010B504490882FF20002220211D3000F073FD10BDA0102E400149088070470000C0102E40000202494D3008807047000000102E400249888A04229043D7
:4071400088827047C0112E4010B5084B074C0202A03B0029208202D075321A8010BD04490020088088807632F7E70000A0102E40201A2E4000B5034908884880FFF7F8FE8C
:4071800000BD0000DA0D002010B50120FDF75CFB01495020088010BD00102E4006490E220028888806D01043888003495120C039088070479043F7E7C0102E4000B5024882
:4071C0004088FFF7FBFE00BDDA0D002010B5FCF735FC10BD014952200880704700102E40884201D8081A03E00022D243101A401880B27047002101707047000007488088FB
:4072000006492039098B884201D8081A03E00022D243101A401880B27047000020112E400148008AC0B27047A0102E4070B5084C049D2082074804890548603006880E807E
