:400000000080002011000000B1050000B105000008B500F0EDFAC04638B512222E4B1A6000F02AFF2D4801F057FB012000F044FF302000F03BFE2A4A2A4B1A602A4C8025D9
:40004000ED052560294A116802230B431360284A284B1A600022284B1A60284A136808218B431360FA20C00000F0D2FE244800F013FE244A244B1A60244B25491960254950
:400080000A60254A1A60C621C901244A1160244A1A60D0214902234A1160234A1A6080221206224B1A608022D202214B1A604222204B1A600132204B1A60033A1F4B1A60F5
:4000C00001321F4B1A6008201E4900F0BBFD082000F0ACFD256038BD30001040001BB7000600008004010B400C020B4078002E402D3E00007C002E4064F02E406CF02E402F
:40010000DC050000007FBB00080301400000014042FF00800C03014043FF00800003014040FF00800403014041FF008008010B4000010B402C010140200101401C0101406B
:4001400004010140D10F000010B572B60022384B1A600132374B1A70002410E0364863001A195200821891881B195B001A5AC31858880004104300F0B3FA0134E4B2012C37
:40018000ECD92D49081C0C30303100F07FFAEE2212062A4B1A6099231B04294A13600321284A1160022228490A6028490B6028490B6028490B60802040022749086027493E
:4001C0000B6080218902264B1960264B1A60264B1A60264B1A60264B19780A431A70254802783C218A4328390A430270197816220A431A70D82212041F4B1A6020231F4A73
:400200001360C42189021E4A11601E4A136041221D4B1A601D4A1E4B1A6001221D4B1A601D4A1E4B1A60FFF7F7FE00F049FA10BD6CF02E401C700F40D83D01000000024061
:4002400000010240000202400003024000500F4010500F4020500F4028500F4030500F4038500F403C500F402000104000800F4000700F4001700F4008000440000104400E
:400280000801044018010440000204400600180008020440000304400200C0000803044010B5064C2378002B07D1054B002B02D0044800E000BF0123237010BD6810002081
:4002C00000000000B43D010008B5084B002B03D00748084900E000BF07480368002B00D108BD064B002BFBD09847F9E700000000B43D01006C100020A80B002000000000DD
:4003000008B50122024B1A60012000F029FF08BDCC21002000B585B0074B1B78022B09D101A80C3303810D3B83800021034A00230EF004FE05B000BD1022002018220020CF
:4003400000B585B000F0EAF9434243416A46D3700332084B1B78022B0AD101A80C3303810192012383800021034A00230EF0E6FD05B000BD102200201822002000B585B001
:40038000144B1B78022B23D101A80F330381124B0193022383800021104A00230EF0CEFD0F4B1B68002B0ED00B4B1B880D4A12889BB2934207D0094A13785078000218436F
:4003C00001A90DF051FF044B1B889BB2054A138005B000BD10220020D021002018220020D4210020D221002038B50C1C282808D002D8012805D079E041280ED04C2816D07F
:4004000074E000233A4A13603A4A1360002000F003FA002000F06AF968E0FFF77BFFFFF78FFFFFF7ABFF012000F060F95EE08B89152B2CD1081D00212F4A2B330EF07EFD6C
:40044000002824D163681B78052B19D89B002B4AD3589F462A4800F01DFE11E0294800F019FE0DE0284800F015FE274800F012FE06E0264800F00EFE02E0254800F00AFE74
:400480001D4A13785078000218430DF043FFA3890E2B15D1201D0021174A32330EF04EFD00280DD163681B7858425841C0B200F029F9114A13785078000218430DF02AFFE2
:4004C000A389122B12D1201D0B4D00212A1C2E330EF034FD63681B7801221340044A13602B786878000218430DF014FF38BDC046D4210020D821002018220020B83D010026
:400500009A100000FE10000062110000C61100002A12000000B583B062B61F4800F04EFE00F00EFE01F054F800F07AFF01221B4B1A6000221A4B1A801A4800F015F9002094
:4005400000F0A8FD154B1B68012B04D10022134B1A6000F0BFFE144B1B78002B15D000F0D5FE002000F050FF80B20D4B18801A8892B268460D4901F0BFFB684601F0A0F849
:40058000FFF7FCFE0122054B1A6001F0E9FF032001F0DEFFD6E7C04601030000CC210020D0210020E9030000FC210020D03D010008B501F055FB03680C2B00D1FEE7FEE73D
:4005C00008B5031C084A1068C318084A9A1A802A02DC054A136005E001F042FB0C2303600120404208BDC046AC0B00202822002070B50F4E0F4D13E029686B68AC6800226B
:4006000002E001C901C30432A242FAD1E868002202E0002102C304328242FAD11035013E002EE9D101F022FBFFF774FFFEE7C04601000000C042010008B50F4A13680121E1
:400640008B43136000230AE0032B03D89A000B49505800E00A4899000A4A885001332F2BF2D9FFF771FD0022074B1A60024A116801230B43136008BD00001040000000002C
:40068000B105000000000020C0000020F0B50025002711E0BB00C658F3B2FF22964308E06A008A181478A419527822700135013BDBB2002BF4D10137082FEBD9F0BDC046BC
:4006C0000323044A1360044A13600022034B1A607047C0463000304030003140000E3F4008B50A1C002101F0FFFA08BD044A11687F230B40C001C0B2184310607047C046BB
:400700000003044004490A68BF231A4080017F3B184010430860704700020440024B18684006C00F7047C0460402044008B500F073FA08BD10B50024064B1C70064B1C70C1
:40074000064B1C70FFF7F2FF054B1C70054B1C7010BDC0461B220020142200201A220020002200200822002010B590B0041C0BA82049142201F0AFFA20231F4AD35C002B78
:4007800005D1FFF7D7FF012120231B4AD154002C2DD01A4B1C6008A805AA426006AB0893002101811B311980598017391971082313701231694401F0AFFF002818D10523A0
:4007C00000930F4B01930F4B02930F480F49AE2212010BAB01F0F6FE002809D101220C4B1A700C4816210A320EF090FB00E0012010B010BD843F01008410002004220020BA
:40080000004B01007902000071090000C800002010220020983F010008B502282ED81B4B1B78042B2CD11A4B1B785B072BD4002809D1184B00221A862032596A0A805B6A6F
:4008400010325A800CE001280AD1124B96221A86C822D200596A0A805B6A8022D2015A800D4B18700B4820300CF074FB00280CD1074A117804230B43137006E0012004E0EA
:400880000420FF3001E00420FF3008BD102200201B220020B00B00201A2200207047C04603784078000218437047C04638B583890B2B20D1041C04300021221C35330EF0C3
:4008C0003DFB051E11D16068FFF7EAFF830706D50A4B1B6882204000211C984705E0074B1B680620FF30211C9847054A137801218B43137000E00025281C38BD04220020DD
:400900001B220020024B00225A701A707047C0461822002010B582B0041CFFF7C7FF0A4B1B78DB070ED4002809D001A912238B70A3890B80C87020680DF058FC02E02068F4
:400940000DF0E8FC02B010BD1B2200208379002B07D000200BE0C25C002A07D10133DBB200E00023052BF6D9002000E001207047F0B583B0041C0D1C954A117801230B43FB
:400980001370272800D1B9E012D8062800D17EE004D8012821D0052875D007E1242800D1A8E0262800D1B1E0212800D0FEE082E0422800D1E6E006D8282800D1A2E04128CB
:4009C00000D1CBE0F2E04C2800D1E6E0FA2800D1E7E0432800D0E9E0D7E001AE0727377000237370301C03F001FE377001237370301C03F0FBFD774B1E68301CFFF7A6FF4D
:400A000000280CD0301C01F0AFFD724E30680021FFF744FF30680121FFF740FF25E06E4B1B786E4A12783F210A4092010B4013436B4A127820390A4012031343694A12782D
:400A400060310A4052041343674E33701A0A72701B0CB370301C01F087FD301C0021FFF71DFF301C0121FFF719FF00200CF006F901A83F230370002343700CF01DF90422E4
:400A80005A4B1A7092E02A78594B1A708EE02B78002B00D08AE06B78002B06D1554B0022DA809A80544A1A606B60494A137801218B4313707AE0464B1B789B0676D44F4BBD
:400AC0001B78102B02D105224C4BDA704C4B18784A490CF0FDF901AB1880002804D0494B1B68362001A99847394A117801230B4313705BE06A78444B1A7057E002223B4B53
:400B00001A7053E00422394B1A704FE0374B1B78022B4BD02E4A1278D20747D52C4A1278520708D50322314B1A70294A137804218B4313703AE0264A1278120708D504223C
:400B40002A4B1A70224A137808218B4313702DE0032B2BD10422254B1A7027E0284E301C291C022201F0B7F80022214B1A7031789E318900254B591801312548043201F01C
:400B8000AAF813E0FFF7BEFE10E06988162900D9172128880DF034FB08E0281CFFF7BAFE04E01C4A117801230B431370084B1A7811231A4209D0064A137801218B431370A3
:400BC000104B1B68201C291C984703B0F0BDC0461B220020E40B00207CF2FF0F7DF2FF0F7BF2FF0F78F2FF0FE80B00201022002014220020A8100020A80B0020B80C0020AF
:400C0000182200200422002008220020004B01000C220020002200207047C046024B1B68012018407047C0460C002E401F2318401E3B8340181C014B1860704700E100E08B
:400C400001BE704738B5041C0D1C1F2802D90020FFF7F6FFA400034B9C4664442068256038BDC0464000002010B5041C06E0084B586800F031FD074B9C46644480231B021F
:400C80009C42F4D8024B9868604300F025FD10BDC00C00200080FFFF08B5034B1B7B584300F01AFD08BDC046C00C0020F0B557464E46C0B483B0041C00F017FD0190E71E20
:400CC0002D2F74D83F4B1B78DBB2A34208D33E4B1B78DBB29A463D4B1B78DBB2994631E03B4B1B78DBB2A34208D33A4B1B78DBB29A46394B1B78DBB2994623E0374B1B783B
:400D0000DBB2A34208D3364B1B78DBB29A46354B1B78DBB2994615E0334B1B78DBB2A34208D3324B1B78DBB29A46314B1B78DBB2994607E02F4B1B78DBB29A462E4B1B78AE
:400D4000DBB299462D4BDE5D2F2E09D92A2C07D919222B4B1A60052000F0BEFC192503E0274B1D683F231D40AE4206D2234BDA5D234B1A60052000F0AFFC1F4B9C46644405
:400D80002378DBB21F4A13601F4B52461A601F4B4A461A600520FFF77FFFAE420AD9174BDA5D174B1A60052000F096FC02E00020FFF746FF019800F09CFC03B00CBC914607
:400DC0009A46F0BD40F3FF0F41F3FF0F42F3FF0F43F3FF0F44F3FF0F45F3FF0F46F3FF0F47F3FF0F48F3FF0F49F3FF0F4AF3FF0F4BF3FF0F4CF3FF0F4DF3FF0F98410100A3
:400E00002CFF0B4028FF0B401CFF0B4020FF0B4010B5041C0F4A116801230B4313600E4A0E4B1A600E4A1368802109020B431360002809D100200CE00120FFF72DFFFFF7AC
:400E4000EDFE002804D1013C002CF5D1102000E0002010BD60F02E400220000078002E4010002E40034B1868C0231B02184000D00120704700010B4010B50D4B1A6801213F
:400E80008A431A601A68022082431A60094A10683024A043203C204310601068093CA043014311601A68802109060A431A6010BD00F02E4000FF2E4038B51D4B1B680124F4
:400EC0001C40002802D0012816D02BE0184B19680122914319601968022081431960154B19682E3081432038014319601968093881430A431A6018E00D4B1A6802218A4327
:400F00001A600C4A10680725A84301431160116830208143103801431160196801220A431A6002E00020FFF78BFE201C38BDC04600F02E4000FF2E4008B500F0D6FB044A59
:400F40001368C02109020B43136000F0D2FB08BD00010B4010B500F0C8FB08490A68084B1A408024E40122430A600A6813408022120213430B6000F0BCFB10BD00010B403F
:400F8000FF3FFFFF70B5061C00F0AFFB041CFFF769FF002803D0FFF7DDFF012500E000250848331C0340084A106808490840184310601368012D01D1FFF7BEFF201C00F034
:400FC00098FB70BD0404040010020B40FBFBFBFF10B5244B1B685B0715D5234B5B685B070ED5224B596A042001401F4C62688A4362605A6A82435A629B69002B00D09847E3
:401000000420FFF7BFFF174B1B685B0518D5164B5B685B0510D5154B596A8022D2001140114842688A434260596A114A0A405A62DB69002B00D098478020C000FFF7A2FFAA
:40104000084B1B685B030CD5074B5B685B0304D5064B1B6A002B00D098478020C002FFF791FF10BD10020B40D40C0020B0100020FFFBFFFF0004000C014B18607047C046E4
:40108000080120400004000C014B18607047C046140120400004000C014B18607047C0460C01204038B5041C0D1C00F01EFBAC40024B1C6000F01DFB38BDC0460800204064
:4010C00008B500F012FB064A116801230B43136000F00FFB01201821FFF7E4FF08BDC04600002040014B18607047C0463801204010B50F4C8023DB04236023688022920230
:40110000134323600120FFF7B5FF236823600C22084B1A600120FFF7E5FF1222064B1A6096204001FFF7AEFF0448FFF7B3FF10BD000120402401204028012040A811000085
:4011400008B5064B1B78002B04D1FFF7D1FF0122024B1A70FFF7B4FF08BDC046D8100020014B18607047C046700120408823014AD05070470000002010B5041C00F0B5FACF
:40118000044A1168044B0B40A4051C43146000F0B0FA10BD10E400E0FFFF3FFF8022D202014B1A607047C04600E100E08022D202014B1A607047C04680E100E010B5041C02
:4011C000FFF7F4FF201CFFF7D1FF0320FFF7D4FFFFF7E4FF10BDC0460122014B1A707047FC21002008B51420FFF756FDFF2000F09DF9002000F028F90A20FFF74DFD0120E4
:4012000000F022F90520FFF747FD002000F08EF9002000F019F900F01DF908BD10B5041C1420FFF739FD002000F00EF9002C03D13220FFF731FD02E00A20FFF72DFD0120A1
:4012400000F002F910BDC04638B5051CFF2000F06DF9002407E02B1C234101201840FFF7DDFF0134E4B2072CF5D938BD10B5002408E0A3001548C0181549042200F02BFD26
:401280000134E4B2072CF4D9002000F0DDF8FF2000F04CF9F0204000FFF7FEFC012000F0D3F80520FFF7F8FC002000F03FF9002000F0CAF83720FFF7EFFC00F0CBF8041CDA
:4012C000C820FFF7E9FCE043C0B210BDDC210020C841010008B5FFF7C9FF031E094A107003D10121084A11700AE0CC20FFF7ACFF4420FFF7A9FF012000F01EF9014B1B78EA
:40130000181C08BD1C220020FC21002070B588B0002300930193029303930493059306930793344B1D78EDB2002D60D000221A70314B1D78002D5AD0FFF798FF051E2E4B98
:40134000187054D0002308E0291C19419A00012001406A4491700133DBB2002BF4D0CC20FFF772FFBE20FFF76FFF002419E0FFF739FF002311E09A006A449278002A0AD072
:40138000021C1A4101210A40A24099006E468E5B32436E468A530133DBB2002BEBD00134E4B20B2CE3D900241FE0211CA3006B449B78002B0CD0A3006A469B5A0F4A934283
:4013C0000AD9A2000E48844663446846135203E0A3000B4A68461A5289000A4840186944042200F078FC0134E4B2072CDDD9281C08B070BDFC2100201C220020FF070000B1
:4014000000F0FFFFDC2100208000044B185E642358430830000900B27047C046DC21002008B5064800F0B2F8054800F039F800F06DF80022034B1A7008BDC046D911000056
:40144000EE020000FC210020014B18707047C04670000F40014B1878C0B2704763000F40024A117880230B431370704772000F40014B18707047C04682000F40014B187839
:40148000C0B2704762000F40014B18807047C04644100F40014B188880B2704784100F40014B18807047C04604100F40024A117810230B431370704772000F4008B501E063
:4014C000FFF7E8FFFFF7DAFF0307F9D408BDC04610B50C4C201CFFF7D7FF201CFFF7E0FF00F003F9084A117810230B43137000F000F9FFF7DBFFFFF7E1FF0020FFF7B8FF41
:4015000010BDC046ED02000092000F4008B5064B1B78002B04D1FFF7DBFF0122024B1A70FFF79EFF08BDC046D9100020014B18707047C04673000F40014B18707047C04652
:4015400071000F40014B58647047C0460000002010B5041C00F0C9F8044A1168044B0B40A4031C43146000F0C4F810BD00E400E0FF3FFFFF0222014B1A60704700E100E07A
:401580000222014B1A60704780E100E010B5041CFFF7F6FF201CFFF7D5FF0320FFF7D8FFFFF7E8FF10BDC04608B500F073F808BD08B500F01DF808BD08B5044A1368802148
:4015C00009060B431360FFF7EFFF08BD0000244008B5064B1B78002B04D1FFF7E9FF0122024B1A70FFF7E8FF08BDC046DA10002010B5154A154B1A600023154A13600121CE
:40160000144A1160144A15480260072414480460144803601448016014490A60144A13600421144A1160144A1360144A1360144A1360144A1360144A1360144A136012686B
:40164000134B1A8010BDC0460B0000020000244040002440480024400700008000032440040324401003244044002440000224400402244050002440880E2440C80E2440AE
:40168000480F2440080F2440C80F2440880F2440DC100020064A1168064B0B40902109040B431360044B1A88044B1A607047C04600010240FFFF0FFFDC100020880F244001
:4016C00038B5051C002402E000F016F80134285D0028F9D138BDC0460230800803D00138FDD1C046C046C0467047EFF3108072B6704780F310887047044B1B681F2213405B
:40170000082BF9D0024B18607047C04608022440400224400160704701607047324B1A781202324B1B781A43314B1B781B02314909780B4330498B4201D1072A06D0D421CE
:4017400009018B4206D1042A04D102E02B4B042200E02A4B2A490B602A4B1A602A4B1B781B022A4A1278134380229201934202D0002B02D002E0264B00E0254B254A136041
:40178000254B1B781B02254A12781343244A934205D0244A934204D0052B05D103E0224B02E0214B00E0204B204A1360204B1B681B09204A1268AA2A15D1012B13D9164B96
:4017C0001B780E2B0FD11C4B1B781B021B4A127813431B4A13601B4B1B781B021A4A127813431A4A1360704759F1FF0F58F1FF0F5FF1FF0F5EF1FF0F580B0000580D0000EF
:401800006C002E4074002E405BF1FF0F5AF1FF0F0220000078002E405DF1FF0F5CF1FF0F0F0F000005050000050F000080002E40EC0F00F0E00F00F06DF2FF0F6CF2FF0FAD
:4018400084002E406FF2FF0F6EF2FF0F94002E4008B5FFF721FA08BD08B5FFF705FA08BD08B500F04BF808BD08B500F04FF808BD08B500F04BF8034800F02AF8032000F0BF
:401880002DF808BD5519000008B5024800F046F808BDC0465519000000487047020200002B2070472B2070472B2070472B2070472B2070472B2070472B2070472B2070474F
:4018C0002B2070472B2070472B2070477047C046014B18677047C0460000002010B5041CFFF703FF044A1368C0218B43A4011C431460FFF7FEFE10BD0CE400E0802252012C
:40190000014B1A607047C04600E100E080225201014B1A607047C04680E100E010B5041CFFF7F4FF201CFFF7D3FF0320FFF7D6FFFFF7E4FF10BDC04608B5FFF7D6FE044A69
:40194000136804218B43136030BFFFF7D2FE08BD10ED00E008B512F019FA08BD002243088B4274D303098B425FD3030A8B4244D3030B8B4228D3030C8B420DD3FF2209025D
:4019800012BA030C8B4202D31212090265D0030B8B4219D300E0090AC30B8B4201D3CB03C01A5241830B8B4201D38B03C01A5241430B8B4201D34B03C01A5241030B8B4233
:4019C00001D30B03C01A5241C30A8B4201D3CB02C01A5241830A8B4201D38B02C01A5241430A8B4201D34B02C01A5241030A8B4201D30B02C01A5241CDD2C3098B4201D3EC
:401A0000CB01C01A524183098B4201D38B01C01A524143098B4201D34B01C01A524103098B4201D30B01C01A5241C3088B4201D3CB00C01A524183088B4201D38B00C01A46
:401A4000524143088B4201D34B00C01A5241411A00D20146524110467047FFE701B5002000F0FCF802BDC0460029F7D003B5FFF775FF0EBC4243891A1847C04603460B43B6
:401A80007FD4002243088B4274D303098B425FD3030A8B4244D3030B8B4228D3030C8B420DD3FF22090212BA030C8B4202D31212090265D0030B8B4219D300E0090AC30B2F
:401AC0008B4201D3CB03C01A5241830B8B4201D38B03C01A5241430B8B4201D34B03C01A5241030B8B4201D30B03C01A5241C30A8B4201D3CB02C01A5241830A8B4201D336
:401B00008B02C01A5241430A8B4201D34B02C01A5241030A8B4201D30B02C01A5241CDD2C3098B4201D3CB01C01A524183098B4201D38B01C01A524143098B4201D34B0137
:401B4000C01A524103098B4201D30B01C01A5241C3088B4201D3CB00C01A524183088B4201D38B00C01A524143088B4201D34B00C01A5241411A00D2014652411046704752
:401B80005DE0CA0F00D04942031000D34042534000229C4603098B422DD3030A8B4212D3FC22890112BA030A8B420CD3890192118B4208D3890192118B4204D389013AD0B6
:401BC000921100E08909C3098B4201D3CB01C01A524183098B4201D38B01C01A524143098B4201D34B01C01A524103098B4201D30B01C01A5241C3088B4201D3CB00C01A27
:401C0000524183088B4201D38B00C01A5241D9D243088B4201D34B00C01A5241411A00D20146634652415B10104601D34042002B00D54942704763465B1000D3404201B576
:401C4000002000F00BF802BD0029F8D003B5FFF715FF0EBC4243891A1847C0467047C046014B18687047C046601000200E4B70B500251E1C0D4CE41AA410A54204D0AB0064
:401C8000F35898470135F8E712F008FB084B00251E1C084CE41AA410A54204D0AB00F35898470135F8E770BDA8420100A8420100A8420100B042010030B50024944208D0EB
:401CC000035D651C0C5DA34201D0181B02E02C1CF4E7002030BD002310B5934203D0CC5CC4540133F9E710BD031C8218934202D019700133FAE770470EB410B59DB002A9BA
:401D0000029008610B48822488604861012040421FABC881084804CBA400006801938C8100F06CF80023029A13701DB010BC08BC03B01847FFFFFF7F60100020F0B58E68F0
:401D400085B0071C0C1C03920193B34245D390238A89DB001A423DD003250969236801985B1A029363695D43EB0F5D19029B6D1001331B189D4200D21D1C381C53050FD504
:401D8000291C00F01DFB061E13D0029A2169FFF7A2FFA289184B134080221343A38111E02A1C00F065FB061E0CD1381C216900F0C1FA0C23402201203B60A38940421343B3
:401DC000A38117E0029B2661F61826606561019EED1AA560019BB34200D2019E321C2068039900F092FA0020A3689B1BA36023689E19266005B0F0BD7FFBFFFFF0B59FB035
:401E0000029005938B890E1C171C1B0610D50B69002B0DD1402100F0D3FA30603061002804D10C23029A01381360D0E040237361002306AD6B6120336B761033AB763C1C58
:401E40002378002B03D1E31B049312D003E0252BF9D00134F4E7049B0298311C3A1CFFF76DFF431C00D1ACE06A69049B944663446B612378002B00D1A3E001220023524298
:401E80006A6002A95432521801342B60EB60AB601370AB654F4F2178381C052200F02AFA002808D0C01B01278740381C2B68013418432860EEE72B68DA0604D553222021AE
:401EC00002A8121811701A0704D553222B2102A81218117022782A2A01D0099B0EE0059A111D12680591002A01DB099204E05242EA60022213432B60013409E02278303AC5
:401F0000092A04D80A214B4301349B18F6E7099323782E2B18D163782A2B09D1059B02341A1D1B680592002B0DDA01235B420AE0002301342278303A092A04D80A214B4389
:401F400001349B18F6E70793234F2178381C032200F0D0F9002807D0C01B40278740381C2B6801341843286021781C480622671C297600F0BFF9002812D0194B002B06D15F
:401F80000722059B073393430833059314E005AB00930298291C321C124B00E000BF07E005AB00930298291C321C0E4B00F08AF80390039B013304D06B69039A9B186B61CA
:401FC0003DE7B3890B985B0601D5012040421FB0F0BDC046664201006C42010070420100000000003D1D0000F7B5171C01930A698B6800900C1C934200DA131C221C3B60D5
:4020000043321278002A01D001333B6023689B0602D53B6802333B60062523681D401ED0231C43331B785A1E9341226892061CD53020E1184031C870211C5A1C453109781D
:40204000A21840320233D1700FE0221C0123009801991932089EB047431C0ED00135E3683A689B1A9D42F0DBDAE7221C009801994332089DA847431C02D10120404220E085
:4020800006232068E1683A6803400025042B03D18D1AEB43DB171D40A3682269934201DD9B1AED180027AF420ADA221C0123009801991A32089EB047431CDED00137F2E75B
:4020C0000020FEBDF0B58BB006920A1C43320793059004920A7E0C1C109B6E2A00D1A8E011D8632A22D009D8002A00D1B2E0582A00D0C2E045310A707C4A4FE0642A1DD0B7
:40210000692A1BD0B9E0732A00D1A7E009D86F2A29D0702A00D0B0E0202209680A43226037E0752A1FD0782A33D0A6E00E1C1A684236111D196013683370A1E021681A685F
:40214000080606D4490604D5111D19600023D55E02E0111D19601568002D3BDA2D23049A6D42137036E021681A68080606D4490604D51568111D1960ADB202E0111D1960AD
:4021800015685A4B227E03930A276F2A1DD108271BE0221C782145321170554A19680392081D226818600D68100602D4500600D5ADB2D30702D520231A4322601027002D18
:4021C00003D1202322689A432260231C002243331A7002E00A27454B03936368A360002B03DB0422216891432160002D02D1049E002B0ED0049E281C391CFFF735FC039BBF
:40220000013E5B5C281C3370391CFFF7A7FB051EF1D1082F09D12368DB0706D563682269934202DC3023013E3370049B9B1B23612BE009681A68080607D4490605D5111D41
:4022400019601368A28A1A8004E0111D1960136862691A600023049E236116E01A68111D196016680021301C626800F043F8002801D0801B6060636803E0261C42363270B3
:40228000012323610023049A1370079B05980093211C069B09AAFFF7A7FE431C02D10120404221E0236905980699321C079DA847431CF4D023689B0705D4099BE0689842C6
:4022C00012DA181C10E00025E368099A9B1A9D42F3DA221C0123059806991932079EB047431CDCD00135EFE70BB0F0BD7742010088420100C9B28218904204D003788B42CE
:4023000002D00130F8E70020704710B5814208D28B18984205D29B1A013A09D3995C8154FAE70023934203D0CC5CC4540133F9E710BD000030B500293ED004390B68002BD4
:4023400000DAC9181D4A1368141C002B02D14B60116031E099420DD208680A189A4203D11368C3180B6053684B60216024E08A4203D8131C5A68002AF9D11D685C198C4269
:402380000BD10968691858181960904214D110685268091819605A600EE08C4202D90C23036009E008680C18944203D114685268001908604A60596030BDC046C8210020C3
:4023C000032370B5CC1C9C430834051C0C2C01D20C2405E0002C03DA0C2300202B6042E08C42F9D3204A1368101C191C002913D00A68121B0DD40B2A02D90A608B181FE0C1
:402400008B4202D15A6802601BE04A685A600B1C17E00B1C4968E9E7144E3368002B03D1281C00F04BF83060281C211C00F046F8031C421CD0D00322C61C964386420AD159
:402440001C60181C07210B301A1D8843821A0AD05142995007E0311A281C00F02FF8431CBAD0331CECE770BDC8210020C4210020F8B5061C0C1C151C002904D1111CFFF739
:402480009FFF041C18E0002A03D1FFF753FF2C1C12E000F025F8A8420ED2301C291CFFF78FFF071E07D0211C2A1CFFF714FC301C211CFFF73FFF3C1C201CF8BD38B500235F
:4024C000064C051C081C2360FEF77AF8431C03D12368002B00D02B6038BDC046202200200B1F1A68101F002A04DA891804390B68D018043870470000134A1088810703D05B
:402500008107890F401A001D11791030484381B25088820703D08207920F801A001D800040180A494030098980B2CA0701D0503080B2890706D504495422091F0978514349
:40254000081880B270470000E20C0020EC10002010B501F053FF10BD10B501F065FF10BD10B500F055FA10BD10B50749044609780220002907D1204601F0AEFF002802D199
:4025800020460AF08BFC10BD800E002070B504460120002C12D02368002B0FD0616800290CD0074D06222889208118462968FFF792FB6968606809780170002070BD0000A0
:4025C000EC100020FFB585B0002768460E9D07734F481C460078002802D0082009B0F0BD10990F9801900095029105A807C800F001F90028F2D16946264603AB844608737B
:40260000002C19D0002115E08A00B75A082F09D990198078002805D0083FB7521878401C187005E0002914D00027B75290198770491CC9B2A942E7D360460028CED10F98FE
:40264000002809D0109901F089FA002804D00120C4E701208446EFE701F0E6FE2D480021416081600599016021888180022D07D3A1798171A17AC171A1890181218A4181A2
:4026800000211EE0481C19E082008B00A75AE65ABE46BE4211D26F463E80B4461E190296B678BE7001967646E6521719029EBB78B3706646A652019EBE70401CA842E3D3B3
:4026C000491CA942DED3134822460C3000906846037B0799069800F015F90028B8D168460B4C007B60700B480C3001F0CDFE0028AED1084907480C3107F070FC0028A7D10F
:4027000007F08AFC0028A3D10121217066E70000DC0C0020E0100020F8B5054633480E460078002802D002242046F8BD002E5BD000242F49002D16D02A89D0070DD02868EF
:40274000002808D003881B3BE12B04D24088FB2801D81B2801D2012409E0900707D56868002804D1F7E70020088108604860002CDAD11F482F8907811C481B21801D01809B
:4027800041800421017119490020891C0870F80705D016480622801D2968FFF79CFA1449B80703D56A681148127882700F480D46801D0860001F486001F0B4FE0B48801D6A
:4027C00001F0A2FE28890DF0ADFC28890DF014FE03461033FFF790FE1F21C018890140180249308088809FE701249DE7DC0C0020EC100020FFB58446384F1C460020BB8807
:402800003F78054602460646002F11D100290ED0029999420BD36146002908D0002C06D00A99002906D02E4B0B99994202D2012004B0F0BD002144E0AB001F19BF78002F6E
:402840003BD0E35A002B38D07B43591889B22B0000F04AF8050410161C253100A7782388BC46FF27233BEB37BB4222D26346032B1FD322E0A388002B1FD0302B19D31CE0BF
:402880002389002B19D0282B13D316E0A289002A13D01346134F233BBB420AD20DE0268A002A0AD033460F4F233BBB4201D2964203D901200EE0002001E000280AD16D1C09
:4028C000EDB2099B9D42B7D31C2463435B1802998B42ACD89642AAD8AAE70000DC0C002079020000BAFF000030B47446641E2578641CAB4200D21D46635D5B00E31830BC5F
:4029000018470000FFB583B0002469460C801F4606468C80002806D00598002803D004983043800701D0012466E0002FFBD03449049809888842F6D3FEF7A6FFFEF794FF74
:4029400000F012FC002855D100F07AFD002851D12C49084601F036F905042D0C4AD12A480499066081800021C18007810C98007AC00704D0684601F070FD040007D10C9875
:40298000007A800703D501A801F070FD0446BF1DFEB2002C20D13146059800F05DF804001AD10DF037FD040016D16A461088928808368518144AF1B29088D288AEB2931924
:4029C000984207D3401B801A80B201F0EBFB050007D000E0FF25012400F05EFA002D04D008E0F8B200F01CF9F6E700F081FA07490120087000F0CAFB204607B0F0BD000090
:402A0000E00C0020452B0000F8100020E80C002010B503480078012801D101F065FA10BDE80C002070B5084B0446DA889E8800205518B54206D81D68AA182260DA885118EA
:402A4000D98070BD032070BDF81000200148008970470000F8100020F0B587B007460D4600208900009006916846FFF7DBFF844600285DD1304800990160002117E02E4BBA
:402A800088001A680629115406D22C4C0419667882185670628805E0C419203CA67A8218567022891B68C018491C4280C9B2A942E5D300242DE0601CC2B2059025E01E4FD2
:402AC000A30039689600581840887118039604904E88B04217D938466F46FE80B6464F786E4677710297049F4F800168039F5E18767879184E700168764659184E800068B1
:402B0000029F18184770521CD2B2AA42D7D30598C4B2AC42CFD36046002809D168460699FFF780FF8446002802D1054900980860604607B0F0BD0000EC0C0020D042010030
:402B4000F00C00207047000010B5002809D005494A68002A05D0011F08788000105801F0CFFA10BDEC0C002010B50446FFF76EFFC0B2801DA0420CD307484068002808D05D
:402B8000A100405801F02EFA002801D00470001D10BD002010BD0000EC0C0020F8B516460D460446FFF752FFC0B2801DA04203D20020C0430090F8BDB2B2E9B2684601F0AE
:402BC00037FA0099481C03D0024AA000526811500098F8BDEC0C0020F8B50746FFF736FF801DC6B20A49002005460C680DE06178002907D06188B94202D32078FFF7B4FF3C
:402C0000002804D1241D6D1CEDB2B542EFD3F8BDEC0C002010B5002801D0FFF795FF10BD70B506460948002504680BE06178002905D062882078121D0023FFF7AFFF241DC5
:402C40006D1CEDB2B542F1D370BD0000EC0C0020FFB581B00A9F16000C4620D000F0F2F8054604281BD0002F0CD03846FFF7B4FF20492A0151184860002810D03A4604990E
:402C8000FFF729F81B4928010E504618778101980570200406D47D20C000444304E0FF2005B0F0BD6404640C00F0BAF80746042807D000F04FFAA0420BD800F04BFA201A30
:402CC00003E0204600F0AAFA0020F06035720020E6E700F03FFA009000F0B6FA00980121001B009000F0ECF802493A0151180098C860E6E704110020F8B506011648341852
:402D0000217A042903D0E068002802D017E00020F8BD00F01FFA054600F096FA00F0A0F804280CD001010C480F18F8680021451900F0C6F80020F860284600F06FFA606875
:402D4000054D002801D0FFF765FF042020720020A8516081E060DAE704110020FEB500266A46304601232549050169180D7A042D02D0C96800291BD000211154401CC0B28D
:402D80000428F0D300246846005D002830D01B48210108184189476805680291002101604160042241810272C160002E02D015E01354E3E700F054F804280ED001010F484A
:402DC00008180190C6680021304600F079F801980021C160304600F021FA0126002D07D038460299A847002F02D03846FFF712FF641CE4B2042CC6D3FEBD00000411002018
:402E00000EB5002005216A460090118150810348694600680EF063F90EBD0000F40C0020074A0020010189180B7A042B02D0C968002903D0401CC0B20428F3D37047000001
:402E4000041100200549002002015218127A042A03D0401CC0B20428F6D370470411002030B50A4B04200A4C00210A011219157A042D06D0D268002A03D09A4201D808462B
:402E80001346491CC9B20429EFD330BDFFFF0000041100207047000030B50020074C05460423020111190B72A5504D60401C4D81C0B2CD600428F4D330BD0000041100201F
:402EC00030B5094C00231A011219157A042D04D0D568002906D02D18D5605B1CDBB2042BF1D330BD2D1AF7E704110020002070471CB5002469460C70142001902346054A33
:402F000005480EF0F1F804480068401C00D1FF2420461CBD6D2F0000F40C00203EB5124A0146FF2000230124126800290DD0012914D0042908D104206946009308814B8112
:402F400010460EF0CCF880B23EBD6846009304814381694610460EF0BDF8F4E768460093048143816946EBE7F40C002070B545890468416800890300FFF7B6FC082805094A
:402F8000091E22282628002005F0EAFE1EE0022908D0C8B22A4621460CF030FA2046FFF739FE13E002202A4621460CF027FA2946204600F00DF809E000200DF08FFD05E000
:402FC0002046FFF7CBFE01E0FEF780FC002070BD014B0022DB681847F80C002070B5448905680089022803D0032809D0FF2070BD2246094C0023A46829460120A04708E059
:40300000FFF7AAFA241DA2B200232946022006F098FE002070BD0000F80C002070470000024800214160018041807047F80C002070B50C46002186B016460391012802D017
:40304000022859D116E003A9012006F0CFFE01281BD1039D324621462846FEF73CFE0095287801900220694608814E816846FFF7B5FF41E0214D002B686809D0049004A95A
:40308000022006F0B3FE01281DD0022006B070BD002812D0298840182146FEF71CFE28880024801980B228806988091D884206D12C801348FFF792FF03E00320E6E7884279
:4030C0001AD96C6018E004986860E278A378110219430B4A698000231060E3565360032313815181A1788170E178C1706178417021780170042028800020C7E7F80C0020A2
:40310000441100203EB515460C46022803D004280CD000203EBD0091019002206946088107484A8100680DF0DAFF07E00CF066F9044B0022DB6829462046984701203EBDC0
:40314000F40C0020F80C0020014AD16090607047F80C0020034801688068081A0A214843000970475011002010B5FEF781FB482204490548FEF7AFFD03490120C87000206F
:4031800010BD0000EC4201005415002010B5FEF767FB10BD70B5134C2368002B08D0207B1149C20705D04008400020738868A08070BD88680B4AA18880B29268814203D96B
:4031C0000A4D691A091802E0814202D2411A5118A160A080A0689842EAD30DF09DFF00F013F870BD50110020C0102E40FFFF000010B508461946FFF7A7FF10BD704710B502
:40320000FFF780FF10BD000003480021016041608160C1607047000050110020024610B5FF20002A0CD0FFF7EFFF064C0321207B0843207310010A21FEF716FC20600020BC
:4032400010BD00005011002000B504480A21806848430209FFF7D8FF104600BD501100200248007B8007C00F704700005011002010B54B490868002802DA4A4B01221A7093
:40328000022290430860484800694549C00B4031096A0246C907C90F0A4259D0012000F0E5FA3F480E216C30FEF736FA3E4820218430FEF731FA3C4814219C30FEF72CFA72
:4032C0003948FF21C131A430FEF726FA3648FF212F31B030FEF720FA33483449BC30FEF71BFA31483249AC30FEF716FA30492E48491CB430FEF710FA2B482E49B830FEF7A4
:403300000BFA29482C49CC30FEF706FA26482B490830FEF701FA24482949A830FEF7FCF9214828498830FEF7F7F91F4826498C30FEF7F2F91C481921C9029030FEF7ECF91B
:40334000FEF7ECF9FEF7A8FAC0B2022812D01FE000290BD0002101420AD0114801216030FEF7DAF90120FEF777FA97E70121F2E7FF2010BD15491648FEF7CEF9144815492C
:40338000001DFEF7C9F9124800210830FEF7C4F954200449C043891C0870002010BD000000F02E40080D002000002E40320300002F3F00003102000010520000EC160000CB
:4033C000FA12000031D000003AE300009956000080012E40F80F000070B50646581C80B245086D00002408E0304600F0C1F81055000A1119A41C4870A4B2AC42F4D3D807C7
:4034000005D0D0182038D15CC47FD454C17770BD30B50A4C002100195B1E07E0541864782502545C2C430480891C89B29942F5DB994201D1515C018030BD000000102E40C2
:4034400010B5FF2000F012FA0F49FF2048700E481021801D41800121417001700A490020C91C4870FFF704FF04000AD100F02EF907210648FEF74EF9044807211830FEF7B2
:4034800049F9204610BD0000080D0020CC112E4070B5002405465B1E0AE0284600F068F8010A161971702D1D1055A41CADB2A4B29C42F2DB9C4203D1284600F059F81055B2
:4034C00070BD000070B500210A4D5B1E0AE0541864782602545C344346193480001D891C80B289B29942F2DB994202D1515C4019018070BD00102E40F0B50599091FCFB252
:4035000000217E1E0BE0541864782502545C2C43164D45192C80001D891C80B289B2B142F1DBFC0712D01C78515C24020F4A0C4381180C809C785D78001D210280B229431A
:4035400084182180001D80B2D9780CE059781A7809021143054A84182180001DD9789B78090280B2194380180180F0BD00102E40014940180088704700102E4010B50B495E
:403580000020487000F0A2F8002000F095F9002000F082F907210648FEF7BCF8044807211830FEF7B7F8002010BD00000B0D0020CC112E4010B50C48007801280FD100F007
:4035C00083FF00F0DDF8002804D10848016A490849000162054802213030FEF79DF802490020C91E087010BD0B0D002040F02E4010B50B46062812D006DC01280CD00328D0
:4036000001D1FFF7BBFF10BD0A28FCD00B28FAD105480078107010BDFFF712FF10BD1146184600F065F910BD0E0D0020F8B5244DAC6A0127A007234E002816DA30780628EC
:403640000ED1286A384328621F480069F903084381B21D481030FEF75FF8042000F006F9174802212830FEF755F8E00718D000F065FF01280FD1002000F0B2FF062000F067
:40368000F5F81049FF20C91E48707078002802D1686B384368630A4801212830FEF73AF8E0050BD53078042802D1052000F0DEF80348FF2101312830FEF72CF8F8BD0000FD
:4036C00040F02E400B0D002000002E4010B503212348FEF721F80120FEF7BAF820483038406A204C80076178800F890001431C480C38FEF711F86078002808D0401E0221BB
:4037000081401820FEF7A0FAC000083800E0B82081B21548FEF700F81348032109021438FDF7FAFF10481149B830FDF7F5FF612189010F48FDF7F0FF0D480321001FFDF7B5
:40374000EBFF0C490C48FDF7E7FF0B480B496038FDF7E2FF084801218838FDF7DDFF10BD70F02E400E0D0020D8102E4090890000041E2E40FF0F000058122E40209000005B
:40378000044800684007400F022801D0002070470120704700010B4000B5FFF7F1FF002805D009480168C908C900016000BD0748016A490849000162054801690122D20359
:4037C0009143016100BD000000010B4040F02E4000002E400849087806280BD148780749002803D1486B400840004863C86A01221043C862704700000B0D002040F02E4052
:4038000001480078704700000B0D002000B50300FFF76AF8080D050D0B070507090D012000BD032000BD042000BD022000BDFF2000BD0000074A9168D26889B2064B92B2BF
:40384000994204D105498A4201D1012100E000210170704780002E4033D000003FE3000001494870704700000B0D002010B50446FDF7FAFF072C01D9FF2C01D10248047099
:40388000FDF7EEFF10BD00000B0D00200149487070470000080D002010B5064A012805D01921C9021046FDF737FF10BD1D21C902F8E7000090002E4010B50A4A141D012876
:4038C00008D009491046FDF727FF08492046FDF723FF10BD04491046891CFDF71DFF0349491DF3E788002E4031D000003AE3000070B50C460546FDF7CFFFC0B202280E4925
:40390000287804D0FF2810D04C280CD810E0FF2809D10A4AD0680004800F032801D0087807E09069000A553803E00878207070BD4F382070087070BD0A0D002000002E4030
:40394000F0B50122002834D0002932D00424420600D00524792342065B06D21800D0641C034600221EE00C2516466E43124D00277519AF72104F002ABB51696007D0661EAB
:40398000B24209D10D4E86197606760E05E05E06760E8027BE1B00E080269B198919521C2E81D2B2A242DED303480549006B002288611046F0BD0000DC1300207902000044
:4039C000140D002018B50020694608700A48006900280ED0132149014018047E684604704F21C900054800F059F8A04201D0012018BD002018BD0000140D00206011002000
:403A0000074900200C2242435218927A012A05D0401CC0B20628F5D30020704701207047DC130020F8B50E000446154609D0194F19497868A04202D94018A04201D38D42EE
:403A400001D90120F8BD31462046FEF735F900281ED02A4631462046FEF73DF9E8B200210C224A43D21913895568EE18A6420BD90126641B1B1B9672834209DA1469C01A99
:403A8000044AC0B220329676491CC9B20629E7D30020F8BDDC13002079020000034610B50020024604E09C5C2018521CC0B292B28A42F8D310BD000070B500F05FF8084CEE
:403AC000064A216907480D46FEF705F905492846FFF736FFFFF776FF207070BD79020000140D002060110020002070470020054A002902D0012902D002E0906000E0D060DC
:403B000000207047140D002070B5084C154608460549E26889182A46FEF7DDF8E0684019E06028B270BD000060110020140D00203EB50A226946FFF7E7FF044606480A22B0
:403B400000686946FEF7B8F8002802D00020C0433EBD20463EBD0000180D0020002802D0044A914201D2FF20704703494A6108610020704779020000140D002002480021A9
:403B80008160C16070470000140D002070B5074C15460548A26880182A46FFF743FFA0684019A06028B270BD60110020140D002010B503490A220968FFF7E8FF10BD00000F
:403BC000180D002010B50F4A002313600E4A13600E4B18600E4801600E49012008600E490860000290600E490C4808600D4914300860FF381538506000F0BCF800F0CAF948
:403C0000002010BD480D0020300D00205C0D0020600D00204C0D00203C0D002024150020400D0020540D0020014610B50020002910D0094B1A689C685118A14209D2586890
:403C4000196080188A0704D08A07920F891A091D196010BD002010BD300D0020F8B50024164E671E321F3D463168136806E01422624310328A58521C1BD0641C9C42F6D33C
:403C80006A1C14D02C461422544322460C3288500C214843FFF7C8FF3168002808510AD031680020103408517068401C70602846F8BD2546E4E73846F8BD0000400D002021
:403CC000F3B50026F64381B000281BDB1E490968884217D80299002914D01B4F142204463F1D54432546396810354859401C09D0FDF7BAFD38682F1F4159C359994203DB29
:403D0000FDF7AEFD3046FEBD214608310091465801590C20704308180C220299FDF7DBFF0948761C001D0068C159B14200D100260549009A091D865008684159491C4151A3
:403D4000FDF78EFD0020FEBD3C0D0020002803DB07490968884202D90020C043704704491422091D0968504310300858704700003C0D0020F0B500200D4A451E0346171FCF
:403D800050600FE014260146714314680E1DA3510C461668083433511668083435511468401C635039688842ECD30020F0BD0000400D0020F3B50026F64381B0002841DB59
:403DC0002349096888423DD8029900293AD0204F142204463F1D54432546396810354859401C2FD0FDF740FD3868415900292BD0211D009146580C21005971430F46C119A5
:403E00000C220298FDF767FF11480021001D0068761C00590C34C0190160416081600C48001D00680159B14200D100260849009A091D865008684159491E4151FDF710FD72
:403E40000020FEBD3046FEBDFDF70AFDFAE700003C0D0020FEB504460D4600201E49089E0860471E009001900290002C11D0486885420ED2002A0CD0002E0AD0642E08D810
:403E800008460C3001681C2068430C18207A002801D03846FEBD0120226020721846FFF7DDFE6060401C13D06681A6810A4827610C3067610179A94200D20571002168466D
:403EC00001810A462846029B00F040F82846FEBD00202072DDE70000480D002038B50124009400F039F838BDFEB50027164EFF433D4600240EE01C20316860430818017AC5
:403F0000002906D04068FFF721FF002801D0254603E0641C3079A042EDDA681C12D01C2130684D434419FDF79FFC69466068FFF741FF0546FDF794FC002DD9D1216868466A
:403F40008847D5E7FEBD0000540D002038B50024009400F001F838BD1FB500220C49541E0A60002811DB496888420ED808491C220C31096850430818406801A9FFF7A0FE85
:403F8000401C02D0002004B010BD2046FBE70000480D0020F0B50021114A4D1E174611710C3F0B46BD6016E008461C2460431668041D355114680646235014680836A35518
:403FC0001468361DA353044616680A34335318301468491C255078688142E5D30020F0BD540D002038B500210091002811DB0F49097888420DDA0D4D04010C35296808595A
:40400000002807D0201D0818694600F06FF9002801D0002038BDFDF727FC28680F34015D491E0155FDF71CFC009838BD640D0020F7B582B0002502986E1E06602E48D21CED
:40404000024017462D4A2C4610460C380178106805E02301C358002B0FD0641CE4B28C42F7D3711C28D03401211D40180191039900F02AF900281FD101E02646F1E71F481C
:40408000016820460C300F521C480399026820460E30115419480399026820460F3011540398784300F0A0F8144900280968085102D00024009011E001251AE00F4801682C
:4040C00001980818009900F02CF9002801D0012502E00098C0190090641CE4B203988442ECD3002D05D10298066004480179491C0171284605B0F0BDFCFF0000700D002019
:40410000F8B50D4600216A468C461180002839DB23490978884235DA214B04010C3319680A59002A2ED020460C300B5A801C0E5C184670438018954224D3854222D200202E
:4041400006E007465F43BF18AF4206D0401CC0B2B042F6D36046002814D0114E271DC8190C366A46294600F006F900280AD168460088012808D030682946C01900F0D1F8EA
:40418000002803D00120F8BD0020F8BDFDF76CFB30680F34015D491C0155FDF761FBF3E7640D0020F8B50F46002400F031F8002817D10C4900220B460C334A600EE021013F
:4041C0001D680E466A501D680C36AA53B61C1D680F31AA551D68641C6A54E4B2BC42EED31A71F8BD640D002000280BD0C01C074A81085068890053884118994203D893680A
:40420000516018187047002070470000640D0020F8B5064600200F4D009029700C0121466846FEF7FFFB00280CD129460C3100980860301B001F84B221466846FEF7F2FB87
:40424000002801D0FF20F8BD6C800098A8600020F8BD0000640D0020F8B5002827DB19490978884223DA174C05010C342168485900281CD028460C30085A009028460E30CF
:404280000E5C401C0E5420682F1DC01900F064F800280CD12068002445590EE0094829460C300068C01900F03CF8002801D00120F8BD00982D18641CE4B2B442EED30020A6
:4042C000F8BD0000640D002030B50D4604000BD0A800FFF789FF6060002805D000202570C0436080002030BD012030BD70B50D46040005D0002D03D00220205E002801DAD7
:40430000012070BDFDF7B0FA0221615E60688900405828606088401E6080FDF7A1FA002070BD70B50D46040007D0002D05D002212078615E401E814201DB012070BDFDF72E
:4043400093FA6088401C00B26080616880000D50FDF786FA002070BD10B5040009D0227800216068FDF7C0FC0020C0436080002010BD012010BDF0B500231D46002802D09B
:404380000224045F0AE00120F0BD46689F00F6598E4201D1012503E05B1CDBB29C42F4DA15700020F0BD00000148007870470000780D00207CB505460024FEF7CDF8A879DB
:4043C0006946087000A8062229460130FDF783FC0021684604F08AFF0C2806D0072806D01F2806D0122806D006E0022404E0042402E0272400E0012420467CBD10B5022853
:404400000BD0032802D0042809D102E000F076F905E000F021FAFF2801D100F031FAFFF7EFF9FFF7F3F910BD10B500F059FAFFF7E7F9FFF7EBF910BD70B504460025FEF7BE
:404440008BF8002C06D0A079012803D8214602F0D5FD00E00125284670BD01460120002902D05020088000207047000001460120002905D0034854220078504308800020C2
:40448000704700007A0D002010B502460D49FE204870032410460DF045F9002810D10DF0E9F800280CD105F0FDFC002808D100F027FC002804D105F0BFF9002800D10024F8
:4044C000204610BD780D002002480021018280210180704700102E4070B50025044600280ED0A07901280BD8FEF736F8A0790028204602D003F05EF903E003F033F900E018
:404500000125284670BD0000014610B50120002904D006220248FDF7DEFB002010BD0000840D002001460120002903D00878024908700020704700007A0D00200148007ACB
:40454000704700005C16002038B504460120002C20D0617801291DD800290BD0FF25E535FDF7FAFF0C4828180088C0B22070072803D00EE0FF25CD35F2E700206946087003
:404580006846FFF757F969460878012801D108202070002038BD000000102E40014A002192681047780D002008B500226B461A7026280CD0094A342852680BD0352805D175
:4045C000900703D50021352005F048FD08BD19462620F9E7D007F9D03420F5E7780D002001490872704700005C160020F8B504460120002C26D06178012902D92278092AEB
:4046000020D8002905D0FF25E5352078092803D004E0FF25CD35F8E708202070FDF79CFF2078114F114E08280DD00020FFF744F970780128207810D00D4969180880FE20BD
:4046400070700020F8BD0120FFF736F90720B8810549203188800120F2E7B8810248217820308180EBE70000C0112E40780D002000102E4070B50E46050001D0002400E04A
:404680000C4C002C11D0E28A500609D5D107C90F022003F02DF9E08A40218843E08204E0D107C90F012003F023F93146284602F001FE70BDBC150020F8B5054600200446F8
:4046C0000D4E009013E022466946284601F002F90098002801D00DF007F8A878214602F0CBFBA878214602F0B9FB641CE4B2308AA042E8D8F8BD000088160020F8B54E4C46
:40470000FFF77EF8012847D14C480078002843D002F058FD00283FD004F08AFA00283BD0474E7078C00703D000F01CFD012833D0307E00287DD17078002500285BD0000785
:4047400006D540488089070B00F02EF9384370D13B484178684604F0C1F821793A4CA2788918C9B2814262D802F02CFD002860D0344860300789324E203602F06DFB684611
:40478000008802F097FB02F033FC30490988884203D10120FFF76AF84BE02D49012008702748807B00281DD0002F1BD04036F07E002817D123486030008821494000C031C6
:4047C000498981420AD26078002807D103F0BEF82049088A03221202104308822078002800D0257002F09CFB0120FFF739F800F025FC174C15E002F0E5FC002819D010243F
:4048000002F0F6FB214602F0DFFA02F053FB104C0120207002F084FB0020FFF721F800F00DFC20780128B4D1FEF7B6FF25700020F8BDFF20F8BD000094150020080D002051
:404840009C150020A0102E409E0D0020B00D00208A0D0020E0112E4010B50848FF244078002809D102F0AEFC012805D1FEF7A2FE0720FEF7FBFF0024204610BD9C1500202B
:4048800038B5FEF7BDFF012801D0002038BD02F099FC00280AD0114C6078C00703D000F061FC012802D0207E002801D0FF2038BD617800290FD0684604F010F8022806D96C
:4048C0006846008802F0F6FA012002F033FB0320FEF7CCFFD9E70020F7E700009C15002038B51E4CFEF78CFF042813D0052811D0062812D003282AD007280AD100206946EB
:40490000087002460120FEF773FEFEF779FF0128FBD138BD00F0B2FB38BD02F023FB00F0ADFB02F09FFB8007800F0228F4D10C4841880029F0D05B21095D0029ECD101211E
:404940000170A07D0140022002F0D2FF38BD02F00DFB0120FEF78AFF38BD0000BC1500209E0D0020F8B50646002403F02FF80546304603F045F803460A480021068A0DE0E3
:4049800001228A401046174628401F40002803D0002F01D1224394B2491CC9B28E42EFD82046F8BD8816002070B500252C460A4E03E0002C01D0002000E03046007900288E
:4049C00003D02046FFF7CEFF0543641C2406240EEFD0284670BD0000BC1500201CB50020694648706846FFF7AFFD01AA69460A20FEF7FEFD6946042008561CBD70B50D46AE
:404A000001F048FB04000BD02079002808D0FDF7A3FDE178A0782A4602F0D2FC002070BD022070BD0148007870470000941500204030C07E002800D00120704700B500F095
:404A400001F800BD902148430749084A40186030417F491CC9B24177D289914201D300214177C8B2704700009C1500208816002013B501F00FFB04000BD001F0ACFE002862
:404A800007D0214601AA0A310620FEF7B1FD00201CBD02201CBD000010B50C4601F0FAFA00280AD001F097FE002806D0224604490A20FEF79DFD002010BD022010BD000049
:404AC0007D150020F3B581B0074601460026029802F074FF0446002F01D0002500E0154D002D21D0284601F00BFB032C04D13946029802F0BFFF06463846029902F0AEF973
:404B0000032C06D0002C10D00121384601F0FEFB03E03146384603F0ABF9284602F08CF80221284602F0A2F8FEBD3846029902F095F9FEBDBC15002010B5044600F066FA0B
:404B4000002804D103F05EFE002801D00C2010BD2078611C02F036FDFF2801D01F2010BD02F07CFDFF280AD02178621C02F0FEF8044821780068026B601C904710BD07204D
:404B800010BD0000C40D002010B503F03BFE002801D00C2010BD02F0F7FC03480068C06A8047002010BD0000C40D002070B50D46044610210CF0D8FC1021601806460CF039
:404BC000D3FC334610221946204603F049FE102130460CF0C9FC02202870204604F062FD70BD0000F8B504464078217802028006870FE0781143A67809050002090D064393
:404C0000084601F047FA00210546F2B2002812D0002C10D0022F0ED0032F0CD0002A0AD00279092A07D0002A05D0134A5A23527E1B5C9A4207D82889002104F068FC2046BD
:404C40000CF052FDFF21002914D10C48224600682946436930469847C0B2FF280AD128464030817EF2B2491C8176FF232146284600F0E3F8F8BD000054150020E00D0020C9
:404C80000020704710B5044603F0BCFD002801D00C2010BD2078611C02F094FCFF2808D002F0CCFB044821780068426B601C904710BD1F2010BD0000C40D002010B500F055
:404CC0006BF904F0B9FD002010BD10B5044600786178E2780843A17811430843217908436179084305D003F07FFD002803D00C2010BD122010BD204602F05CFD002010BD1D
:404D000010B5FCF7C9FD02F083FE044803F0DEFE02F09EFB012000F003F810BD64150020F1B586B003A8009005A8019028489F22817A114081726846FDF728FC002845D1A1
:404D400069460989C90705D0224806990068C2686846904769460989890706D5002835D11D480068816A0698884700282ED11B4E0025757075737571F575357675767575DC
:404D8000B570F570B5713746F5730120D03738731F20F880FF2130467972A0300176457600F0F0FA00242046069901F0BFFC002803D1641C2406240EF5D0FD720749BD7217
:404DC000B573C0310D704D704D600D7207B0F0BD54150020E00D0020C40D00209C15002070B505460E46084602F0F0FD0446304602F006FE0121A9400A46224001400A4386
:404E000001D0012070BD002070BD10B50446084602F0F6FD0121A140014201D0012010BD002010BD10B5FEF7EBFC032804D102F09DF80120FEF71AFD10BDFEB51C4616463F
:404E40000F46054601F0F8FEA878FFF7F7FD02460190334639460094284600F00DF8002808D1A8780199FFF705FCFF2C02D138460CF03AFCFEBD0000FFB585B005460E98E4
:404E80000C46FF2810D02B49C00009680A5840180179C0795278814201D9012601E09006860F6846038108E06078A1788006860FE0780002014368460181284601F096FC08
:404EC000070007D021462846079A00F097FC384609B0F0BD304600F045FD04AE0346039002AA29460096204600F0D1FB3C20405D002818D0284601F079FC012813D0684657
:404F000000890096C0B20190A878231DFF22079902F084F968460089039BC2B2A878079902F0C4FCD3E7684600890021C0B20091E9E70000DC0D0020F8B5002600253046A8
:404F4000FFF710FD07001DD090201149704340186030447F12E0601CFCF786FDCCB23846E040C007C00F07D02146304601F06CFF21463046FFF7A6FD6D1CEDB20548018AB6
:404F8000A942E8D8761C3606360ED7D0F8BD00009C1500208816002010B502F059FA0020FFF7BEFE0CF036FC002010BDF8B5002400F0D2F80123012800D10124104F002005
:404FC0003E4620360425082203E0002801D0002100E031460979002907D001290BD002290BD0114681402143CCB2401C0006000EEBD07C70F8BD1C43F7E72C43F5E7000055
:405000009C15002010B5FFF7D1FF10BD10B5044604F064FD002802D1601C00F001F810BD1CB500240094062269460194FCF744FE002800D1122420461CBD000070B50E4C9F
:40504000FCF753FB0546FEF7DBFB062802D02078012803D02846FCF74CFB70BDFCF76CFC2846FCF746FBFEF7CBFB0628F5D020780028E5D170BD00008A0D002010B5FCF7B3
:4050800034FB0446FEF7BCFB012809D0FEF7B8FB022805D0FCF750FC2046FCF72AFBEEE72046FCF726FB10BD10B50B4681791943817103D08078114602F0C6FB10BD10B584
:4050C00082798A43827102D1807802F0D1FB10BD30B50C4C0220A28A0B4B9978002901D0022906D11D785B78EB18282B01D9032002E0032900D101205105490DC002014344
:40510000A18230BDC0112E40940D002000B500F029F8002807D0012805D0032801D0042801D0002000BD012000BD014600B50020C90701D000F010F800BD014600B500205A
:40514000C90701D000F008F800BD000001480068704700008C0D002001480088000A704720102E400448008B410501D5042070474007800F7047000000102E4010B501F001
:4051800037FF044601F07EFF0146204601F058FF10BD000001484068704700008C0D002038B50446000610D5FFF7DCFF01280CD1684601F0EBFE6846007800F023FB012008
:4051C00001F0A2FD0220FFF71DFF600708D507480179012904D1002101712620FFF7E4F90348006801692046884738BD980D0020C40D002070B505460C490078002408705D
:40520000FFF7AAFF012803D1FFF7B8FF022803D3284602F03BFA07E0284600F0EBF8040002D1034801210170204670BD940D00205C16002070B50446FFF78EFF002801D0E2
:405240000C2070BDA27B01211F48002A827801D00A4301E05208520082706279012A14D0C17849084900C170184D2868016820468847207901280CD06188208803F074F85F
:405280002080207904280FD015E0C2780A43C270EAE72868C168E01D8847E01D02F076FA0B48808C208006E02868C168E01D8847E01D02F06BFA074920798870204602F050
:4052C000F3F9002070BD00009C150020C40D002054150020940D002008B50178FFF73CFF814201D10C2008BD002914D0072069460870FFF70BFF012807D10121684600F060
:40530000D9F8012801D0092008BDFFF7E1FE02F0FFF9012011E0FFF7F9FE012806D1684601F034FE6846007800F0A0FA02F0E6F9FFF712FF0028FBD10220FFF763FE002010
:4053400008BD000070B505460C49007800244870FFF702FF012803D1FFF710FF022803D3284602F051FA07E0284600F05DF8040002D1034801214170204670BD940D0020C8
:405380005C16002038B568460CF044F9002801D01F2038BD01210098C90201804180002505714571857107214173857302F07CF9009C202200212046FCF796FC25702A4622
:4053C0000021601CFCF790FC204602F05FF9204602F01AFA00980CF087F9062200210448FCF782FC02480C388560002038BD0000980D0020F8B504460025684600950CF0B3
:4054000009F9002801D007250AE0064E009830602278611C401CFCF75EFC3168207808702846F8BD8C0D0020F8B504460025684600950CF0EFF8002801D007250AE0064EF5
:40544000009870602278611C401CFCF744FC7168207808702846F8BD8C0D00200346084800B5834209D8184600F014FE002804D00089984201D1012000BD002000BD000019
:40548000FF0E0000074A9179491C8906890E917138220A4092014907090E114308430249084070479C150020FF0E0000C006C00E70470000F8B507460E4600240D4803E09D
:4054C000002C01D0002500E005462979002905D0641C2406240EF3D00020F8BD0021204601F024F92E712046FFF7CCFF28813C700120F8BDBC15002010B503F0E5F902221A
:40550000002100F003F801F04FFF10BD10B5094B40074907000F090F185A595A40185043C0086421FCF7A0FA002800D1012080B210BD000034430100F7B53D20405C88B024
:4055400015460C46002802D02878042802D200200BB0F0BD6946087200262046FFF768FA012800D00126204603A938300191009023460327A17E34333246206A03F0C0FACB
:4055800002A8089900900B46019120463A4603A9243003F045F902466846007A2870204601F0B0F81046D3E7FFB587B00C4605461078694608723D20005D1746002826D091
:4055C00000262046FFF734FA012800D00126204603A93830019100902346A17E34333246206A03F08DFA02A80090291D019120462B1D03A924300A9A03F012F902006846C2
:40560000007A388002D1204601F07CF810460BB0F0BDF0B505463C20405C89B016460C4600280CD0307869460873002806D000272046FFF7FDF9012803D003E01F2009B0E9
:40564000F0BD012703200890204604A93830019100902346E17E34333A46E06903F050FA6846007B03A928180290009120462B46019504A92430089A03F006F90246684698
:40568000007B3070204601F047F81046D7E7FFB505463C20405C89B016460C46002810D0084601F0A3F801280BD0308869468883002809D000272046FFF7BAF9012805D0BA
:4056C00005E000200DB0F0BD0220FBE70127204603A93830019100902346E17E34333A46E06903F00DFA291D2B1D07A8129A6D4607C5204603A924300C9A03F0C5F8024615
:405700006846808B3080204601F006F81046D9E770B50D460446FFF78BF901280AD0E87AA97A00020143A07801F02AFD012808D0002070BD00222421204602F067FD2420A6
:4057400070BD28214C200155204600F0B1FB282070BD0000002801D0002000E003484030C07F012800D0002070470000BC1500200146002049070ED50021084B03E00029AC
:4057800001D0002200E01A461279022A04D0491C0906090EF3D0704701207047BC1500200146002049070ED50021084B03E0002901D0002200E01A461279022A04D0491C20
:4057C0000906090EF3D0704701207047BC15002010B5044680346068002803D00BF098FF0020606010BD403041707047403081707047403001707047017170479200101810
:40580000C166704770B53C2501F096F9040004D020460021433001F053FCFF222946204600F0E2FB002C02D0A07801F007F970BD10B5002801D0002000E00348002802D078
:40584000008903F0ABFE10BDBC15002010B5002801D0002000E00448002804D00179072901D100F047F810BDBC15002010B501F063F9002802D0807801F0E0F810BD00201C
:405880007047000070B50546008A00281ED01049F122897A1140C90618D5294640314A8A098A521C4A4392B2D10800D10121540801E0621A94B2A042FBD9FEF775FD01280E
:4058C00004D1298AA878224601F030FD70BD00005415002010B50023054C0B60248A944204D992001018C26E0A60C36610BD00008816002038B5044600200090A07900288F
:4059000014D14020015D052901D00E290ED168460BF090FE002809D12046009902F054FC03481021C28A2046FFF7BEFB38BD00005415002010B50B4604460146184602F0E3
:40594000CDF8002802D020460BF0D8FE10BD13B5044601AA11460620FDF74AFE6846818861811CBD002800D10220704770470000F8B504462346401D543300909A1EA0784F
:40598000911E01F01FFB25464035A88A298A8000FCF76AF8401E81B2688A884203D96982A07801F0DFFF698A8C20015120460021433001F085FB27480088E88102F084FF67
:4059C000E989891C8AB26179FFF7A0FD01F0ECFC02F07AFF2A8A6179FFF798FD074601F0D7FC688A002806D01B49088A032212021043088202E0002001F0A8FF16488038CD
:405A000001886E8A002E0CD0304648431349FCF71BF90004000C01D0401C80B21049488002E00F4800214180288A704381B2A07801F0F8FEFF2228374932B9B21346204610
:405A400002F096FCE98AA07801F06CFEA07801F025FAF8BD80102E40E0112E40710200009E0D00207FB504468034616805460E46183108226846FCF72EF93146203108227D
:405A800002A8FCF728F9102168460BF06DFD6068102108300BF068FD60682B46083024331022694602F0DCFE7FBD10B504460821FFF705FB10212046FFF701FB2079052825
:405AC0001FD006281DD008281AD12189002003F0DDFC072020712046FEF7AAFF014620464030012913D00E21017000210176204600F0B6FF2046FFF76BFE2046FFF7C2FEE1
:405B000010BD20890122002103F0A4FCE1E70521EAE70000FFB581B01F4604460821FFF7CEFA10212046FFF7CAFA2079082803D0092804D0042203E00422012501E009228B
:405B40000025204600F03EFE264600204036307022712046FFF73CFE0398002D02D0012808D00BE001280AD120890022029903F071FC04E02189029803F088FC012700206C
:405B80003076012F04D0204600F06AFF05B0F0BD02983073204602F065FB054605480121C28A2046FFF780FA002DEFD109202071ECE700005415002070B50C460546FEF78F
:405BC00037FF012809D108212846FFF778FA0023012221462846FFF79DFF70BD10B5044600F0F0FD2046FFF7F3FD00214034217010BD70B505461A24FEF71AFF012809D1A9
:405C000008212846FFF75BFA0023012221462846FFF780FF70BD0000F8B50446002000900E4668460BF006FD002801D00D20F8BD8420005908212030009D00F026FA2046BA
:405C40000421383000F021FA002E02D1204600F0F5FD2946204602F046FA0E480821C28A2046FFF721FA204600F06BFF25464035002808D0204600F023F8002801D00920C7
:405C800028700020F8BD08202870204600F0D4FFF7E7000054150020014610B540310A460978082906D0092907D00A2901D100F091F810BD0B20107010BD00F001F810BD50
:405CC00070B50446007925464035052805D0062803D008280FD00C2070BD03220621204602F094FA0D480821C28A2046FFF7DCF91120287010E006202873204602F0B2FAC6
:405D00000646AA8A0A20424301212046FFF7CCF9002E01D109202071002070BD5415002038B504460020009068460BF083FC002801D00D2038BD2046009D00F0BDF9082066
:405D40002071204600F07AFD2946204602F0FEF900213D2001550F2040210855204600F06BFF002038BD00B5024600F02BFD10214032117000BD10B50446FEF759FE0128F7
:405D800009D04020005D112805D100231A4606212046FFF7BFFE10BD10B5FFF786FE10BD38B504460021684600910BF043FC00280CD12046009902F04AFA05480821C28AD5
:405DC0002046FFF771F90D204034207038BD00005415002038B504460021684600910BF029FC002801D00D2038BD2046009902F023FA05480821C28A2046FFF755F90C20B6
:405E000040342070002038BD5415002000787047F8B5002569460D70002801D0002400E01F4C002C18D0204600F0D5FC002813D0207903280BD005280CD026464036B18A20
:405E4000A07801F0F9FCB078012806D01DE0042020711DE006202071F8BD0021204601F05AFE274680373868002802D00BF050FC3D600020B0702079072802D12046FFF739
:405E800001FD0221204600F0F1FE20790428E3D1207A694608703420FEF786FBF8BD0000BC15002010B54C22115400F04CF810BD10B50446FF21FFF702F909202071A07847
:405EC00001F0E0FC10BD000038B5FF216A461180002801D0002400E0084C002C0DD011460620FDF785FB684601882046FFF72FFD03480068C1692046884738BDBC150020B8
:405F0000E00D002010B504468079002809D022214C200155FF212046FFF7D1F8204600F012F810BD10B5037902464032002B03D01173092B02D003E0002100E022211173A6
:405F400000F001F810BDFEB504460089002700902781207926464036002817D0012815D002280AD112E002AA01A9204601F0A4FD002807D101980BF0C1FB204601F0C4FD41
:405F80000028F0D02046FEF797FBB776254680352868002802D00BF0BBFB2F606868002802D00BF0B5FB6F60317B002919D0009800F064F8A078002100F092FF2046FFF7F9
:405FC0009BFAA07801F0C6F8A07800F037FDFF212046FFF774F80B20FFF714F800F068FCFEBD1F213173E2E7F8B517460E46054602F066FC04003CD020460C3001F050F850
:406000002046062200211830FBF76EFE2046062200211230FBF768FE1648224600683946436A28469847074626702846FEF700FD012148406070002D10D028896080284652
:406040004030C1782171002E0FD169796171018AE180418A2181808A608106E00648008BC005C00F2071002060803946204603F090F9F8BDC40D002000102E400A4610B561
:406080000146002003F0A2FA10BD10B50BF048F810BD000000B50146FFF708FA002801D0002000E00348002802D002898A4200D0002000BDBC15002038B504468034606876
:4060C000002806D168460BF0C5FA002801D100986060606838BD000010B5014600F086FB0128887802D0FEF7ADFC10BD90214843024940186030007F10BD00009C150020BB
:4061000070B5054604464035A87F012811D1A1789020084A484380186030067F3046FEF75FFE002805D10220A877A078314601F0CBF870BD9C15002010B50C4CA07A002804
:4061400013D0FEF7F9FE0A48027F417F408B00F0B7FB012809D10020A07200F02DFF05498989090B01D000F03BFA10BD6C1600209C150020A0102E4070477047490510B5B6
:40618000490F0B00FCF7B0FB060704080C0C0F073E21FFF787FE10BD0821FFF7C3FE10BDFFF7D1FE10BDFFF7ADFE10BDF8B507460025002D01D0002600E0204E00F0A6FE1E
:4061C0003046403044890021418100F0C3FE304600F001FB01282BD1A00702D52846FFF717FEE00602D52846FFF76EFEA00601D5FEF7A2FE600601D500F014FB200602D504
:40620000284600F01DF8600702D5284600F02CFA380402D52846FFF719FB780402D52846FFF706FBE00703D021463046FFF7A6FF6D1C2D062D0EBCD0F8BD0000BC1500208B
:40624000F8B5002801D0002400E0284C002C4BD025464035A878012846D1FF278820493700593E46002805D02149897A890601D5878AC68A2046FEF7DBFB012834D002F0CE
:4062800023FB2A8A6179FFF741F9009001F080F800983346283081B23A46204602F068F8E98AA07801F03EFA12480188688A124E002810D048431149FBF7C6FC0004000C9B
:4062C00001D0401C80B27080A07DC107C90F002001F00EFB01E000207080288A698A484381B2A07801F09EFAF8BD0000BC1500205415002060112E409E0D00207102000037
:406300000149096809680847E00D002070B50D460026194A0146002801D0002401E014462034002C26D0204600F060FA01280AD19020484380186030007FFEF751FD0028BE
:4063400001D101F00FFF0D48006881692046884700280CD020464030817EA94202D3491B817600E086762089294603F0D0F8204600F062FC70BD00009C150020E00D00200E
:4063800070B503460088FFF785FE040013D000F022FA00280FD02079092819D02546997840352973204601F05DFF0646A878012803D0AA8A02E0022070BDEA880A20424393
:4063C00001212046FEF770FE002E01D109202071002070BD0EB5002217216B460292198100905A810120029B00990BF031FA0EBDF8B518480024807A002822D1164E00252D
:40640000B089000B22E0204600F074FE1249A039401807882A462146384600F051FA012810D00E480122478305770A4944778A72002D01D0002000E02030002801D000F09A
:40644000FBFBF8BDB089000B641CE4B20028DAD1F8BD00006C160020A0102E409C15002010B50088FFF716FE002809D0014640310C460978082905D00B2903D00C2010BD15
:40648000022010BDFFF71CFC002801D009202070002010BD70B503460088FFF7FBFD040008D0254640352878082805D00B2803D00C2070BD022070BD8420005910220830E6
:4064C000991CFBF708FC2046FFF7CCFA2878082804D02046FFF77EFC002801D00A202870204600F0A9FB002070BD000010B50C46002121700088FFF7CDFD03000BD000F074
:406500006AF9002807D00948F121807A0840C00603D4112010BD022010BD022020701A8A1889002103F06EF8002010BD54150020F8B50F46002100910088FFF7ABFD040005
:4065400012D000F048F900280ED0E079410641D4617E02264A07002A08DB8907402500291ADA2843E07135E00220F8BD02F0A8F90021017021894180A1898180217E417023
:40658000E189C1803E7005460178134802F014FD284602F0DBFF1DE0204600F02DF9012806D068460BF046F8002803D00720F8BD2A20F8BDE07900992843E071204601F0EC
:4065C0007BFE607E0421304360760448C28A2046FEF76AFD0020F8BD1D040000541500203EB500220F236C460292238100910190628169460EC900200BF02AF93EBD000008
:40660000F8B50F46054600F097FA040025D003202071254600264035EE76E6702046FFF7A7F901F06BF80920FEF7ECFCA07800F07FFD0121204600F019FB2E706E70AE701F
:406640003A4600212046FFF7CFFC0649887B401C8873A078FFF754FEF8BD284601F012F9F8BD00009C15002010B5002801D0002000E0094800280DD0014640310A464978C7
:40668000022901D100215170807DC107C90F002001F02EF910BD0000BC15002070B503460D460088FFF7F6FC04000BD000F093F8002807D01248F121807A0840C00603D493
:4066C000112070BD022070BD20464030418A008A491C41430804C10C5888884201D2122070BD20822079072802D12046FFF7CAF8022028702089002102F0ACFF002070BD5B
:4067000054150020016A491C016204D1817E491C4906490E81767047C169491CC16104D1C17E491C4906490EC1767047F0B5074687B003A8009005A800260D460190002F08
:4067400001D0002400E01B4C002C05D06846FBF71DFF002803D00BE0022007B0F0BD68460089C00704D1902200212046FBF7BCFA114829460068826820469047050016D1BD
:40678000A77066762746267140373E70204600F019F8204601F0B4F9084820820848BE77807AF121084000D001202075E682E8B2D3E70000BC150020E00D0020B80B000084
:4067C00054150020002101628176C161C17620300177417770470079002805D0012803D0022801D001207047002070474030807F002800D00120704740300078002807D0C3
:40680000012805D0052803D00E2801D0012070470020704710B5807801F0F2F8002800D0012010BD10B500F0C7FB03498989090B01D0FFF7D5FE10BDA0102E4070B5054648
:4068400004464035A87F002825D1FF206075A0789021154A484380186030417F9023491CC9B24177A0785843104B8018DB896030994201D300214177A0789021484380182C
:406880006030467F0677A1783046FEF7A9FA002802D00120A87770BD0220A877A078314600F012FD70BD00009C150020881600200020401C0006000EFBD0002070470000BB
:4068C000F0B515468207920F85B0000A02926A469080002D01D0002400E0564C002C28D0084600F007FC07466846808800280BD00298012843D0022841D003280BD03D2058
:40690000005D012879D08FE04B48381801882046FFF71DF888E00020029002A80AF06AFE002807D03D20005D012802D12046FFF7E9FE7CE06846029E838832460021384652
:40694000FCF74AFD3C48381801882046FEF7FFFF284600F0B5FA01AA21463046FEF7ECFD002806D030460AF0B5FE3D204C21085531E0F5773146204601F02AFA57E00020A6
:4069800000902089039068460AF024FE002802D0002005B0F0BD6846009E8388321D00213846FCF719FD2448381801882046FEF7CEFF284600F084FA2046FFF70CFF00289F
:4069C00005D025464035287E002810D107E030460AF076FE2BE02046FFF76AFA27E001AA21463046029BFEF7DFFD002806D030460AF066FE3D202873EDE712E00298FEF781
:406A0000B5FF0399317003990001090A0143717068468088B070000AF0703046FFF7DAFC05E02046FFF76EFE284600F049FA0120AFE70000BC15002000102E4010B5074A84
:406A4000917B002901D0491E91730021FFF76EFE002801D0002010BD012010BD9C150020F8B5074606464037B87F00282DD0B078902100904843234945186035287F0099D2
:406A8000FEF7C3F901281ED0287F401CC4B21E48C089A04200D800240020B877FF276F772F77A87702460146009800F079FD717DFF2903D0304600F0E4FF777501F052FBFF
:406AC0000025114F19E00320B877F8BD00200090224669463046FEF7FDFE0099002904D0FF231A463046FEF7A8F9641CF889E4B2A04200D800246D1CEDB2F889A842E5D8FB
:406B0000F8BD00009C1500208816002010B502460021084B03E0002901D0002000E018460479944204D0491C0906090EF3D0002010BD0000BC15002000B50120FFF7E6FF51
:406B400000BD10B5044601F0BBFE2189018080346168416061682831816002F0B1FC10BDF7B50646087982B00C46092807D0A078F0770846FFF73AFE012806D010E0304682
:406B80000AF0BCFD022005B0F0BDA1789020294A484380186030007FFEF722F9012810D0A078FEF7D7FD01280BD037780121304601F084FA25462035062F38D00B2F0FD165
:406BC00007E06846027C21463046FEF7B3FE0D20D9E72046FDF72CFF012801D1002028772046FFF779FA054604AA21463046FEF710FD01205F2108556946097C0020019148
:406C00000090A07833463A46294600F007FB69460A7CA0780323294600F048FEA0782946FDF728FD30460AF069FD0020ABE70120D5E700009C15002010B502464032937FD3
:406C40000021002B03D1927E002A00D00121064A927A002A00D000210279092A00D10121807800F065FE10BD6C16002070B50C460546FDF7DDFE00280BD1012C06D92879B4
:406C8000092806D02846FFF7C5FD0446002C02D004E0012402E0A87DC007FAD1A87DC107C90F204600F024FE70BD0000012807D0082804D1044802820348083001807047C3
:406CC00001488038FAE70000A0102E40014908817047000000102E4010B50446FF20F130012C01D1FF20D530002200F053FE044A108A044980B2A0430880108210BD000086
:406D000000102E40A20D0020034B198A034A89B2814311801982704700102E40A20D002010B50446012802D0082C07D102E0FF20D53001E0FF20F13000F024FE0348018A74
:406D4000034A89B221431180018210BD00102E40A20D0020034B198A034A89B2014311801982704700102E40A20D0020F8B505460120A84086B214460F46012231467C20EE
:406D800000F008FE3A463146782000F003FE6078267800020643E078A2780002024360792379000203430C2045430D2080010549281844182680001D44182280001D4018A4
:406DC0000380F8BD00102E40401880B270470000CB065B0E0343480901021943D00108430121C902084301490881704780142E404278037812021343084A1382C3788078D3
:406E00001B021843908248780B78000203431383C8788978000201439183704700142E40024A1080000C90801181704700142E40044A002180180288491C89B21029FAD3D9
:406E40007047000000102E40024A10820148803081817047A0102E407047000010B5054A1082084600F0BAFD024A0021A03A8018018010BDA0102E4010B50B46044600F042
:406E800005F819462046FFF7DFFF10BD024A10820148803001817047A0102E4010B504490882FF20002220211D3000F073FD10BDA0102E400149088070470000C0102E40C4
:406EC000000202494D3008807047000000102E400249888A0422904388827047C0112E4010B5084B074C0202A03B0029208202D075321A8010BD044900200880888076321B
:406F0000F7E70000A0102E40201A2E4000B5034908884880FFF7F8FE00BD0000A20D002010B50120FDF75CFB01495020088010BD00102E4006490E220028888806D010433E
:406F4000888003495120C039088070479043F7E7C0102E4000B502484088FFF7FBFE00BDA20D002010B5FCF735FC10BD014952200880704700102E40884201D8081A03E00C
:406F80000022D243101A401880B2704700210170704700000748808806492039098B884201D8081A03E00022D243101A401880B27047000020112E400148008AC0B270476E
:406FC000A0102E4070B5084C049D2082074804890548603006880E8001891180808818806007400F287070BDA0102E40E0112E400148008970470000C0102E4000280FD061
:407000000D4A108B0870000A4870908B8870000AC8700948203000880871000A48717047064A10880870000A487090888870000AC8701089F0E7000040102E40C0112E40D2
:4070400000B5024A00F004F800BD0000FF7F000000B51346FFF790FF984201D8022800D2002000BD0148008A70470000001A2E40024908820248008970470000A0102E403A
:40708000001A2E40014880887047000020102E40024908820148803000887047A0102E40064B1A8999891B8A0270120A42708170090AC1700371190A4171704760102E4069
:4070C000012904D00549098BC90B017070470349403109898907C90FF7E7000000102E40024908820248008970470000A0102E40201A2E40014840897047000088160020F5
:40710000024908820248808970470000A0102E40001A2E40044A10820448028980894843101880B270470000A0102E40881600209021074B414300B5C918FF2260314A7702
:407140000A7700228A77114600F02AFA00BD00009C15002090225043074A10B58018FF21603041770177002181770448418EFF201D3000F007FC10BD9C15002054150020E5
:4071800000B5044A1082034880308088022200F003F800BDA0102E4010B50023884201D8081A03E00024E443201A4018044980B2884201D8824200D90123184610BD0000D2
:4071C000FF7F0000024880880006C00F70470000C0102E4002488089C007C00F70470000201A2E4070B55478157824022543D47888232602947834435679127936023243F8
:40720000002900D09823044908820348A038181805808480028170BDA0102E40FFB581B014460D4607460A9E0B9BFFF773FF002E0AD0009333460021049AFCF75DF905481B
