:400000000080002011000000650800006508000080B500AF00F030FC80B500AF364B12221A6003F04DF8354B181C03F075F9012003F056F8302002F03FFE314B314A1A6083
:40004000314B8022D2051A60304B304A126802210A431A602E4B2F4A1A602F4B00221A602E4B2E4A126808218A431A60FA23DB00181C02F017FF2A4B181C02F0C5FF294B54
:40008000BA22D2011A60284B284A1A60284B294A1A60254B284A1A60284BA02212011A60214B274A1A60274B802292001A601E4B254A1A60254B822212061A60244B8022BA
:4000C000D2021A60234B42221A60234B43221A60224B41221A60224B40221A60214B0820191C02F029FF082002F04CFF064B8022D2051A60BD4680BD30001040001BB70068
:4001000004010B40060000800C020B4078002E407C002E402D3E000064F02E406CF02E40DC050000080301400000014042FF00800C03014000DB050043FF00800403014060
:4001400041FF00800003014040FF008008010B4000010B402C0101401C01014018010140040101403132000080B582B000AF72B64A4B00221A60FB1D00221A7023E0FB1DFF
:400180001A78131C5B009B185B00454A9B183B603B681A78597809020A43997809040A43DB781B061343191C3B681A795B791B0213439BB2081C191C00F0E2FBFB1D1A78D6
:4001C000FB1D01321A70FB1D1B78012BD7D9354A354B101C191C00F0E3FB344B344A1A60344BFF2212061A60334B992212041A60324B922212041A60314B992212041A607B
:40020000304B992212041A602F4B992212041A602E4A2E4B1B78DBB202210B43DBB213702B4A2B4B1B78DBB23C218B43DBB214210B43DBB21370254A244B1B78DBB2162116
:400240000B43DBB21370234B1E221A60224B234A1A60234B10221A60224BCF221A60224B224A1A60224BC0221A60224B40221A60214B802252031A60204B41221A60204BBD
:40028000802252031A601F4B01221A60FFF7C4FE00F0C6FBBD4602B080BDC0466CF02E406C5501007855010094550100000002403003FFEE0001024000500F4008500F4036
:4002C00010500F4020500F4030500F4000700F4001700F400000044008000440B1E5D8001800044000010440080104409204D80018010440000204400802044000030440B0
:40030000080304401803044010B5064C2378002B07D1054B002B02D0044800E000BF0123237010BDD80F0020000000006855010008B5084B002B03D00748084900E000BF8C
:4003400007480368002B00D108BD064B002BFBD09847F9E70000000068550100DC0F0020A80B00200000000090B589B000AF786039601E23FB1800221A807B68282B56D056
:4003800006D8202B25D0272B3BD0012B0AD0C6E0412B2BD01222FF32934200D1B8E02B2B03D0BCE05F4B01221A705F4B1B78052B0AD15E4B01221A705D4B1B78002B07D114
:4003C000584B01221A70AAE0584B02221A70A6E0A5E00823FB183A6813CA13C303CA03C30823FB18181C00F0ADF898E0514A3B68111C1A1C0223081C111C1A1C03F06FFB78
:400400008DE01C23FC184B4B1A785B781B021A4300231204120C1B0C1B041343181C00F097FD031C2380414B03221A7077E01E23FB1800221A8053E01E23FB181A883E49C8
:40044000131C9B009B189B00CB185B6800221A701E23FB181A883849131C9B009B189B00CB185B68013300221A701E23FB181A883149131C9B009B189B00CB185B6802339A
:4004800000221A701E23FB181A882B49131C9B009B189B00CB185B68033300221A701E23FB181A882449131C9B009B189B00CB185B68043300221A701E23FB181A881E4925
:4004C000131C9B009B189B00CB185B68053300221A701E23FB181A881E23FB1801321A80164B1B789BB21E22BA1812889A42A3D3124B00221A700E4B00221A70104B002279
:400500001A700A4B01221A70064B01221A7006E00B4B01221A70054B04221A70C046BD4609B090BDF70F0020E2220020AC0B0020F50F0020A8210020F0210020F60F0020B5
:40054000F40F002080B584B000AF78600D23FB1801221A709E4B1B78092B00D935E10E23FB1800221A8031E00E23FB181A880E23FB1819880B1C5B005B185B00954959185E
:400580009548131C9B009B189B00C31859600E23FB181A889049131C9B009B189B00CB185A687B685B68101C191C062203F088FA031E04D10D23FB1800221A700EE00E238E
:4005C000FB181A880E23FB1801321A80804B1B789BB20E22BA1812889A42C5D30D23FB181B78002B00D1ECE0794B1B78181C784B1B781A1C131C5B009B185B00754A9A18BC
:400600007549031C9B001B189B00CB185A60704B1B78191C7B68187A6F4A0B1C9B005B189B00D3180833021C1A70694B1B78181C7B68DA686849031C9B001B189B00CB18CC
:4006400008335A60624B1B78191C7B681878624A0B1C9B005B189B00011C99545C4B1B78191C7B6858785C4A0B1C9B005B189B00D318021C5A70564B1B78191C564A0B1C7C
:400680009B005B189B00D3185A687B685B681B7813704F4B1B78191C4F4A0B1C9B005B189B00D3185B685A1C7B685B685B781370474B1B78191C484A0B1C9B005B189B0081
:4006C000D3185B689A1C7B685B689B781370404B1B78191C404A0B1C9B005B189B00D3185B68DA1C7B685B68DB781370384B1B78191C394A0B1C9B005B189B00D3185B6841
:400700001A1D7B685B681B791370314B1B78191C314A0B1C9B005B189B00D3185B685A1D7B685B685B791370294B1B78191C7B68187C294A0B1C9B005B189B00D3181033F0
:40074000021C1A707B685B68244A101C191C062203F0B6F9031E2ED17B685B681A78204B1A707B685B685A781D4B5A707B685B689A781B4B9A707B685B68DA78184BDA70CE
:400780007B685B681A79164B1A717B685B685A79134B5A710E4B1B78191C0F4A0B1C9B005B189B00D3185A780D4B9A710D4B01221A7000F0D3FA064B1B780133DAB2044B53
:4007C0001A700D23FB1801221A70BD4604B080BDF60F0020B4210020F0210020AC210020A0210020F50F002080B500AF62B6184B181C00F0C3F9174B00225A71154BA0229E
:400800001A71144B5022DA70124BCC229A70114B23225A700F4B13221A7003F0A1F90E4B1B78002B08D00D4B181C00F0A7FA03F097F9094B00221A70094B1B78002B05D036
:40084000074B00221A70002000F036FAE5E7C04669030000AC210020F50F0020A0210020F70F002080B500AF03F0FEF8031C1B680C2B00D1FEE7FEE780B586B000AF224B1C
:400880007B61224B3B61204B7B6135E03B691B68FB603B695B68BB603B699B683B6000237B600CE0FB681A68BB681A60BB680433BB60FB680433FB607B6804337B607A6804
:4008C0003B689A42EED13B69DB683B6000237B6008E0BB6800221A60BB680433BB607B6804337B607A683B689A42F2D13B6910333B617B69013B7B617B69002BC6D103F0ED
:40090000B9F8FFF771FFFEE701000000585C010080B582B000AF154B144A126801218A431A6000237B600FE07B68032B04D8104B7A689200D35800E00E4B0F4A796889007E
:400940008B507B6801337B607B682F2BECD9FFF70BFC0A4B00221A60044B044A126801210A431A60BD4602B080BDC04600001040000000006508000000000020C000002005
:4009800080B582B000AF786039607A683B68101C00211A1C03F0ACF8BD4602B080BDC04680B586B000AF7860396000233B6100237B612FE07B699B007A68D3181B68BB60D7
:4009C0000F23FB18BA681A70BB68FF229343BB6018E03B695B003A68D3181B781A1CBB68D318191C3B695B003A68D3185B780B703B6901333B610F23FB181A780F23FB18D7
:400A0000013A1A700F23FB181B78002BE1D17B6901337B617B69062BCCD9BD4606B080BD80B500AF0A4B03221A600A4B03221A60094B802212061A60084B01221A60084B01
:400A400000221A60012000F00DF8BD4680BDC046300030403000314000003A4000033A40000E3F4080B584B000AF021CFB1D1A700B4B1B68FB60FB1D1B78002B05D0FB689F
:400A8000802212061343FB6003E0FB685B005B08FB60034BFA681A60BD4604B080BDC04680033A4080B500AF1C4B00221A701C4B00221A701B4B00221A701B4B5A881B4B81
:400AC0001A80194B9A88194B5A80174B9A79174B1A73154BDA79154B1A71144B0622DA81124B28221A82114B00225A820F4BFA2292009A820D4B0022DA820C4B012252420F
:400B00001A830B4B1E221A8000F018F8094B00221A70094B00221A70BD4680BD06230020F022002004230020B00B0020C4220020DE220020B8220020C022002080B500AF05
:400B40000B4B1B88002B05D10A4B181C00210C2202F0CEFF064BDB88002B05D1064B181C0021062202F0C4FF01F01AFDBD4680BD000C0020F8220020E8220020B0B594B02B
:400B800004AF78603E23FB1800221A802823FA183F4B111C1A1C1423081C111C1A1C02F09EFF3C4B1B78002B04D1FFF77BFF394B01221A707B68002B5FD0374B7A681A600D
:400BC0003E23FB181B88002B29D11023FB181C22BA185A601023FB182022BA181A601023FB1800221A812023FB181B221A802023FB181B225A802023FB1804221A711C23F2
:400C0000FB1808221A703E23FC181023FA180E23FB18101C191C03F07FF8031C23803E23FB181B88002B2CD13E23FC181B481C49AE231A012823FD1805230093194B0193E7
:400C4000194B02932B1C02F0BDFF031C23803E23FB181B88002B14D1144B01221A70144B08221A703E23FC18124B181C0B2109220FF078FD031C238003E03E23FB18012271
:400C80001A803E23FB181B88181CBD4610B0B0BDEC560100F80F0020BC22002059150000C80000200065010079020000E2220020E32200200857010090B585B000AF021C90
:400CC000FB1D1A70FB1D1B78022B04D90E23FB1801221A8035E0FB1D1B78002B09D11C4B1E221A811A4B30225A80194B30229A800EE0FB1D1B78012B0AD1154B96221A81E1
:400D0000134B802212015A80114BE122D2009A80104BFA1D12781A700E23FC180C4B181C0DF06EFE031C23800E23FB181B88002B07D1094B1B78DBB204221343DAB2064B43
:400D40001A700E23FB181B88181CBD4605B090BDB00B0020042300200623002080B500AF0DF07AFE044B1B78DBB208221343DAB2014B1A70BD4680BD0623002090B585B0B1
:400D800000AF7860294B1B78052B05D00E23FB180422FF321A8041E07B68002B04D10E23FB1801221A8039E00D23FB1800221A7012E00D23FB181B780D22BA18127879682A
:400DC000895C1B4AD3180A1C5A710D23FB181A780D23FB1801321A700D23FB181B78052BE7D97B689A79124BDA720E23FC18104B181C0DF0ABFD031C23800E23FB181B8871
:400E0000002B0BD1094B04221A700A4B1B88002B04D0084B1B88181C0AF0CCFC0E23FB181B88181CBD4605B090BDC046E2220020C4220020DE22002090B583B000AF104BD2
:400E40001B78042B04D0BB1D0422FF321A8011E0BC1D0DF06DFD031C23800A4B1B88002B01D00AF0C1FCBB1D1B88002B02D1044B05221A70BB1D1B88181CBD4603B090BD4A
:400E8000E2220020DE22002080B582B000AF78607B681B789AB27B6801331B789BB21B029BB213439BB2181CBD4602B080BDC04690B585B000AF78600F23FB1800221A701C
:400EC0007B689B890B22934237D17B681A1D7B680F217C18101C00211A1C40230FF05AFC031C23700F23FB181B78002B1DD17B685B68181CFFF7C8FF031C1A1C02231340DE
:400F00009BB2002B08D0104B1B68822251007A68081C111C984708E00B4B1B680622FF32111C7A68081C111C9847084B1B78DBB201229343DAB2054B1A700F23FB181B7879
:400F4000181CBD4605B090BDBC2200200623002090B585B000AF3B1D1880314B1B78022B07D1304B1B78002B09D02E4B1B78052B05D00C23FB180422FF321A8049E00F2313
:400F8000FB1800221A7014E00F23FB181A78131C5B009B185B00244A9B18181C0021042202F0A6FD0F23FB181A780F23FB1801321A700F23FB181B78022BE5D91B4A3B1D85
:400FC000111C1A1C0223081C111C1A1C02F087FD174B01221A80164B012252425A80FFF7ADFD0C23FC183B1D18680EF0B3FA031C23800C23FB181B88002B0AD1094B0122D1
:401000001A700C4B1B78DBB202221343DAB2094B1A700C23FB181B88181CBD4605B090BDE2220020E3220020000C0020F4220020E42200200623002080B582B000AF7860A5
:401040007B68DB880D4A934214D10D4B5B88002B08D17B689A880A4B5A807B689A78084B1A7007E0074B1B687A68911D86225200101C9847BD4602B080BDC046052A00005C
:40108000E8220020BC22002080B582B000AF78607B689B880B4A934210D10B4B9B88002B04D17B685A88084B9A8007E0074B1B687A68111D86225200101C9847BD4602B0D8
:4010C00080BDC04602290000E8220020BC22002080B582B000AF78600C4B5A887B689B899A420FD10A4B1B68832251007A68081C111C9847074B1B78DBB201229343DAB299
:40110000044B1A70BD4602B080BDC046E8220020BC2200200623002090B585B000AF78600F23FC187B68181CFFF7C2FE031C2370144B1B78DBB21A1C012313401FD10F2359
:40114000FB181B78002B16D00823FB1812229A707B689A890823FB181A800823FB180F22BA181278DA707B680822BA181868111C0EF042FD03E07B6818680EF0BFFDBD467D
:4011800005B090BD0623002080B582B000AF7860BD4602B080BDC04680B582B000AF7860BD4602B080BDC04680B582B000AF7860BD4602B080BDC04680B582B000AF786044
:4011C000BD4602B080BDC04690B589B000AF7860394B1B78022B6BD1384B1B88002B67D00C23F918354B02229B180422081C191C02F075FC7B685A687B681B891C1C0C23DE
:40120000FB180433181C111C221C02F068FC0C23FB18181C01F038FA284B1B8801339AB20C23FB181A80264B1B78191C254A0B1C5B005B185B00D3185A880C23FB185A8083
:401240000C23FB181A880C23FB185B889A4221D81D4B0C22B9181A785B781B021A4300231204120C1B0C1B041343181C0EF08AF9031E12D0154B1B6884225200101C002177
:401280009847134B1B78DBB202229343DAB2104B1A7002E0012000F01DFC0D4B1B78DBB201229343DAB20A4B1A70044B00221A80BD4609B090BDC046E3220020FC0F002014
:4012C00005230020000C0020F4220020BC2200200623002090B589B000AF7860394B1B78022B6BD1384B1B88002B67D00C23F918354B02229B180422081C191C02F0EFFBFE
:401300007B685A687B681B891C1C0C23FB180433181C111C221C02F0E2FB0C23FB18181C01F0B2F9284B1B8801339AB20C23FB181A80264B1B78191C254A0B1C5B005B1841
:401340005B00D3185A880C23FB185A800C23FB181A880C23FB185B889A4221D81D4B0C22B9181A785B781B021A4300231204120C1B0C1B041343181C0EF004F9031E12D0E0
:40138000154B1B6884225200101C00219847134B1B78DBB202229343DAB2104B1A7002E0012000F097FB0D4B1B78DBB201229343DAB20A4B1A70044B00221A80BD4609B015
:4013C00090BDC046E3220020FC0F002005230020000C0020F4220020BC2200200623002080B500AF094B00225A70084B00221A70074B1B78052B03D1054B07221A7002E068
:40140000034B08221A70BD4680BDC046F4220020E322002080B582B000AF78607B681B78032B3ED1254B1B78DBB21A1C0223134037D0234B1B78022B10D002DC012B05D036
:4014400024E0032B12D0042B18D01FE01D4B1B680822FF32101C0021984717E0194B1B6884225200101C002198470FE0154B1B680A22FF32101C0021984707E0114B1B68AD
:4014800085225200101C00219847C0460B4B1B78DBB202229343DAB2084B1A70084B00221A707B681B78042B05D1074B1B78042B01D1FFF7C1FCBD4602B080BD06230020DA
:4014C000E3220020BC220020E222002080B500AFBD4680BD80B584B000AF78600E23FB1800221A707B689B79002B1CD10F23FB1800221A7012E00F23FB181B787A68D35CC6
:40150000002B04D00E23FB1801221A700BE00F23FB181A780F23FB1801321A700F23FB181B78052BE7D90E23FB181B78181CBD4604B080BD80B582B000AF021CBB1D1A808A
:40154000BD4602B080BDC04680B582B000AF7860BD4602B080BDC04680B586B000AF021C3960FB1D1A70C84B1B78DBB201221343DAB2C54B1A70FB1D1B78FA2B00D9A5E119
:401580009A00C24BD3181B689F460C23FB1807221A700C23FB1800225A700C23FB18181C04F066FA0C23FB1807221A700C23FB1801225A700C23FB18181C04F059FAB44B64
:4015C0001B68181CFFF786FF031E05D0B04B1B68181C02F0C9FA03E0AE4B181C02F0C4FA00200DF0B9F80823FB183F221A700823FB1800225A700823FB18181C0DF0CAF84A
:40160000A54B05221A7062E13B68181CFFF702FF5DE13B681A78A14B1A7058E13B683B613B691B78002B18D13B695B78002B0BD19B4B0022DA809A4B00229A80984B994A85
:401640001A603B69964A5A608F4B1B78DBB201229343DAB28C4B1A7039E138E18A4B1B78DBB21A1C202313400ED18F4B1B78102B02D18D4B0522DA708C4B1A788A4B101CD1
:40168000191C0CF0A3FE22E121E13B685A78884B1A701CE13B68181CFFF756FF17E13B68181CFFF751FF834B1B88002B01D00AF09BF8794B02221A7009E1774B05221A7084
:4016C00005E1754B1B78022B40D06F4B1B78DBB21A1C0123134039D06B4B1B78DBB21A1C042313400BD06C4B03221A70664B1B78DBB204229343DAB2634B1A7026E0624BD9
:401700001B78DBB21A1C082313400BD0624B05221A705D4B1B78DBB208229343DAB25A4B1A7013E05C4B1B78032B0FD15A4B05221A70614B1B78002B08D10120FFF7BCFA78
:40174000031E03D1544B03221A70C0E0BFE03B681B88181CFFF7EEFEB9E0544A3B68111C1A1C0223081C111C1A1C02F0B8F94B4B00221A704D4B1B783D33FF335A004F4BFC
:40178000D31801334E4A111C1A1C0223081C111C1A1C02F0A4F94B4B00221A70FFF796FE95E0FFF71DFE92E03B685B88162B05D81623FB183A6852881A8003E01623FB18DB
:4017C00017221A803B681622BA1811881A8800231204120C1B0C1B041343181C0EF016FA75E03B68181CFFF797FC70E03B68181CFFF7CAFC6BE03B68181C00F087F866E08A
:401800003B68181C00F082FA61E000F063FE5EE03B68181C00F00EFD59E03B68181C00F0A9FE54E03B68181CFFF7BEFC4FE03B68181CFFF74DFC3B68181CFFF7BDFC124B39
:401840001B78DBB21A1C0123134004D13B6818680DF046FE3BE03AE03B68181CFFF7B4FC35E03B68181CFFF735FD30E03B68181CFFF792FC2BE0144B1B7801221343DAB22F
:40188000114B1A7023E0C04606230020E4570100C40B0020BC0B0020E2220020F022002014100020A80B0020140C0020F4220020C0220020DE22002004230020006501002C
:4018C000E0220020E3220020B8220020C0460D4B1B78DBB21A1C112313400FD0094B1B78DBB201229343DAB2064B1A70064B1B68FA1D11783A68081C111C9847BD4606B0BA
:4019000080BDC04606230020BC22002080B586B000AF78600023FB60694B1B78012B00D0CAE0684B1B78DBB21A1C0223134000D1C2E00A23FB187A6812891A800A23FB1835
:401940001B88062B05D00A23FB181B88142B00D0ABE00823FB187A6852891A801423FB1800221A808FE07B685A681423FB181B88D318FB601323FB1800221A70FB681A8865
:40198000514B1B889A4200D273E0FB681A884E4B5B889A4200D96CE00A23FB181B88062B63D11623FB1800221A8053E01623FB181A884649131C5B009B185B00CB189A88C8
:4019C000FB689B889A423ED11623FB181A883F49131C5B009B185B005B5A002B13D11623FB181A883949131C5B009B185B00FA68CB18111C0422181C02F071F81323FB182C
:401A000001221A701FE01623FB181B88012B0ED81623FB181B885A1C2C49131C5B009B185B00CB189A88FB689B889A420BD0284B1B68FA68111D0C22FF32101C984713231F
:401A4000FB1801221A701623FB181A881623FB1801321A801623FB181B88022B09D81323FB181B78002BA1D003E0FB68181C00F00BFE1423FB181422B9180A22BA180988D7
:401A800012888A181A801423FA180823FB1812881B889A4200D266E70A4B1B78DBB201229343DAB2074B1A7006E0094B1B680822FF32101C00219847BD4606B080BDC0467B
:401AC000E322002006230020E4220020000C0020BC22002080B582B000AF021CFB1D1A70FB1D1B78002B06D0334B1B780133DAB2314B1A7005E0304B00221A702F4B002227
:401B00001A8005E02C4B1B780133DAB22A4B1A70294B1B78022B19D8274B1B78191C284A0B1C5B005B185B009A5A264B1B889A42E8D3214B1B78191C214A0B1C5B005B1809
:401B40005B009A5A1F4B5B889A42DBD81A4B1B78022B28D8184B1B781A1C131C5B009B185B00174A9918184B1A785B781B021A4300231204120C1B0C1B041343181C0DF0D9
:401B800001FD031E15D0114B1B6884225200101C002198470E4B1B78DBB202229343DAB20B4B1A7005E00B4B03221A70002000F08BFABD4602B080BD05230020FC0F00205B
:401BC000000C0020E4220020F4220020BC22002006230020E322002080B582B000AF78607B68DB88434A934238D0424A934207DCA822920193420DD03F4A93421CD075E061
:401C00003E4A93424ED03D4A934239DB3C4A93425AD06BE03B4B1B88002B04D17B689A88384B1A8062E0384B1B687A68911D86225200101C984759E0324B5B88002B04D128
:401C40007B689A882F4B5A8050E02F4B1B687A68911D86225200101C984747E0294B9B88002B04D17B689A88264B9A803EE0264B1B687A68911D86225200101C984735E03F
:401C8000204BDB88002B04D17B689A881D4BDA802CE01D4B1B687A68911D86225200101C984723E0174B1B89002B04D17B689A88144B1A811AE0144B1B687A68911D8622E7
:401CC0005200101C984711E00E4B5B89002B04D17B689A880B4B5A8107E00B4B1B687A68911D86225200101C9847C046BD4602B080BDC046022A0000012A0000042A00004B
:401D0000A62A0000F8220020BC22002090B593B000AF7860D14B1B78DBB21A1C0223134000D1CBE13E23FB187A6812891A803C23FB187A6852891A807B685B683B64C84B79
:401D40001B78032B00D0C2E04623FB1800221A80B3E03B6C181CFFF797F8031C1A1C2423FB181A803B6C02333B643B6C1A782423FB189A703B6C01333B643B6C181CFFF759
:401D800083F8031C1A1C2423FB189A803B6C02333B643E23FB181B88152B34D12423FB1802229A752423FB180622396C9B181022181C01F094FE3B6C10333B64A94B1B78A8
:401DC000191CA94A0B1C5B005B185B00D3189B881A1EA64B9A4214D0A24B1B78012B0FD9A04B1B78022B0BD89E4B1B789BB2023B9AB22423FB18101C191C00F0ADFC01E0CB
:401E000000E0C04647E03E23FB181B88072B42D12423FB1801229A753B6C181CFFF734F8031C1A1C2423FB18DA803B6C02333B648C4B1B78191C8C4A0B1C5B005B185B0067
:401E4000D3189B88C0225201934203D0884A934206D00BE02423FB18181CFFF7BDFE1AE02423FB18181CFFF7E7F814E07D4B1B78012B0FD97B4B1B78022B0BD8794B1B7850
:401E80009BB2023B9AB22423FB18101C191C00F063FCFFE7C046714B1B78DBB201229343DAB26E4B1A704623FB184622B9183E22BA18098812888A181A804623FA183C238A
:401EC000FB1812881B889A4200D242E7F6E0644B1B78022B00D0F1E04623FB1800221A80E3E03B6C181CFEF7CFFF031C1A1C0C23FB181A803B6C02333B643B6C181CFEF7C0
:401F0000C3FF031C1A1C0C23FB185A803B6C02333B643B6C181CFEF7B7FF031C1A1C0C23FB189A803B6C02333B643E23FB181B88062B30D10C23FB1802229A750DF09EFBED
:401F40000C23FB1859884B4B1A785B781B021A4300231204120C1B0C1B041343181C0DF02FFB031E07D1444B0C22BA1813CA13C313CA13C387E0414B1B6884225200101CF3
:401F800000219847354B1B78DBB202229343DAB2324B1A7077E03E23FB181B88082B00D071E00C23FB1801229A753B6C181CFEF76BFF031C1A1C0C23FB18DA803B6C0233B7
:401FC0003B644423FB1800221A8033E04423FB181A882549131C5B009B185B00CB189A880C23FB18DB889A421DD14423FB181A881D49131C5B009B185B005B5A002B12D186
:402000004423FB181A881849131C5B009B185B000C22BA180220C91813180422081C191C01F05DFD0BE04423FB181A884423FB1801321A804423FB181B88022BC6D9094B08
:402040001B78191C084A0B1C5B005B185B00D3189B881A1E0A4B9A4214D014E006230020E322002005230020000C0020FEFF000001180000F4220020FC0F0020BC22002050
:4020800012180000C0460F4B1B78DBB201229343DAB20C4B1A704623FB184622B9183E22BA18098812888A181A804623FA183C23FB1812881B889A4200D212E7BD4613B02B
:4020C00090BDC0460623002080B582B000AF021CFB1D1A70FB1D1B78002B06D0354B1B780133DAB2334B1A7002E0324B00221A7005E0304B1B780133DAB22E4B1A702D4BAE
:402100001B78022B19D82B4B1B78191C2A4A0B1C5B005B185B009A5A284B1B889A42E8D3244B1B78191C244A0B1C5B005B185B009A5A224B5B889A42DBD81E4B1B78022B5A
:402140002FD81C4B1B78181C1D491B4A031C5B001B185B00087849780902084300210004000C090C09040143985AD3185B881B04034300221A1C081C111C0DF0CFF9031E75
:4021800015D0104B1B680A22FF32101C002198470D4B1B78DBB202229343DAB20A4B1A7005E00A4B04221A70002000F0E5F8BD4602B080BD05230020000C0020E422002093
:4021C000F4220020BC22002006230020E322002080B582B000AF3B1C00221A803B1C00225A80114B1B78002B09D1104B5B8801339AB23B1C1A800E4B1A893B1C5A803B1D99
:402200003A1C12681A603A1D002311880904090C1B0C1B040B43528812041B041B0C1343181CBD4602B080BD05230020E8220020000C002080B58AB000AF78600823FB1807
:4022400000225A80494B1B78042B00D08BE0484B1B78DBB21A1C0223134000D183E01E23FB187A6812891A807B681A7B0823FB181A750823FB187A6812881A800823FB18FA
:402280001B7D012B04D12623FB1804221A8003E02623FB1812221A807B685B683B622423FB1800221A804EE03B6A181CFEF7ECFD031C1A1C0823FB185A803B6A02333B623A
:4022C0000823FB181B7D022B15D10823FB183A6A0433111C1022181C01F001FC3B6A10333B62244B1B78012B23D10823FB18181C00F0F8FB1DE03B6A181CFEF7C5FD031CB3
:402300001A1C0823FB189A803B6A02333B62194B1B78002B04D10823FB18181CFEF7B4FE144B1B78012B04D10823FB18181C00F0D9FB2423FB182422B9182622BA18098843
:4023400012888A181A802423FA181E23FB1812881B889A42A8D3064B1B78DBB201229343DAB2034B1A70BD460AB080BDE3220020062300200523002080B584B000AF021C92
:40238000FB1D1A700C23FB1800221A800C23FB1800225A80494B1B78012B17D0FB1D1B78002B0DD0454B1B780133DAB2434B1A70424B1B78012B09D1FB1D00221A7005E088
:4023C0003E4B00221A70FB1D01221A703B4B1B78012B0CD1FB1D1B78181C00F0C1FA031C1A1C0C23FB181A60FB1D01221A70334B1B78012B06D0FFF7EBFE031C1A1C0C23EB
:40240000FB181A600C23FB181A882D4B1B889A4215D90C23FB181A88294B5B889A420ED80C23FB185A88264B1B889A4207D30C23FB181A880C23FB185B889A4203D91F4B30
:402440001B78012BA6D91D4B1B78012B21D81D4B0C22B9181A785B781B021A4300231204120C1B0C1B041343181C0DF041F8031E21D0154B1B6885225200101C0021984741
:40248000124B1B78DBB202229343DAB20F4B1A7011E00F4B05221A700B4B1B681222FF32101C00219847094B1B78DBB202229343DAB2064B1A70BD4604B080BD05230020BE
:4024C000E4220020F4220020BC22002006230020E322002080B500AF244B1B78DBB21A1C022313403FD0224B1B78022B17D002DC012B05D037E0032B1DD0042B27D032E087
:402500001B4B02221A700020FFF7E4FA174B1B78DBB201229343DAB2144B1A7023E00120FFF7D8FA114B1B78DBB201229343DAB20E4B1A7017E00120FFF7C6FD0B4B1B7819
:40254000DBB201229343DAB2084B1A700BE00120FFF712FF054B1B78DBB201229343DAB2024B1A70C046BD4680BDC04606230020E322002080B582B000AF7860074B1B7800
:40258000DBB21A1C0223134005D07B689B790A2B01D1FFF79FFFBD4602B080BD0623002080B582B000AFBB1D00221A8060E0BB1D1B889A1C3249131C5B009B185B005B5A5B
:4025C000002B50D13B1D00221A8040E0BB1D1B882C4A1B01D31808335A683B1D1B881B01D31800221A80BB1C00221A8019E0BB1D1B88244A1B01D31808335A683B1D1B8834
:402600001B01D318D968BB1C1A88131C5B009B189B00CB1800221A80BB1C1A88BB1C01321A80BB1D1B88174A1B01D31808335A683B1D1B881B01D3189B7A9BB2BA1C128891
:402640009A42D4D33B1D1A883B1D01321A80BB1D1B880C4A1B01D31808335B789BB23A1D12889A42B2D3BB1D1A88BB1D01321A80BB1D1B88002B9AD0BD4602B080BDC0460C
:40268000000C0020380C002080B584B000AF78600D23FB1800221A700E23FB1800221A8046E00E23FB181B88284A1B01D31808331B78022B35D10E23FB181B88234A1B01B4
:4026C000D3185A687B680433101C191C102201F0F7F9031E25D10E23FB181B889A1C1C49131C5B009B185B005B5A002B19D10E23FB181B889A1C1649131C5B009B185B0090
:402700007A68CB18111C0422181C01F0E8F9114B1B780133DAB20F4B1A700D23FB1801221A700E23FB181A880E23FB1801321A800E23FB181B88002B04D10D23FB181B7844
:40274000002BAED0BD4604B080BDC046380C0020000C00200523002080B584B000AF021C3960BB1D1A800D23FB1800221A70774B1B68002B0FD0764B1B88BA1D12889A42AE
:4027800006D1724B1B683A681288013A92B21A806E4B00221A600E23FB1800221A80ADE00C23FB1800221A703B689B7D022B28D1BB1D1B88674A1B01D31808335A680E239B
:4027C000FB181B881B01D3181B7A022B19D1BB1D1B88604A1B01D31808335A680E23FB181B881B01D3185A683B680633101C191C102201F065F9031E03D10C23FB1801227F
:402800001A703B689B7D012B28D1BB1D1B88514A1B01D31808335A680E23FB181B881B01D3181B7A012B19D1BB1D1B88494A1B01D31808335A680E23FB181B881B01D3187B
:402840005A683B680633101C191C022201F038F9031E03D10C23FB1801221A700C23FB181B78012B43D1BB1D1B883A4A1B01D31808335A680E23FB181B881B01D3181B8886
:40288000002B34D1BB1D1B88324A1B01D31808335A680E23FB181B881B01D3183A6892881A80BB1D1B882B4A1B01D31808335A680E23FB181B881B01D3183A6892785A724F
:4028C000BB1D1B88234A1B01D31808335A680E23FB181B881B01D3189A1C1C4B1A601C4BBA1D12881A800D23FB1801221A700E23FB181A880E23FB1801321A80BB1D1B8893
:40290000144A1B01D31808335B789BB20E22BA1812889A4205D20D23FB181B78002B00D13EE70A4B1B68002B0CD0084B1A680A4B1B78181C0949031C5B001B185B00CB1884
:402940005B881380BD4604B080BDC0462010002024100020380C002005230020000C002080B584B000AF021CFB1D1A700823FB1800221A800823FB1800225A80FB1D1B78B4
:40298000002B2DD0524B1B880133524A1288524912018A1808325278934206D24C4B1B8801339AB24A4B1A8023E04A4B1B88013309D1484B1B8801339AB2464B1A80444BA2
:4029C00000221A8015E0454B1B780133DAB2434B1A703F4B1B8801339AB23D4B1A8008E03C4B00221A803A4B00221A80FB1D01221A70384B1B88384A1B01D31808335B786E
:402A00009AB2334B1B889A421FD9324B1B88324A1B01D31808335A682D4B1B881B01D3181B8801339AB20823FB181A80294B1B88294A1B01D31808335A68254B1B881B01DB
:402A4000D3185A880823FB185A800823FB181A88234B1B889A4215D90823FB181A88204B5B889A420ED80823FB185A881C4B1B889A4207D30823FB181A880823FB185B88E5
:402A80009A420CD9134B1B88134A1B01D31808335B789AB20E4B1B889A4200D96EE70C23FB180822BA1812681A600C23FA18002311880904090C1B0C1B040B4352881204BB
:402AC0001B041B0C1343181CBD4604B080BDC0461E1000201C100020380C002005230020E422002080B584B000AF78600E23FB1800221A700F23FB1800221A70BBE00D2304
:402B0000FB1800221A707B681B7D022B38D1674B1B88674A1B01D31808335A68654B1B881B01D318D9680F23FB181A78131C5B009B189B00CB181B7A022B21D15B4B1B88F1
:402B40005B4A1B01D31808335A685A4B1B881B01D318D9680F23FB181A78131C5B009B189B00CB185A687B680433101C191C102200F0A6FF031E03D10D23FB1801221A70A1
:402B80007B681B7D012B38D1484B1B88484A1B01D31808335A68474B1B881B01D318D9680F23FB181A78131C5B009B189B00CB181B7A012B21D13D4B1B883D4A1B01D3181E
:402BC00008335A683B4B1B881B01D318D9680F23FB181A78131C5B009B189B00CB185A687B680433101C191C022200F069FF031E03D10D23FB1801221A700D23FB181B7861
:402C0000012B31D1294B1B88294A1B01D31808335A68284B1B881B01D318D9680F23FB181A78131C5B009B189B00CB181B88002B1AD11E4B1B881E4A1B01D31808335A68B7
:402C40001C4B1B881B01D318D9680F23FB181A78131C5B009B189B00CB187A6852881A800E23FB1801221A700F23FB181A780F23FB1801321A700D4B1B880D4A1B01D318F7
:402C800008335A680B4B1B881B01D3189B7A0F22BA1812789A4205D20E23FB181B78002B00D12CE7BD4604B080BDC0461C100020380C00201E10002090B585B000AF7860E3
:402CC0000C23FC1800F031FB031C23707B68022B00D8B4E07B68302B00D9B0E05E4B1B78DBB21A1E7B689A420AD35C4A0F23FB1812781A705A4A0E23FB1812781A703FE0E9
:402D0000584B1B78DBB21A1E7B689A420AD3564A0F23FB1812781A70544A0E23FB1812781A702DE0524B1B78DBB21A1E7B689A420AD3504A0F23FB1812781A704E4A0E23B3
:402D4000FB1812781A701BE04C4B1B78DBB21A1E7B689A420AD34A4A0F23FB1812781A70484A0E23FB1812781A7009E0464A0F23FB1812781A70454A0E23FB1812781A7016
:402D80007B68DA1E0B23FB1841498A5C1A700B23FB181B782F2B0DD97B682A2B0AD93D4B19221A60052000F0B7FA0D23FB1819221A7007E0374B1B68DAB20D23FB183F21A8
:402DC0000A401A700B23FA180D23FB1812781B789A4208D22F4B7A68033A2D498A5C1A60052000F099FA7B68284A9A180A23FB1812781A70284B0A22BA1812781A60274B50
:402E00000F22BA1812781A60254B0E22BA1812781A60052000F0F8F80B23FA180D23FB1812781B789A4209D91A4B7A68033A18498A5C1A60052000F06FFA03E002E000200A
:402E400000F0B4F80C23FB181B78181C00F071FABD4605B090BDC04640F3FF0F41F3FF0F42F3FF0F43F3FF0F44F3FF0F45F3FF0F46F3FF0F47F3FF0F48F3FF0F49F3FF0F90
:402E80004AF3FF0F4BF3FF0F4CF3FF0F4DF3FF0F005C01002CFF0B4028FF0B401CFF0B4020FF0B4080B584B000AF78600023FB60154B154A126801210A431A60134B144A7F
:402EC0001A60144B134A1268802109020A431A607B68002B12D01023FB600CE0012000F093F800F019F8031E02D00023FB6005E07B68013B7B607B68002BEFD1FB68181CF3
:402F0000BD4604B080BDC04660F02E4078002E400220000010002E4080B582B000AF054B1B68012213407B607B68181CBD4602B080BDC0460C002E4080B584B000AF021C5A
:402F40003960FB1D1A7080239B05FB60FB1D1B781F2B02D9002000F029F8FB1D1B7810339B00FA68D3181B68BB60FB1D1B7810339B00FA68D3183A681A60BB68181CBD46B7
:402F800004B080BD80B582B000AF021CFB1D1A70054BFA1D12781F210A40012191400A1C1A60BD4602B080BD00E100E080B582B000AF021CFB1D1A7001BEBD4602B080BD02
:402FC00080B582B000AF786009E00C4B1B68181C00F0A2F97B680A4A944663447B607A6880231B029A42F0D8064B1B687A685343181C00F091F9BD4602B080BD540C00201C
:403000000080FFFF4C0C002080B582B000AF021CBB1D1A80BB1D1B88044A12785343181C00F07AF9BD4602B080BDC046500C002080B500AF0E4B0E4A126801218A431A6088
:403040000B4B0B4A126802218A431A60094B094A126830218A4310210A431A60054B054A126807218A4301210A431A60BD4680BD00F02E4000FF2E4080B500AF0E4B0E4AF3
:40308000126802218A431A600C4B0C4A126807218A4302210A431A60084B084A126830218A4320210A431A60034B034A126801210A431A60BD4680BD00F02E4000FF2E40D8
:4030C00080B500AFFFF7B4FF044B044A1268802109060A431A60BD4680BDC04600F02E4080B584B000AF78600C4B1B6801221340FB607B68002B02D0012B03D005E0FFF7BC
:4031000097FF06E0FFF7B8FF03E00020FFF74EFFC046FB68181CBD4604B080BD00F02E4090B583B000AFFC1D00F0FFF8031C2370074B074A1268C02109020A431A60FB1D70
:403140001B78181C00F0F5F8BD4603B090BDC04600010B4080B500AF054B1A68C0231B02134001D0012300E00023181CBD4680BD00010B4090B583B000AFFC1D00F0D5F898
:40318000031C23700C4B0C4A12680C490A408021C9010A431A60084B074A126807490A40802109020A431A60FB1D1B78181C00F0C0F8BD4603B090BD00010B40FF3FFFFF28
:4031C00090B585B000AF78600B23FC1800F0ADF8031C2370FFF7BEFF031E04D00123FB60FFF7C8FF01E00023FB607B680D4A13407B600D4B0C4A12680C4911407A680A439D
:403200001A60094B1B68FB68012B01D1FFF788FF0B23FB181B78181C00F08BF8BD4605B090BDC0460404040010020B40FBFBFBFF80B500AF334B1B68042213401FD0324BB6
:403240001B680422134017D0304B1B6804221340DA432D4B1B681A402B4B1A602B4B1B68042293431A1C294B1A60294B1B68002B02D0274B1B6898470420FFF7A1FF214B8B
:403280001A688023DB00134022D01F4B1A688023DB00134017D01D4B1A688023DB001340DA43194B1B681A40174B1A60174B1B68184A1A40154B1A60154B5B68002B02D095
:4032C000134B5B6898478023DB00181CFFF778FF0C4B1A688023DB02134011D00A4B1A688023DB02134006D0094B9B68002B02D0074B9B6898478023DB02181CFFF760FF11
:40330000BD4680BD10020B40600C00203010002034100020FFFBFFFF0230800803D00138FDD1C046C046C0467047EFF3108072B6704780F31088704780B582B000AF78604A
:403340000A1CBB1C1A80BB1C1A887B681A60BD4602B080BD80B582B000AF78600A1CBB1C1A80BB1C1A887B681A60BD4602B080BD80B584B000AF494B1B78DBB21B02484A26
:403380001278D2B21343FB60464B1B78DBB21B02454A1278D2B21343BB60BB68434A934207D1FB68072B04D1414BBB600423FB6009E0BA68D4231B019A4204D1FB68042B21
:4033C00001D13B4BBB603B4BBA681A603A4BFA681A603A4B1B78DBB21B02394A1278D2B21343FB60FA6880239B019A4202D0FB68002B01D1334BFB60334BFA681A60334B73
:403400001B78DBB21B02324A1278D2B21343FB60FB68304A934206D0FB682F4A934202D0FB68052B01D12D4BFB602D4BFA681A602C4B1B681B097B602B4B1B68AA2B29D1BC
:403440007B68012B26D9214B1B78DBB20E2B21D1264B1B78DBB29BB21B0299B2244B1B78DBB29AB2BB1C0A431A80224BBA1C12881A60214B1B78DBB29BB21B0299B21F4BA6
:403480001B78DBB29AB23B1C0A431A801C4B3A1C12881A60BD4604B080BDC04659F1FF0F58F1FF0F5FF1FF0F5EF1FF0F580B0000580D00006C002E4074002E405BF1FF0F4F
:4034C0005AF1FF0F0220000078002E405DF1FF0F5CF1FF0F0F0F000005050000050F000080002E40EC0F00F0E00F00F06DF2FF0F6CF2FF0F84002E406FF2FF0F6EF2FF0F18
:4035000094002E4080B582B000AF021CBB1D1A80BB1D1B88181CFFF777FDBD4602B080BD80B582B000AF78607B68181CFFF748FDBD4602B080BDC04680B500AF00F0DEF8F6
:40354000BD4680BD80B500AF00F0E2F8BD4680BD80B500AF00F0DCF8044B181C00F09CF8032000F0A5F8BD4680BDC0465937000080B500AF024B181C00F07CF8BD4680BDDF
:403580005937000080B500AF014B181CBD4680BD0202000080B582B000AF78602B23181CBD4602B080BDC04680B582B000AF78602B23181CBD4602B080BDC04680B582B09C
:4035C00000AF78602B23181CBD4602B080BDC04680B582B000AF78602B23181CBD4602B080BDC04680B582B000AF78602B23181CBD4602B080BDC04680B582B000AF78600C
:403600002B23181CBD4602B080BDC04680B582B000AF78602B23181CBD4602B080BDC04680B582B000AF78602B23181CBD4602B080BDC04680B500AF2B23181CBD4680BD9A
:4036400080B582B000AF021CFB1D1A702B23181CBD4602B080BDC04680B582B000AF786039602B23181CBD4602B080BD80B500AFBD4680BD80B582B000AF786000F048F8BD
:403680007B68181C00F008F8032000F011F800F035F8BD4602B080BD80B582B000AF7860024B7A681A67BD4602B080BD0000002090B585B000AF021CFB1D1A700623FB60BB
:4036C0000B23FC18FFF731FE031C23700A4B0A4A1268C0218A43111CFA1D1078FA689040021C0A431A600B23FB181B78181CFFF720FEBD4605B090BD0CE400E080B500AF28
:40370000024B802252011A60BD4680BD00E100E080B500AF024B802252011A60BD4680BD80E100E090B583B000AFFC1DFFF7FDFD031C2370074B074A126804218A431A6040
:4037400030BFFB1D1B78181CFFF7F3FDBD4603B090BDC04610ED00E080B500AF11F0F0FEBD4680BD002243088B4274D303098B425FD3030A8B4244D3030B8B4228D3030C3A
:403780008B420DD3FF22090212BA030C8B4202D31212090265D0030B8B4219D300E0090AC30B8B4201D3CB03C01A5241830B8B4201D38B03C01A5241430B8B4201D34B0384
:4037C000C01A5241030B8B4201D30B03C01A5241C30A8B4201D3CB02C01A5241830A8B4201D38B02C01A5241430A8B4201D34B02C01A5241030A8B4201D30B02C01A524192
:40380000CDD2C3098B4201D3CB01C01A524183098B4201D38B01C01A524143098B4201D34B01C01A524103098B4201D30B01C01A5241C3088B4201D3CB00C01A5241830822
:403840008B4201D38B00C01A524143088B4201D34B00C01A5241411A00D20146524110467047FFE701B5002000F0FCF802BDC0460029F7D003B5FFF775FF0EBC4243891A8E
:403880001847C04603460B437FD4002243088B4274D303098B425FD3030A8B4244D3030B8B4228D3030C8B420DD3FF22090212BA030C8B4202D31212090265D0030B8B42C2
:4038C00019D300E0090AC30B8B4201D3CB03C01A5241830B8B4201D38B03C01A5241430B8B4201D34B03C01A5241030B8B4201D30B03C01A5241C30A8B4201D3CB02C01A2C
:403900005241830A8B4201D38B02C01A5241430A8B4201D34B02C01A5241030A8B4201D30B02C01A5241CDD2C3098B4201D3CB01C01A524183098B4201D38B01C01A524191
:4039400043098B4201D34B01C01A524103098B4201D30B01C01A5241C3088B4201D3CB00C01A524183088B4201D38B00C01A524143088B4201D34B00C01A5241411A00D2E2
:4039800001465241104670475DE0CA0F00D04942031000D34042534000229C4603098B422DD3030A8B4212D3FC22890112BA030A8B420CD3890192118B4208D389019211E9
:4039C0008B4204D389013AD0921100E08909C3098B4201D3CB01C01A524183098B4201D38B01C01A524143098B4201D34B01C01A524103098B4201D30B01C01A5241C30817
:403A00008B4201D3CB00C01A524183088B4201D38B00C01A5241D9D243088B4201D34B00C01A5241411A00D20146634652415B10104601D34042002B00D549427047634688
:403A40005B1000D3404201B5002000F00BF802BD0029F8D003B5FFF715FF0EBC4243891A1847C0467047C046014B18687047C046D40F00200E4B70B500251E1C0D4CE41A77
:403A8000A410A54204D0AB00F35898470135F8E712F0D0F8084B00251E1C084CE41AA410A54204D0AB00F35898470135F8E770BD405C0100405C0100405C0100485C0100DD
:403AC00030B50024944208D0035D651C0C5DA34201D0181B02E02C1CF4E7002030BD002310B5934203D0CC5CC4540133F9E710BD031C8218934202D019700133FAE7704764
:403B0000134A1088810703D08107890F401A001D11791030484381B25088820703D08207920F801A001D800040180A494030098980B2CA0701D0503080B2890706D5044996
:403B40005422091F09785143081880B2704700006A0C00205C10002010B501F0AFFE10BD10B500F055FA10BD10B50749044609780220002907D1204601F0F0FE002802D123
:403B800020460AF0BBFE10BDEE0D002070B504460120002C12D02368002B0FD0616800290CD0074D06222889208118462968FFF796FF6968606809780170002070BD0000E3
:403BC0005C100020FFB585B0002768460E9D07734F481C460078002802D0082009B0F0BD10990F9801900095029105A807C800F001F90028F2D16946264603AB84460873F5
:403C0000002C19D0002115E08A00B75A082F09D990198078002805D0083FB7521878401C187005E0002914D00027B75290198770491CC9B2A942E7D360460028CED10F98E8
:403C4000002809D0109901F0E9F9002804D00120C4E701208446EFE701F030FE2D480021416081600599016021888180022D07D3A1798171A17AC171A1890181218A4181E3
:403C800000211EE0481C19E082008B00A75AE65ABE46BE4211D26F463E80B4461E190296B678BE7001967646E6521719029EBB78B3706646A652019EBE70401CA842E3D39D
:403CC000491CA942DED3134822460C3000906846037B0799069800F015F90028B8D168460B4C007B60700B480C3001F017FE0028AED1084907480C3107F012FD0028A7D10C
:403D000007F02CFD0028A3D10121217066E70000640C002050100020F8B5054633480E460078002802D002242046F8BD002E5BD000242F49002D16D02A89D0070DD028683E
:403D4000002808D003881B3BE12B04D24088FB2801D81B2801D2012409E0900707D56868002804D1F7E70020088108604860002CDAD11F482F8907811C481B21801D018085
:403D800041800421017119490020891C0870F80705D016480622801D2968FFF7A0FE1449B80703D56A681148127882700F480D46801D0860001F486001F0F6FD0B48801D0B
:403DC00001F0E4FD28890DF015FE28890DF04AFF03461033FFF794FE1F21C018890140180249308088809FE701249DE7640C00205C100020FFB58446384F1C460020BB8813
:403E00003F78054602460646002F11D100290ED0029999420BD36146002908D0002C06D00A99002906D02E4B0B99994202D2012004B0F0BD002144E0AB001F19BF78002F58
:403E40003BD0E35A002B38D07B43591889B22B0000F04AF8050410161C253100A7782388BC46FF27233BEB37BB4222D26346032B1FD322E0A388002B1FD0302B19D31CE0A9
:403E80002389002B19D0282B13D316E0A289002A13D01346134F233BBB420AD20DE0268A002A0AD033460F4F233BBB4201D2964203D901200EE0002001E000280AD16D1CF3
:403EC000EDB2099B9D42B7D31C2463435B1802998B42ACD89642AAD8AAE70000640C002079020000BAFF000030B47446641E2578641CAB4200D21D46635D5B00E31830BCC1
:403F000018470000FFB583B0002469460C801F4606468C80002806D00598002803D004983043800701D0012466E0002FFBD03449049809888842F6D3FFF71AFBFFF702FB82
:403F400000F00EFC002855D100F05EFD002851D12C49084601F096F805042D0C4AD12A480499066081800021C18007810C98007AC00704D0684601F0BAFC040007D10C98D7
:403F8000007A800703D501A801F0BAFC0446BF1DFEB2002C20D13146059800F05DF804001AD10DF06DFE040016D16A461088928808368518144AF1B29088D288AEB293198E
:403FC000984207D3401B801A80B201F04BFB050007D000E0FF25012400F05AFA002D04D008E0F8B200F01CF9F6E700F07DFA07490120087000F0C6FB204607B0F0BD000026
:40400000680C00204541000068100020700C002010B503480078012801D101F0C5F910BD700C002070B5084B0446DA889E8800205518B54206D81D68AA182260DA88511857
:40404000D98070BD032070BD68100020014800897047000068100020F0B587B007460D4600208900009006916846FFF7DBFF844600285DD1304800990160002117E02E4BC4
:4040800088001A680629115406D22C4C0419667882185670628805E0C419203CA67A8218567022891B68C018491C4280C9B2A942E5D300242DE0601CC2B2059025E01E4FBC
:4040C000A30039689600581840887118039604904E88B04217D938466F46FE80B6464F786E4677710297049F4F800168039F5E18767879184E700168764659184E8000689B
:40410000029F18184770521CD2B2AA42D7D30598C4B2AC42CFD36046002809D168460699FFF780FF8446002802D1054900980860604607B0F0BD0000740C0020685C0100E0
:40414000780C00207047000010B5002809D005494A68002A05D0011F08788000105801F02FFA10BD740C002010B50446FFF76EFFC0B2801DA0420CD307484068002808D0D7
:40418000A100405801F08EF9002801D00470001D10BD002010BD0000740C0020F8B516460D460446FFF752FFC0B2801DA04203D20020C0430090F8BDB2B2E9B2684601F0B1
:4041C00097F90099481C03D0024AA000526811500098F8BD740C0020F8B50746FFF736FF801DC6B20A49002005460C680DE06178002907D06188B94202D32078FFF7B4FF3F
:40420000002804D1241D6D1CEDB2B542EFD3F8BD740C002010B5002801D0FFF795FF10BD70B506460948002504680BE06178002905D062882078121D0023FFF7AFFF241D27
:404240006D1CEDB2B542F1D370BD0000740C0020FFB581B00A9C16002BD000F0EFF80546042826D0214F002C0BD02046FFF7B4FF2901C919486000281BD022460499FFF766
:404280002EFC1A4928010E5046187481019805707D20029CC000444300F0BEF8074604280AD000F053FAA0420ED800F04FFA201A06E0FF2005B0F0BD204600F0ABFA002014
:4042C000F06035720020F5E700F040FA009000F0B7FA00980121001B009000F0EDF803493A0151180098C860E6E7000074100020F8B5060116483418217A042903D0E068D4
:40430000002802D017E00020F8BD00F01FFA054600F096FA00F0A0F804280CD001010C480F18F8680021451900F0C6F80020F860284600F06FFA6068054D002801D0FFF701
:4043400069FF042020720020A8516081E060DAE774100020FEB500266A46304601232549050169180D7A042D02D0C96800291BD000211154401CC0B20428F0D30024684684
:40438000005D002830D01B48210108184189476805680291002101604160042241810272C160002E02D015E01354E3E700F054F804280ED001010F4808180190C6680021F5
:4043C000304600F079F801980021C160304600F021FA0126002D07D038460299A847002F02D03846FFF716FF641CE4B2042CC6D3FEBD0000741000200EB5002005216A46D6
:404400000090118150810348694600680EF0ADFA0EBD00007C0C0020074A0020010189180B7A042B02D0C968002903D0401CC0B20428F3D3704700007410002005490020BF
:4044400002015218127A042A03D0401CC0B20428F6D370477410002030B50A4B04200A4C00210A011219157A042D06D0D268002A03D09A4201D808461346491CC9B20429E3
:40448000EFD330BDFFFF0000741000207047000030B50020074C05460423020111190B72A5504D60401C4D81C0B2CD600428F4D330BD00007410002030B5094C00231A0119
:4044C0001219157A042D04D0D568002906D02D18D5605B1CDBB2042BF1D330BD2D1AF7E774100020002070471CB5002469460C70142001902346054A05480EF03BFA04485A
:404500000068401C00D1FF2420461CBD654500007C0C00203EB5124A0146FF2000230124126800290DD0012914D0042908D104206946009308814B8110460EF016FA80B250
:404540003EBD6846009304814381694610460EF007FAF4E768460093048143816946EBE77C0C002070B545890468416800890300FFF7BAFC08280509091E222826280020C7
:4045800005F06CFE1EE0022908D0C8B22A4621460CF018FB2046FFF73DFE13E002202A4621460CF00FFB2946204600F00DF809E000200DF0C9FE05E02046FFF7CBFE01E030
:4045C000FFF754F8002070BD014B0022DB681847800C002070B5448905680089022803D0032809D0FF2070BD2246094C0023A46829460120A04708E0FFF7AEFA241DA2B2BD
:4046000000232946022006F054FF002070BD0000800C002070470000024800214160018041807047800C002070B50C46002186B016460391012802D0022859D116E003A96D
:40464000012006F07EFF01281BD1039D324621462846FFF744FA0095287801900220694608814E816846FFF7B5FF41E0214D002B686809D0049004A9022006F062FF0128E3
:404680001DD0022006B070BD002812D0298840182146FFF724FA28880024801980B228806988091D884206D12C801348FFF792FF03E00320E6E788421AD96C6018E00498FD
:4046C0006860E278A378110219430B4A698000231060E3565360032313815181A1788170E178C1706178417021780170042028800020C7E7800C0020B41000203EB5154625
:404700000C46022803D004280CD000203EBD0091019002206946088107484A8100680EF024F907E00CF04EFA044B0022DB6829462046984701203EBD7C0C0020800C0020EB
:40474000014AD16090607047800C0020034801688068081A0A21484300097047C010002010B5FEF7F5FE482204490548FFF7B7F903490120C870002010BD0000845C01007C
:40478000C414002010B5FEF7D7FE10BD70B5134C2368002B08D0207B1149C20705D04008400020738868A08070BD88680B4AA18880B29268814203D90A4D691A091802E092
:4047C000814202D2411A5118A160A080A0689842EAD30EF0E7F800F013F870BDC0100020C0102E40FFFF000010B508461946FFF7A7FF10BD704710B5FFF780FF10BD0000D4
:4048000003480021016041608160C16070470000C0100020024610B5FF20002A0CD0FFF7EFFF064C0321207B0843207310010A21FFF71EF82060002010BD0000C0100020B7
:4048400000B504480A21806848430209FFF7D8FF104600BDC01000200248007B8007C00F70470000C010002010B54B490868002802DA4A4B01221A700222904308604848FE
:4048800000694549C00B4031096A0246C907C90F0A4259D0012000F07FFA3F480E216C30FEF758FD3E4820218430FEF753FD3C4814219C30FEF74EFD3948FF21C131A430DB
:4048C000FEF748FD3648FF212F31B030FEF742FD33483449BC30FEF73DFD31483249AC30FEF738FD30492E48491CB430FEF732FD2B482E49B830FEF72DFD29482C49CC3030
:40490000FEF728FD26482B490830FEF723FD24482949A830FEF71EFD214828498830FEF719FD1F4826498C30FEF714FD1C481921C9029030FEF70EFDFEF71AFDFEF722FEE9
:40494000C0B2022812D01FE000290BD0002101420AD0114801216030FEF7FCFC0120FEF7DFFD97E70121F2E7FF2010BD15491648FEF7F0FC14481549001DFEF7EBFC12487F
:4049800000210830FEF7E6FC54200449C043891C0870002010BD000000F02E40900C002000002E40320300002F3F00003102000010520000EC160000FA12000031D000002A
:4049C0003AE300009956000080012E40F80F000070B50646581C80B245086D00002408E0304600F0A9F81055000A1119A41C4870A4B2AC42F4D3D80705D0D0182038D15C94
:404A0000C47FD454C17770BD10B5FF2000F0C4F90F49FF2048700E481021801D41800121417001700A490020C91C4870FFF71CFF04000AD100F010F907210648FEF77CFCE1
:404A4000044807211830FEF777FC204610BD0000900C0020CC112E4070B5002405465B1E0AE0284600F068F8010A161971702D1D1055A41CADB2A4B29C42F2DB9C4203D187
:404A8000284600F059F8105570BD000070B500210A4D5B1E0AE0541864782602545C344346193480001D891C80B289B29942F2DB994202D1515C4019018070BD00102E4054
:404AC000F0B50599091FCFB200217E1E0BE0541864782502545C2C43164D45192C80001D891C80B289B2B142F1DBFC0712D01C78515C24020F4A0C4381180C809C785D7837
:404B0000001D210280B2294384182180001D80B2D9780CE059781A7809021143054A84182180001DD9789B78090280B2194380180180F0BD00102E40014940180088704741
:404B400000102E4010B50B490020487000F084F8002000F047F9002000F034F907210648FEF7EAFB044807211830FEF7E5FB002010BD0000930C0020CC112E4010B50B46DF
:404B8000062812D006DC01280CD0032801D1FFF7D9FF10BD0A28FCD00B28FAD105480078107010BDFFF730FF10BD1146184600F035F910BD960C0020F8B5244DAC6A0127A8
:404BC000A007234E002816DA307806280ED1286A384328621F480069F903084381B21D481030FEF7B7FB042000F0D6F8174802212830FEF7A1FBE00718D000F0E1FE01288F
:404C00000FD1002000F02EFF062000F0C5F81049FF20C91E48707078002802D1686B384368630A4801212830FEF786FBE0050BD53078042802D1052000F0AEF80348FF219D
:404C400001312830FEF778FBF8BD000040F02E40930C002000002E4010B503212348FEF779FB0120FEF74EFC20483038406A204C80076178800F890001431C480C38FEF766
:404C800069FB6078002808D0401E022181401820FEF7DEFEC000083800E0B82081B21548FEF758FB1348032109021438FEF752FB10481149B830FEF74DFB612189010F488B
:404CC000FEF748FB0D480321001FFEF743FB0C490C48FEF73FFB0B480B496038FEF73AFB084801218838FEF735FB10BD70F02E40960C0020D8102E4090890000041E2E40BD
:404D0000FF0F000058122E40209000000849087806280BD148780749002803D1486B400840004863C86A01221043C86270470000930C002040F02E400148007870470000B2
:404D4000930C002000B50300FFF7CEF8080D050D0B070507090D012000BD032000BD042000BD022000BDFF2000BD0000074A9168D26889B2064B92B2994204D105498A422D
:404D800001D1012100E000210170704780002E4033D000003FE3000010B50446FEF7D2FB072C01D9FF2C01D102480470FEF7C4FB10BD0000930C0020014948707047000031
:404DC000900C002010B5064A012805D01921C9021046FEF7BFFA10BD1D21C902F8E7000090002E4010B50A4A141D012808D009491046FEF7AFFA08492046FEF7ABFA10BD79
:404E000004491046891CFEF7A5FA0349491DF3E788002E4031D000003AE3000070B50C460546FEF7AFFBC0B202280E49287804D0FF2810D04C280CD810E0FF2809D10A4A8A
:404E4000D0680004800F032801D0087807E09069000A553803E00878207070BD4F382070087070BD920C002000002E40F0B50122002830D000292ED00424420600D00524EC
:404E8000792342065B06D21800D0641C034600221EE00C2516466E43104D00277519AF720E4F002ABB51696007D0661EB24209D10B4E86197606760E05E05E06760E8027A8
:404EC000BE1B00E080269B198919521C2E81D2B2A242DED300221046F0BD00004C13002079020000074900200C2242435218927A012A05D0401CC0B20628F5D30020704774
:404F0000012070474C130020F8B50F000446164609D0184D18496868A04202D94018A04201D38E4201D90120F8BD39462046FEF7C7FD00281BD0324639462046FEF7CFFD2F
:404F4000F0B200210C224A43521913895668F718A74208D90127A41B1B1B9772834206DAC01A1469C0B2491CC9B20629EAD30020F8BD00004C1300207902000010B500F031
:404F80005DF80748054AC16806480C46FEF7A7FD04492046FFF76AFF10BD0000790200009C0C0020D0100020002070470020054A002902D0012902D002E0506000E09060DB
:404FC000002070479C0C002070B5084C154608460549A26889182A46FEF781FDA0684019A06028B270BD0000D01000209C0C00203EB50A226946FFF7E7FF044606480A2276
:4050000000686946FEF75CFD002802D00020C0433EBD20463EBD00009C0C0020002802D0044A914201D2FF20704703490A61C86000207047790200009C0C002002480021A2
:4050400041608160704700009C0C002070B5074C15460548626880182A46FFF755FF60684019606028B270BDD01000209C0C002010B503490A220968FFF7E8FF10BD0000EB
:405080009C0C002010B50F4A002313600E4A13600E4B18600E4801600E49012008600E490860000290600E490C4808600D4914300860FF381538506000F0BCF800F0CAF9F0
:4050C000002010BDC80C0020B00C0020DC0C0020E00C0020CC0C0020BC0C002094140020C00C0020D40C0020014610B50020002910D0094B1A689C685118A14209D2586855
:40510000196080188A0704D08A07920F891A091D196010BD002010BDB00C0020F8B50024164E671E321F3D463168136806E01422624310328A58521C1BD0641C9C42F6D3E8
:405140006A1C14D02C461422544322460C3288500C214843FFF7C8FF3168002808510AD031680020103408517068401C70602846F8BD2546E4E73846F8BD0000C00C0020CD
:40518000F3B50026F64381B000281BDB1E490968884217D80299002914D01B4F142204463F1D54432546396810354859401C09D0FEF7C8F938682F1F4159C359994203DB49
:4051C000FEF7BAF93046FEBD214608310091465801590C20704308180C220299FEF77FFC0948761C001D0068C159B14200D100260549009A091D865008684159491C415124
:40520000FEF79AF90020FEBDBC0C0020002803DB07490968884202D90020C043704704491422091D096850431030085870470000BC0C0020F0B500200D4A451E0346171FF3
:4052400050600FE014260146714314680E1DA3510C461668083433511668083435511468401C635039688842ECD30020F0BD0000C00C0020F3B50026F64381B0002841DB05
:405280002349096888423DD8029900293AD0204F142204463F1D54432546396810354859401C2FD0FEF74EF93868415900292BD0211D009146580C21005971430F46C119C5
:4052C0000C220298FEF70BFC11480021001D0068761C00590C34C0190160416081600C48001D00680159B14200D100260849009A091D865008684159491E4151FEF71CF9F3
:405300000020FEBD3046FEBDFEF716F9FAE70000BC0C0020FEB504460D4600201E49089E0860471E009001900290002C11D0486885420ED2002A0CD0002E0AD0642E08D8B3
:4053400008460C3001681C2068430C18207A002801D03846FEBD0120226020721846FFF7DDFE6060401C13D06681A6810A4827610C3067610179A94200D205710021684698
:4053800001810A462846029B00F040F82846FEBD00202072DDE70000C80C002038B50124009400F039F838BDFEB50027164EFF433D4600240EE01C20316860430818017A71
:4053C000002906D04068FFF721FF002801D0254603E0641C3079A042EDDA681C12D01C2130684D434419FEF7ADF869466068FFF741FF0546FEF7A0F8002DD9D12168684682
:405400008847D5E7FEBD0000D40C002038B50024009400F001F838BD1FB500220C49541E0A60002811DB496888420ED808491C220C31096850430818406801A9FFF7A0FE31
:40544000401C02D0002004B010BD2046FBE70000C80C0020F0B50021114A4D1E174611710C3F0B46BD6016E008461C2460431668041D355114680646235014680836A355C4
:405480001468361DA353044616680A34335318301468491C255078688142E5D30020F0BDD40C002038B500210091002811DB0F49097888420DDA0D4D04010C352968085906
:4054C000002807D0201D0818694600F06FF9002801D0002038BDFEF735F828680F34015D491E0155FEF728F8009838BDE40C0020F7B582B0002502986E1E06602E48D21C86
:40550000024017462D4A2C4610460C380178106805E02301C358002B0FD0641CE4B28C42F7D3711C28D03401211D40180191039900F02AF900281FD101E02646F1E71F4847
:40554000016820460C300F521C480399026820460E30115419480399026820460F3011540398784300F0A0F8144900280968085102D00024009011E001251AE00F48016857
:4055800001980818009900F02CF9002801D0012502E00098C0190090641CE4B203988442ECD3002D05D10298066004480179491C0171284605B0F0BDFCFF0000F00C0020C5
:4055C000F8B50D4600216A468C461180002839DB23490978884235DA214B04010C3319680A59002A2ED020460C300B5A801C0E5C184670438018954224D3854222D200205A
:4056000006E007465F43BF18AF4206D0401CC0B2B042F6D36046002814D0114E271DC8190C366A46294600F006F900280AD168460088012808D030682946C01900F0D1F815
:40564000002803D00120F8BD0020F8BDFDF77AFF30680F34015D491C0155FDF76DFFF3E7E40C0020F8B50F46002400F031F8002817D10C4900220B460C334A600EE02101C9
:405680001D680E466A501D680C36AA53B61C1D680F31AA551D68641C6A54E4B2BC42EED31A71F8BDE40C002000280BD0C01C074A81085068890053884118994203D89368B6
:4056C000516018187047002070470000E40C0020F8B5064600200F4D009029700C0121466846FEF79FFC00280CD129460C3100980860301B001F84B221466846FEF792FCF2
:40570000002801D0FF20F8BD6C800098A8600020F8BD0000E40C0020F8B5002827DB19490978884223DA174C05010C342168485900281CD028460C30085A009028460E307B
:405740000E5C401C0E5420682F1DC01900F064F800280CD12068002445590EE0094829460C300068C01900F03CF8002801D00120F8BD00982D18641CE4B2B442EED30020D1
:40578000F8BD0000E40C002030B50D4604000BD0A800FFF789FF6060002805D000202570C0436080002030BD012030BD70B50D46040005D0002D03D00220205E002801DA83
:4057C000012070BDFDF7BEFE0221615E60688900405828606088401E6080FDF7ADFE002070BD70B50D46040007D0002D05D002212078615E401E814201DB012070BDFDF738
:40580000A1FE6088401C00B26080616880000D50FDF792FE002070BD10B5040009D0227800216068FEF764F90020C0436080002010BD012010BDF0B500231D46002802D002
:405840000224045F0AE00120F0BD46689F00F6598E4201D1012503E05B1CDBB29C42F4DA15700020F0BD00000148007870470000F80C00207CB505460024FEF76DF9A879E6
:405880006946087000A8062229460130FEF727F90021684604F0A8FF0C2806D0072806D01F2806D0122806D006E0022404E0042402E0272400E0012420467CBD10B500F0F8
:4058C00075F9FFF739FAFFF73DFA10BD70B504460025FEF741F9002C06D0A079012803D8214602F0F5FC00E00125284670BD01460120002902D05020088000207047000018
:4059000001460120002905D003485422007850430880002070470000FA0C002010B502460D49FE204870032410460DF041FB002810D10DF0E5FA00280CD105F05FFE00285D
:4059400008D100F04FFB002804D105F01DFA002800D10024204610BDF80C002070B50025044600280ED0A07901280BD8FEF7F4F8A0790028204602D002F0EEFF03E002F0CA
:40598000C3FF00E00125284670BD0000014610B50120002904D006220248FEF7A0F8002010BD0000040D002001460120002903D0087802490870002070470000FA0C002099
:4059C0000148007970470000CC15002038B504460120002C20D0617801291DD800290BD0FF25E535FEF7B8F80C4828180088C0B22070072803D00EE0FF25CD35F2E70020AD
:405A0000694608706846FFF7B1F969460878012801D108202070002038BD000000102E40014A002192681047F80C002008B500226B461A7026280CD0094A342852680BD013
:405A4000352805D1900703D50021352005F0A8FE08BD19462620F9E7D007F9D03420F5E7F80C00200149087170470000CC150020F8B504460120002C26D06178012902D9A2
:405A80002278092A20D8002905D0FF25E5352078092803D004E0FF25CD35F8E708202070FEF75AF82078114F114E08280DD00020FFF798F970780128207810D00D496918F6
:405AC0000880FE2070700020F8BD0120FFF78AF90720B8810549203188800120F2E7B8810248217820308180EBE70000C0112E40F80C002000102E4070B50E46050001D041
:405B0000002400E00C4C002C11D0E28A500609D5D107C90F022002F0F9FFE08A40218843E08204E0D107C90F012002F0EFFF3146284602F0D3FC70BD2C150020F8B50546E7
:405B4000002004460D4E009013E022466946284600F09AFE0098002801D00DF00BFAA878214602F007FBA878214602F0F5FA641CE4B2308AA042E8D8F8BD0000F01500200E
:405B8000064A02235188891C89B25180814201D8102900D953805088704700000A0D002001484078704700000A0D002038B51E4CFFF7C2F8042813D0052811D0062812D07C
:405BC00003282AD007280AD100206946087002460120FEF7D3FFFFF7AFF80128FBD138BD00F0D5FB38BD02F031FB00F0D0FB02F091FB8007800F0228F4D10C484188002921
:405C0000F0D05B21095D0029ECD101210170A07D0140022002F07AFF38BD02F01BFB0120FFF7BAF838BD00002C1500200E0D0020F8B50646002402F0C7FF0546304602F07F
:405C4000DDFF03460A480021068A0DE001228A401046174628401F40002803D0002F01D1224394B2491CC9B28E42EFD82046F8BDF01500201CB50020694648706846FFF74E
:405C8000A5FE01AA69460A20FEF778FF6946042008561CBD70B50D4601F09CF904000BD02079002808D0FDF757FFE178A0782A4602F0AAFC002070BD022070BD01480078B1
:405CC00070470000041500204030C07E002800D00120704700B500F001F800BD902148430749084A40186030417F491CC9B24177D289914201D300214177C8B270470000B1
:405D00000C150020F015002013B501F063F904000BD001F026FE002807D0214601AA0A310620FEF72BFF00201CBD02201CBD000010B50C4601F04EF900280AD001F011FE1E
:405D4000002806D0224604490A20FEF717FF002010BD022010BD0000ED140020F3B581B0074601460026029802F026FF0446002F01D0002500E0154D002D21D0284601F0CC
:405D80005FF9032C04D13946029802F071FF06463846029902F0E0F9032C06D0002C10D00121384601F0FCFA03E03146384603F0F3F8284602F0D8F80221284602F0EEF8F5
:405DC000FEBD3846029902F0C7F9FEBD2C15002010B5044600F0C4FA002804D104F07AF8002801D00C2010BD2078611C02F008FDFF2801D01F2010BD02F04EFDFF280AD0A1
:405E00002178621C02F03EF9044821780068026B601C904710BD072010BD00002C0D002010B504F057F8002801D00C2010BD02F0C9FC03480068C06A8047002010BD0000B9
:405E40002C0D002070B50D46044610210CF0D2FF1021601806460CF0CDFF334610221946204604F065F8102130460CF0C3FF02202870204604F0ACFE70BD0000F8B5044644
:405E80004078217802028006870FE0781143A67809050002090D0643084601F09BF800210546F2B2002812D0002C10D0022F0ED0032F0CD0002A0AD00279092A07D0002A70
:405EC00005D0134A5A23527E1B5C9A4207D82889002104F073FD20460DF04CF8FF21002914D10C48224600682946436930469847C0B2FF280AD128464030817EF2B2491CF8
:405F00008176FF232146284600F009F9F8BD0000C4140020480D00200020704710B5044603F0D8FF002801D00C2010BD2078611C02F066FCFF2808D002F0AAFB04482178D9
:405F40000068426B601C904710BD1F2010BD00002C0D002010B500F09DF904F015FF002010BD000010B504460F4801F023FD012817D00D4805222146A830FDF7B0FD0A4911
:405F80000522A8310846B838FDF7A9FD00F030FD054880222038C17B1143C17300F0B0F910BD3A2010BD00002C15002010B5044600786178E2780843A1781143084321799C
:405FC00008436179084305D003F076FF002803D00C2010BD122010BD204602F0BDFC002010BD000010B5FDF7CDFA02F00FFE044803F0FEFF02F056FB012000F003F810BD2C
:40600000D4140020F1B586B003A8009005A8019028489F22817A114081726846FDF7B6FD002845D169460989C90705D0224806990068C2686846904769460989890706D54E
:40604000002835D11D480068816A0698884700282ED11B4E0025757075737571F575357675767575B570F570B5713746F5730120C83738731F20F880FF2130467972A03013
:406080000176457603F08AFC01F04CFC00242046069901F0F9FB002803D1641C2406240EF5D0FD720649BD72B573C0310D600D7107B0F0BDC4140020480D00202C0D002036
:4060C0000C15002070B505460E46084602F07CFD0446304602F092FD0121A9400A46224001400A4301D0012070BD002070BD10B50446084602F082FD0121A140014201D005
:40610000012010BD002010BD10B5FEF715FE032804D102F09FF80120FEF73EFE10BDFEB51C4616460F46054601F01EFFA878FFF7D1FD02460190334639460094284600F049
:406140000DF8002808D1A8780199FFF7D5FCFF2C02D138460CF00EFFFEBD0000FFB585B005460E980C46FF2810D02B49C00009680A5840180179C0795278814201D9012685
:4061800001E09006860F6846038108E06078A1788006860FE0780002014368460181284601F0F4FB070007D021462846079A00F017FB384609B0F0BD304600F0FDFB04AE47
:4061C0000346039002AA29460096204600F003FA3C20405D002818D0284601F0D7FB012813D0684600890096C0B20190A878231DFF22079902F026F968460089039BC2B22E
:40620000A878079902F06AFCD3E7684600890021C0B20091E9E70000440D0020F8B5104F002500242846FFF703FD060012D00EE03046E040C007C00F07D02146284601F098
:4062400083FF21462846FFF789FD641CE4B2388AA042EDD86D1C2D062D0EE2D0F8BD0000F015002070B50024094D03E0002C01D0002000E028464121095C012901D100F0A9
:4062800068FA641C2406240EF0D000F039F870BD2C15002010B502F005FA0020FFF7B2FE0CF0FEFE002010BDF8B5002403F012FB012800D10224114F00203E462036012361
:4062C0000425082203E0002801D0002100E031460979002907D001290BD002290BD0114681402143CCB2401C0006000EEBD07C70F8BD1C43F7E72C43F5E700000C150020DB
:4063000070B5144E0024F07BC00921D03546203503E0002C01D0002000E0284601F02CFB012814D0641C2406240EF2D0F07B4006400EF073002403E0002C01D0002000E046
:40634000284600F006FA641C2406240EF4D0002070BD00000C15002010B5FFF7A5FF10BD10B5044604F0EDFE002802D1601C00F001F810BD1CB50024009406226946019455
:40638000FDF79EFB002800D1122420461CBD10B5FCF7CBFF0446FEF7CFFC012809D0FEF7CBFC022805D0FDF7BDF92046FCF7C1FFEEE72046FCF7BDFF10BD10B50B4681790F
:4063C0001943817103D08078114602F03FFB10BD10B582798A43827102D1807802F04AFB10BD00000346084800B5834209D8184600F0F0FD002804D00089984201D1012064
:4064000000BD002000BD0000FF0E0000074A9179491C8906890E917138220A4092014907090E114308430249084070470C150020FF0E0000C006C00E70470000F8B50746B3
:406440000E4600240D4803E0002C01D0002500E005462979002905D0641C2406240EF3D00020F8BD0021204601F00EFA2E712046FFF7CCFF28813C700120F8BD2C15002039
:40648000F7B53D20405C88B015460C46002802D02878042802D200200BB0F0BD6946087200262046FFF710FC012800D00126204603A938300191009023460327A17E3433A4
:4064C0003246206A03F0B4FD02A8089900900B46019120463A4603A9243003F009FD02466846007A2870204601F0BAF91046D3E7FFB587B00C4605461078694608723D20A1
:40650000005D1746002826D000262046FFF7DCFB012800D00126204603A93830019100902346A17E34333246206A03F081FD02A80090291D019120462B1D03A924300A9AA8
:4065400003F0D6FC02006846007A388002D1204601F086F910460BB0F0BDF0B505463C20405C89B016460C4600280CD0307869460873002806D000272046FFF7A5FB01281E
:4065800003D003E01F2009B0F0BD012703200890204604A93830019100902346E17E34333A46E06903F044FD6846007B03A928180290009120462B46019504A92430089A8C
:4065C00003F0CAFC02466846007B3070204601F051F91046D7E7FFB505463C20405C89B016460C46002810D0084601F0CFF901280BD0308869468883002809D0002720462B
:40660000FFF762FB012805D005E000200DB0F0BD0220FBE70127204603A93830019100902346E17E34333A46E06903F001FD291D2B1D07A8129A6D4607C5204603A924301B
:406640000C9A03F089FC02466846808B3080204601F010F91046D9E710B518490446484028D0002101231A468A40904221D0491C2029F8D300212046C840C243520618D066
:40668000400616D0491C1929F5D3A0B2210C020AC3B2884201D193420BD01F21204600F090F9182805D8A00E062100F08AF9022801D2002010BD012010BD0000D6BE898EEC
:4066C000002801D0002000E003484030C07F012800D00020704700002C1500200146002049070ED50021084B03E0002901D0002200E01A461279022A04D0491C0906090E13
:40670000F3D07047012070472C1500200146002049070ED50021084B03E0002901D0002200E01A461279022A04D0491C0906090EF3D07047012070472C15002010B5044681
:4067400080346068002803D00CF028FC0020606010BD38B50546002000902846FFF7B4FA01281FD1284601F0FCF800281AD028792C46C01E40340300FDF7B6FB070505112E
:40678000110511141100284601F006F9012806D068460CF095FB002805D0012008E060780028FAD038BD2846009902F039FD0220607038BD40308170704770B5054640351E
:4067C00028780C46052904D0002C05D1801E022802D8022002F0B4FE2C7070BD0171704792001018C166704710B5002801D0002000E00348002802D0008904F053F910BD18
:406800002C15002010B5002801D0002000E00448002804D00179072901D100F08BF810BD2C15002010B54121095C012901D1FFF790FF002010BD000070B50546008A0028B8
:406840001ED01049F122897A1140C90618D5294640314A8A098A521C4A4392B2D10800D10121540801E0621A94B2A042FBD9FEF7FBFF012804D1298AA878224601F06AFE26
:4068800070BD0000C414002010B50023054C0B60248A944204D992001018C26E0A60C36610BD0000F0150020FEB506460020009001908020855968460CF002FB002801D0E1
:4068C0000720FEBD20213046009FFFF781FD34464034A08AE080608AA080208A2081304602F094FEA88C218A884207D1288A618A884203D1688AA18A884203D0F079202105
:406900000843F071688AA082288A6082A88C2082E98CE182FFF734F9E081208AFFF740F960733946304602F0A3FC0120A0700198FEBD000038B5044600200090A0790028F2
:4069400014D14020015D052901D00E290ED168460CF0B6FA002809D12046009902F06AFD03481021C28A2046FFF727FD38BD0000C414002010B50446807802F077FE2046A2
:4069800001F080F9002010BD10B50B4604460146184602F0A1F9002802D020460CF0F4FA10BD13B5044601AA11460620FEF7E6F86846818861811CBD002800D10220704787
:4069C000704770B500231A46491E0CE00446D440E507ED0F541C0646E640F407E40FA54200D05B1C521C8A42F0D3D8B270BD000030B50021124C0A46A05C002308E0C50766
:406A000001D0491CC9B201290AD840085B1CDBB20028F4D1012903D8521CD2B2052AEBD302290BD207488118C87B0122082B03D29A400243D0B200E01043C87330BD000022
:406A4000D41500200C1500207FB504468034616805460E46183108226846FDF740F831462031082202A8FDF73AF8102168460CF0C1F96068102108300CF0BCF960682B4673
:406A8000083024331022694603F052FA7FBD10B504460821FFF79CFC10212046FFF798FC2079052822D0062820D008281DD12189002003F069FF072020712046FFF704F9DA
:406AC000012819D00E212046FFF777FE002158200155204601F05CF92046FFF72FFE2046FFF7AAFE2046FFF79DFE10BD20890122002103F02DFFDEE70521E4E7FFB581B0F1
:406B00001F4604460821FFF763FC10212046FFF75FFC2079082803D0092804D0042503E00425012601E009250026204600F010FF00212046FFF741FE25712046FFF7FEFD00
:406B40000398002E02D0012808D00BE001280AD120890022029903F0FBFE04E02189029803F012FF01272046002140300176012F07D0204601F00CF92046FFF753FE05B0B1
:406B8000F0BD02990173204602F097FC054605480121C28A2046FFF710FC002DEFD109202071ECE7C414002070B50C460546FFF78BF8012809D108212846FFF709FC00235B
:406BC000012221462846FFF799FF70BD10B5044600F0BEFE2046FFF7B1FD00212046FFF7ECFD10BD70B505461A24FFF76DF8012809D108212846FFF7EBFB002301222146BE
:406C00002846FFF77BFF70BD38B505460021684600910CF055F9002801D00D2038BD2846009C00F0E5FE2146284602F0ADFB06480821C28A2846FFF7C0FB06212846FFF793
:406C4000BCFD002038BD0000C4140020F8B50446002000900E4668460CF032F9002801D00D20F8BD204604213430009D00F0ADF9842000590821183000F0A7F9012E02D181
:406C8000204600F0B5FE2946204602F037FB06480821C28A2046FFF790FB02212046FFF78CFD0020F8BD0000C414002010B50446FFF7CAFE03212046FFF77FFD204601F033
:406CC00053F910BD10B50021FFF7C0FF10BD000038B504460021684600910CF0F1F8002811D12046009A00F033FE1146204602F056FB05480821C28A2046FFF75EFB0721CD
:406D00002046FFF75AFD38BDC414002038B504460021684600910CF0D3F8002810D12046009902F0BFFB07480821C28A2046FFF744FB04212046FFF740FD204601F014F920
:406D400038BD0000C414002010B5FFF7A0FE10BD00787047F8B5002569460D70002801D0002400E01E4C002C18D0204600F0F9FD002813D0207903280BD005280CD02646ED
:406D80004036B18AA07801F059FEB078012806D01CE0042020711CE006202071F8BD0021204601F0C9FF274680373868002802D00CF0F4F83D600020B0702046FFF732FD34
:406DC0002079072802D12046FFF736FD20790428E4D1207A694608703420FEF727FEF8BD2C15002010B54C22115400F04CF810BD10B50446FF21FFF7EBFA09202071A07835
:406E000001F042FE10BD000038B5FF216A461180002801D0002400E0084C002C0DD011460620FDF7ABFE684601882046FFF7B9FD03480068C1692046884738BD2C150020E1
:406E4000480D002010B504468079002809D022214C200155FF212046FFF7BAFA204600F012F810BD10B5037902464032002B03D01173092B02D003E0002100E02221117304
:406E800000F001F810BDFEB50446008900270090278120792646403600281AD0012818D0022816D0002002F04BFB09E002AA01A9204601F0FFFE002807D101980CF064F8AD
:406EC000204601F01FFF0028F0D02046FEF736FEB776254680352868002802D00CF05EF82F606868002802D00CF058F86F60317B002916D0009800F061F8A078002101F043
:406F00007DF9A07801F056FAA07800F02FFFFF212046FFF75DFA0B20FFF71EFA00F0CAFDFEBD1F213173E5E7F8B517460E46054603F03EF804003CD020460C3001F0F0F9C0
:406F40002046062200211830FCF7D2FD2046062200211230FCF7CCFD1648224600683946436A28469847074626702846FEF7ACFE012148406070002D10D02889608028468E
:406F80004030C1782171002E0FD169796171018AE180418A2181808A608106E00648008BC005C00F2071002060803946204603F06EFCF8BD2C0D002000102E400A4610B5C9
:406FC0000146002003F086FD10BD10B50BF0EEFC10BD000000B50146FFF72CFA002801D0002000E00348002802D002898A4200D0002000BD2C15002038B504468034606802
:40700000002806D168460BF06BFF002801D100986060606838BD000010B5014600F0B6FC0128887802D0FEF759FE10BD90214843024940186030007F10BD00000C15002071
:4070400070B5054604464035A87F012811D1A1789020084A484380186030067F3046FFF731F8002805D10220A877A078314601F03FFA70BD0C15002010B50C4CA07A002802
:4070800013D0FFF7CBF80A48027F417F408B00F025FD012809D10020A07201F005F905498989090B01D000F023FB10BDD41500200C150020A0102E4070477047490510B597
:4070C000490F0B00FCF710FF060704080C0C0F073E21FFF787FE10BD0821FFF7C3FE10BDFFF7D1FE10BDFFF7ADFE10BDF8B507460025002D01D0002600E0204E01F094F882
:407100003046403044890021418101F097F8304600F027FC01282BD1A00702D52846FFF719FEE00602D52846FFF76EFEA00601D5FFF774F8600601D500F04EFC200602D5B4
:40714000284600F01DF8600702D5284600F036FB380402D52846FFF755FB780402D52846FFF742FBE00703D021463046FFF7A6FF6D1C2D062D0EBCD0F8BD00002C15002049
:40718000F8B5002801D0002400E0144C002C23D025464035A87801281ED1FF278820493700593E46002805D00D49897A890601D5878AC68A2046FEF787FD01280CD10096CC
:4071C000E88A2A8A3B46014602F0FEF9E882A2780146104601F078FBF8BD00002C150020C41400200149096809680847480D002070B505460088FFF7EDFE04002AD000F06E
:40720000B0FB002826D02079092823D0204600F0D1FB012820D02046FEF756FD0646E07920210843E071204601F09EFD002815D0294600F08BFE4220005D002810D0232567
