:400000000080002011000000F1020000F102000008B500F08DF9C04638B51222224B1A6000F028FD214800F023FE012000F042FD302000F039FC1E4A1E4B1A601E4C80253A
:40004000ED0525601D4A116802230B4313601C4A1C4B1A6000221C4B1A601C4A136808218B431360FA20C00000F0D0FC184800F011FC184A184B1A60184A194B1A6080229A
:400080001206184B1A608022D202174B1A604022164B1A600820164900F0D2FB082000F0C3FB256038BDC04630001040001BB7000600008004010B400C020B4078002E40BB
:4000C0002D3E00007C002E4064F02E406CF02E40DC050000007FBB000003014040FF00800000014008010B4000010B402C010140CD0B000010B572B60022334B1A600132A0
:40010000324B1A70002410E0314863001A195200821891881B195B001A5AC31858880004104300F07DF90134E4B2012CECD92849081C0C30303100F049F9EE221206254B5C
:400140001A600223244A13609922120423490A6023490A6023490A6023490A6080218902224A1160224A1360224A1360224A1360224A1078022101431170214C21783C20F2
:400180008143283801432170107816210143117044211C4A117005391B4A11601B491C4A116001221B490A601B490B60C02040031A4908601A490A601A4A1360FFF72CFFB4
:4001C00000F01EF910BDC0466CF02E401C700F40141A0000000002400003024000500F4010500F4020500F4030500F4038500F403C500F402000104000800F4000700F403F
:4002000001700F40DB320F40000004409224D90008000440000104400801044008020440000304400803044010B5064C2378002B07D1054B002B02D0044800E000BF0123FC
:40024000237010BD5001002000000000081A000008B5084B002B03D00748084900E000BF07480368002B00D108BD064B002BFBD09847F9E700000000081A00005401002026
:40028000C80000200000000000B595B062B600F0F3F90122012A08D1012000F001FA114800F0E0FA00F040F900220F4B1B78002BF0D000F055F9002000F0F2F968460021E7
:4002C000502200F098FF002000F0C8F900F0ECFE021C0B1C6846054900F096FF014800F0C1FAD6E7B80B0000C00100200C1A000008B500F04BFF03680C2B00D1FEE7FEE7E5
:4003000008B5031C084A1068C318084A9A1A802A02DC054A136005E000F038FF0C2303600120404208BDC046CC000020C801002070B50F4E0F4D13E029686B68AC680022A0
:4003400002E001C901C30432A242FAD1E868002202E0002102C304328242FAD11035013E002EE9D100F018FFFFF78EFFFEE7C04601000000181D000008B50F4A136801215F
:400380008B43136000230AE0032B03D89A000B49505800E00A4899000A4A885001332F2BF2D9FFF7A7FE0022074B1A60024A116801230B43136008BD0000104000000000B8
:4003C000F102000000000020C0000020F0B50025002711E0BB00C658F3B2FF22964308E06A008A181478A419527822700135013BDBB2002BF4D10137082FEBD9F0BDC04642
:400400000323044A1360044A13600022034B1A607047C0463000304030003140000E3F4008B50A1C002100F0E6FE08BD0122014B1A707047C001002008B5142000F02AFA6C
:40044000FF2000F0ABF9002000F036F90A2000F021FA012000F030F9052000F01BFA002000F09CF9002000F027F900F02BF908BD10B5041C142000F00DFA002000F01CF90E
:40048000002C03D1322000F005FA02E00A2000F001FA012000F010F910BDC04638B5051CFF2000F07BF9002407E02B1C234101201840FFF7DDFF0134E4B2072CF5D938BDC4
:4004C00010B5002408E0A3001548C0181549042200F088FE0134E4B2072CF4D9002000F0EBF8FF2000F05AF9F020400000F0D2F9012000F0E1F8052000F0CCF9002000F05A
:400500004DF9002000F0D8F8372000F0C3F900F0D9F8041CC82000F0BDF9E043C0B210BDA0010020B01B000008B5FFF7C9FF031E094A107003D10121084A11700AE0CC2027
:40054000FFF7ACFF4420FFF7A9FF012000F02CF9014B1B78181C08BDC1010020C001002070B588B0002300930193029303930493059306930793344B1D78EDB2002D60D0C3
:4005800000221A70314B1D78002D5AD0FFF798FF051E2E4B187054D0002308E0291C19419A00012001406A4491700133DBB2002BF4D0CC20FFF772FFBE20FFF76FFF002494
:4005C00019E0FFF739FF002311E09A006A449278002A0AD0021C1A4101210A40A24099006E468E5B32436E468A530133DBB2002BEBD00134E4B20B2CE3D900241FE0211CA2
:40060000A3006B449B78002B0CD0A3006A469B5A0F4A93420AD9A2000E48844663446846135203E0A3000B4A68461A5289000A4840186944042200F0D5FD0134E4B2072CBE
:40064000DDD9281C08B070BDC0010020C1010020FF07000000F0FFFFA001002008B58000044B185E00F0D8FCF621890500F0A2FB08BDC046A001002008B5064800F0BEF8EE
:40068000054800F045F800F079F80022034B1A7008BDC0462D040000EE020000C001002004490A68BF231A4080017F3B184010430860704700020440014B18707047C046C1
:4006C00070000F40014B1878C0B2704762000F40024A117880230B431370704772000F40014B18707047C04683000F40014B1878C0B2704763000F40014B18807047C04609
:4007000044100F40014B188880B2704784100F40014B18807047C04604100F40024A117810230B431370704772000F4008B501E0FFF7E8FFFFF7DAFF0307F9D408BDC0461D
:4007400010B50C4C201CFFF7D7FF201CFFF7E0FF00F097FA084A117810230B43137000F094FAFFF7DBFFFFF7E1FF0020FFF7B8FF10BDC046ED02000093000F4008B5064B40
:400780001B78002B04D1FFF7DBFF0122024B1A70FFF79EFF08BDC0466C010020014B18707047C04673000F40014B18707047C04671000F40014B58647047C0460000002068
:4007C00010B5041C00F05DFA044A1168044B0B40A4031C43146000F058FA10BD00E400E0FF3FFFFF0222014B1A60704700E100E00222014B1A60704780E100E010B5041CBA
:40080000FFF7F6FF201CFFF7D5FF0320FFF7D8FFFFF7E8FF10BDC046024B1B68012018407047C0460C002E401F2318401E3B8340181C014B1860704700E100E001BE70470B
:4008400038B5041C0D1C1F2802D90020FFF7F6FFA400034B9C4664442068256038BDC0464000002010B5041C06E0084B586800F0FFF9074B9C46644480231B029C42F4D825
:40088000024B9868604300F0F3F910BDD00000200080FFFF08B5034B1B7B584300F0E8F908BDC046D0000020F0B557464E46C0B483B0041C00F0E5F90190E71E2D2F74D8C0
:4008C0003F4B1B78DBB2A34208D33E4B1B78DBB29A463D4B1B78DBB2994631E03B4B1B78DBB2A34208D33A4B1B78DBB29A46394B1B78DBB2994623E0374B1B78DBB2A34275
:4009000008D3364B1B78DBB29A46354B1B78DBB2994615E0334B1B78DBB2A34208D3324B1B78DBB29A46314B1B78DBB2994607E02F4B1B78DBB29A462E4B1B78DBB29946B8
:400940002D4BDE5D2F2E09D92A2C07D919222B4B1A60052000F08CF9192503E0274B1D683F231D40AE4206D2234BDA5D234B1A60052000F07DF91F4B9C4664442378DBB2B7
:400980001F4A13601F4B52461A601F4B4A461A600520FFF77FFFAE420AD9174BDA5D174B1A60052000F064F902E00020FFF746FF019800F06AF903B00CBC91469A46F0BD10
:4009C00040F3FF0F41F3FF0F42F3FF0F43F3FF0F44F3FF0F45F3FF0F46F3FF0F47F3FF0F48F3FF0F49F3FF0F4AF3FF0F4BF3FF0F4CF3FF0F4DF3FF0F4C1C00002CFF0B4030
:400A000028FF0B401CFF0B4020FF0B4010B5041C0F4A116801230B4313600E4A0E4B1A600E4A1368802109020B431360002809D100200CE00120FFF72DFFFFF7EDFE002813
:400A400004D1013C002CF5D1102000E0002010BD60F02E400220000078002E4010002E40034B1868C0231B02184000D00120704700010B4010B50D4B1A6801218A431A600F
:400A80001A68022082431A60094A10683024A043203C204310601068093CA043014311601A68802109060A431A6010BD00F02E4000FF2E4038B51D4B1B6801241C400028BB
:400AC00002D0012816D02BE0184B19680122914319601968022081431960154B19682E3081432038014319601968093881430A431A6018E00D4B1A6802218A431A600C4ADF
:400B000010680725A84301431160116830208143103801431160196801220A431A6002E00020FFF78BFE201C38BDC04600F02E4000FF2E4008B500F0A4F8044A1368C02106
:400B400009020B43136000F0A0F808BD00010B4010B500F096F808490A68084B1A408024E40122430A600A6813408022120213430B6000F08AF810BD00010B40FF3FFFFF02
:400B800070B5061C00F07DF8041CFFF769FF002803D0FFF7DDFF012500E000250848331C0340084A106808490840184310601368012D01D1FFF7BEFF201C00F066F870BD1E
:400BC0000404040010020B40FBFBFBFF10B5244B1B685B0715D5234B5B685B070ED5224B596A042001401F4C62688A4362605A6A82435A629B69002B00D098470420FFF78D
:400C0000BFFF174B1B685B0518D5164B5B685B0510D5154B596A8022D2001140114842688A434260596A114A0A405A62DB69002B00D098478020C000FFF7A2FF084B1B68F2
:400C40005B030CD5074B5B685B0304D5064B1B6A002B00D098478020C002FFF791FF10BD10020B40E400002070010020FFFBFFFF0230800803D00138FDD1C046C046C046F4
:400C80007047EFF3108072B6704780F310887047002243088B4274D303098B425FD3030A8B4244D3030B8B4228D3030C8B420DD3FF22090212BA030C8B4202D31212090283
:400CC00065D0030B8B4219D300E0090AC30B8B4201D3CB03C01A5241830B8B4201D38B03C01A5241430B8B4201D34B03C01A5241030B8B4201D30B03C01A5241C30A8B42C3
:400D000001D3CB02C01A5241830A8B4201D38B02C01A5241430A8B4201D34B02C01A5241030A8B4201D30B02C01A5241CDD2C3098B4201D3CB01C01A524183098B4201D33B
:400D40008B01C01A524143098B4201D34B01C01A524103098B4201D30B01C01A5241C3088B4201D3CB00C01A524183088B4201D38B00C01A524143088B4201D34B00C01AD5
:400D80005241411A00D20146524110467047FFE701B5002000F00CF802BDC0460029F7D003B5FFF775FF0EBC4243891A1847C0467047C046F0B55F4656464D464446F0B44A
:400DC00045024600C40F83B00F1C6D0A360EA34645D0FF2E25D080231B041D4300239A46ED007F3E01937B025B0A98467800FB0F000E994640D0FF2838D0802342461B043F
:400E00001343DB00984600237F384A46019F30186240411C1F430F2F69D87D4EBF00F659B746002D45D108230193063B9A46DAE793465346022B2FD15B46012400251C40D1
:400E4000FF236D02DB056D0AE4071D432543281C03B03CBC90469946A246AB46F0BD002D2CD104230193033B9A46BCE743465A4253410322D31AC8E742460123002AC4D023
:400E8000404600F065F94246431F9A4076235B42181A90460023B8E7032B00D1ADE0012B00D08CE05B4654461C40E4B200230025C7E70C230193093B9A4694E7281C00F0ED
:400EC00047F97626431F9D4000237642361A01939A4688E780250024ED03FF23B1E74546CB469A46A5E7454693469A46A1E743462C041B0C9C46230C444626041C1C360C63
:400F00002F0C7443351C66467D4373437743EB18260C9E19B54203D980235B029C46674424043304240C1B199D016C1EA5419B0E360C2B43BD19AD011D432B0104D501230F
:400F400068081D400543081C031C7F33002B2CDD690704D00F212940042900D00435290103D52C4B1D40031C8033FE2B17DD0124FF231440002564E78020C003054209D0CD
:400F80004346034206D1454605436D026D0A4C46FF2356E705436D026D0AFF2351E70124AD016D0ADBB214404BE77E235B421B1A1B2B07DD012400231440002541E7081C53
:400FC0005A46C1E79E30291C8540D940681E85410D436B0704D00F232B40042B00D004356B0104D5012401231440002529E70124AD016D0A1440002323E78023DB031D433E
:4010000001245B466D0223401C1C6D0AFF2318E77C1C0000FFFFFFF770B5041E39D0C50F00D04442201C00F093F89E23261C1B1A962B07DC082801DD083884406402640AC9
:40104000D8B21EE0992B0ADD0522211C121AD1400A1C011C1B318E40711E8E411643052801DD421F96400F4C3440720704D00F221640042E00D0043462010ED4A401640A11
:40108000D8B26402C005640AED0704432C43201C70BD002500200024F3E7024B1C409F231B1AEBE7FFFFFFFB4200120E511C38B5C9B243025D0AC40F012915DDE0218900F1
:4010C0008C466D071B0B62440021281C0D0D2D052B431C4D52052B40520813435B00E4075B082343191C38BD002A15D1002D1FD0281C00F02DF80A281DDC0B232A1C1B1A52
:40110000DA40131C021C153295400F4A1B03121A52051B0B520DD7E7002D06D080221B0B120313436D07094ACEE7084A0023CBE700220023C8E7031C0B3B9D402B1C002574
:40114000E3E7C046FFFF0F8089030000FF0700001C2101231B04984201D3000C10391B0A984201D3000A08391B09984201D30009043902A2105C40187047C0460403020297
:40118000010101010000000000000000014B18687047C0464C0100200E4B70B500251E1C0D4CE41AA410A54204D0AB00F35898470135F8E700F09EFD084B00251E1C084C17
:4011C000E41AA410A54204D0AB00F35898470135F8E770BD001D0000001D0000001D0000081D0000002310B5934203D0CC5CC4540133F9E710BD031C8218934202D0197055
:401200000133FAE7704700000EB410B59DB002A9029008610B48822488604861012040421FABC881084804CBA400006801938C8100F06CF80023029A13701DB010BC08BC69
:4012400003B01847FFFFFF7F4C010020F0B58E6885B0071C0C1C03920193B34245D390238A89DB001A423DD003250969236801985B1A029363695D43EB0F5D19029B6D105A
:4012800001331B189D4200D21D1C381C53050FD5291C00F01DFB061E13D0029A2169FFF7A1FFA289184B134080221343A38111E02A1C00F065FB061E0CD1381C216900F0EA
:4012C000C1FA0C23402201203B60A38940421343A38117E0029B2661F61826606561019EED1AA560019BB34200D2019E321C2068039900F092FA0020A3689B1BA36023683F
:401300009E19266005B0F0BD7FFBFFFFF0B59FB0029005938B890E1C171C1B0610D50B69002B0DD1402100F0D3FA30603061002804D10C23029A01381360D0E040237361EA
:40134000002306AD6B6120336B761033AB763C1C2378002B03D1E31B049312D003E0252BF9D00134F4E7049B0298311C3A1CFFF76DFF431C00D1ACE06A69049B94466344D1
:401380006B612378002B00D1A3E00122002352426A6002A95432521801342B60EB60AB601370AB654F4F2178381C052200F02AFA002808D0C01B01278740381C2B680134B3
:4013C00018432860EEE72B68DA0604D55322202102A8121811701A0704D553222B2102A81218117022782A2A01D0099B0EE0059A111D12680591002A01DB099204E0524287
:40140000EA60022213432B60013409E02278303A092A04D80A214B4301349B18F6E7099323782E2B18D163782A2B09D1059B02341A1D1B680592002B0DDA01235B420AE047
:40144000002301342278303A092A04D80A214B4301349B18F6E70793234F2178381C032200F0D0F9002807D0C01B40278740381C2B6801341843286021781C480622671CFD
:40148000297600F0BFF9002812D0194B002B06D10722059B073393430833059314E005AB00930298291C321C124B00E000BF07E005AB00930298291C321C0E4B00F08AF847
:4014C0000390039B013304D06B69039A9B186B613DE7B3890B985B0601D5012040421FB0F0BDC046BE1C0000C41C0000C81C0000000000004D120000F7B5171C01930A6981
:401500008B6800900C1C934200DA131C221C3B6043321278002A01D001333B6023689B0602D53B6802333B60062523681D401ED0231C43331B785A1E9341226892061CD562
:401540003020E1184031C870211C5A1C45310978A21840320233D1700FE0221C0123009801991932089EB047431C0ED00135E3683A689B1A9D42F0DBDAE7221C00980199D2
:401580004332089DA847431C02D10120404220E006232068E1683A6803400025042B03D18D1AEB43DB171D40A3682269934201DD9B1AED180027AF420ADA221C0123009829
:4015C00001991A32089EB047431CDED00137F2E70020FEBDF0B58BB006920A1C43320793059004920A7E0C1C109B6E2A00D1A8E011D8632A22D009D8002A00D1B2E0582AF3
:4016000000D0C2E045310A707C4A4FE0642A1DD0692A1BD0B9E0732A00D1A7E009D86F2A29D0702A00D0B0E0202209680A43226037E0752A1FD0782A33D0A6E00E1C1A6861
:401640004236111D196013683370A1E021681A68080606D4490604D5111D19600023D55E02E0111D19601568002D3BDA2D23049A6D42137036E021681A68080606D44906D4
:4016800004D51568111D1960ADB202E0111D196015685A4B227E03930A276F2A1DD108271BE0221C782145321170554A19680392081D226818600D68100602D4500600D5D4
:4016C000ADB2D30702D520231A4322601027002D03D1202322689A432260231C002243331A7002E00A27454B03936368A360002B03DB0422216891432160002D02D1049E3D
:40170000002B0ED0049E281C391CFFF747FB039B013E5B5C281C3370391CFFF7B9FA051EF1D1082F09D12368DB0706D563682269934202DC3023013E3370049B9B1B23615F
:401740002BE009681A68080607D4490605D5111D19601368A28A1A8004E0111D1960136862691A600023049E236116E01A68111D196016680021301C626800F043F80028B6
:4017800001D0801B6060636803E0261C42363270012323610023049A1370079B05980093211C069B09AAFFF7A7FE431C02D10120404221E0236905980699321C079DA8478A
:4017C000431CF4D023689B0705D4099BE068984212DA181C10E00025E368099A9B1A9D42F3DA221C0123059806991932079EB047431CDCD00135EFE70BB0F0BDCF1C000087
:40180000E01C0000C9B28218904204D003788B4202D00130F8E70020704710B5814208D28B18984205D29B1A013A09D3995C8154FAE70023934203D0CC5CC4540133F9E7A4
:4018400010BD000030B500293ED004390B68002B00DAC9181D4A1368141C002B02D14B60116031E099420DD208680A189A4203D11368C3180B6053684B60216024E08A4238
:4018800003D8131C5A68002AF9D11D685C198C420BD10968691858181960904214D110685268091819605A600EE08C4202D90C23036009E008680C18944203D11468526826
:4018C000001908604A60596030BDC0469C010020032370B5CC1C9C430834051C0C2C01D20C2405E0002C03DA0C2300202B6042E08C42F9D3204A1368101C191C002913D0D4
:401900000A68121B0DD40B2A02D90A608B181FE08B4202D15A6802601BE04A685A600B1C17E00B1C4968E9E7144E3368002B03D1281C00F04BF83060281C211C00F046F868
:40194000031C421CD0D00322C61C964386420AD11C60181C07210B301A1D8843821A0AD05142995007E0311A281C00F02FF8431CBAD0331CECE770BD9C0100209801002085
:40198000F8B5061C0C1C151C002904D1111CFFF79FFF041C18E0002A03D1FFF753FF2C1C12E000F025F8A8420ED2301C291CFFF78FFF071E07D0211C2A1CFFF713FC301CEC
:4019C000211CFFF73FFF3C1C201CF8BD38B50023064C051C081C2360FEF792FC431C03D12368002B00D02B6038BDC046C40100200B1F1A68101F002A04DA891804390B6828
:401A0000D01804387047000000000000252E32660D0A000000300F40000400400F40000403000F400C300F4007310F4050320F403D330F4004410F4002420F400A430F40FC
:401A400002600F4070017301830D5B045F018201B601B820BE10D201D301D610D804DB04DF0104021E021F3068016C018801C0100210030E0404064007010B080C080E40E7
:401A80000F0D100E11041280140216411A6F1B011C101D0C223E230428FE2E7F2F0130C03101320E33023430350C360137013E403F404015410449FF4AFF4BFF4F0150187F
:401AC0005290580459045A045B045F016040624064406540668068806A806C806E80C015C104C5ECC720C823C9FFCAFFCBFFCD83CE03CF01D018D401DA04DB04DF05E0402A
:401B0000E240E440E540E680E880EA80EC80EE8004020502060107200D080E47152016821D881E442512268027602E012F02350237603C823D203E044182458249054A029C
:401B40004E025203530259455C8A5D1061406280644A6722698074417682792080808512884889108B208D408F2190029320A201A320C0B0C2F0C4D0CA90CCB0CEF0D0990B
:401B8000D218D6FBD8F0DE04E6016D808540DA80E2408840E00103403008584083408C089840C008CC02D401E40801011001000000F000000C1C0000101C0000141C0000E2
:401BC000181C00001C1C0000201C0000241C0000281C00002C1C0000301C0000341C0000381C00003C1C0000401C0000441C0000481C000039383736353433323130313299
:401C000033343536373839002D0000002E3030002E3036002E3133002E3139002E3235002E3331002E3338002E3434002E3530002E3536002E3633002E3639002E37350061
:401C40002E3831002E3838002E393400030405060708090A0B0C0E0F101112131415161718191B1C1D1E1F2021222325262728292A2B2E2F3031323334350000EE0E0000A8
:401C8000E60E0000E60E0000DE0E0000300E0000300E0000D40E0000DE0E0000300E0000D40E0000300E0000DE0E0000320E0000320E0000320E0000780F00004300232DE2
:401CC000302B2000686C4C006566674546470030313233343536373839414243444546003031323334353637383961626364656600000000F8B5C046F8BC08BC9E4670477B
:401D00005102000079030000F8B5C046F8BC08BC9E46704729020000281D0000C8000020880000007800000000000000C8010020010000000000C05D80BB00003000000044
:401D4000006CDC02F0000000040404000000000000000000000000000000000000000000000000000000000000000000BC1C00000000000000000000000000000000000045
:401D80000000000000000000000000000000000000000000000000000000000000000000000000000000000000000000EC0000200000000000000000000000000000000017
:401DC00000000000000000000000000000000000000000000000000000000000000000000000000000000000000000000000000000000000000000000000000000000000E3
:401E000000000000000000000000000000000000000000000000000000000000000000000000000000000000000000000000000000000000000000000000000000000000A2
:401E40000000000000000000000000000000000000000000000000000000000000000000000000000000000000000000000000000000000000000000000000000000000062
:401E80000000000000000000000000000000000000000000000000000000000000000000000000000000000000000000000000000000000000000000000000000000000022
:020000040003F7
:0200000490303A
:02000000688C0A
:0200000490402A
:4000000000000000000000000000000000000000000000000000000000000000000000000000000000000000000000000000000000000000000000000000000000000000C0
:400040000000000000000000000000000000000000000000000000000000000000000000000000000000000000000000000000000000000000000000000000000000000080
:0200000490501A
:0C00000000021A1711AA00011A207A361B
:0200000490600A
:0100000001FE
:00000001FF