:400000000080002011000000090300000903000008B500F081F9C04638B51222264B1A6000F062FD254800F0F7FE012000F07CFD302000F073FC224A224B1A60224C80257E
:40004000ED052560214A116802230B431360204A204B1A600022204B1A60204A136808218B431360FA20C00000F00AFD1C4800F04BFC1C4A1C4B1A601C4B1D4A1A608821F6
:4000800089011C4A11601C4A1A60802212061B4B1A608022D2021A4B1A604122194B1A60013A194B1A600820184900F01BFC082000F00CFC256038BD30001040001BB7003A
:4000C0000600008004010B400C020B4078002E402D3E00007C002E4064F02E406CF02E40DC050000007FBB00040301400000014041FF00800003014040FF008008010B404F
:4001000000010B402C01014004010140410C000010B572B60022364B1A600132354B1A70002410E0344863001A195200821891881B195B001A5AC31858880004104300F0FB
:4001400063F90134E4B2012CECD92B49081C0C30303100F02FF9EE221206284B1A6099221204274B1A60022326490B6026490A6026490A6026490A6026490A6080218902B8
:40018000254A1160254A1360254A1360254A1360254A1078022101431170244C21783C208143283801432170107816210143117044211F4A117005391E4A11601E491F4AC2
:4001C000116021211E4A11601E491F4A116020211E4A1160C02149031D4A116001211D4A11601D4A1360FFF717FF00F0FDF810BD6CF02E401C700F40D410000000000240B6
:40020000000102400003024000500F4010500F4020500F4030500F4038500F403C500F402000104000800F4000700F4001700F40DB320F40000004409224D900080004406F
:400240000001044002100300080104401801044008020440000304400803044010B5064C2378002B07D1054B002B02D0044800E000BF0123237010BD5001002000000000B4
:40028000CC10000008B5084B002B03D00748084900E000BF07480368002B00D108BD064B002BFBD09847F9E700000000CC10000054010020C80000200000000008B562B686
:4002C00000F02CFA00F022FD0122012A05D1012000F038FA00F01CF90022094B1B78002BF3D000F031F9002000F02CFA002000F0D7F900F083FD034800F080FDE4E7C0464D
:40030000BC010020D010000008B500F095FE03680C2B00D1FEE7FEE770B50F4E0F4D13E029686B68AC68002202E001C901C30432A242FAD1E868002202E0002102C3043253
:400340008242FAD11035013E002EE9D100F07AFEFFF7B4FFFEE7C046010000006413000008B50F4A136801218B43136000230AE0032B03D89A000B49505800E00A489900A3
:400380000A4A885001332F2BF2D9FFF7C1FE0022074B1A60024A116801230B43136008BD00001040000000000903000000000020C0000020F0B50025002711E0BB00C6588F
:4003C000F3B2FF22964308E06A008A181478A419527822700135013BDBB2002BF4D10137082FEBD9F0BDC0460323044A1360044A13600022034B1A607047C0463000304001
:4004000030003140000E3F4008B50A1C002100F048FE08BD0122014B1A707047BC01002008B5142000F070FAFF2000F009FA002000F094F90A2000F067FA012000F08EF9F5
:40044000052000F061FA002000F0FAF9002000F085F900F089F908BD10B5041C142000F053FA002000F07AF9002C03D1322000F04BFA02E00A2000F047FA012000F06EF92F
:4004800010BDC04638B5051CFF2000F0D9F9002407E02B1C234101201840FFF7DDFF0134E4B2072CF5D938BD10B5002408E0A3001548C0181549042200F0EAFD0134E4B2E9
:4004C000072CF4D9002000F049F9FF2000F0B8F9F020400000F018FA012000F03FF9052000F012FA002000F0ABF9002000F036F9372000F009FA00F037F9041CC82000F0D9
:4005000003FAE043C0B210BD9C0100207012000008B5FFF7C9FF031E094A107003D10121084A11700AE0CC20FFF7ACFF4420FFF7A9FF012000F08AF9014B1B78181C08BD00
:40054000BD010020BC01002070B588B0002300930193029303930493059306930793344B1D78EDB2002D60D000221A70314B1D78002D5AD0FFF798FF051E2E4B187054D093
:40058000002308E0291C19419A00012001406A4491700133DBB2002BF4D0CC20FFF772FFBE20FFF76FFF002419E0FFF739FF002311E09A006A449278002A0AD0021C1A4173
:4005C00001210A40A24099006E468E5B32436E468A530133DBB2002BEBD00134E4B20B2CE3D900241FE0211CA3006B449B78002B0CD0A3006A469B5A0F4A93420AD9A20045
:400600000E48844663446846135203E0A3000B4A68461A5289000A4840186944042200F037FD0134E4B2072CDDD9281C08B070BDBC010020BD010020FF07000000F0FFFF35
:400640009C01002070B5041C0D1C0E1C01E00E1C041C201C0A2100F0FDFB711C0A235B424343221C0932D3180C4AD35C33700028EDD1002C02DAB11C2D2373704A1E0023C9
:400680000B702B1C05E011781878107019700133013A9342F7D3281C70BDC046B412000010B586B002AA002302930393049313738300174AD3189B78002B25D08000105A28
:4006C000C30B02D000B2404200E000B20F2404400011002B08D040426946FFF7B3FF011C02A800F0E6FC06E06946FFF7ABFF011C02A800F0DEFCA400064B1C19616802A834
:4007000000F0D7FC02A800E0034806B010BDC0469C01002070120000C812000008B5064800F0BEF8054800F045F800F079F80022034B1A7008BDC04615040000EE02000025
:40074000BC01002004490A68BF231A4080017F3B184010430860704700020440014B18707047C04670000F40014B1878C0B2704762000F40024A117880230B431370704750
:4007800072000F40014B18707047C04683000F40014B1878C0B2704763000F40014B18807047C04644100F40014B188880B2704784100F40014B18807047C04604100F405E
:4007C000024A117810230B431370704772000F4008B501E0FFF7E8FFFFF7DAFF0307F9D408BDC04610B50C4C201CFFF7D7FF201CFFF7E0FF00F019FB084A117810230B4326
:40080000137000F016FBFFF7DBFFFFF7E1FF0020FFF7B8FF10BDC046ED02000093000F4008B5064B1B78002B04D1FFF7DBFF0122024B1A70FFF79EFF08BDC0466C010020C7
:40084000014B18707047C04673000F40014B18707047C04671000F40014B58647047C0460000002010B5041C00F0DFFA044A1168044B0B40A4031C43146000F0DAFA10BDD5
:4008800000E400E0FF3FFFFF0222014B1A60704700E100E00222014B1A60704780E100E010B5041CFFF7F6FF201CFFF7D5FF0320FFF7D8FFFFF7E8FF10BDC046024B1B68AE
:4008C000012018407047C0460C002E401F2318401E3B8340181C014B1860704700E100E001BE704738B5041C0D1C1F2802D90020FFF7F6FFA400034B9C46644420682560C0
:4009000038BDC0464000002008B5034B1B7B584300F082FA08BDC046CC000020F0B557464E46C0B483B0041C00F07FFA0190E71E2D2F74D83F4B1B78DBB2A34208D33E4BC6
:400940001B78DBB29A463D4B1B78DBB2994631E03B4B1B78DBB2A34208D33A4B1B78DBB29A46394B1B78DBB2994623E0374B1B78DBB2A34208D3364B1B78DBB29A46354B0B
:400980001B78DBB2994615E0334B1B78DBB2A34208D3324B1B78DBB29A46314B1B78DBB2994607E02F4B1B78DBB29A462E4B1B78DBB299462D4BDE5D2F2E09D92A2C07D9EC
:4009C00019222B4B1A60052000F026FA192503E0274B1D683F231D40AE4206D2234BDA5D234B1A60052000F017FA1F4B9C4664442378DBB21F4A13601F4B52461A601F4B67
:400A00004A461A600520FFF77FFFAE420AD9174BDA5D174B1A60052000F0FEF902E00020FFF75EFF019800F004FA03B00CBC91469A46F0BD40F3FF0F41F3FF0F42F3FF0F3E
:400A400043F3FF0F44F3FF0F45F3FF0F46F3FF0F47F3FF0F48F3FF0F49F3FF0F4AF3FF0F4BF3FF0F4CF3FF0F4DF3FF0F0C1300002CFF0B4028FF0B401CFF0B4020FF0B407C
:400A800010B5041C0F4A116801230B4313600E4A0E4B1A600E4A1368802109020B431360002809D100200CE00120FFF72DFFFFF705FF002804D1013C002CF5D1102000E0A8
:400AC000002010BD60F02E400220000078002E4010002E40034B1868C0231B02184000D00120704700010B4010B50D4B1A6801218A431A601A68022082431A60094A1068F5
:400B00003024A043203C204310601068093CA043014311601A68802109060A431A6010BD00F02E4000FF2E4038B51D4B1B6801241C40002802D0012816D02BE0184B196818
:400B40000122914319601968022081431960154B19682E3081432038014319601968093881430A431A6018E00D4B1A6802218A431A600C4A10680725A84301431160116871
:400B800030208143103801431160196801220A431A6002E00020FFF7A3FE201C38BDC04600F02E4000FF2E4008B500F03EF9044A1368C02109020B43136000F03AF908BDDC
:400BC00000010B4010B500F030F908490A68084B1A408024E40122430A600A6813408022120213430B6000F024F910BD00010B40FF3FFFFF70B5061C00F017F9041CFFF708
:400C000069FF002803D0FFF7DDFF012500E000250848331C0340084A106808490840184310601368012D01D1FFF7BEFF201C00F000F970BD0404040010020B40FBFBFBFF6B
:400C400010B5244B1B685B0715D5234B5B685B070ED5224B596A042001401F4C62688A4362605A6A82435A629B69002B00D098470420FFF7BFFF174B1B685B0518D5164B14
:400C80005B685B0510D5154B596A8022D2001140114842688A434260596A114A0A405A62DB69002B00D098478020C000FFF7A2FF084B1B685B030CD5074B5B685B0304D538
:400CC000064B1B6A002B00D098478020C002FFF791FF10BD10020B40E000002070010020FFFBFFFF08B500F073F808BD08B500F01DF808BD08B5044A1368802109060B43C1
:400D00001360FFF7EFFF08BD0000244008B5064B1B78002B04D1FFF7E9FF0122024B1A70FFF7E8FF08BDC0469801002010B5154A154B1A600023154A13600121144A116075
:400D4000144A15480260072414480460144803601448016014490A60144A13600421144A1160144A1360144A1360144A1360144A1360144A1360144A13601268134B1A800B
:400D800010BDC0460B0000020000244040002440480024400700008000032440040324401003244044002440000224400402244050002440880E2440C80E2440480F2440B4
:400DC000080F2440C80F2440880F24409A010020064A1168064B0B40902109040B431360044B1A88044B1A607047C04600010240FFFF0FFF9A010020880F244038B5051C19
:400E0000002402E000F018F80134285D0028F9D138BDC046000000000230800803D00138FDD1C046C046C0467047EFF3108072B6704780F310887047044B1B681F2213402F
:400E4000082BF9D0024B18607047C046080224404002244003460B437FD4002243088B4274D303098B425FD3030A8B4244D3030B8B4228D3030C8B420DD3FF22090212BAEF
:400E8000030C8B4202D31212090265D0030B8B4219D300E0090AC30B8B4201D3CB03C01A5241830B8B4201D38B03C01A5241430B8B4201D34B03C01A5241030B8B4201D336
:400EC0000B03C01A5241C30A8B4201D3CB02C01A5241830A8B4201D38B02C01A5241430A8B4201D34B02C01A5241030A8B4201D30B02C01A5241CDD2C3098B4201D3CB01FF
:400F0000C01A524183098B4201D38B01C01A524143098B4201D34B01C01A524103098B4201D30B01C01A5241C3088B4201D3CB00C01A524183088B4201D38B00C01A52418A
:400F400043088B4201D34B00C01A5241411A00D201465241104670475DE0CA0F00D04942031000D34042534000229C4603098B422DD3030A8B4212D3FC22890112BA030A30
:400F80008B420CD3890192118B4208D3890192118B4204D389013AD0921100E08909C3098B4201D3CB01C01A524183098B4201D38B01C01A524143098B4201D34B01C01A57
:400FC000524103098B4201D30B01C01A5241C3088B4201D3CB00C01A524183088B4201D38B00C01A5241D9D243088B4201D34B00C01A5241411A00D20146634652415B1006
:40100000104601D34042002B00D54942704763465B1000D3404201B5002000F00BF802BD0029F8D003B5FFF715FF0EBC4243891A1847C0467047C046014B18687047C04681
:40104000480100200E4B70B500251E1C0D4CE41AA410A54204D0AB00F35898470135F8E700F06EF9084B00251E1C084CE41AA410A54204D0AB00F35898470135F8E770BD99
:401080004C1300004C1300004C13000054130000002310B5934203D0CC5CC4540133F9E710BD031C8218934202D019700133FAE77047021C10B51378002B01D00132FAE7C8
:4010C000CC5CD4540133002CFAD110BD000000000D0A000000300F40000400400F40000403000F400C300F4007310F4050320F403D330F4004410F4002420F400A430F40C4
:4011000002600F4070017301830D5B045F018201B601B820BE10D201D301D610D804DB04DF0104021E021F3068016C018801C0100210030E0404064007010B080C080E4030
:401140000F0D100E11041280140216411A6F1B011C101D0C223E230428FE2E7F2F0130C03101320E33023430350C360137013E403F404015410449FF4AFF4BFF4F015018C8
:401180005290580459045A045B045F016040624064406540668068806A806C806E80C015C104C5ECC720C823C9FFCAFFCBFFCD83CE03CF01D018D401DA04DB04DF05E04073
:4011C000E240E440E540E680E880EA80EC80EE8004020502060107200D080E47152016821D881E442512268027602E012F02350237603C823D203E044182458249054A02E6
:401200004E025203530259455C8A5D1061406280644A6722698074417682792080808512884889108B208D408F2190029320A201A320C0B0C2F0C4D0CA90CCB0CEF0D09954
:40124000D218D6FBD8F0DE04E6016D808540DA80E2408840E00103403008584083408C089840C008CC02D401E40801011001000000F00000CC120000D0120000D412000009
:40128000D8120000DC120000E0120000E4120000E8120000EC120000F0120000F4120000F8120000FC120000001300000413000008130000393837363534333231303132A1
:4012C00033343536373839002D0000002E3030002E3036002E3133002E3139002E3235002E3331002E3338002E3434002E3530002E3536002E3633002E3639002E373500AB
:401300002E3831002E3838002E393400030405060708090A0B0C0E0F101112131415161718191B1C1D1E1F2021222325262728292A2B2E2F303132333435000043000000AA
:40134000F8B5C046F8BC08BC9E4670478502000061030000F8B5C046F8BC08BC9E4670475D02000078130000C800002088000000700000000000000000000000010000002B
:401380000000C05D80BB000030000000006CDC02F00000000404040000000000000000000000000000000000000000000000000000000000000000003C1300000000000010
:4013C0000000000000000000000000000000000000000000000000000000000000000000000000000000000000000000000000000000000000000000E800002000000000E5
:4014000000000000000000000000000000000000000000000000000000000000000000000000000000000000000000000000000000000000000000000000000000000000AC
:40144000000000000000000000000000000000000000000000000000000000000000000000000000000000000000000000000000000000000000000000000000000000006C
:40148000000000000000000000000000000000000000000000000000000000000000000000000000000000000000000000000000000000000000000000000000000000002C
:4014C00000000000000000000000000000000000000000000000000000000000000000000000000000000000000000000000000000000000000000000000000000000000EC
:020000040003F7
:0200000490303A
:020000003E556B
:0200000490402A
:4000000000000000000000000000000000000000000000000000000000000000000000000000000000000000000000000000000000000000000000000000000000000000C0
:400040000000000000000000000000000000000000000000000000000000000000000000000000000000000000000000000000000000000000000000000000000000000080
:0200000490501A
:0C00000000021A1711AA00011A1D4FFF80
:0200000490600A
:0100000001FE
:00000001FF